{
  "contractName": "DeadStock",
  "abi": [
    {
      "inputs": [
        {
          "internalType": "address",
          "name": "owner",
          "type": "address"
        }
      ],
      "stateMutability": "nonpayable",
      "type": "constructor"
    },
    {
      "inputs": [
        {
          "internalType": "string",
          "name": "",
          "type": "string"
        }
      ],
      "name": "approvalMap",
      "outputs": [
        {
          "internalType": "string",
          "name": "TranHash",
          "type": "string"
        }
      ],
      "stateMutability": "view",
      "type": "function"
    },
    {
      "inputs": [],
      "name": "creator",
      "outputs": [
        {
          "internalType": "address",
          "name": "",
          "type": "address"
        }
      ],
      "stateMutability": "view",
      "type": "function"
    },
    {
      "inputs": [
        {
          "internalType": "uint256",
          "name": "",
          "type": "uint256"
        }
      ],
      "name": "roleList",
      "outputs": [
        {
          "internalType": "uint256",
          "name": "number",
          "type": "uint256"
        },
        {
          "internalType": "string",
          "name": "role",
          "type": "string"
        },
        {
          "internalType": "string",
          "name": "name",
          "type": "string"
        }
      ],
      "stateMutability": "view",
      "type": "function"
    },
    {
      "inputs": [
        {
          "internalType": "string",
          "name": "",
          "type": "string"
        }
      ],
      "name": "roleMap",
      "outputs": [
        {
          "internalType": "uint256",
          "name": "number",
          "type": "uint256"
        },
        {
          "internalType": "string",
          "name": "role",
          "type": "string"
        },
        {
          "internalType": "string",
          "name": "name",
          "type": "string"
        }
      ],
      "stateMutability": "view",
      "type": "function"
    },
    {
      "inputs": [],
      "name": "transaction",
      "outputs": [
        {
          "internalType": "address",
          "name": "",
          "type": "address"
        }
      ],
      "stateMutability": "view",
      "type": "function"
    },
    {
      "inputs": [
        {
          "internalType": "uint256",
          "name": "",
          "type": "uint256"
        }
      ],
      "name": "transactionList",
      "outputs": [
        {
          "internalType": "string",
          "name": "id",
          "type": "string"
        },
        {
          "internalType": "string",
          "name": "TranHash",
          "type": "string"
        },
        {
          "internalType": "string",
          "name": "ItemName",
          "type": "string"
        },
        {
          "internalType": "string",
          "name": "Description",
          "type": "string"
        },
        {
          "internalType": "uint256",
          "name": "ToatlItems",
          "type": "uint256"
        },
        {
          "internalType": "uint256",
          "name": "Amount",
          "type": "uint256"
        },
        {
          "internalType": "string",
          "name": "Date",
          "type": "string"
        },
        {
          "internalType": "string",
          "name": "Location",
          "type": "string"
        },
        {
          "internalType": "address",
          "name": "creator",
          "type": "address"
        },
        {
          "internalType": "uint256",
          "name": "timestamp",
          "type": "uint256"
        }
      ],
      "stateMutability": "view",
      "type": "function"
    },
    {
      "inputs": [
        {
          "internalType": "string",
          "name": "",
          "type": "string"
        }
      ],
      "name": "transactionMap",
      "outputs": [
        {
          "internalType": "string",
          "name": "id",
          "type": "string"
        },
        {
          "internalType": "string",
          "name": "TranHash",
          "type": "string"
        },
        {
          "internalType": "string",
          "name": "ItemName",
          "type": "string"
        },
        {
          "internalType": "string",
          "name": "Description",
          "type": "string"
        },
        {
          "internalType": "uint256",
          "name": "ToatlItems",
          "type": "uint256"
        },
        {
          "internalType": "uint256",
          "name": "Amount",
          "type": "uint256"
        },
        {
          "internalType": "string",
          "name": "Date",
          "type": "string"
        },
        {
          "internalType": "string",
          "name": "Location",
          "type": "string"
        },
        {
          "internalType": "address",
          "name": "creator",
          "type": "address"
        },
        {
          "internalType": "uint256",
          "name": "timestamp",
          "type": "uint256"
        }
      ],
      "stateMutability": "view",
      "type": "function"
    },
    {
      "inputs": [
        {
          "internalType": "uint256",
          "name": "",
          "type": "uint256"
        }
      ],
      "name": "userList",
      "outputs": [
        {
          "internalType": "address",
          "name": "",
          "type": "address"
        }
      ],
      "stateMutability": "view",
      "type": "function"
    },
    {
      "inputs": [
        {
          "internalType": "address",
          "name": "",
          "type": "address"
        }
      ],
      "name": "userMap",
      "outputs": [
        {
          "internalType": "string",
          "name": "Member_Name",
          "type": "string"
        },
        {
          "internalType": "string",
          "name": "role",
          "type": "string"
        },
        {
          "internalType": "address",
          "name": "id",
          "type": "address"
        },
        {
          "internalType": "uint256",
          "name": "number",
          "type": "uint256"
        }
      ],
      "stateMutability": "view",
      "type": "function"
    },
    {
      "inputs": [],
      "name": "authMember",
      "outputs": [
        {
          "internalType": "bool",
          "name": "",
          "type": "bool"
        }
      ],
      "stateMutability": "view",
      "type": "function"
    },
    {
      "inputs": [],
      "name": "authCreator",
      "outputs": [
        {
          "internalType": "bool",
          "name": "",
          "type": "bool"
        }
      ],
      "stateMutability": "view",
      "type": "function"
    },
    {
      "inputs": [
        {
          "internalType": "string",
          "name": "_role",
          "type": "string"
        },
        {
          "internalType": "address",
          "name": "_id",
          "type": "address"
        },
        {
          "internalType": "string",
          "name": "_name",
          "type": "string"
        }
      ],
      "name": "createUser",
      "outputs": [],
      "stateMutability": "nonpayable",
      "type": "function"
    },
    {
      "inputs": [
        {
          "internalType": "string",
          "name": "_role",
          "type": "string"
        },
        {
          "internalType": "string",
          "name": "_name",
          "type": "string"
        }
      ],
      "name": "createRole",
      "outputs": [],
      "stateMutability": "nonpayable",
      "type": "function"
    },
    {
      "inputs": [],
      "name": "listUsers",
      "outputs": [
        {
          "internalType": "address[]",
          "name": "",
          "type": "address[]"
        }
      ],
      "stateMutability": "view",
      "type": "function"
    },
    {
      "inputs": [],
      "name": "listRoles",
      "outputs": [
        {
          "components": [
            {
              "internalType": "uint256",
              "name": "number",
              "type": "uint256"
            },
            {
              "internalType": "string",
              "name": "role",
              "type": "string"
            },
            {
              "internalType": "string",
              "name": "name",
              "type": "string"
            }
          ],
          "internalType": "struct DeadStock.Role[]",
          "name": "",
          "type": "tuple[]"
        }
      ],
      "stateMutability": "view",
      "type": "function"
    }
  ],
  "bytecode": "0x60806040523480156200001157600080fd5b50604051620029283803806200292883398181016040528101906200003791906200029d565b806000806101000a81548173ffffffffffffffffffffffffffffffffffffffff021916908373ffffffffffffffffffffffffffffffffffffffff160217905550620000f46040518060400160405280600581526020017f4f776e6572000000000000000000000000000000000000000000000000000000815250826040518060400160405280600581526020017f41646d696e000000000000000000000000000000000000000000000000000000815250620000fb60201b60201c565b50620006ac565b6000600960008473ffffffffffffffffffffffffffffffffffffffff1673ffffffffffffffffffffffffffffffffffffffff16815260200190815260200160002090508381600101908162000151919062000549565b50828160020160006101000a81548173ffffffffffffffffffffffffffffffffffffffff021916908373ffffffffffffffffffffffffffffffffffffffff16021790555081816000019081620001a8919062000549565b5060036000815480929190620001be906200065f565b9190505581600301819055506002839080600181540180825580915050600190039060005260206000200160009091909190916101000a81548173ffffffffffffffffffffffffffffffffffffffff021916908373ffffffffffffffffffffffffffffffffffffffff16021790555050505050565b600080fd5b600073ffffffffffffffffffffffffffffffffffffffff82169050919050565b6000620002658262000238565b9050919050565b620002778162000258565b81146200028357600080fd5b50565b60008151905062000297816200026c565b92915050565b600060208284031215620002b657620002b562000233565b5b6000620002c68482850162000286565b91505092915050565b600081519050919050565b7f4e487b7100000000000000000000000000000000000000000000000000000000600052604160045260246000fd5b7f4e487b7100000000000000000000000000000000000000000000000000000000600052602260045260246000fd5b600060028204905060018216806200035157607f821691505b60208210810362000367576200036662000309565b5b50919050565b60008190508160005260206000209050919050565b60006020601f8301049050919050565b600082821b905092915050565b600060088302620003d17fffffffffffffffffffffffffffffffffffffffffffffffffffffffffffffffff8262000392565b620003dd868362000392565b95508019841693508086168417925050509392505050565b6000819050919050565b6000819050919050565b60006200042a620004246200041e84620003f5565b620003ff565b620003f5565b9050919050565b6000819050919050565b620004468362000409565b6200045e620004558262000431565b8484546200039f565b825550505050565b600090565b6200047562000466565b620004828184846200043b565b505050565b5b81811015620004aa576200049e6000826200046b565b60018101905062000488565b5050565b601f821115620004f957620004c3816200036d565b620004ce8462000382565b81016020851015620004de578190505b620004f6620004ed8562000382565b83018262000487565b50505b505050565b600082821c905092915050565b60006200051e60001984600802620004fe565b1980831691505092915050565b60006200053983836200050b565b9150826002028217905092915050565b6200055482620002cf565b67ffffffffffffffff81111562000570576200056f620002da565b5b6200057c825462000338565b62000589828285620004ae565b600060209050601f831160018114620005c15760008415620005ac578287015190505b620005b885826200052b565b86555062000628565b601f198416620005d1866200036d565b60005b82811015620005fb57848901518255600182019150602085019450602081019050620005d4565b868310156200061b578489015162000617601f8916826200050b565b8355505b6001600288020188555050505b505050505050565b7f4e487b7100000000000000000000000000000000000000000000000000000000600052601160045260246000fd5b60006200066c82620003f5565b91507fffffffffffffffffffffffffffffffffffffffffffffffffffffffffffffffff8203620006a157620006a062000630565b5b600182019050919050565b61226c80620006bc6000396000f3fe608060405234801561001057600080fd5b50600436106100f55760003560e01c80639f4216e811610097578063ccc590f211610066578063ccc590f2146102aa578063d2192dbf146102e3578063f4558ef9146102ff578063f59badad14610331576100f5565b80639f4216e814610210578063a848bf8b14610240578063b17e896414610270578063c99de57e1461028c576100f5565b80632bcc23f8116100d35780632bcc23f8146101835780632cddaa86146101b657806389d7c784146101d45780638ad257b7146101f2576100f5565b806302d05d3f146100fa57806304ef5b21146101185780630f44f0b814610151575b600080fd5b61010261034f565b60405161010f919061155b565b60405180910390f35b610132600480360381019061012d91906115c0565b610373565b6040516101489a9998979695949392919061168c565b60405180910390f35b61016b60048036038101906101669190611887565b610727565b60405161017a939291906118d0565b60405180910390f35b61019d60048036038101906101989190611941565b610877565b6040516101ad949392919061196e565b60405180910390f35b6101be6109d7565b6040516101cb91906119dc565b60405180910390f35b6101dc610a39565b6040516101e991906119dc565b60405180910390f35b6101fa610adc565b6040516102079190611ab5565b60405180910390f35b61022a600480360381019061022591906115c0565b610b6a565b604051610237919061155b565b60405180910390f35b61025a60048036038101906102559190611887565b610ba9565b6040516102679190611ad7565b60405180910390f35b61028a60048036038101906102859190611af9565b610c65565b005b610294610d97565b6040516102a1919061155b565b60405180910390f35b6102c460048036038101906102bf9190611887565b610dbd565b6040516102da9a9998979695949392919061168c565b60405180910390f35b6102fd60048036038101906102f89190611b84565b611177565b005b610319600480360381019061031491906115c0565b611243565b604051610328939291906118d0565b60405180910390f35b61033961138d565b6040516103469190611d6e565b60405180910390f35b60008054906101000a900473ffffffffffffffffffffffffffffffffffffffff1681565b6007818154811061038357600080fd5b90600052602060002090600a02016000915090508060000180546103a690611dbf565b80601f01602080910402602001604051908101604052809291908181526020018280546103d290611dbf565b801561041f5780601f106103f45761010080835404028352916020019161041f565b820191906000526020600020905b81548152906001019060200180831161040257829003601f168201915b50505050509080600101805461043490611dbf565b80601f016020809104026020016040519081016040528092919081815260200182805461046090611dbf565b80156104ad5780601f10610482576101008083540402835291602001916104ad565b820191906000526020600020905b81548152906001019060200180831161049057829003601f168201915b5050505050908060020180546104c290611dbf565b80601f01602080910402602001604051908101604052809291908181526020018280546104ee90611dbf565b801561053b5780601f106105105761010080835404028352916020019161053b565b820191906000526020600020905b81548152906001019060200180831161051e57829003601f168201915b50505050509080600301805461055090611dbf565b80601f016020809104026020016040519081016040528092919081815260200182805461057c90611dbf565b80156105c95780601f1061059e576101008083540402835291602001916105c9565b820191906000526020600020905b8154815290600101906020018083116105ac57829003601f168201915b5050505050908060040154908060050154908060060180546105ea90611dbf565b80601f016020809104026020016040519081016040528092919081815260200182805461061690611dbf565b80156106635780601f1061063857610100808354040283529160200191610663565b820191906000526020600020905b81548152906001019060200180831161064657829003601f168201915b50505050509080600701805461067890611dbf565b80601f01602080910402602001604051908101604052809291908181526020018280546106a490611dbf565b80156106f15780601f106106c6576101008083540402835291602001916106f1565b820191906000526020600020905b8154815290600101906020018083116106d457829003601f168201915b5050505050908060080160009054906101000a900473ffffffffffffffffffffffffffffffffffffffff1690806009015490508a565b60088180516020810182018051848252602083016020850120818352809550505050505060009150905080600001549080600101805461076690611dbf565b80601f016020809104026020016040519081016040528092919081815260200182805461079290611dbf565b80156107df5780601f106107b4576101008083540402835291602001916107df565b820191906000526020600020905b8154815290600101906020018083116107c257829003601f168201915b5050505050908060020180546107f490611dbf565b80601f016020809104026020016040519081016040528092919081815260200182805461082090611dbf565b801561086d5780601f106108425761010080835404028352916020019161086d565b820191906000526020600020905b81548152906001019060200180831161085057829003601f168201915b5050505050905083565b600960205280600052604060002060009150905080600001805461089a90611dbf565b80601f01602080910402602001604051908101604052809291908181526020018280546108c690611dbf565b80156109135780601f106108e857610100808354040283529160200191610913565b820191906000526020600020905b8154815290600101906020018083116108f657829003601f168201915b50505050509080600101805461092890611dbf565b80601f016020809104026020016040519081016040528092919081815260200182805461095490611dbf565b80156109a15780601f10610976576101008083540402835291602001916109a1565b820191906000526020600020905b81548152906001019060200180831161098457829003601f168201915b5050505050908060020160009054906101000a900473ffffffffffffffffffffffffffffffffffffffff16908060030154905084565b60008060009054906101000a900473ffffffffffffffffffffffffffffffffffffffff1673ffffffffffffffffffffffffffffffffffffffff163373ffffffffffffffffffffffffffffffffffffffff1614610a3257600080fd5b6001905090565b6000600960003373ffffffffffffffffffffffffffffffffffffffff1673ffffffffffffffffffffffffffffffffffffffff16815260200190815260200160002060020160009054906101000a900473ffffffffffffffffffffffffffffffffffffffff1673ffffffffffffffffffffffffffffffffffffffff163373ffffffffffffffffffffffffffffffffffffffff1614610ad557600080fd5b6001905090565b60606002805480602002602001604051908101604052809291908181526020018280548015610b6057602002820191906000526020600020905b8160009054906101000a900473ffffffffffffffffffffffffffffffffffffffff1673ffffffffffffffffffffffffffffffffffffffff1681526020019060010190808311610b16575b5050505050905090565b60028181548110610b7a57600080fd5b906000526020600020016000915054906101000a900473ffffffffffffffffffffffffffffffffffffffff1681565b600b81805160208101820180518482526020830160208501208183528095505050505050600091509050806000018054610be290611dbf565b80601f0160208091040260200160405190810160405280929190818152602001828054610c0e90611dbf565b8015610c5b5780601f10610c3057610100808354040283529160200191610c5b565b820191906000526020600020905b815481529060010190602001808311610c3e57829003601f168201915b5050505050905081565b6000600960008473ffffffffffffffffffffffffffffffffffffffff1673ffffffffffffffffffffffffffffffffffffffff168152602001908152602001600020905083816001019081610cb99190611f9c565b50828160020160006101000a81548173ffffffffffffffffffffffffffffffffffffffff021916908373ffffffffffffffffffffffffffffffffffffffff16021790555081816000019081610d0e9190611f9c565b5060036000815480929190610d229061209d565b9190505581600301819055506002839080600181540180825580915050600190039060005260206000200160009091909190916101000a81548173ffffffffffffffffffffffffffffffffffffffff021916908373ffffffffffffffffffffffffffffffffffffffff16021790555050505050565b600160009054906101000a900473ffffffffffffffffffffffffffffffffffffffff1681565b600a81805160208101820180518482526020830160208501208183528095505050505050600091509050806000018054610df690611dbf565b80601f0160208091040260200160405190810160405280929190818152602001828054610e2290611dbf565b8015610e6f5780601f10610e4457610100808354040283529160200191610e6f565b820191906000526020600020905b815481529060010190602001808311610e5257829003601f168201915b505050505090806001018054610e8490611dbf565b80601f0160208091040260200160405190810160405280929190818152602001828054610eb090611dbf565b8015610efd5780601f10610ed257610100808354040283529160200191610efd565b820191906000526020600020905b815481529060010190602001808311610ee057829003601f168201915b505050505090806002018054610f1290611dbf565b80601f0160208091040260200160405190810160405280929190818152602001828054610f3e90611dbf565b8015610f8b5780601f10610f6057610100808354040283529160200191610f8b565b820191906000526020600020905b815481529060010190602001808311610f6e57829003601f168201915b505050505090806003018054610fa090611dbf565b80601f0160208091040260200160405190810160405280929190818152602001828054610fcc90611dbf565b80156110195780601f10610fee57610100808354040283529160200191611019565b820191906000526020600020905b815481529060010190602001808311610ffc57829003601f168201915b50505050509080600401549080600501549080600601805461103a90611dbf565b80601f016020809104026020016040519081016040528092919081815260200182805461106690611dbf565b80156110b35780601f10611088576101008083540402835291602001916110b3565b820191906000526020600020905b81548152906001019060200180831161109657829003601f168201915b5050505050908060070180546110c890611dbf565b80601f01602080910402602001604051908101604052809291908181526020018280546110f490611dbf565b80156111415780601f1061111657610100808354040283529160200191611141565b820191906000526020600020905b81548152906001019060200180831161112457829003601f168201915b5050505050908060080160009054906101000a900473ffffffffffffffffffffffffffffffffffffffff1690806009015490508a565b60006008836040516111899190612121565b90815260200160405180910390209050600560008154809291906111ac9061209d565b919050558160000181905550828160010190816111c99190611f9c565b50818160020190816111db9190611f9c565b5060068190806001815401808255809150506001900390600052602060002090600302016000909190919091506000820154816000015560018201816001019081611226919061214e565b506002820181600201908161123b919061214e565b505050505050565b6006818154811061125357600080fd5b906000526020600020906003020160009150905080600001549080600101805461127c90611dbf565b80601f01602080910402602001604051908101604052809291908181526020018280546112a890611dbf565b80156112f55780601f106112ca576101008083540402835291602001916112f5565b820191906000526020600020905b8154815290600101906020018083116112d857829003601f168201915b50505050509080600201805461130a90611dbf565b80601f016020809104026020016040519081016040528092919081815260200182805461133690611dbf565b80156113835780601f1061135857610100808354040283529160200191611383565b820191906000526020600020905b81548152906001019060200180831161136657829003601f168201915b5050505050905083565b60606006805480602002602001604051908101604052809291908181526020016000905b828210156115115783829060005260206000209060030201604051806060016040529081600082015481526020016001820180546113ee90611dbf565b80601f016020809104026020016040519081016040528092919081815260200182805461141a90611dbf565b80156114675780601f1061143c57610100808354040283529160200191611467565b820191906000526020600020905b81548152906001019060200180831161144a57829003601f168201915b5050505050815260200160028201805461148090611dbf565b80601f01602080910402602001604051908101604052809291908181526020018280546114ac90611dbf565b80156114f95780601f106114ce576101008083540402835291602001916114f9565b820191906000526020600020905b8154815290600101906020018083116114dc57829003601f168201915b505050505081525050815260200190600101906113b1565b50505050905090565b600073ffffffffffffffffffffffffffffffffffffffff82169050919050565b60006115458261151a565b9050919050565b6115558161153a565b82525050565b6000602082019050611570600083018461154c565b92915050565b6000604051905090565b600080fd5b600080fd5b6000819050919050565b61159d8161158a565b81146115a857600080fd5b50565b6000813590506115ba81611594565b92915050565b6000602082840312156115d6576115d5611580565b5b60006115e4848285016115ab565b91505092915050565b600081519050919050565b600082825260208201905092915050565b60005b8381101561162757808201518184015260208101905061160c565b60008484015250505050565b6000601f19601f8301169050919050565b600061164f826115ed565b61165981856115f8565b9350611669818560208601611609565b61167281611633565b840191505092915050565b6116868161158a565b82525050565b60006101408201905081810360008301526116a7818d611644565b905081810360208301526116bb818c611644565b905081810360408301526116cf818b611644565b905081810360608301526116e3818a611644565b90506116f2608083018961167d565b6116ff60a083018861167d565b81810360c08301526117118187611644565b905081810360e08301526117258186611644565b905061173561010083018561154c565b61174361012083018461167d565b9b9a5050505050505050505050565b600080fd5b600080fd5b7f4e487b7100000000000000000000000000000000000000000000000000000000600052604160045260246000fd5b61179482611633565b810181811067ffffffffffffffff821117156117b3576117b261175c565b5b80604052505050565b60006117c6611576565b90506117d2828261178b565b919050565b600067ffffffffffffffff8211156117f2576117f161175c565b5b6117fb82611633565b9050602081019050919050565b82818337600083830152505050565b600061182a611825846117d7565b6117bc565b90508281526020810184848401111561184657611845611757565b5b611851848285611808565b509392505050565b600082601f83011261186e5761186d611752565b5b813561187e848260208601611817565b91505092915050565b60006020828403121561189d5761189c611580565b5b600082013567ffffffffffffffff8111156118bb576118ba611585565b5b6118c784828501611859565b91505092915050565b60006060820190506118e5600083018661167d565b81810360208301526118f78185611644565b9050818103604083015261190b8184611644565b9050949350505050565b61191e8161153a565b811461192957600080fd5b50565b60008135905061193b81611915565b92915050565b60006020828403121561195757611956611580565b5b60006119658482850161192c565b91505092915050565b600060808201905081810360008301526119888187611644565b9050818103602083015261199c8186611644565b90506119ab604083018561154c565b6119b8606083018461167d565b95945050505050565b60008115159050919050565b6119d6816119c1565b82525050565b60006020820190506119f160008301846119cd565b92915050565b600081519050919050565b600082825260208201905092915050565b6000819050602082019050919050565b611a2c8161153a565b82525050565b6000611a3e8383611a23565b60208301905092915050565b6000602082019050919050565b6000611a62826119f7565b611a6c8185611a02565b9350611a7783611a13565b8060005b83811015611aa8578151611a8f8882611a32565b9750611a9a83611a4a565b925050600181019050611a7b565b5085935050505092915050565b60006020820190508181036000830152611acf8184611a57565b905092915050565b60006020820190508181036000830152611af18184611644565b905092915050565b600080600060608486031215611b1257611b11611580565b5b600084013567ffffffffffffffff811115611b3057611b2f611585565b5b611b3c86828701611859565b9350506020611b4d8682870161192c565b925050604084013567ffffffffffffffff811115611b6e57611b6d611585565b5b611b7a86828701611859565b9150509250925092565b60008060408385031215611b9b57611b9a611580565b5b600083013567ffffffffffffffff811115611bb957611bb8611585565b5b611bc585828601611859565b925050602083013567ffffffffffffffff811115611be657611be5611585565b5b611bf285828601611859565b9150509250929050565b600081519050919050565b600082825260208201905092915050565b6000819050602082019050919050565b611c318161158a565b82525050565b600082825260208201905092915050565b6000611c53826115ed565b611c5d8185611c37565b9350611c6d818560208601611609565b611c7681611633565b840191505092915050565b6000606083016000830151611c996000860182611c28565b5060208301518482036020860152611cb18282611c48565b91505060408301518482036040860152611ccb8282611c48565b9150508091505092915050565b6000611ce48383611c81565b905092915050565b6000602082019050919050565b6000611d0482611bfc565b611d0e8185611c07565b935083602082028501611d2085611c18565b8060005b85811015611d5c5784840389528151611d3d8582611cd8565b9450611d4883611cec565b925060208a01995050600181019050611d24565b50829750879550505050505092915050565b60006020820190508181036000830152611d888184611cf9565b905092915050565b7f4e487b7100000000000000000000000000000000000000000000000000000000600052602260045260246000fd5b60006002820490506001821680611dd757607f821691505b602082108103611dea57611de9611d90565b5b50919050565b60008190508160005260206000209050919050565b60006020601f8301049050919050565b600082821b905092915050565b600060088302611e527fffffffffffffffffffffffffffffffffffffffffffffffffffffffffffffffff82611e15565b611e5c8683611e15565b95508019841693508086168417925050509392505050565b6000819050919050565b6000611e99611e94611e8f8461158a565b611e74565b61158a565b9050919050565b6000819050919050565b611eb383611e7e565b611ec7611ebf82611ea0565b848454611e22565b825550505050565b600090565b611edc611ecf565b611ee7818484611eaa565b505050565b5b81811015611f0b57611f00600082611ed4565b600181019050611eed565b5050565b601f821115611f5057611f2181611df0565b611f2a84611e05565b81016020851015611f39578190505b611f4d611f4585611e05565b830182611eec565b50505b505050565b600082821c905092915050565b6000611f7360001984600802611f55565b1980831691505092915050565b6000611f8c8383611f62565b9150826002028217905092915050565b611fa5826115ed565b67ffffffffffffffff811115611fbe57611fbd61175c565b5b611fc88254611dbf565b611fd3828285611f0f565b600060209050601f8311600181146120065760008415611ff4578287015190505b611ffe8582611f80565b865550612066565b601f19841661201486611df0565b60005b8281101561203c57848901518255600182019150602085019450602081019050612017565b868310156120595784890151612055601f891682611f62565b8355505b6001600288020188555050505b505050505050565b7f4e487b7100000000000000000000000000000000000000000000000000000000600052601160045260246000fd5b60006120a88261158a565b91507fffffffffffffffffffffffffffffffffffffffffffffffffffffffffffffffff82036120da576120d961206e565b5b600182019050919050565b600081905092915050565b60006120fb826115ed565b61210581856120e5565b9350612115818560208601611609565b80840191505092915050565b600061212d82846120f0565b915081905092915050565b60008154905061214781611dbf565b9050919050565b81810361215c575050612234565b61216582612138565b67ffffffffffffffff81111561217e5761217d61175c565b5b6121888254611dbf565b612193828285611f0f565b6000601f8311600181146121c257600084156121b0578287015490505b6121ba8582611f80565b86555061222d565b601f1984166121d087611df0565b96506121db86611df0565b60005b82811015612203578489015482556001820191506001850194506020810190506121de565b86831015612220578489015461221c601f891682611f62565b8355505b6001600288020188555050505b5050505050505b56fea264697066735822122056a64533452cf8c874d4d9d59499db7648a116d1499544041ee3c4f7615631ce64736f6c63430008130033",
  "immutableReferences": {},
  "source": "// SPDX-License-Identifier: MIT\npragma solidity >=0.4.22 <=0.9.0;\n\ncontract DeadStock {\n  struct Role {\n    uint256 number;\n    string role;\n    string name;\n  }\n\n  struct User{\n    string Member_Name;\n    string role;\n    address id;\n    uint256 number;\n  }\n\n  struct Transaction {\n    string id;\n    string TranHash;\n    string ItemName;\n    string Description;\n    uint256 ToatlItems;\n    uint256 Amount;\n    string Date;\n    string Location;\n    address creator;\n    uint256 timestamp;  \n  }\n\n  struct Approval {\n    string TranHash;\n    User[] approvalList;\n  }\n\n  address public creator;\n  address public transaction;\n  address[] public userList;\n  \n  uint256 userCount;\n  uint256 transactionCount;\n  uint256 roleCount;\n\n  Role[] public roleList;\n  Transaction[] public transactionList;\n\n  mapping(string => Role) public roleMap;\n  mapping(address => User) public userMap;\n  mapping(string => Transaction) public transactionMap;\n  mapping(string => Approval) public approvalMap;\n  \n  constructor(address owner) {\n    creator = owner;\n    createUser(\"Owner\", owner, \"Admin\");\n  }\n\n  modifier creatorOnly() {\n    require(msg.sender == creator);\n    _;\n  }\n    \n  modifier memberOnly() {\n    require(msg.sender == userMap[msg.sender].id);\n    _;\n  }\n\n  function authMember() public view memberOnly returns (bool) {\n    return true;\n  }\n    \n  function authCreator() public view creatorOnly returns (bool) {\n    return true;\n  }\n\n  function createUser(string memory _role, address _id, string memory _name) public {\n    User storage u = userMap[_id];\n    u.role = _role;\n    u.id = _id;\n    u.Member_Name = _name;\n    u.number = userCount++;\n    userList.push(_id);\n  }\n\n  function createRole(string memory _role, string memory _name) public {\n    Role storage r = roleMap[_role];\n    r.number = roleCount++;\n    r.role = _role;\n    r.name = _name;\n    roleList.push(r);\n  }\n\n  function listUsers() public view returns(address[] memory) {\n      return userList;\n  }\n    \n  function listRoles() public view returns(Role[] memory) {\n    return roleList;\n  }\n  \n}\n",
  "sourcePath": "/home/dbatu/deadstock/src/contracts/DeadStock.sol",
  "compiler": {
    "name": "solc",
    "version": "0.8.19+commit.7dd6d404.Emscripten.clang"
  },
  "schemaVersion": "3.4.13",
  "updatedAt": "2023-04-30T17:53:20.743Z",
  "devdoc": {
    "kind": "dev",
    "methods": {},
    "version": 1
  },
  "userdoc": {
    "kind": "user",
    "methods": {},
    "version": 1
  }
}