{"abi":[{"inputs":[{"internalType":"address","name":"owner","type":"address"}],"stateMutability":"nonpayable","type":"constructor"},{"inputs":[{"internalType":"string","name":"","type":"string"}],"name":"approvalMap","outputs":[{"internalType":"string","name":"TranHash","type":"string"}],"stateMutability":"view","type":"function"},{"inputs":[],"name":"authCreator","outputs":[{"internalType":"bool","name":"","type":"bool"}],"stateMutability":"view","type":"function"},{"inputs":[],"name":"authMember","outputs":[{"internalType":"bool","name":"","type":"bool"}],"stateMutability":"view","type":"function"},{"inputs":[{"internalType":"string","name":"_role","type":"string"},{"internalType":"string","name":"_name","type":"string"}],"name":"createRole","outputs":[],"stateMutability":"nonpayable","type":"function"},{"inputs":[{"internalType":"string","name":"_id","type":"string"},{"internalType":"string","name":"_hash","type":"string"},{"internalType":"uint256","name":"_amount","type":"uint256"},{"internalType":"string","name":"_name","type":"string"},{"internalType":"string","name":"_description","type":"string"},{"internalType":"string","name":"_location","type":"string"},{"internalType":"string","name":"_date","type":"string"}],"name":"createTransaction","outputs":[],"stateMutability":"nonpayable","type":"function"},{"inputs":[{"internalType":"string","name":"_role","type":"string"},{"internalType":"address","name":"_id","type":"address"},{"internalType":"string","name":"_name","type":"string"}],"name":"createUser","outputs":[],"stateMutability":"nonpayable","type":"function"},{"inputs":[],"name":"creator","outputs":[{"internalType":"address","name":"","type":"address"}],"stateMutability":"view","type":"function"},{"inputs":[],"name":"listRoles","outputs":[{"components":[{"internalType":"uint256","name":"number","type":"uint256"},{"internalType":"string","name":"role","type":"string"},{"internalType":"string","name":"name","type":"string"}],"internalType":"struct DeadStock.Role[]","name":"","type":"tuple[]"}],"stateMutability":"view","type":"function"},{"inputs":[],"name":"listTransaction","outputs":[{"components":[{"internalType":"string","name":"id","type":"string"},{"internalType":"string","name":"TranHash","type":"string"},{"internalType":"string","name":"ItemName","type":"string"},{"internalType":"string","name":"Description","type":"string"},{"internalType":"uint256","name":"Amount","type":"uint256"},{"internalType":"string","name":"Date","type":"string"},{"internalType":"string","name":"Location","type":"string"},{"internalType":"address","name":"creator","type":"address"},{"internalType":"address","name":"updatedBy","type":"address"},{"internalType":"uint256","name":"timestamp","type":"uint256"},{"internalType":"string","name":"state","type":"string"}],"internalType":"struct DeadStock.Transaction[]","name":"","type":"tuple[]"}],"stateMutability":"view","type":"function"},{"inputs":[],"name":"listUsers","outputs":[{"internalType":"address[]","name":"","type":"address[]"}],"stateMutability":"view","type":"function"},{"inputs":[{"internalType":"uint256","name":"","type":"uint256"}],"name":"roleList","outputs":[{"internalType":"uint256","name":"number","type":"uint256"},{"internalType":"string","name":"role","type":"string"},{"internalType":"string","name":"name","type":"string"}],"stateMutability":"view","type":"function"},{"inputs":[{"internalType":"string","name":"","type":"string"}],"name":"roleMap","outputs":[{"internalType":"uint256","name":"number","type":"uint256"},{"internalType":"string","name":"role","type":"string"},{"internalType":"string","name":"name","type":"string"}],"stateMutability":"view","type":"function"},{"inputs":[],"name":"transaction","outputs":[{"internalType":"address","name":"","type":"address"}],"stateMutability":"view","type":"function"},{"inputs":[{"internalType":"uint256","name":"","type":"uint256"}],"name":"transactionList","outputs":[{"internalType":"string","name":"id","type":"string"},{"internalType":"string","name":"TranHash","type":"string"},{"internalType":"string","name":"ItemName","type":"string"},{"internalType":"string","name":"Description","type":"string"},{"internalType":"uint256","name":"Amount","type":"uint256"},{"internalType":"string","name":"Date","type":"string"},{"internalType":"string","name":"Location","type":"string"},{"internalType":"address","name":"creator","type":"address"},{"internalType":"address","name":"updatedBy","type":"address"},{"internalType":"uint256","name":"timestamp","type":"uint256"},{"internalType":"string","name":"state","type":"string"}],"stateMutability":"view","type":"function"},{"inputs":[{"internalType":"string","name":"","type":"string"}],"name":"transactionMap","outputs":[{"internalType":"string","name":"id","type":"string"},{"internalType":"string","name":"TranHash","type":"string"},{"internalType":"string","name":"ItemName","type":"string"},{"internalType":"string","name":"Description","type":"string"},{"internalType":"uint256","name":"Amount","type":"uint256"},{"internalType":"string","name":"Date","type":"string"},{"internalType":"string","name":"Location","type":"string"},{"internalType":"address","name":"creator","type":"address"},{"internalType":"address","name":"updatedBy","type":"address"},{"internalType":"uint256","name":"timestamp","type":"uint256"},{"internalType":"string","name":"state","type":"string"}],"stateMutability":"view","type":"function"},{"inputs":[{"internalType":"string","name":"_hash","type":"string"},{"internalType":"string","name":"_location","type":"string"},{"internalType":"string","name":"_date","type":"string"}],"name":"updateLocation","outputs":[],"stateMutability":"nonpayable","type":"function"},{"inputs":[{"internalType":"uint256","name":"","type":"uint256"}],"name":"userList","outputs":[{"internalType":"address","name":"","type":"address"}],"stateMutability":"view","type":"function"},{"inputs":[{"internalType":"address","name":"","type":"address"}],"name":"userMap","outputs":[{"internalType":"string","name":"Member_Name","type":"string"},{"internalType":"string","name":"role","type":"string"},{"internalType":"address","name":"id","type":"address"},{"internalType":"uint256","name":"number","type":"uint256"}],"stateMutability":"view","type":"function"},{"inputs":[{"internalType":"string","name":"_hash","type":"string"},{"internalType":"string","name":"_location","type":"string"},{"internalType":"string","name":"_date","type":"string"}],"name":"verifyItem","outputs":[],"stateMutability":"nonpayable","type":"function"},{"inputs":[{"internalType":"string","name":"_hash","type":"string"},{"internalType":"string","name":"_location","type":"string"},{"internalType":"string","name":"_date","type":"string"}],"name":"writeOff","outputs":[],"stateMutability":"nonpayable","type":"function"}],"evm":{"assembly":"    /* \"DeadStock.sol\":67:3478  contract DeadStock {... */\n  mstore(0x40, 0x80)\n    /* \"DeadStock.sol\":1007:1101  constructor(address owner) {... */\n  callvalue\n  dup1\n  iszero\n  tag_1\n  jumpi\n  0x00\n  dup1\n  revert\ntag_1:\n  pop\n  mload(0x40)\n  sub(codesize, bytecodeSize)\n  dup1\n  bytecodeSize\n  dup4\n  codecopy\n  dup2\n  dup2\n  add\n  0x40\n  mstore\n  dup2\n  add\n  swap1\n  tag_2\n  swap2\n  swap1\n  tag_3\n  jump\t// in\ntag_2:\n    /* \"DeadStock.sol\":1050:1055  owner */\n  dup1\n    /* \"DeadStock.sol\":1040:1047  creator */\n  0x00\n  dup1\n    /* \"DeadStock.sol\":1040:1055  creator = owner */\n  0x0100\n  exp\n  dup2\n  sload\n  dup2\n  0xffffffffffffffffffffffffffffffffffffffff\n  mul\n  not\n  and\n  swap1\n  dup4\n  0xffffffffffffffffffffffffffffffffffffffff\n  and\n  mul\n  or\n  swap1\n  sstore\n  pop\n    /* \"DeadStock.sol\":1061:1096  createUser(\"Owner\", owner, \"Admin\") */\n  tag_6\n  mload(0x40)\n  dup1\n  0x40\n  add\n  0x40\n  mstore\n  dup1\n  0x05\n  dup2\n  mstore\n  0x20\n  add\n  0x4f776e6572000000000000000000000000000000000000000000000000000000\n  dup2\n  mstore\n  pop\n    /* \"DeadStock.sol\":1081:1086  owner */\n  dup3\n    /* \"DeadStock.sol\":1061:1096  createUser(\"Owner\", owner, \"Admin\") */\n  mload(0x40)\n  dup1\n  0x40\n  add\n  0x40\n  mstore\n  dup1\n  0x05\n  dup2\n  mstore\n  0x20\n  add\n  0x41646d696e000000000000000000000000000000000000000000000000000000\n  dup2\n  mstore\n  pop\n    /* \"DeadStock.sol\":1061:1071  createUser */\n  shl(0x20, tag_7)\n    /* \"DeadStock.sol\":1061:1096  createUser(\"Owner\", owner, \"Admin\") */\n  0x20\n  shr\n  jump\t// in\ntag_6:\n    /* \"DeadStock.sol\":1007:1101  constructor(address owner) {... */\n  pop\n    /* \"DeadStock.sol\":67:3478  contract DeadStock {... */\n  jump(tag_8)\n    /* \"DeadStock.sol\":1451:1688  function createUser(string memory _role, address _id, string memory _name) public {... */\ntag_7:\n    /* \"DeadStock.sol\":1539:1553  User storage u */\n  0x00\n    /* \"DeadStock.sol\":1556:1563  userMap */\n  0x09\n    /* \"DeadStock.sol\":1556:1568  userMap[_id] */\n  0x00\n    /* \"DeadStock.sol\":1564:1567  _id */\n  dup5\n    /* \"DeadStock.sol\":1556:1568  userMap[_id] */\n  0xffffffffffffffffffffffffffffffffffffffff\n  and\n  0xffffffffffffffffffffffffffffffffffffffff\n  and\n  dup2\n  mstore\n  0x20\n  add\n  swap1\n  dup2\n  mstore\n  0x20\n  add\n  0x00\n  keccak256\n    /* \"DeadStock.sol\":1539:1568  User storage u = userMap[_id] */\n  swap1\n  pop\n    /* \"DeadStock.sol\":1583:1588  _role */\n  dup4\n    /* \"DeadStock.sol\":1574:1575  u */\n  dup2\n    /* \"DeadStock.sol\":1574:1580  u.role */\n  0x01\n  add\n    /* \"DeadStock.sol\":1574:1588  u.role = _role */\n  swap1\n  dup2\n  tag_10\n  swap2\n  swap1\n  tag_11\n  jump\t// in\ntag_10:\n  pop\n    /* \"DeadStock.sol\":1601:1604  _id */\n  dup3\n    /* \"DeadStock.sol\":1594:1595  u */\n  dup2\n    /* \"DeadStock.sol\":1594:1598  u.id */\n  0x02\n  add\n  0x00\n    /* \"DeadStock.sol\":1594:1604  u.id = _id */\n  0x0100\n  exp\n  dup2\n  sload\n  dup2\n  0xffffffffffffffffffffffffffffffffffffffff\n  mul\n  not\n  and\n  swap1\n  dup4\n  0xffffffffffffffffffffffffffffffffffffffff\n  and\n  mul\n  or\n  swap1\n  sstore\n  pop\n    /* \"DeadStock.sol\":1626:1631  _name */\n  dup2\n    /* \"DeadStock.sol\":1610:1611  u */\n  dup2\n    /* \"DeadStock.sol\":1610:1623  u.Member_Name */\n  0x00\n  add\n    /* \"DeadStock.sol\":1610:1631  u.Member_Name = _name */\n  swap1\n  dup2\n  tag_12\n  swap2\n  swap1\n  tag_11\n  jump\t// in\ntag_12:\n  pop\n    /* \"DeadStock.sol\":1648:1657  userCount */\n  0x03\n  0x00\n    /* \"DeadStock.sol\":1648:1659  userCount++ */\n  dup2\n  sload\n  dup1\n  swap3\n  swap2\n  swap1\n  tag_13\n  swap1\n  tag_14\n  jump\t// in\ntag_13:\n  swap2\n  swap1\n  pop\n  sstore\n    /* \"DeadStock.sol\":1637:1638  u */\n  dup2\n    /* \"DeadStock.sol\":1637:1645  u.number */\n  0x03\n  add\n    /* \"DeadStock.sol\":1637:1659  u.number = userCount++ */\n  dup2\n  swap1\n  sstore\n  pop\n    /* \"DeadStock.sol\":1665:1673  userList */\n  0x02\n    /* \"DeadStock.sol\":1679:1682  _id */\n  dup4\n    /* \"DeadStock.sol\":1665:1683  userList.push(_id) */\n  swap1\n  dup1\n  0x01\n  dup2\n  sload\n  add\n  dup1\n  dup3\n  sstore\n  dup1\n  swap2\n  pop\n  pop\n  0x01\n  swap1\n  sub\n  swap1\n  0x00\n  mstore\n  keccak256(0x00, 0x20)\n  add\n  0x00\n  swap1\n  swap2\n  swap1\n  swap2\n  swap1\n  swap2\n  0x0100\n  exp\n  dup2\n  sload\n  dup2\n  0xffffffffffffffffffffffffffffffffffffffff\n  mul\n  not\n  and\n  swap1\n  dup4\n  0xffffffffffffffffffffffffffffffffffffffff\n  and\n  mul\n  or\n  swap1\n  sstore\n  pop\n    /* \"DeadStock.sol\":1533:1688  {... */\n  pop\n    /* \"DeadStock.sol\":1451:1688  function createUser(string memory _role, address _id, string memory _name) public {... */\n  pop\n  pop\n  pop\n  jump\t// out\n    /* \"#utility.yul\":88:205   */\ntag_17:\n    /* \"#utility.yul\":197:198   */\n  0x00\n    /* \"#utility.yul\":194:195   */\n  dup1\n    /* \"#utility.yul\":187:199   */\n  revert\n    /* \"#utility.yul\":334:460   */\ntag_19:\n    /* \"#utility.yul\":371:378   */\n  0x00\n    /* \"#utility.yul\":411:453   */\n  0xffffffffffffffffffffffffffffffffffffffff\n    /* \"#utility.yul\":404:409   */\n  dup3\n    /* \"#utility.yul\":400:454   */\n  and\n    /* \"#utility.yul\":389:454   */\n  swap1\n  pop\n    /* \"#utility.yul\":334:460   */\n  swap2\n  swap1\n  pop\n  jump\t// out\n    /* \"#utility.yul\":466:562   */\ntag_20:\n    /* \"#utility.yul\":503:510   */\n  0x00\n    /* \"#utility.yul\":532:556   */\n  tag_50\n    /* \"#utility.yul\":550:555   */\n  dup3\n    /* \"#utility.yul\":532:556   */\n  tag_19\n  jump\t// in\ntag_50:\n    /* \"#utility.yul\":521:556   */\n  swap1\n  pop\n    /* \"#utility.yul\":466:562   */\n  swap2\n  swap1\n  pop\n  jump\t// out\n    /* \"#utility.yul\":568:690   */\ntag_21:\n    /* \"#utility.yul\":641:665   */\n  tag_52\n    /* \"#utility.yul\":659:664   */\n  dup2\n    /* \"#utility.yul\":641:665   */\n  tag_20\n  jump\t// in\ntag_52:\n    /* \"#utility.yul\":634:639   */\n  dup2\n    /* \"#utility.yul\":631:666   */\n  eq\n    /* \"#utility.yul\":621:684   */\n  tag_53\n  jumpi\n    /* \"#utility.yul\":680:681   */\n  0x00\n    /* \"#utility.yul\":677:678   */\n  dup1\n    /* \"#utility.yul\":670:682   */\n  revert\n    /* \"#utility.yul\":621:684   */\ntag_53:\n    /* \"#utility.yul\":568:690   */\n  pop\n  jump\t// out\n    /* \"#utility.yul\":696:839   */\ntag_22:\n    /* \"#utility.yul\":753:758   */\n  0x00\n    /* \"#utility.yul\":784:790   */\n  dup2\n    /* \"#utility.yul\":778:791   */\n  mload\n    /* \"#utility.yul\":769:791   */\n  swap1\n  pop\n    /* \"#utility.yul\":800:833   */\n  tag_55\n    /* \"#utility.yul\":827:832   */\n  dup2\n    /* \"#utility.yul\":800:833   */\n  tag_21\n  jump\t// in\ntag_55:\n    /* \"#utility.yul\":696:839   */\n  swap3\n  swap2\n  pop\n  pop\n  jump\t// out\n    /* \"#utility.yul\":845:1196   */\ntag_3:\n    /* \"#utility.yul\":915:921   */\n  0x00\n    /* \"#utility.yul\":964:966   */\n  0x20\n    /* \"#utility.yul\":952:961   */\n  dup3\n    /* \"#utility.yul\":943:950   */\n  dup5\n    /* \"#utility.yul\":939:962   */\n  sub\n    /* \"#utility.yul\":935:967   */\n  slt\n    /* \"#utility.yul\":932:1051   */\n  iszero\n  tag_57\n  jumpi\n    /* \"#utility.yul\":970:1049   */\n  tag_58\n  tag_17\n  jump\t// in\ntag_58:\n    /* \"#utility.yul\":932:1051   */\ntag_57:\n    /* \"#utility.yul\":1090:1091   */\n  0x00\n    /* \"#utility.yul\":1115:1179   */\n  tag_59\n    /* \"#utility.yul\":1171:1178   */\n  dup5\n    /* \"#utility.yul\":1162:1168   */\n  dup3\n    /* \"#utility.yul\":1151:1160   */\n  dup6\n    /* \"#utility.yul\":1147:1169   */\n  add\n    /* \"#utility.yul\":1115:1179   */\n  tag_22\n  jump\t// in\ntag_59:\n    /* \"#utility.yul\":1105:1179   */\n  swap2\n  pop\n    /* \"#utility.yul\":1061:1189   */\n  pop\n    /* \"#utility.yul\":845:1196   */\n  swap3\n  swap2\n  pop\n  pop\n  jump\t// out\n    /* \"#utility.yul\":1202:1301   */\ntag_23:\n    /* \"#utility.yul\":1254:1260   */\n  0x00\n    /* \"#utility.yul\":1288:1293   */\n  dup2\n    /* \"#utility.yul\":1282:1294   */\n  mload\n    /* \"#utility.yul\":1272:1294   */\n  swap1\n  pop\n    /* \"#utility.yul\":1202:1301   */\n  swap2\n  swap1\n  pop\n  jump\t// out\n    /* \"#utility.yul\":1307:1487   */\ntag_24:\n    /* \"#utility.yul\":1355:1432   */\n  0x4e487b7100000000000000000000000000000000000000000000000000000000\n    /* \"#utility.yul\":1352:1353   */\n  0x00\n    /* \"#utility.yul\":1345:1433   */\n  mstore\n    /* \"#utility.yul\":1452:1456   */\n  0x41\n    /* \"#utility.yul\":1449:1450   */\n  0x04\n    /* \"#utility.yul\":1442:1457   */\n  mstore\n    /* \"#utility.yul\":1476:1480   */\n  0x24\n    /* \"#utility.yul\":1473:1474   */\n  0x00\n    /* \"#utility.yul\":1466:1481   */\n  revert\n    /* \"#utility.yul\":1493:1673   */\ntag_25:\n    /* \"#utility.yul\":1541:1618   */\n  0x4e487b7100000000000000000000000000000000000000000000000000000000\n    /* \"#utility.yul\":1538:1539   */\n  0x00\n    /* \"#utility.yul\":1531:1619   */\n  mstore\n    /* \"#utility.yul\":1638:1642   */\n  0x22\n    /* \"#utility.yul\":1635:1636   */\n  0x04\n    /* \"#utility.yul\":1628:1643   */\n  mstore\n    /* \"#utility.yul\":1662:1666   */\n  0x24\n    /* \"#utility.yul\":1659:1660   */\n  0x00\n    /* \"#utility.yul\":1652:1667   */\n  revert\n    /* \"#utility.yul\":1679:1999   */\ntag_26:\n    /* \"#utility.yul\":1723:1729   */\n  0x00\n    /* \"#utility.yul\":1760:1761   */\n  0x02\n    /* \"#utility.yul\":1754:1758   */\n  dup3\n    /* \"#utility.yul\":1750:1762   */\n  div\n    /* \"#utility.yul\":1740:1762   */\n  swap1\n  pop\n    /* \"#utility.yul\":1807:1808   */\n  0x01\n    /* \"#utility.yul\":1801:1805   */\n  dup3\n    /* \"#utility.yul\":1797:1809   */\n  and\n    /* \"#utility.yul\":1828:1846   */\n  dup1\n    /* \"#utility.yul\":1818:1899   */\n  tag_64\n  jumpi\n    /* \"#utility.yul\":1884:1888   */\n  0x7f\n    /* \"#utility.yul\":1876:1882   */\n  dup3\n    /* \"#utility.yul\":1872:1889   */\n  and\n    /* \"#utility.yul\":1862:1889   */\n  swap2\n  pop\n    /* \"#utility.yul\":1818:1899   */\ntag_64:\n    /* \"#utility.yul\":1946:1948   */\n  0x20\n    /* \"#utility.yul\":1938:1944   */\n  dup3\n    /* \"#utility.yul\":1935:1949   */\n  lt\n    /* \"#utility.yul\":1915:1933   */\n  dup2\n    /* \"#utility.yul\":1912:1950   */\n  sub\n    /* \"#utility.yul\":1909:1993   */\n  tag_65\n  jumpi\n    /* \"#utility.yul\":1965:1983   */\n  tag_66\n  tag_25\n  jump\t// in\ntag_66:\n    /* \"#utility.yul\":1909:1993   */\ntag_65:\n    /* \"#utility.yul\":1730:1999   */\n  pop\n    /* \"#utility.yul\":1679:1999   */\n  swap2\n  swap1\n  pop\n  jump\t// out\n    /* \"#utility.yul\":2005:2146   */\ntag_27:\n    /* \"#utility.yul\":2054:2058   */\n  0x00\n    /* \"#utility.yul\":2077:2080   */\n  dup2\n    /* \"#utility.yul\":2069:2080   */\n  swap1\n  pop\n    /* \"#utility.yul\":2100:2103   */\n  dup2\n    /* \"#utility.yul\":2097:2098   */\n  0x00\n    /* \"#utility.yul\":2090:2104   */\n  mstore\n    /* \"#utility.yul\":2134:2138   */\n  0x20\n    /* \"#utility.yul\":2131:2132   */\n  0x00\n    /* \"#utility.yul\":2121:2139   */\n  keccak256\n    /* \"#utility.yul\":2113:2139   */\n  swap1\n  pop\n    /* \"#utility.yul\":2005:2146   */\n  swap2\n  swap1\n  pop\n  jump\t// out\n    /* \"#utility.yul\":2152:2245   */\ntag_28:\n    /* \"#utility.yul\":2189:2195   */\n  0x00\n    /* \"#utility.yul\":2236:2238   */\n  0x20\n    /* \"#utility.yul\":2231:2233   */\n  0x1f\n    /* \"#utility.yul\":2224:2229   */\n  dup4\n    /* \"#utility.yul\":2220:2234   */\n  add\n    /* \"#utility.yul\":2216:2239   */\n  div\n    /* \"#utility.yul\":2206:2239   */\n  swap1\n  pop\n    /* \"#utility.yul\":2152:2245   */\n  swap2\n  swap1\n  pop\n  jump\t// out\n    /* \"#utility.yul\":2251:2358   */\ntag_29:\n    /* \"#utility.yul\":2295:2303   */\n  0x00\n    /* \"#utility.yul\":2345:2350   */\n  dup3\n    /* \"#utility.yul\":2339:2343   */\n  dup3\n    /* \"#utility.yul\":2335:2351   */\n  shl\n    /* \"#utility.yul\":2314:2351   */\n  swap1\n  pop\n    /* \"#utility.yul\":2251:2358   */\n  swap3\n  swap2\n  pop\n  pop\n  jump\t// out\n    /* \"#utility.yul\":2364:2757   */\ntag_30:\n    /* \"#utility.yul\":2433:2439   */\n  0x00\n    /* \"#utility.yul\":2483:2484   */\n  0x08\n    /* \"#utility.yul\":2471:2481   */\n  dup4\n    /* \"#utility.yul\":2467:2485   */\n  mul\n    /* \"#utility.yul\":2506:2603   */\n  tag_71\n    /* \"#utility.yul\":2536:2602   */\n  0xffffffffffffffffffffffffffffffffffffffffffffffffffffffffffffffff\n    /* \"#utility.yul\":2525:2534   */\n  dup3\n    /* \"#utility.yul\":2506:2603   */\n  tag_29\n  jump\t// in\ntag_71:\n    /* \"#utility.yul\":2624:2663   */\n  tag_72\n    /* \"#utility.yul\":2654:2662   */\n  dup7\n    /* \"#utility.yul\":2643:2652   */\n  dup4\n    /* \"#utility.yul\":2624:2663   */\n  tag_29\n  jump\t// in\ntag_72:\n    /* \"#utility.yul\":2612:2663   */\n  swap6\n  pop\n    /* \"#utility.yul\":2696:2700   */\n  dup1\n    /* \"#utility.yul\":2692:2701   */\n  not\n    /* \"#utility.yul\":2685:2690   */\n  dup5\n    /* \"#utility.yul\":2681:2702   */\n  and\n    /* \"#utility.yul\":2672:2702   */\n  swap4\n  pop\n    /* \"#utility.yul\":2745:2749   */\n  dup1\n    /* \"#utility.yul\":2735:2743   */\n  dup7\n    /* \"#utility.yul\":2731:2750   */\n  and\n    /* \"#utility.yul\":2724:2729   */\n  dup5\n    /* \"#utility.yul\":2721:2751   */\n  or\n    /* \"#utility.yul\":2711:2751   */\n  swap3\n  pop\n    /* \"#utility.yul\":2440:2757   */\n  pop\n  pop\n    /* \"#utility.yul\":2364:2757   */\n  swap4\n  swap3\n  pop\n  pop\n  pop\n  jump\t// out\n    /* \"#utility.yul\":2763:2840   */\ntag_31:\n    /* \"#utility.yul\":2800:2807   */\n  0x00\n    /* \"#utility.yul\":2829:2834   */\n  dup2\n    /* \"#utility.yul\":2818:2834   */\n  swap1\n  pop\n    /* \"#utility.yul\":2763:2840   */\n  swap2\n  swap1\n  pop\n  jump\t// out\n    /* \"#utility.yul\":2846:2906   */\ntag_32:\n    /* \"#utility.yul\":2874:2877   */\n  0x00\n    /* \"#utility.yul\":2895:2900   */\n  dup2\n    /* \"#utility.yul\":2888:2900   */\n  swap1\n  pop\n    /* \"#utility.yul\":2846:2906   */\n  swap2\n  swap1\n  pop\n  jump\t// out\n    /* \"#utility.yul\":2912:3054   */\ntag_33:\n    /* \"#utility.yul\":2962:2971   */\n  0x00\n    /* \"#utility.yul\":2995:3048   */\n  tag_76\n    /* \"#utility.yul\":3013:3047   */\n  tag_77\n    /* \"#utility.yul\":3022:3046   */\n  tag_78\n    /* \"#utility.yul\":3040:3045   */\n  dup5\n    /* \"#utility.yul\":3022:3046   */\n  tag_31\n  jump\t// in\ntag_78:\n    /* \"#utility.yul\":3013:3047   */\n  tag_32\n  jump\t// in\ntag_77:\n    /* \"#utility.yul\":2995:3048   */\n  tag_31\n  jump\t// in\ntag_76:\n    /* \"#utility.yul\":2982:3048   */\n  swap1\n  pop\n    /* \"#utility.yul\":2912:3054   */\n  swap2\n  swap1\n  pop\n  jump\t// out\n    /* \"#utility.yul\":3060:3135   */\ntag_34:\n    /* \"#utility.yul\":3103:3106   */\n  0x00\n    /* \"#utility.yul\":3124:3129   */\n  dup2\n    /* \"#utility.yul\":3117:3129   */\n  swap1\n  pop\n    /* \"#utility.yul\":3060:3135   */\n  swap2\n  swap1\n  pop\n  jump\t// out\n    /* \"#utility.yul\":3141:3410   */\ntag_35:\n    /* \"#utility.yul\":3251:3290   */\n  tag_81\n    /* \"#utility.yul\":3282:3289   */\n  dup4\n    /* \"#utility.yul\":3251:3290   */\n  tag_33\n  jump\t// in\ntag_81:\n    /* \"#utility.yul\":3312:3403   */\n  tag_82\n    /* \"#utility.yul\":3361:3402   */\n  tag_83\n    /* \"#utility.yul\":3385:3401   */\n  dup3\n    /* \"#utility.yul\":3361:3402   */\n  tag_34\n  jump\t// in\ntag_83:\n    /* \"#utility.yul\":3353:3359   */\n  dup5\n    /* \"#utility.yul\":3346:3350   */\n  dup5\n    /* \"#utility.yul\":3340:3351   */\n  sload\n    /* \"#utility.yul\":3312:3403   */\n  tag_30\n  jump\t// in\ntag_82:\n    /* \"#utility.yul\":3306:3310   */\n  dup3\n    /* \"#utility.yul\":3299:3404   */\n  sstore\n    /* \"#utility.yul\":3217:3410   */\n  pop\n    /* \"#utility.yul\":3141:3410   */\n  pop\n  pop\n  pop\n  jump\t// out\n    /* \"#utility.yul\":3416:3489   */\ntag_36:\n    /* \"#utility.yul\":3461:3464   */\n  0x00\n    /* \"#utility.yul\":3416:3489   */\n  swap1\n  jump\t// out\n    /* \"#utility.yul\":3495:3684   */\ntag_37:\n    /* \"#utility.yul\":3572:3604   */\n  tag_86\n  tag_36\n  jump\t// in\ntag_86:\n    /* \"#utility.yul\":3613:3678   */\n  tag_87\n    /* \"#utility.yul\":3671:3677   */\n  dup2\n    /* \"#utility.yul\":3663:3669   */\n  dup5\n    /* \"#utility.yul\":3657:3661   */\n  dup5\n    /* \"#utility.yul\":3613:3678   */\n  tag_35\n  jump\t// in\ntag_87:\n    /* \"#utility.yul\":3548:3684   */\n  pop\n    /* \"#utility.yul\":3495:3684   */\n  pop\n  pop\n  jump\t// out\n    /* \"#utility.yul\":3690:3876   */\ntag_38:\n    /* \"#utility.yul\":3750:3870   */\ntag_89:\n    /* \"#utility.yul\":3767:3770   */\n  dup2\n    /* \"#utility.yul\":3760:3765   */\n  dup2\n    /* \"#utility.yul\":3757:3771   */\n  lt\n    /* \"#utility.yul\":3750:3870   */\n  iszero\n  tag_91\n  jumpi\n    /* \"#utility.yul\":3821:3860   */\n  tag_92\n    /* \"#utility.yul\":3858:3859   */\n  0x00\n    /* \"#utility.yul\":3851:3856   */\n  dup3\n    /* \"#utility.yul\":3821:3860   */\n  tag_37\n  jump\t// in\ntag_92:\n    /* \"#utility.yul\":3794:3795   */\n  0x01\n    /* \"#utility.yul\":3787:3792   */\n  dup2\n    /* \"#utility.yul\":3783:3796   */\n  add\n    /* \"#utility.yul\":3774:3796   */\n  swap1\n  pop\n    /* \"#utility.yul\":3750:3870   */\n  jump(tag_89)\ntag_91:\n    /* \"#utility.yul\":3690:3876   */\n  pop\n  pop\n  jump\t// out\n    /* \"#utility.yul\":3882:4425   */\ntag_39:\n    /* \"#utility.yul\":3983:3985   */\n  0x1f\n    /* \"#utility.yul\":3978:3981   */\n  dup3\n    /* \"#utility.yul\":3975:3986   */\n  gt\n    /* \"#utility.yul\":3972:4418   */\n  iszero\n  tag_94\n  jumpi\n    /* \"#utility.yul\":4017:4055   */\n  tag_95\n    /* \"#utility.yul\":4049:4054   */\n  dup2\n    /* \"#utility.yul\":4017:4055   */\n  tag_27\n  jump\t// in\ntag_95:\n    /* \"#utility.yul\":4101:4130   */\n  tag_96\n    /* \"#utility.yul\":4119:4129   */\n  dup5\n    /* \"#utility.yul\":4101:4130   */\n  tag_28\n  jump\t// in\ntag_96:\n    /* \"#utility.yul\":4091:4099   */\n  dup2\n    /* \"#utility.yul\":4087:4131   */\n  add\n    /* \"#utility.yul\":4284:4286   */\n  0x20\n    /* \"#utility.yul\":4272:4282   */\n  dup6\n    /* \"#utility.yul\":4269:4287   */\n  lt\n    /* \"#utility.yul\":4266:4315   */\n  iszero\n  tag_97\n  jumpi\n    /* \"#utility.yul\":4305:4313   */\n  dup2\n    /* \"#utility.yul\":4290:4313   */\n  swap1\n  pop\n    /* \"#utility.yul\":4266:4315   */\ntag_97:\n    /* \"#utility.yul\":4328:4408   */\n  tag_98\n    /* \"#utility.yul\":4384:4406   */\n  tag_99\n    /* \"#utility.yul\":4402:4405   */\n  dup6\n    /* \"#utility.yul\":4384:4406   */\n  tag_28\n  jump\t// in\ntag_99:\n    /* \"#utility.yul\":4374:4382   */\n  dup4\n    /* \"#utility.yul\":4370:4407   */\n  add\n    /* \"#utility.yul\":4357:4368   */\n  dup3\n    /* \"#utility.yul\":4328:4408   */\n  tag_38\n  jump\t// in\ntag_98:\n    /* \"#utility.yul\":3987:4418   */\n  pop\n  pop\n    /* \"#utility.yul\":3972:4418   */\ntag_94:\n    /* \"#utility.yul\":3882:4425   */\n  pop\n  pop\n  pop\n  jump\t// out\n    /* \"#utility.yul\":4431:4548   */\ntag_40:\n    /* \"#utility.yul\":4485:4493   */\n  0x00\n    /* \"#utility.yul\":4535:4540   */\n  dup3\n    /* \"#utility.yul\":4529:4533   */\n  dup3\n    /* \"#utility.yul\":4525:4541   */\n  shr\n    /* \"#utility.yul\":4504:4541   */\n  swap1\n  pop\n    /* \"#utility.yul\":4431:4548   */\n  swap3\n  swap2\n  pop\n  pop\n  jump\t// out\n    /* \"#utility.yul\":4554:4723   */\ntag_41:\n    /* \"#utility.yul\":4598:4604   */\n  0x00\n    /* \"#utility.yul\":4631:4682   */\n  tag_102\n    /* \"#utility.yul\":4679:4680   */\n  0x00\n    /* \"#utility.yul\":4675:4681   */\n  not\n    /* \"#utility.yul\":4667:4672   */\n  dup5\n    /* \"#utility.yul\":4664:4665   */\n  0x08\n    /* \"#utility.yul\":4660:4673   */\n  mul\n    /* \"#utility.yul\":4631:4682   */\n  tag_40\n  jump\t// in\ntag_102:\n    /* \"#utility.yul\":4627:4683   */\n  not\n    /* \"#utility.yul\":4712:4716   */\n  dup1\n    /* \"#utility.yul\":4706:4710   */\n  dup4\n    /* \"#utility.yul\":4702:4717   */\n  and\n    /* \"#utility.yul\":4692:4717   */\n  swap2\n  pop\n    /* \"#utility.yul\":4605:4723   */\n  pop\n    /* \"#utility.yul\":4554:4723   */\n  swap3\n  swap2\n  pop\n  pop\n  jump\t// out\n    /* \"#utility.yul\":4728:5023   */\ntag_42:\n    /* \"#utility.yul\":4804:4808   */\n  0x00\n    /* \"#utility.yul\":4950:4979   */\n  tag_104\n    /* \"#utility.yul\":4975:4978   */\n  dup4\n    /* \"#utility.yul\":4969:4973   */\n  dup4\n    /* \"#utility.yul\":4950:4979   */\n  tag_41\n  jump\t// in\ntag_104:\n    /* \"#utility.yul\":4942:4979   */\n  swap2\n  pop\n    /* \"#utility.yul\":5012:5015   */\n  dup3\n    /* \"#utility.yul\":5009:5010   */\n  0x02\n    /* \"#utility.yul\":5005:5016   */\n  mul\n    /* \"#utility.yul\":4999:5003   */\n  dup3\n    /* \"#utility.yul\":4996:5017   */\n  or\n    /* \"#utility.yul\":4988:5017   */\n  swap1\n  pop\n    /* \"#utility.yul\":4728:5023   */\n  swap3\n  swap2\n  pop\n  pop\n  jump\t// out\n    /* \"#utility.yul\":5028:6423   */\ntag_11:\n    /* \"#utility.yul\":5145:5182   */\n  tag_106\n    /* \"#utility.yul\":5178:5181   */\n  dup3\n    /* \"#utility.yul\":5145:5182   */\n  tag_23\n  jump\t// in\ntag_106:\n    /* \"#utility.yul\":5247:5265   */\n  0xffffffffffffffff\n    /* \"#utility.yul\":5239:5245   */\n  dup2\n    /* \"#utility.yul\":5236:5266   */\n  gt\n    /* \"#utility.yul\":5233:5289   */\n  iszero\n  tag_107\n  jumpi\n    /* \"#utility.yul\":5269:5287   */\n  tag_108\n  tag_24\n  jump\t// in\ntag_108:\n    /* \"#utility.yul\":5233:5289   */\ntag_107:\n    /* \"#utility.yul\":5313:5351   */\n  tag_109\n    /* \"#utility.yul\":5345:5349   */\n  dup3\n    /* \"#utility.yul\":5339:5350   */\n  sload\n    /* \"#utility.yul\":5313:5351   */\n  tag_26\n  jump\t// in\ntag_109:\n    /* \"#utility.yul\":5398:5465   */\n  tag_110\n    /* \"#utility.yul\":5458:5464   */\n  dup3\n    /* \"#utility.yul\":5450:5456   */\n  dup3\n    /* \"#utility.yul\":5444:5448   */\n  dup6\n    /* \"#utility.yul\":5398:5465   */\n  tag_39\n  jump\t// in\ntag_110:\n    /* \"#utility.yul\":5492:5493   */\n  0x00\n    /* \"#utility.yul\":5516:5520   */\n  0x20\n    /* \"#utility.yul\":5503:5520   */\n  swap1\n  pop\n    /* \"#utility.yul\":5548:5550   */\n  0x1f\n    /* \"#utility.yul\":5540:5546   */\n  dup4\n    /* \"#utility.yul\":5537:5551   */\n  gt\n    /* \"#utility.yul\":5565:5566   */\n  0x01\n    /* \"#utility.yul\":5560:6178   */\n  dup2\n  eq\n  tag_112\n  jumpi\n    /* \"#utility.yul\":6222:6223   */\n  0x00\n    /* \"#utility.yul\":6239:6245   */\n  dup5\n    /* \"#utility.yul\":6236:6313   */\n  iszero\n  tag_113\n  jumpi\n    /* \"#utility.yul\":6288:6297   */\n  dup3\n    /* \"#utility.yul\":6283:6286   */\n  dup8\n    /* \"#utility.yul\":6279:6298   */\n  add\n    /* \"#utility.yul\":6273:6299   */\n  mload\n    /* \"#utility.yul\":6264:6299   */\n  swap1\n  pop\n    /* \"#utility.yul\":6236:6313   */\ntag_113:\n    /* \"#utility.yul\":6339:6406   */\n  tag_114\n    /* \"#utility.yul\":6399:6405   */\n  dup6\n    /* \"#utility.yul\":6392:6397   */\n  dup3\n    /* \"#utility.yul\":6339:6406   */\n  tag_42\n  jump\t// in\ntag_114:\n    /* \"#utility.yul\":6333:6337   */\n  dup7\n    /* \"#utility.yul\":6326:6407   */\n  sstore\n    /* \"#utility.yul\":6195:6417   */\n  pop\n    /* \"#utility.yul\":5530:6417   */\n  jump(tag_111)\n    /* \"#utility.yul\":5560:6178   */\ntag_112:\n    /* \"#utility.yul\":5612:5616   */\n  0x1f\n    /* \"#utility.yul\":5608:5617   */\n  not\n    /* \"#utility.yul\":5600:5606   */\n  dup5\n    /* \"#utility.yul\":5596:5618   */\n  and\n    /* \"#utility.yul\":5646:5683   */\n  tag_115\n    /* \"#utility.yul\":5678:5682   */\n  dup7\n    /* \"#utility.yul\":5646:5683   */\n  tag_27\n  jump\t// in\ntag_115:\n    /* \"#utility.yul\":5705:5706   */\n  0x00\n    /* \"#utility.yul\":5719:5927   */\ntag_116:\n    /* \"#utility.yul\":5733:5740   */\n  dup3\n    /* \"#utility.yul\":5730:5731   */\n  dup2\n    /* \"#utility.yul\":5727:5741   */\n  lt\n    /* \"#utility.yul\":5719:5927   */\n  iszero\n  tag_118\n  jumpi\n    /* \"#utility.yul\":5812:5821   */\n  dup5\n    /* \"#utility.yul\":5807:5810   */\n  dup10\n    /* \"#utility.yul\":5803:5822   */\n  add\n    /* \"#utility.yul\":5797:5823   */\n  mload\n    /* \"#utility.yul\":5789:5795   */\n  dup3\n    /* \"#utility.yul\":5782:5824   */\n  sstore\n    /* \"#utility.yul\":5863:5864   */\n  0x01\n    /* \"#utility.yul\":5855:5861   */\n  dup3\n    /* \"#utility.yul\":5851:5865   */\n  add\n    /* \"#utility.yul\":5841:5865   */\n  swap2\n  pop\n    /* \"#utility.yul\":5910:5912   */\n  0x20\n    /* \"#utility.yul\":5899:5908   */\n  dup6\n    /* \"#utility.yul\":5895:5913   */\n  add\n    /* \"#utility.yul\":5882:5913   */\n  swap5\n  pop\n    /* \"#utility.yul\":5756:5760   */\n  0x20\n    /* \"#utility.yul\":5753:5754   */\n  dup2\n    /* \"#utility.yul\":5749:5761   */\n  add\n    /* \"#utility.yul\":5744:5761   */\n  swap1\n  pop\n    /* \"#utility.yul\":5719:5927   */\n  jump(tag_116)\ntag_118:\n    /* \"#utility.yul\":5955:5961   */\n  dup7\n    /* \"#utility.yul\":5946:5953   */\n  dup4\n    /* \"#utility.yul\":5943:5962   */\n  lt\n    /* \"#utility.yul\":5940:6119   */\n  iszero\n  tag_119\n  jumpi\n    /* \"#utility.yul\":6013:6022   */\n  dup5\n    /* \"#utility.yul\":6008:6011   */\n  dup10\n    /* \"#utility.yul\":6004:6023   */\n  add\n    /* \"#utility.yul\":5998:6024   */\n  mload\n    /* \"#utility.yul\":6056:6104   */\n  tag_120\n    /* \"#utility.yul\":6098:6102   */\n  0x1f\n    /* \"#utility.yul\":6090:6096   */\n  dup10\n    /* \"#utility.yul\":6086:6103   */\n  and\n    /* \"#utility.yul\":6075:6084   */\n  dup3\n    /* \"#utility.yul\":6056:6104   */\n  tag_41\n  jump\t// in\ntag_120:\n    /* \"#utility.yul\":6048:6054   */\n  dup4\n    /* \"#utility.yul\":6041:6105   */\n  sstore\n    /* \"#utility.yul\":5963:6119   */\n  pop\n    /* \"#utility.yul\":5940:6119   */\ntag_119:\n    /* \"#utility.yul\":6165:6166   */\n  0x01\n    /* \"#utility.yul\":6161:6162   */\n  0x02\n    /* \"#utility.yul\":6153:6159   */\n  dup9\n    /* \"#utility.yul\":6149:6163   */\n  mul\n    /* \"#utility.yul\":6145:6167   */\n  add\n    /* \"#utility.yul\":6139:6143   */\n  dup9\n    /* \"#utility.yul\":6132:6168   */\n  sstore\n    /* \"#utility.yul\":5567:6178   */\n  pop\n  pop\n  pop\n    /* \"#utility.yul\":5530:6417   */\ntag_111:\n  pop\n    /* \"#utility.yul\":5120:6423   */\n  pop\n  pop\n  pop\n    /* \"#utility.yul\":5028:6423   */\n  pop\n  pop\n  jump\t// out\n    /* \"#utility.yul\":6429:6609   */\ntag_43:\n    /* \"#utility.yul\":6477:6554   */\n  0x4e487b7100000000000000000000000000000000000000000000000000000000\n    /* \"#utility.yul\":6474:6475   */\n  0x00\n    /* \"#utility.yul\":6467:6555   */\n  mstore\n    /* \"#utility.yul\":6574:6578   */\n  0x11\n    /* \"#utility.yul\":6571:6572   */\n  0x04\n    /* \"#utility.yul\":6564:6579   */\n  mstore\n    /* \"#utility.yul\":6598:6602   */\n  0x24\n    /* \"#utility.yul\":6595:6596   */\n  0x00\n    /* \"#utility.yul\":6588:6603   */\n  revert\n    /* \"#utility.yul\":6615:6848   */\ntag_14:\n    /* \"#utility.yul\":6654:6657   */\n  0x00\n    /* \"#utility.yul\":6677:6701   */\n  tag_123\n    /* \"#utility.yul\":6695:6700   */\n  dup3\n    /* \"#utility.yul\":6677:6701   */\n  tag_31\n  jump\t// in\ntag_123:\n    /* \"#utility.yul\":6668:6701   */\n  swap2\n  pop\n    /* \"#utility.yul\":6723:6789   */\n  0xffffffffffffffffffffffffffffffffffffffffffffffffffffffffffffffff\n    /* \"#utility.yul\":6716:6721   */\n  dup3\n    /* \"#utility.yul\":6713:6790   */\n  sub\n    /* \"#utility.yul\":6710:6813   */\n  tag_124\n  jumpi\n    /* \"#utility.yul\":6793:6811   */\n  tag_125\n  tag_43\n  jump\t// in\ntag_125:\n    /* \"#utility.yul\":6710:6813   */\ntag_124:\n    /* \"#utility.yul\":6840:6841   */\n  0x01\n    /* \"#utility.yul\":6833:6838   */\n  dup3\n    /* \"#utility.yul\":6829:6842   */\n  add\n    /* \"#utility.yul\":6822:6842   */\n  swap1\n  pop\n    /* \"#utility.yul\":6615:6848   */\n  swap2\n  swap1\n  pop\n  jump\t// out\n    /* \"DeadStock.sol\":67:3478  contract DeadStock {... */\ntag_8:\n  dataSize(sub_0)\n  dup1\n  dataOffset(sub_0)\n  0x00\n  codecopy\n  0x00\n  return\nstop\n\nsub_0: assembly {\n        /* \"DeadStock.sol\":67:3478  contract DeadStock {... */\n      mstore(0x40, 0x80)\n      callvalue\n      dup1\n      iszero\n      tag_1\n      jumpi\n      0x00\n      dup1\n      revert\n    tag_1:\n      pop\n      jumpi(tag_2, lt(calldatasize, 0x04))\n      shr(0xe0, calldataload(0x00))\n      dup1\n      0x9f4216e8\n      gt\n      tag_23\n      jumpi\n      dup1\n      0xd0e0a52f\n      gt\n      tag_24\n      jumpi\n      dup1\n      0xd0e0a52f\n      eq\n      tag_18\n      jumpi\n      dup1\n      0xd2192dbf\n      eq\n      tag_19\n      jumpi\n      dup1\n      0xf4558ef9\n      eq\n      tag_20\n      jumpi\n      dup1\n      0xf59badad\n      eq\n      tag_21\n      jumpi\n      dup1\n      0xf5ca6e9c\n      eq\n      tag_22\n      jumpi\n      jump(tag_2)\n    tag_24:\n      dup1\n      0x9f4216e8\n      eq\n      tag_13\n      jumpi\n      dup1\n      0xa848bf8b\n      eq\n      tag_14\n      jumpi\n      dup1\n      0xb17e8964\n      eq\n      tag_15\n      jumpi\n      dup1\n      0xc99de57e\n      eq\n      tag_16\n      jumpi\n      dup1\n      0xccc590f2\n      eq\n      tag_17\n      jumpi\n      jump(tag_2)\n    tag_23:\n      dup1\n      0x2bcc23f8\n      gt\n      tag_25\n      jumpi\n      dup1\n      0x2bcc23f8\n      eq\n      tag_8\n      jumpi\n      dup1\n      0x2cddaa86\n      eq\n      tag_9\n      jumpi\n      dup1\n      0x89d7c784\n      eq\n      tag_10\n      jumpi\n      dup1\n      0x8ad257b7\n      eq\n      tag_11\n      jumpi\n      dup1\n      0x8bfad1fa\n      eq\n      tag_12\n      jumpi\n      jump(tag_2)\n    tag_25:\n      dup1\n      0x02d05d3f\n      eq\n      tag_3\n      jumpi\n      dup1\n      0x04ef5b21\n      eq\n      tag_4\n      jumpi\n      dup1\n      0x05d4a7f5\n      eq\n      tag_5\n      jumpi\n      dup1\n      0x0f44f0b8\n      eq\n      tag_6\n      jumpi\n      dup1\n      0x220fd618\n      eq\n      tag_7\n      jumpi\n    tag_2:\n      0x00\n      dup1\n      revert\n        /* \"DeadStock.sol\":587:609  address public creator */\n    tag_3:\n      tag_26\n      tag_27\n      jump\t// in\n    tag_26:\n      mload(0x40)\n      tag_28\n      swap2\n      swap1\n      tag_29\n      jump\t// in\n    tag_28:\n      mload(0x40)\n      dup1\n      swap2\n      sub\n      swap1\n      return\n        /* \"DeadStock.sol\":772:808  Transaction[] public transactionList */\n    tag_4:\n      tag_30\n      0x04\n      dup1\n      calldatasize\n      sub\n      dup2\n      add\n      swap1\n      tag_31\n      swap2\n      swap1\n      tag_32\n      jump\t// in\n    tag_31:\n      tag_33\n      jump\t// in\n    tag_30:\n      mload(0x40)\n      tag_34\n      swap12\n      swap11\n      swap10\n      swap9\n      swap8\n      swap7\n      swap6\n      swap5\n      swap4\n      swap3\n      swap2\n      swap1\n      tag_35\n      jump\t// in\n    tag_34:\n      mload(0x40)\n      dup1\n      swap2\n      sub\n      swap1\n      return\n        /* \"DeadStock.sol\":2955:3186  function updateLocation(string memory _hash, string memory _location, string memory _date) public{... */\n    tag_5:\n      tag_36\n      0x04\n      dup1\n      calldatasize\n      sub\n      dup2\n      add\n      swap1\n      tag_37\n      swap2\n      swap1\n      tag_38\n      jump\t// in\n    tag_37:\n      tag_39\n      jump\t// in\n    tag_36:\n      stop\n        /* \"DeadStock.sol\":813:851  mapping(string => Role) public roleMap */\n    tag_6:\n      tag_40\n      0x04\n      dup1\n      calldatasize\n      sub\n      dup2\n      add\n      swap1\n      tag_41\n      swap2\n      swap1\n      tag_42\n      jump\t// in\n    tag_41:\n      tag_43\n      jump\t// in\n    tag_40:\n      mload(0x40)\n      tag_44\n      swap4\n      swap3\n      swap2\n      swap1\n      tag_45\n      jump\t// in\n    tag_44:\n      mload(0x40)\n      dup1\n      swap2\n      sub\n      swap1\n      return\n        /* \"DeadStock.sol\":3190:3292  function listTransaction() public view returns(Transaction[] memory) {... */\n    tag_7:\n      tag_46\n      tag_47\n      jump\t// in\n    tag_46:\n      mload(0x40)\n      tag_48\n      swap2\n      swap1\n      tag_49\n      jump\t// in\n    tag_48:\n      mload(0x40)\n      dup1\n      swap2\n      sub\n      swap1\n      return\n        /* \"DeadStock.sol\":855:894  mapping(address => User) public userMap */\n    tag_8:\n      tag_50\n      0x04\n      dup1\n      calldatasize\n      sub\n      dup2\n      add\n      swap1\n      tag_51\n      swap2\n      swap1\n      tag_52\n      jump\t// in\n    tag_51:\n      tag_53\n      jump\t// in\n    tag_50:\n      mload(0x40)\n      tag_54\n      swap5\n      swap4\n      swap3\n      swap2\n      swap1\n      tag_55\n      jump\t// in\n    tag_54:\n      mload(0x40)\n      dup1\n      swap2\n      sub\n      swap1\n      return\n        /* \"DeadStock.sol\":1363:1447  function authCreator() public view creatorOnly returns (bool) {... */\n    tag_9:\n      tag_56\n      tag_57\n      jump\t// in\n    tag_56:\n      mload(0x40)\n      tag_58\n      swap2\n      swap1\n      tag_59\n      jump\t// in\n    tag_58:\n      mload(0x40)\n      dup1\n      swap2\n      sub\n      swap1\n      return\n        /* \"DeadStock.sol\":1273:1355  function authMember() public view memberOnly returns (bool) {... */\n    tag_10:\n      tag_60\n      tag_61\n      jump\t// in\n    tag_60:\n      mload(0x40)\n      tag_62\n      swap2\n      swap1\n      tag_59\n      jump\t// in\n    tag_62:\n      mload(0x40)\n      dup1\n      swap2\n      sub\n      swap1\n      return\n        /* \"DeadStock.sol\":3296:3383  function listUsers() public view returns(address[] memory) {... */\n    tag_11:\n      tag_63\n      tag_64\n      jump\t// in\n    tag_63:\n      mload(0x40)\n      tag_65\n      swap2\n      swap1\n      tag_66\n      jump\t// in\n    tag_65:\n      mload(0x40)\n      dup1\n      swap2\n      sub\n      swap1\n      return\n        /* \"DeadStock.sol\":2154:2696  function createTransaction(string memory _id, ... */\n    tag_12:\n      tag_67\n      0x04\n      dup1\n      calldatasize\n      sub\n      dup2\n      add\n      swap1\n      tag_68\n      swap2\n      swap1\n      tag_69\n      jump\t// in\n    tag_68:\n      tag_70\n      jump\t// in\n    tag_67:\n      stop\n        /* \"DeadStock.sol\":643:668  address[] public userList */\n    tag_13:\n      tag_71\n      0x04\n      dup1\n      calldatasize\n      sub\n      dup2\n      add\n      swap1\n      tag_72\n      swap2\n      swap1\n      tag_32\n      jump\t// in\n    tag_72:\n      tag_73\n      jump\t// in\n    tag_71:\n      mload(0x40)\n      tag_74\n      swap2\n      swap1\n      tag_29\n      jump\t// in\n    tag_74:\n      mload(0x40)\n      dup1\n      swap2\n      sub\n      swap1\n      return\n        /* \"DeadStock.sol\":954:1000  mapping(string => Approval) public approvalMap */\n    tag_14:\n      tag_75\n      0x04\n      dup1\n      calldatasize\n      sub\n      dup2\n      add\n      swap1\n      tag_76\n      swap2\n      swap1\n      tag_42\n      jump\t// in\n    tag_76:\n      tag_77\n      jump\t// in\n    tag_75:\n      mload(0x40)\n      tag_78\n      swap2\n      swap1\n      tag_79\n      jump\t// in\n    tag_78:\n      mload(0x40)\n      dup1\n      swap2\n      sub\n      swap1\n      return\n        /* \"DeadStock.sol\":1451:1688  function createUser(string memory _role, address _id, string memory _name) public {... */\n    tag_15:\n      tag_80\n      0x04\n      dup1\n      calldatasize\n      sub\n      dup2\n      add\n      swap1\n      tag_81\n      swap2\n      swap1\n      tag_82\n      jump\t// in\n    tag_81:\n      tag_83\n      jump\t// in\n    tag_80:\n      stop\n        /* \"DeadStock.sol\":613:639  address public transaction */\n    tag_16:\n      tag_84\n      tag_85\n      jump\t// in\n    tag_84:\n      mload(0x40)\n      tag_86\n      swap2\n      swap1\n      tag_29\n      jump\t// in\n    tag_86:\n      mload(0x40)\n      dup1\n      swap2\n      sub\n      swap1\n      return\n        /* \"DeadStock.sol\":898:950  mapping(string => Transaction) public transactionMap */\n    tag_17:\n      tag_87\n      0x04\n      dup1\n      calldatasize\n      sub\n      dup2\n      add\n      swap1\n      tag_88\n      swap2\n      swap1\n      tag_42\n      jump\t// in\n    tag_88:\n      tag_89\n      jump\t// in\n    tag_87:\n      mload(0x40)\n      tag_90\n      swap12\n      swap11\n      swap10\n      swap9\n      swap8\n      swap7\n      swap6\n      swap5\n      swap4\n      swap3\n      swap2\n      swap1\n      tag_35\n      jump\t// in\n    tag_90:\n      mload(0x40)\n      dup1\n      swap2\n      sub\n      swap1\n      return\n        /* \"DeadStock.sol\":1897:2150  function verifyItem(string memory _hash, string memory _location, string memory _date) public{... */\n    tag_18:\n      tag_91\n      0x04\n      dup1\n      calldatasize\n      sub\n      dup2\n      add\n      swap1\n      tag_92\n      swap2\n      swap1\n      tag_38\n      jump\t// in\n    tag_92:\n      tag_93\n      jump\t// in\n    tag_91:\n      stop\n        /* \"DeadStock.sol\":1692:1893  function createRole(string memory _role, string memory _name) public {... */\n    tag_19:\n      tag_94\n      0x04\n      dup1\n      calldatasize\n      sub\n      dup2\n      add\n      swap1\n      tag_95\n      swap2\n      swap1\n      tag_96\n      jump\t// in\n    tag_95:\n      tag_97\n      jump\t// in\n    tag_94:\n      stop\n        /* \"DeadStock.sol\":746:768  Role[] public roleList */\n    tag_20:\n      tag_98\n      0x04\n      dup1\n      calldatasize\n      sub\n      dup2\n      add\n      swap1\n      tag_99\n      swap2\n      swap1\n      tag_32\n      jump\t// in\n    tag_99:\n      tag_100\n      jump\t// in\n    tag_98:\n      mload(0x40)\n      tag_101\n      swap4\n      swap3\n      swap2\n      swap1\n      tag_45\n      jump\t// in\n    tag_101:\n      mload(0x40)\n      dup1\n      swap2\n      sub\n      swap1\n      return\n        /* \"DeadStock.sol\":3391:3473  function listRoles() public view returns(Role[] memory) {... */\n    tag_21:\n      tag_102\n      tag_103\n      jump\t// in\n    tag_102:\n      mload(0x40)\n      tag_104\n      swap2\n      swap1\n      tag_105\n      jump\t// in\n    tag_104:\n      mload(0x40)\n      dup1\n      swap2\n      sub\n      swap1\n      return\n        /* \"DeadStock.sol\":2700:2951  function writeOff(string memory _hash, string memory _location, string memory _date) public{... */\n    tag_22:\n      tag_106\n      0x04\n      dup1\n      calldatasize\n      sub\n      dup2\n      add\n      swap1\n      tag_107\n      swap2\n      swap1\n      tag_38\n      jump\t// in\n    tag_107:\n      tag_108\n      jump\t// in\n    tag_106:\n      stop\n        /* \"DeadStock.sol\":587:609  address public creator */\n    tag_27:\n      0x00\n      dup1\n      sload\n      swap1\n      0x0100\n      exp\n      swap1\n      div\n      0xffffffffffffffffffffffffffffffffffffffff\n      and\n      dup2\n      jump\t// out\n        /* \"DeadStock.sol\":772:808  Transaction[] public transactionList */\n    tag_33:\n      0x07\n      dup2\n      dup2\n      sload\n      dup2\n      lt\n      tag_109\n      jumpi\n      0x00\n      dup1\n      revert\n    tag_109:\n      swap1\n      0x00\n      mstore\n      keccak256(0x00, 0x20)\n      swap1\n      0x0b\n      mul\n      add\n      0x00\n      swap2\n      pop\n      swap1\n      pop\n      dup1\n      0x00\n      add\n      dup1\n      sload\n      tag_111\n      swap1\n      tag_112\n      jump\t// in\n    tag_111:\n      dup1\n      0x1f\n      add\n      0x20\n      dup1\n      swap2\n      div\n      mul\n      0x20\n      add\n      mload(0x40)\n      swap1\n      dup2\n      add\n      0x40\n      mstore\n      dup1\n      swap3\n      swap2\n      swap1\n      dup2\n      dup2\n      mstore\n      0x20\n      add\n      dup3\n      dup1\n      sload\n      tag_113\n      swap1\n      tag_112\n      jump\t// in\n    tag_113:\n      dup1\n      iszero\n      tag_114\n      jumpi\n      dup1\n      0x1f\n      lt\n      tag_115\n      jumpi\n      0x0100\n      dup1\n      dup4\n      sload\n      div\n      mul\n      dup4\n      mstore\n      swap2\n      0x20\n      add\n      swap2\n      jump(tag_114)\n    tag_115:\n      dup3\n      add\n      swap2\n      swap1\n      0x00\n      mstore\n      keccak256(0x00, 0x20)\n      swap1\n    tag_116:\n      dup2\n      sload\n      dup2\n      mstore\n      swap1\n      0x01\n      add\n      swap1\n      0x20\n      add\n      dup1\n      dup4\n      gt\n      tag_116\n      jumpi\n      dup3\n      swap1\n      sub\n      0x1f\n      and\n      dup3\n      add\n      swap2\n    tag_114:\n      pop\n      pop\n      pop\n      pop\n      pop\n      swap1\n      dup1\n      0x01\n      add\n      dup1\n      sload\n      tag_117\n      swap1\n      tag_112\n      jump\t// in\n    tag_117:\n      dup1\n      0x1f\n      add\n      0x20\n      dup1\n      swap2\n      div\n      mul\n      0x20\n      add\n      mload(0x40)\n      swap1\n      dup2\n      add\n      0x40\n      mstore\n      dup1\n      swap3\n      swap2\n      swap1\n      dup2\n      dup2\n      mstore\n      0x20\n      add\n      dup3\n      dup1\n      sload\n      tag_118\n      swap1\n      tag_112\n      jump\t// in\n    tag_118:\n      dup1\n      iszero\n      tag_119\n      jumpi\n      dup1\n      0x1f\n      lt\n      tag_120\n      jumpi\n      0x0100\n      dup1\n      dup4\n      sload\n      div\n      mul\n      dup4\n      mstore\n      swap2\n      0x20\n      add\n      swap2\n      jump(tag_119)\n    tag_120:\n      dup3\n      add\n      swap2\n      swap1\n      0x00\n      mstore\n      keccak256(0x00, 0x20)\n      swap1\n    tag_121:\n      dup2\n      sload\n      dup2\n      mstore\n      swap1\n      0x01\n      add\n      swap1\n      0x20\n      add\n      dup1\n      dup4\n      gt\n      tag_121\n      jumpi\n      dup3\n      swap1\n      sub\n      0x1f\n      and\n      dup3\n      add\n      swap2\n    tag_119:\n      pop\n      pop\n      pop\n      pop\n      pop\n      swap1\n      dup1\n      0x02\n      add\n      dup1\n      sload\n      tag_122\n      swap1\n      tag_112\n      jump\t// in\n    tag_122:\n      dup1\n      0x1f\n      add\n      0x20\n      dup1\n      swap2\n      div\n      mul\n      0x20\n      add\n      mload(0x40)\n      swap1\n      dup2\n      add\n      0x40\n      mstore\n      dup1\n      swap3\n      swap2\n      swap1\n      dup2\n      dup2\n      mstore\n      0x20\n      add\n      dup3\n      dup1\n      sload\n      tag_123\n      swap1\n      tag_112\n      jump\t// in\n    tag_123:\n      dup1\n      iszero\n      tag_124\n      jumpi\n      dup1\n      0x1f\n      lt\n      tag_125\n      jumpi\n      0x0100\n      dup1\n      dup4\n      sload\n      div\n      mul\n      dup4\n      mstore\n      swap2\n      0x20\n      add\n      swap2\n      jump(tag_124)\n    tag_125:\n      dup3\n      add\n      swap2\n      swap1\n      0x00\n      mstore\n      keccak256(0x00, 0x20)\n      swap1\n    tag_126:\n      dup2\n      sload\n      dup2\n      mstore\n      swap1\n      0x01\n      add\n      swap1\n      0x20\n      add\n      dup1\n      dup4\n      gt\n      tag_126\n      jumpi\n      dup3\n      swap1\n      sub\n      0x1f\n      and\n      dup3\n      add\n      swap2\n    tag_124:\n      pop\n      pop\n      pop\n      pop\n      pop\n      swap1\n      dup1\n      0x03\n      add\n      dup1\n      sload\n      tag_127\n      swap1\n      tag_112\n      jump\t// in\n    tag_127:\n      dup1\n      0x1f\n      add\n      0x20\n      dup1\n      swap2\n      div\n      mul\n      0x20\n      add\n      mload(0x40)\n      swap1\n      dup2\n      add\n      0x40\n      mstore\n      dup1\n      swap3\n      swap2\n      swap1\n      dup2\n      dup2\n      mstore\n      0x20\n      add\n      dup3\n      dup1\n      sload\n      tag_128\n      swap1\n      tag_112\n      jump\t// in\n    tag_128:\n      dup1\n      iszero\n      tag_129\n      jumpi\n      dup1\n      0x1f\n      lt\n      tag_130\n      jumpi\n      0x0100\n      dup1\n      dup4\n      sload\n      div\n      mul\n      dup4\n      mstore\n      swap2\n      0x20\n      add\n      swap2\n      jump(tag_129)\n    tag_130:\n      dup3\n      add\n      swap2\n      swap1\n      0x00\n      mstore\n      keccak256(0x00, 0x20)\n      swap1\n    tag_131:\n      dup2\n      sload\n      dup2\n      mstore\n      swap1\n      0x01\n      add\n      swap1\n      0x20\n      add\n      dup1\n      dup4\n      gt\n      tag_131\n      jumpi\n      dup3\n      swap1\n      sub\n      0x1f\n      and\n      dup3\n      add\n      swap2\n    tag_129:\n      pop\n      pop\n      pop\n      pop\n      pop\n      swap1\n      dup1\n      0x04\n      add\n      sload\n      swap1\n      dup1\n      0x05\n      add\n      dup1\n      sload\n      tag_132\n      swap1\n      tag_112\n      jump\t// in\n    tag_132:\n      dup1\n      0x1f\n      add\n      0x20\n      dup1\n      swap2\n      div\n      mul\n      0x20\n      add\n      mload(0x40)\n      swap1\n      dup2\n      add\n      0x40\n      mstore\n      dup1\n      swap3\n      swap2\n      swap1\n      dup2\n      dup2\n      mstore\n      0x20\n      add\n      dup3\n      dup1\n      sload\n      tag_133\n      swap1\n      tag_112\n      jump\t// in\n    tag_133:\n      dup1\n      iszero\n      tag_134\n      jumpi\n      dup1\n      0x1f\n      lt\n      tag_135\n      jumpi\n      0x0100\n      dup1\n      dup4\n      sload\n      div\n      mul\n      dup4\n      mstore\n      swap2\n      0x20\n      add\n      swap2\n      jump(tag_134)\n    tag_135:\n      dup3\n      add\n      swap2\n      swap1\n      0x00\n      mstore\n      keccak256(0x00, 0x20)\n      swap1\n    tag_136:\n      dup2\n      sload\n      dup2\n      mstore\n      swap1\n      0x01\n      add\n      swap1\n      0x20\n      add\n      dup1\n      dup4\n      gt\n      tag_136\n      jumpi\n      dup3\n      swap1\n      sub\n      0x1f\n      and\n      dup3\n      add\n      swap2\n    tag_134:\n      pop\n      pop\n      pop\n      pop\n      pop\n      swap1\n      dup1\n      0x06\n      add\n      dup1\n      sload\n      tag_137\n      swap1\n      tag_112\n      jump\t// in\n    tag_137:\n      dup1\n      0x1f\n      add\n      0x20\n      dup1\n      swap2\n      div\n      mul\n      0x20\n      add\n      mload(0x40)\n      swap1\n      dup2\n      add\n      0x40\n      mstore\n      dup1\n      swap3\n      swap2\n      swap1\n      dup2\n      dup2\n      mstore\n      0x20\n      add\n      dup3\n      dup1\n      sload\n      tag_138\n      swap1\n      tag_112\n      jump\t// in\n    tag_138:\n      dup1\n      iszero\n      tag_139\n      jumpi\n      dup1\n      0x1f\n      lt\n      tag_140\n      jumpi\n      0x0100\n      dup1\n      dup4\n      sload\n      div\n      mul\n      dup4\n      mstore\n      swap2\n      0x20\n      add\n      swap2\n      jump(tag_139)\n    tag_140:\n      dup3\n      add\n      swap2\n      swap1\n      0x00\n      mstore\n      keccak256(0x00, 0x20)\n      swap1\n    tag_141:\n      dup2\n      sload\n      dup2\n      mstore\n      swap1\n      0x01\n      add\n      swap1\n      0x20\n      add\n      dup1\n      dup4\n      gt\n      tag_141\n      jumpi\n      dup3\n      swap1\n      sub\n      0x1f\n      and\n      dup3\n      add\n      swap2\n    tag_139:\n      pop\n      pop\n      pop\n      pop\n      pop\n      swap1\n      dup1\n      0x07\n      add\n      0x00\n      swap1\n      sload\n      swap1\n      0x0100\n      exp\n      swap1\n      div\n      0xffffffffffffffffffffffffffffffffffffffff\n      and\n      swap1\n      dup1\n      0x08\n      add\n      0x00\n      swap1\n      sload\n      swap1\n      0x0100\n      exp\n      swap1\n      div\n      0xffffffffffffffffffffffffffffffffffffffff\n      and\n      swap1\n      dup1\n      0x09\n      add\n      sload\n      swap1\n      dup1\n      0x0a\n      add\n      dup1\n      sload\n      tag_142\n      swap1\n      tag_112\n      jump\t// in\n    tag_142:\n      dup1\n      0x1f\n      add\n      0x20\n      dup1\n      swap2\n      div\n      mul\n      0x20\n      add\n      mload(0x40)\n      swap1\n      dup2\n      add\n      0x40\n      mstore\n      dup1\n      swap3\n      swap2\n      swap1\n      dup2\n      dup2\n      mstore\n      0x20\n      add\n      dup3\n      dup1\n      sload\n      tag_143\n      swap1\n      tag_112\n      jump\t// in\n    tag_143:\n      dup1\n      iszero\n      tag_144\n      jumpi\n      dup1\n      0x1f\n      lt\n      tag_145\n      jumpi\n      0x0100\n      dup1\n      dup4\n      sload\n      div\n      mul\n      dup4\n      mstore\n      swap2\n      0x20\n      add\n      swap2\n      jump(tag_144)\n    tag_145:\n      dup3\n      add\n      swap2\n      swap1\n      0x00\n      mstore\n      keccak256(0x00, 0x20)\n      swap1\n    tag_146:\n      dup2\n      sload\n      dup2\n      mstore\n      swap1\n      0x01\n      add\n      swap1\n      0x20\n      add\n      dup1\n      dup4\n      gt\n      tag_146\n      jumpi\n      dup3\n      swap1\n      sub\n      0x1f\n      and\n      dup3\n      add\n      swap2\n    tag_144:\n      pop\n      pop\n      pop\n      pop\n      pop\n      swap1\n      pop\n      dup12\n      jump\t// out\n        /* \"DeadStock.sol\":2955:3186  function updateLocation(string memory _hash, string memory _location, string memory _date) public{... */\n    tag_39:\n        /* \"DeadStock.sol\":3058:3079  Transaction storage t */\n      0x00\n        /* \"DeadStock.sol\":3082:3096  transactionMap */\n      0x0a\n        /* \"DeadStock.sol\":3097:3102  _hash */\n      dup5\n        /* \"DeadStock.sol\":3082:3103  transactionMap[_hash] */\n      mload(0x40)\n      tag_148\n      swap2\n      swap1\n      tag_149\n      jump\t// in\n    tag_148:\n      swap1\n      dup2\n      mstore\n      0x20\n      add\n      mload(0x40)\n      dup1\n      swap2\n      sub\n      swap1\n      keccak256\n        /* \"DeadStock.sol\":3058:3103  Transaction storage t = transactionMap[_hash] */\n      swap1\n      pop\n        /* \"DeadStock.sol\":3118:3123  _date */\n      dup2\n        /* \"DeadStock.sol\":3109:3110  t */\n      dup2\n        /* \"DeadStock.sol\":3109:3115  t.Date */\n      0x05\n      add\n        /* \"DeadStock.sol\":3109:3123  t.Date = _date */\n      swap1\n      dup2\n      tag_150\n      swap2\n      swap1\n      tag_151\n      jump\t// in\n    tag_150:\n      pop\n        /* \"DeadStock.sol\":3142:3151  _location */\n      dup3\n        /* \"DeadStock.sol\":3129:3130  t */\n      dup2\n        /* \"DeadStock.sol\":3129:3139  t.Location */\n      0x06\n      add\n        /* \"DeadStock.sol\":3129:3151  t.Location = _location */\n      swap1\n      dup2\n      tag_152\n      swap2\n      swap1\n      tag_151\n      jump\t// in\n    tag_152:\n      pop\n        /* \"DeadStock.sol\":3171:3181  msg.sender */\n      caller\n        /* \"DeadStock.sol\":3157:3158  t */\n      dup2\n        /* \"DeadStock.sol\":3157:3168  t.updatedBy */\n      0x08\n      add\n      0x00\n        /* \"DeadStock.sol\":3157:3181  t.updatedBy = msg.sender */\n      0x0100\n      exp\n      dup2\n      sload\n      dup2\n      0xffffffffffffffffffffffffffffffffffffffff\n      mul\n      not\n      and\n      swap1\n      dup4\n      0xffffffffffffffffffffffffffffffffffffffff\n      and\n      mul\n      or\n      swap1\n      sstore\n      pop\n        /* \"DeadStock.sol\":3052:3186  {... */\n      pop\n        /* \"DeadStock.sol\":2955:3186  function updateLocation(string memory _hash, string memory _location, string memory _date) public{... */\n      pop\n      pop\n      pop\n      jump\t// out\n        /* \"DeadStock.sol\":813:851  mapping(string => Role) public roleMap */\n    tag_43:\n      0x08\n      dup2\n      dup1\n      mload\n      0x20\n      dup2\n      add\n      dup3\n      add\n      dup1\n      mload\n      dup5\n      dup3\n      mstore\n      0x20\n      dup4\n      add\n      0x20\n      dup6\n      add\n      keccak256\n      dup2\n      dup4\n      mstore\n      dup1\n      swap6\n      pop\n      pop\n      pop\n      pop\n      pop\n      pop\n      0x00\n      swap2\n      pop\n      swap1\n      pop\n      dup1\n      0x00\n      add\n      sload\n      swap1\n      dup1\n      0x01\n      add\n      dup1\n      sload\n      tag_153\n      swap1\n      tag_112\n      jump\t// in\n    tag_153:\n      dup1\n      0x1f\n      add\n      0x20\n      dup1\n      swap2\n      div\n      mul\n      0x20\n      add\n      mload(0x40)\n      swap1\n      dup2\n      add\n      0x40\n      mstore\n      dup1\n      swap3\n      swap2\n      swap1\n      dup2\n      dup2\n      mstore\n      0x20\n      add\n      dup3\n      dup1\n      sload\n      tag_154\n      swap1\n      tag_112\n      jump\t// in\n    tag_154:\n      dup1\n      iszero\n      tag_155\n      jumpi\n      dup1\n      0x1f\n      lt\n      tag_156\n      jumpi\n      0x0100\n      dup1\n      dup4\n      sload\n      div\n      mul\n      dup4\n      mstore\n      swap2\n      0x20\n      add\n      swap2\n      jump(tag_155)\n    tag_156:\n      dup3\n      add\n      swap2\n      swap1\n      0x00\n      mstore\n      keccak256(0x00, 0x20)\n      swap1\n    tag_157:\n      dup2\n      sload\n      dup2\n      mstore\n      swap1\n      0x01\n      add\n      swap1\n      0x20\n      add\n      dup1\n      dup4\n      gt\n      tag_157\n      jumpi\n      dup3\n      swap1\n      sub\n      0x1f\n      and\n      dup3\n      add\n      swap2\n    tag_155:\n      pop\n      pop\n      pop\n      pop\n      pop\n      swap1\n      dup1\n      0x02\n      add\n      dup1\n      sload\n      tag_158\n      swap1\n      tag_112\n      jump\t// in\n    tag_158:\n      dup1\n      0x1f\n      add\n      0x20\n      dup1\n      swap2\n      div\n      mul\n      0x20\n      add\n      mload(0x40)\n      swap1\n      dup2\n      add\n      0x40\n      mstore\n      dup1\n      swap3\n      swap2\n      swap1\n      dup2\n      dup2\n      mstore\n      0x20\n      add\n      dup3\n      dup1\n      sload\n      tag_159\n      swap1\n      tag_112\n      jump\t// in\n    tag_159:\n      dup1\n      iszero\n      tag_160\n      jumpi\n      dup1\n      0x1f\n      lt\n      tag_161\n      jumpi\n      0x0100\n      dup1\n      dup4\n      sload\n      div\n      mul\n      dup4\n      mstore\n      swap2\n      0x20\n      add\n      swap2\n      jump(tag_160)\n    tag_161:\n      dup3\n      add\n      swap2\n      swap1\n      0x00\n      mstore\n      keccak256(0x00, 0x20)\n      swap1\n    tag_162:\n      dup2\n      sload\n      dup2\n      mstore\n      swap1\n      0x01\n      add\n      swap1\n      0x20\n      add\n      dup1\n      dup4\n      gt\n      tag_162\n      jumpi\n      dup3\n      swap1\n      sub\n      0x1f\n      and\n      dup3\n      add\n      swap2\n    tag_160:\n      pop\n      pop\n      pop\n      pop\n      pop\n      swap1\n      pop\n      dup4\n      jump\t// out\n        /* \"DeadStock.sol\":3190:3292  function listTransaction() public view returns(Transaction[] memory) {... */\n    tag_47:\n        /* \"DeadStock.sol\":3237:3257  Transaction[] memory */\n      0x60\n        /* \"DeadStock.sol\":3272:3287  transactionList */\n      0x07\n        /* \"DeadStock.sol\":3265:3287  return transactionList */\n      dup1\n      sload\n      dup1\n      0x20\n      mul\n      0x20\n      add\n      mload(0x40)\n      swap1\n      dup2\n      add\n      0x40\n      mstore\n      dup1\n      swap3\n      swap2\n      swap1\n      dup2\n      dup2\n      mstore\n      0x20\n      add\n      0x00\n      swap1\n    tag_164:\n      dup3\n      dup3\n      lt\n      iszero\n      tag_165\n      jumpi\n      dup4\n      dup3\n      swap1\n      0x00\n      mstore\n      keccak256(0x00, 0x20)\n      swap1\n      0x0b\n      mul\n      add\n      mload(0x40)\n      dup1\n      0x0160\n      add\n      0x40\n      mstore\n      swap1\n      dup2\n      0x00\n      dup3\n      add\n      dup1\n      sload\n      tag_167\n      swap1\n      tag_112\n      jump\t// in\n    tag_167:\n      dup1\n      0x1f\n      add\n      0x20\n      dup1\n      swap2\n      div\n      mul\n      0x20\n      add\n      mload(0x40)\n      swap1\n      dup2\n      add\n      0x40\n      mstore\n      dup1\n      swap3\n      swap2\n      swap1\n      dup2\n      dup2\n      mstore\n      0x20\n      add\n      dup3\n      dup1\n      sload\n      tag_168\n      swap1\n      tag_112\n      jump\t// in\n    tag_168:\n      dup1\n      iszero\n      tag_169\n      jumpi\n      dup1\n      0x1f\n      lt\n      tag_170\n      jumpi\n      0x0100\n      dup1\n      dup4\n      sload\n      div\n      mul\n      dup4\n      mstore\n      swap2\n      0x20\n      add\n      swap2\n      jump(tag_169)\n    tag_170:\n      dup3\n      add\n      swap2\n      swap1\n      0x00\n      mstore\n      keccak256(0x00, 0x20)\n      swap1\n    tag_171:\n      dup2\n      sload\n      dup2\n      mstore\n      swap1\n      0x01\n      add\n      swap1\n      0x20\n      add\n      dup1\n      dup4\n      gt\n      tag_171\n      jumpi\n      dup3\n      swap1\n      sub\n      0x1f\n      and\n      dup3\n      add\n      swap2\n    tag_169:\n      pop\n      pop\n      pop\n      pop\n      pop\n      dup2\n      mstore\n      0x20\n      add\n      0x01\n      dup3\n      add\n      dup1\n      sload\n      tag_172\n      swap1\n      tag_112\n      jump\t// in\n    tag_172:\n      dup1\n      0x1f\n      add\n      0x20\n      dup1\n      swap2\n      div\n      mul\n      0x20\n      add\n      mload(0x40)\n      swap1\n      dup2\n      add\n      0x40\n      mstore\n      dup1\n      swap3\n      swap2\n      swap1\n      dup2\n      dup2\n      mstore\n      0x20\n      add\n      dup3\n      dup1\n      sload\n      tag_173\n      swap1\n      tag_112\n      jump\t// in\n    tag_173:\n      dup1\n      iszero\n      tag_174\n      jumpi\n      dup1\n      0x1f\n      lt\n      tag_175\n      jumpi\n      0x0100\n      dup1\n      dup4\n      sload\n      div\n      mul\n      dup4\n      mstore\n      swap2\n      0x20\n      add\n      swap2\n      jump(tag_174)\n    tag_175:\n      dup3\n      add\n      swap2\n      swap1\n      0x00\n      mstore\n      keccak256(0x00, 0x20)\n      swap1\n    tag_176:\n      dup2\n      sload\n      dup2\n      mstore\n      swap1\n      0x01\n      add\n      swap1\n      0x20\n      add\n      dup1\n      dup4\n      gt\n      tag_176\n      jumpi\n      dup3\n      swap1\n      sub\n      0x1f\n      and\n      dup3\n      add\n      swap2\n    tag_174:\n      pop\n      pop\n      pop\n      pop\n      pop\n      dup2\n      mstore\n      0x20\n      add\n      0x02\n      dup3\n      add\n      dup1\n      sload\n      tag_177\n      swap1\n      tag_112\n      jump\t// in\n    tag_177:\n      dup1\n      0x1f\n      add\n      0x20\n      dup1\n      swap2\n      div\n      mul\n      0x20\n      add\n      mload(0x40)\n      swap1\n      dup2\n      add\n      0x40\n      mstore\n      dup1\n      swap3\n      swap2\n      swap1\n      dup2\n      dup2\n      mstore\n      0x20\n      add\n      dup3\n      dup1\n      sload\n      tag_178\n      swap1\n      tag_112\n      jump\t// in\n    tag_178:\n      dup1\n      iszero\n      tag_179\n      jumpi\n      dup1\n      0x1f\n      lt\n      tag_180\n      jumpi\n      0x0100\n      dup1\n      dup4\n      sload\n      div\n      mul\n      dup4\n      mstore\n      swap2\n      0x20\n      add\n      swap2\n      jump(tag_179)\n    tag_180:\n      dup3\n      add\n      swap2\n      swap1\n      0x00\n      mstore\n      keccak256(0x00, 0x20)\n      swap1\n    tag_181:\n      dup2\n      sload\n      dup2\n      mstore\n      swap1\n      0x01\n      add\n      swap1\n      0x20\n      add\n      dup1\n      dup4\n      gt\n      tag_181\n      jumpi\n      dup3\n      swap1\n      sub\n      0x1f\n      and\n      dup3\n      add\n      swap2\n    tag_179:\n      pop\n      pop\n      pop\n      pop\n      pop\n      dup2\n      mstore\n      0x20\n      add\n      0x03\n      dup3\n      add\n      dup1\n      sload\n      tag_182\n      swap1\n      tag_112\n      jump\t// in\n    tag_182:\n      dup1\n      0x1f\n      add\n      0x20\n      dup1\n      swap2\n      div\n      mul\n      0x20\n      add\n      mload(0x40)\n      swap1\n      dup2\n      add\n      0x40\n      mstore\n      dup1\n      swap3\n      swap2\n      swap1\n      dup2\n      dup2\n      mstore\n      0x20\n      add\n      dup3\n      dup1\n      sload\n      tag_183\n      swap1\n      tag_112\n      jump\t// in\n    tag_183:\n      dup1\n      iszero\n      tag_184\n      jumpi\n      dup1\n      0x1f\n      lt\n      tag_185\n      jumpi\n      0x0100\n      dup1\n      dup4\n      sload\n      div\n      mul\n      dup4\n      mstore\n      swap2\n      0x20\n      add\n      swap2\n      jump(tag_184)\n    tag_185:\n      dup3\n      add\n      swap2\n      swap1\n      0x00\n      mstore\n      keccak256(0x00, 0x20)\n      swap1\n    tag_186:\n      dup2\n      sload\n      dup2\n      mstore\n      swap1\n      0x01\n      add\n      swap1\n      0x20\n      add\n      dup1\n      dup4\n      gt\n      tag_186\n      jumpi\n      dup3\n      swap1\n      sub\n      0x1f\n      and\n      dup3\n      add\n      swap2\n    tag_184:\n      pop\n      pop\n      pop\n      pop\n      pop\n      dup2\n      mstore\n      0x20\n      add\n      0x04\n      dup3\n      add\n      sload\n      dup2\n      mstore\n      0x20\n      add\n      0x05\n      dup3\n      add\n      dup1\n      sload\n      tag_187\n      swap1\n      tag_112\n      jump\t// in\n    tag_187:\n      dup1\n      0x1f\n      add\n      0x20\n      dup1\n      swap2\n      div\n      mul\n      0x20\n      add\n      mload(0x40)\n      swap1\n      dup2\n      add\n      0x40\n      mstore\n      dup1\n      swap3\n      swap2\n      swap1\n      dup2\n      dup2\n      mstore\n      0x20\n      add\n      dup3\n      dup1\n      sload\n      tag_188\n      swap1\n      tag_112\n      jump\t// in\n    tag_188:\n      dup1\n      iszero\n      tag_189\n      jumpi\n      dup1\n      0x1f\n      lt\n      tag_190\n      jumpi\n      0x0100\n      dup1\n      dup4\n      sload\n      div\n      mul\n      dup4\n      mstore\n      swap2\n      0x20\n      add\n      swap2\n      jump(tag_189)\n    tag_190:\n      dup3\n      add\n      swap2\n      swap1\n      0x00\n      mstore\n      keccak256(0x00, 0x20)\n      swap1\n    tag_191:\n      dup2\n      sload\n      dup2\n      mstore\n      swap1\n      0x01\n      add\n      swap1\n      0x20\n      add\n      dup1\n      dup4\n      gt\n      tag_191\n      jumpi\n      dup3\n      swap1\n      sub\n      0x1f\n      and\n      dup3\n      add\n      swap2\n    tag_189:\n      pop\n      pop\n      pop\n      pop\n      pop\n      dup2\n      mstore\n      0x20\n      add\n      0x06\n      dup3\n      add\n      dup1\n      sload\n      tag_192\n      swap1\n      tag_112\n      jump\t// in\n    tag_192:\n      dup1\n      0x1f\n      add\n      0x20\n      dup1\n      swap2\n      div\n      mul\n      0x20\n      add\n      mload(0x40)\n      swap1\n      dup2\n      add\n      0x40\n      mstore\n      dup1\n      swap3\n      swap2\n      swap1\n      dup2\n      dup2\n      mstore\n      0x20\n      add\n      dup3\n      dup1\n      sload\n      tag_193\n      swap1\n      tag_112\n      jump\t// in\n    tag_193:\n      dup1\n      iszero\n      tag_194\n      jumpi\n      dup1\n      0x1f\n      lt\n      tag_195\n      jumpi\n      0x0100\n      dup1\n      dup4\n      sload\n      div\n      mul\n      dup4\n      mstore\n      swap2\n      0x20\n      add\n      swap2\n      jump(tag_194)\n    tag_195:\n      dup3\n      add\n      swap2\n      swap1\n      0x00\n      mstore\n      keccak256(0x00, 0x20)\n      swap1\n    tag_196:\n      dup2\n      sload\n      dup2\n      mstore\n      swap1\n      0x01\n      add\n      swap1\n      0x20\n      add\n      dup1\n      dup4\n      gt\n      tag_196\n      jumpi\n      dup3\n      swap1\n      sub\n      0x1f\n      and\n      dup3\n      add\n      swap2\n    tag_194:\n      pop\n      pop\n      pop\n      pop\n      pop\n      dup2\n      mstore\n      0x20\n      add\n      0x07\n      dup3\n      add\n      0x00\n      swap1\n      sload\n      swap1\n      0x0100\n      exp\n      swap1\n      div\n      0xffffffffffffffffffffffffffffffffffffffff\n      and\n      0xffffffffffffffffffffffffffffffffffffffff\n      and\n      0xffffffffffffffffffffffffffffffffffffffff\n      and\n      dup2\n      mstore\n      0x20\n      add\n      0x08\n      dup3\n      add\n      0x00\n      swap1\n      sload\n      swap1\n      0x0100\n      exp\n      swap1\n      div\n      0xffffffffffffffffffffffffffffffffffffffff\n      and\n      0xffffffffffffffffffffffffffffffffffffffff\n      and\n      0xffffffffffffffffffffffffffffffffffffffff\n      and\n      dup2\n      mstore\n      0x20\n      add\n      0x09\n      dup3\n      add\n      sload\n      dup2\n      mstore\n      0x20\n      add\n      0x0a\n      dup3\n      add\n      dup1\n      sload\n      tag_197\n      swap1\n      tag_112\n      jump\t// in\n    tag_197:\n      dup1\n      0x1f\n      add\n      0x20\n      dup1\n      swap2\n      div\n      mul\n      0x20\n      add\n      mload(0x40)\n      swap1\n      dup2\n      add\n      0x40\n      mstore\n      dup1\n      swap3\n      swap2\n      swap1\n      dup2\n      dup2\n      mstore\n      0x20\n      add\n      dup3\n      dup1\n      sload\n      tag_198\n      swap1\n      tag_112\n      jump\t// in\n    tag_198:\n      dup1\n      iszero\n      tag_199\n      jumpi\n      dup1\n      0x1f\n      lt\n      tag_200\n      jumpi\n      0x0100\n      dup1\n      dup4\n      sload\n      div\n      mul\n      dup4\n      mstore\n      swap2\n      0x20\n      add\n      swap2\n      jump(tag_199)\n    tag_200:\n      dup3\n      add\n      swap2\n      swap1\n      0x00\n      mstore\n      keccak256(0x00, 0x20)\n      swap1\n    tag_201:\n      dup2\n      sload\n      dup2\n      mstore\n      swap1\n      0x01\n      add\n      swap1\n      0x20\n      add\n      dup1\n      dup4\n      gt\n      tag_201\n      jumpi\n      dup3\n      swap1\n      sub\n      0x1f\n      and\n      dup3\n      add\n      swap2\n    tag_199:\n      pop\n      pop\n      pop\n      pop\n      pop\n      dup2\n      mstore\n      pop\n      pop\n      dup2\n      mstore\n      0x20\n      add\n      swap1\n      0x01\n      add\n      swap1\n      jump(tag_164)\n    tag_165:\n      pop\n      pop\n      pop\n      pop\n      swap1\n      pop\n        /* \"DeadStock.sol\":3190:3292  function listTransaction() public view returns(Transaction[] memory) {... */\n      swap1\n      jump\t// out\n        /* \"DeadStock.sol\":855:894  mapping(address => User) public userMap */\n    tag_53:\n      mstore(0x20, 0x09)\n      dup1\n      0x00\n      mstore\n      keccak256(0x00, 0x40)\n      0x00\n      swap2\n      pop\n      swap1\n      pop\n      dup1\n      0x00\n      add\n      dup1\n      sload\n      tag_202\n      swap1\n      tag_112\n      jump\t// in\n    tag_202:\n      dup1\n      0x1f\n      add\n      0x20\n      dup1\n      swap2\n      div\n      mul\n      0x20\n      add\n      mload(0x40)\n      swap1\n      dup2\n      add\n      0x40\n      mstore\n      dup1\n      swap3\n      swap2\n      swap1\n      dup2\n      dup2\n      mstore\n      0x20\n      add\n      dup3\n      dup1\n      sload\n      tag_203\n      swap1\n      tag_112\n      jump\t// in\n    tag_203:\n      dup1\n      iszero\n      tag_204\n      jumpi\n      dup1\n      0x1f\n      lt\n      tag_205\n      jumpi\n      0x0100\n      dup1\n      dup4\n      sload\n      div\n      mul\n      dup4\n      mstore\n      swap2\n      0x20\n      add\n      swap2\n      jump(tag_204)\n    tag_205:\n      dup3\n      add\n      swap2\n      swap1\n      0x00\n      mstore\n      keccak256(0x00, 0x20)\n      swap1\n    tag_206:\n      dup2\n      sload\n      dup2\n      mstore\n      swap1\n      0x01\n      add\n      swap1\n      0x20\n      add\n      dup1\n      dup4\n      gt\n      tag_206\n      jumpi\n      dup3\n      swap1\n      sub\n      0x1f\n      and\n      dup3\n      add\n      swap2\n    tag_204:\n      pop\n      pop\n      pop\n      pop\n      pop\n      swap1\n      dup1\n      0x01\n      add\n      dup1\n      sload\n      tag_207\n      swap1\n      tag_112\n      jump\t// in\n    tag_207:\n      dup1\n      0x1f\n      add\n      0x20\n      dup1\n      swap2\n      div\n      mul\n      0x20\n      add\n      mload(0x40)\n      swap1\n      dup2\n      add\n      0x40\n      mstore\n      dup1\n      swap3\n      swap2\n      swap1\n      dup2\n      dup2\n      mstore\n      0x20\n      add\n      dup3\n      dup1\n      sload\n      tag_208\n      swap1\n      tag_112\n      jump\t// in\n    tag_208:\n      dup1\n      iszero\n      tag_209\n      jumpi\n      dup1\n      0x1f\n      lt\n      tag_210\n      jumpi\n      0x0100\n      dup1\n      dup4\n      sload\n      div\n      mul\n      dup4\n      mstore\n      swap2\n      0x20\n      add\n      swap2\n      jump(tag_209)\n    tag_210:\n      dup3\n      add\n      swap2\n      swap1\n      0x00\n      mstore\n      keccak256(0x00, 0x20)\n      swap1\n    tag_211:\n      dup2\n      sload\n      dup2\n      mstore\n      swap1\n      0x01\n      add\n      swap1\n      0x20\n      add\n      dup1\n      dup4\n      gt\n      tag_211\n      jumpi\n      dup3\n      swap1\n      sub\n      0x1f\n      and\n      dup3\n      add\n      swap2\n    tag_209:\n      pop\n      pop\n      pop\n      pop\n      pop\n      swap1\n      dup1\n      0x02\n      add\n      0x00\n      swap1\n      sload\n      swap1\n      0x0100\n      exp\n      swap1\n      div\n      0xffffffffffffffffffffffffffffffffffffffff\n      and\n      swap1\n      dup1\n      0x03\n      add\n      sload\n      swap1\n      pop\n      dup5\n      jump\t// out\n        /* \"DeadStock.sol\":1363:1447  function authCreator() public view creatorOnly returns (bool) {... */\n    tag_57:\n        /* \"DeadStock.sol\":1419:1423  bool */\n      0x00\n        /* \"DeadStock.sol\":1156:1163  creator */\n      dup1\n      0x00\n      swap1\n      sload\n      swap1\n      0x0100\n      exp\n      swap1\n      div\n      0xffffffffffffffffffffffffffffffffffffffff\n      and\n        /* \"DeadStock.sol\":1142:1163  msg.sender == creator */\n      0xffffffffffffffffffffffffffffffffffffffff\n      and\n        /* \"DeadStock.sol\":1142:1152  msg.sender */\n      caller\n        /* \"DeadStock.sol\":1142:1163  msg.sender == creator */\n      0xffffffffffffffffffffffffffffffffffffffff\n      and\n      eq\n        /* \"DeadStock.sol\":1134:1164  require(msg.sender == creator) */\n      tag_213\n      jumpi\n      0x00\n      dup1\n      revert\n    tag_213:\n        /* \"DeadStock.sol\":1438:1442  true */\n      0x01\n        /* \"DeadStock.sol\":1431:1442  return true */\n      swap1\n      pop\n        /* \"DeadStock.sol\":1363:1447  function authCreator() public view creatorOnly returns (bool) {... */\n      swap1\n      jump\t// out\n        /* \"DeadStock.sol\":1273:1355  function authMember() public view memberOnly returns (bool) {... */\n    tag_61:\n        /* \"DeadStock.sol\":1327:1331  bool */\n      0x00\n        /* \"DeadStock.sol\":1234:1241  userMap */\n      0x09\n        /* \"DeadStock.sol\":1234:1253  userMap[msg.sender] */\n      0x00\n        /* \"DeadStock.sol\":1242:1252  msg.sender */\n      caller\n        /* \"DeadStock.sol\":1234:1253  userMap[msg.sender] */\n      0xffffffffffffffffffffffffffffffffffffffff\n      and\n      0xffffffffffffffffffffffffffffffffffffffff\n      and\n      dup2\n      mstore\n      0x20\n      add\n      swap1\n      dup2\n      mstore\n      0x20\n      add\n      0x00\n      keccak256\n        /* \"DeadStock.sol\":1234:1256  userMap[msg.sender].id */\n      0x02\n      add\n      0x00\n      swap1\n      sload\n      swap1\n      0x0100\n      exp\n      swap1\n      div\n      0xffffffffffffffffffffffffffffffffffffffff\n      and\n        /* \"DeadStock.sol\":1220:1256  msg.sender == userMap[msg.sender].id */\n      0xffffffffffffffffffffffffffffffffffffffff\n      and\n        /* \"DeadStock.sol\":1220:1230  msg.sender */\n      caller\n        /* \"DeadStock.sol\":1220:1256  msg.sender == userMap[msg.sender].id */\n      0xffffffffffffffffffffffffffffffffffffffff\n      and\n      eq\n        /* \"DeadStock.sol\":1212:1257  require(msg.sender == userMap[msg.sender].id) */\n      tag_216\n      jumpi\n      0x00\n      dup1\n      revert\n    tag_216:\n        /* \"DeadStock.sol\":1346:1350  true */\n      0x01\n        /* \"DeadStock.sol\":1339:1350  return true */\n      swap1\n      pop\n        /* \"DeadStock.sol\":1273:1355  function authMember() public view memberOnly returns (bool) {... */\n      swap1\n      jump\t// out\n        /* \"DeadStock.sol\":3296:3383  function listUsers() public view returns(address[] memory) {... */\n    tag_64:\n        /* \"DeadStock.sol\":3337:3353  address[] memory */\n      0x60\n        /* \"DeadStock.sol\":3370:3378  userList */\n      0x02\n        /* \"DeadStock.sol\":3363:3378  return userList */\n      dup1\n      sload\n      dup1\n      0x20\n      mul\n      0x20\n      add\n      mload(0x40)\n      swap1\n      dup2\n      add\n      0x40\n      mstore\n      dup1\n      swap3\n      swap2\n      swap1\n      dup2\n      dup2\n      mstore\n      0x20\n      add\n      dup3\n      dup1\n      sload\n      dup1\n      iszero\n      tag_219\n      jumpi\n      0x20\n      mul\n      dup3\n      add\n      swap2\n      swap1\n      0x00\n      mstore\n      keccak256(0x00, 0x20)\n      swap1\n    tag_220:\n      dup2\n      0x00\n      swap1\n      sload\n      swap1\n      0x0100\n      exp\n      swap1\n      div\n      0xffffffffffffffffffffffffffffffffffffffff\n      and\n      0xffffffffffffffffffffffffffffffffffffffff\n      and\n      dup2\n      mstore\n      0x20\n      add\n      swap1\n      0x01\n      add\n      swap1\n      dup1\n      dup4\n      gt\n      tag_220\n      jumpi\n    tag_219:\n      pop\n      pop\n      pop\n      pop\n      pop\n      swap1\n      pop\n        /* \"DeadStock.sol\":3296:3383  function listUsers() public view returns(address[] memory) {... */\n      swap1\n      jump\t// out\n        /* \"DeadStock.sol\":2154:2696  function createTransaction(string memory _id, ... */\n    tag_70:\n        /* \"DeadStock.sol\":2364:2385  Transaction storage t */\n      0x00\n        /* \"DeadStock.sol\":2388:2402  transactionMap */\n      0x0a\n        /* \"DeadStock.sol\":2403:2408  _hash */\n      dup8\n        /* \"DeadStock.sol\":2388:2409  transactionMap[_hash] */\n      mload(0x40)\n      tag_222\n      swap2\n      swap1\n      tag_149\n      jump\t// in\n    tag_222:\n      swap1\n      dup2\n      mstore\n      0x20\n      add\n      mload(0x40)\n      dup1\n      swap2\n      sub\n      swap1\n      keccak256\n        /* \"DeadStock.sol\":2364:2409  Transaction storage t = transactionMap[_hash] */\n      swap1\n      pop\n        /* \"DeadStock.sol\":2422:2425  _id */\n      dup8\n        /* \"DeadStock.sol\":2415:2416  t */\n      dup2\n        /* \"DeadStock.sol\":2415:2419  t.id */\n      0x00\n      add\n        /* \"DeadStock.sol\":2415:2425  t.id = _id */\n      swap1\n      dup2\n      tag_223\n      swap2\n      swap1\n      tag_151\n      jump\t// in\n    tag_223:\n      pop\n        /* \"DeadStock.sol\":2444:2449  _hash */\n      dup7\n        /* \"DeadStock.sol\":2431:2432  t */\n      dup2\n        /* \"DeadStock.sol\":2431:2441  t.TranHash */\n      0x01\n      add\n        /* \"DeadStock.sol\":2431:2449  t.TranHash = _hash */\n      swap1\n      dup2\n      tag_224\n      swap2\n      swap1\n      tag_151\n      jump\t// in\n    tag_224:\n      pop\n        /* \"DeadStock.sol\":2468:2473  _name */\n      dup5\n        /* \"DeadStock.sol\":2455:2456  t */\n      dup2\n        /* \"DeadStock.sol\":2455:2465  t.ItemName */\n      0x02\n      add\n        /* \"DeadStock.sol\":2455:2473  t.ItemName = _name */\n      swap1\n      dup2\n      tag_225\n      swap2\n      swap1\n      tag_151\n      jump\t// in\n    tag_225:\n      pop\n        /* \"DeadStock.sol\":2490:2497  _amount */\n      dup6\n        /* \"DeadStock.sol\":2479:2480  t */\n      dup2\n        /* \"DeadStock.sol\":2479:2487  t.Amount */\n      0x04\n      add\n        /* \"DeadStock.sol\":2479:2497  t.Amount = _amount */\n      dup2\n      swap1\n      sstore\n      pop\n        /* \"DeadStock.sol\":2519:2531  _description */\n      dup4\n        /* \"DeadStock.sol\":2503:2504  t */\n      dup2\n        /* \"DeadStock.sol\":2503:2516  t.Description */\n      0x03\n      add\n        /* \"DeadStock.sol\":2503:2531  t.Description = _description */\n      swap1\n      dup2\n      tag_226\n      swap2\n      swap1\n      tag_151\n      jump\t// in\n    tag_226:\n      pop\n        /* \"DeadStock.sol\":2550:2559  _location */\n      dup3\n        /* \"DeadStock.sol\":2537:2538  t */\n      dup2\n        /* \"DeadStock.sol\":2537:2547  t.Location */\n      0x06\n      add\n        /* \"DeadStock.sol\":2537:2559  t.Location = _location */\n      swap1\n      dup2\n      tag_227\n      swap2\n      swap1\n      tag_151\n      jump\t// in\n    tag_227:\n      pop\n        /* \"DeadStock.sol\":2574:2579  _date */\n      dup2\n        /* \"DeadStock.sol\":2565:2566  t */\n      dup2\n        /* \"DeadStock.sol\":2565:2571  t.Date */\n      0x05\n      add\n        /* \"DeadStock.sol\":2565:2579  t.Date = _date */\n      swap1\n      dup2\n      tag_228\n      swap2\n      swap1\n      tag_151\n      jump\t// in\n    tag_228:\n      pop\n        /* \"DeadStock.sol\":2597:2607  msg.sender */\n      caller\n        /* \"DeadStock.sol\":2585:2586  t */\n      dup2\n        /* \"DeadStock.sol\":2585:2594  t.creator */\n      0x07\n      add\n      0x00\n        /* \"DeadStock.sol\":2585:2607  t.creator = msg.sender */\n      0x0100\n      exp\n      dup2\n      sload\n      dup2\n      0xffffffffffffffffffffffffffffffffffffffff\n      mul\n      not\n      and\n      swap1\n      dup4\n      0xffffffffffffffffffffffffffffffffffffffff\n      and\n      mul\n      or\n      swap1\n      sstore\n      pop\n        /* \"DeadStock.sol\":2613:2632  t.state = \"pending\" */\n      mload(0x40)\n      dup1\n      0x40\n      add\n      0x40\n      mstore\n      dup1\n      0x07\n      dup2\n      mstore\n      0x20\n      add\n      0x70656e64696e6700000000000000000000000000000000000000000000000000\n      dup2\n      mstore\n      pop\n        /* \"DeadStock.sol\":2613:2614  t */\n      dup2\n        /* \"DeadStock.sol\":2613:2620  t.state */\n      0x0a\n      add\n        /* \"DeadStock.sol\":2613:2632  t.state = \"pending\" */\n      swap1\n      dup2\n      tag_229\n      swap2\n      swap1\n      tag_151\n      jump\t// in\n    tag_229:\n      pop\n        /* \"DeadStock.sol\":2652:2662  msg.sender */\n      caller\n        /* \"DeadStock.sol\":2638:2639  t */\n      dup2\n        /* \"DeadStock.sol\":2638:2649  t.updatedBy */\n      0x08\n      add\n      0x00\n        /* \"DeadStock.sol\":2638:2662  t.updatedBy = msg.sender */\n      0x0100\n      exp\n      dup2\n      sload\n      dup2\n      0xffffffffffffffffffffffffffffffffffffffff\n      mul\n      not\n      and\n      swap1\n      dup4\n      0xffffffffffffffffffffffffffffffffffffffff\n      and\n      mul\n      or\n      swap1\n      sstore\n      pop\n        /* \"DeadStock.sol\":2668:2683  transactionList */\n      0x07\n        /* \"DeadStock.sol\":2689:2690  t */\n      dup2\n        /* \"DeadStock.sol\":2668:2691  transactionList.push(t) */\n      swap1\n      dup1\n      0x01\n      dup2\n      sload\n      add\n      dup1\n      dup3\n      sstore\n      dup1\n      swap2\n      pop\n      pop\n      0x01\n      swap1\n      sub\n      swap1\n      0x00\n      mstore\n      keccak256(0x00, 0x20)\n      swap1\n      0x0b\n      mul\n      add\n      0x00\n      swap1\n      swap2\n      swap1\n      swap2\n      swap1\n      swap2\n      pop\n      0x00\n      dup3\n      add\n      dup2\n      0x00\n      add\n      swap1\n      dup2\n      tag_231\n      swap2\n      swap1\n      tag_232\n      jump\t// in\n    tag_231:\n      pop\n      0x01\n      dup3\n      add\n      dup2\n      0x01\n      add\n      swap1\n      dup2\n      tag_233\n      swap2\n      swap1\n      tag_232\n      jump\t// in\n    tag_233:\n      pop\n      0x02\n      dup3\n      add\n      dup2\n      0x02\n      add\n      swap1\n      dup2\n      tag_234\n      swap2\n      swap1\n      tag_232\n      jump\t// in\n    tag_234:\n      pop\n      0x03\n      dup3\n      add\n      dup2\n      0x03\n      add\n      swap1\n      dup2\n      tag_235\n      swap2\n      swap1\n      tag_232\n      jump\t// in\n    tag_235:\n      pop\n      0x04\n      dup3\n      add\n      sload\n      dup2\n      0x04\n      add\n      sstore\n      0x05\n      dup3\n      add\n      dup2\n      0x05\n      add\n      swap1\n      dup2\n      tag_236\n      swap2\n      swap1\n      tag_232\n      jump\t// in\n    tag_236:\n      pop\n      0x06\n      dup3\n      add\n      dup2\n      0x06\n      add\n      swap1\n      dup2\n      tag_237\n      swap2\n      swap1\n      tag_232\n      jump\t// in\n    tag_237:\n      pop\n      0x07\n      dup3\n      add\n      0x00\n      swap1\n      sload\n      swap1\n      0x0100\n      exp\n      swap1\n      div\n      0xffffffffffffffffffffffffffffffffffffffff\n      and\n      dup2\n      0x07\n      add\n      exp(0x0100, 0x00)\n      dup2\n      sload\n      dup2\n      0xffffffffffffffffffffffffffffffffffffffff\n      mul\n      not\n      and\n      swap1\n      dup4\n      0xffffffffffffffffffffffffffffffffffffffff\n      and\n      mul\n      or\n      swap1\n      sstore\n      pop\n      0x08\n      dup3\n      add\n      0x00\n      swap1\n      sload\n      swap1\n      0x0100\n      exp\n      swap1\n      div\n      0xffffffffffffffffffffffffffffffffffffffff\n      and\n      dup2\n      0x08\n      add\n      exp(0x0100, 0x00)\n      dup2\n      sload\n      dup2\n      0xffffffffffffffffffffffffffffffffffffffff\n      mul\n      not\n      and\n      swap1\n      dup4\n      0xffffffffffffffffffffffffffffffffffffffff\n      and\n      mul\n      or\n      swap1\n      sstore\n      pop\n      0x09\n      dup3\n      add\n      sload\n      dup2\n      0x09\n      add\n      sstore\n      0x0a\n      dup3\n      add\n      dup2\n      0x0a\n      add\n      swap1\n      dup2\n      tag_238\n      swap2\n      swap1\n      tag_232\n      jump\t// in\n    tag_238:\n      pop\n      pop\n      pop\n        /* \"DeadStock.sol\":2358:2696  {... */\n      pop\n        /* \"DeadStock.sol\":2154:2696  function createTransaction(string memory _id, ... */\n      pop\n      pop\n      pop\n      pop\n      pop\n      pop\n      pop\n      jump\t// out\n        /* \"DeadStock.sol\":643:668  address[] public userList */\n    tag_73:\n      0x02\n      dup2\n      dup2\n      sload\n      dup2\n      lt\n      tag_239\n      jumpi\n      0x00\n      dup1\n      revert\n    tag_239:\n      swap1\n      0x00\n      mstore\n      keccak256(0x00, 0x20)\n      add\n      0x00\n      swap2\n      pop\n      sload\n      swap1\n      0x0100\n      exp\n      swap1\n      div\n      0xffffffffffffffffffffffffffffffffffffffff\n      and\n      dup2\n      jump\t// out\n        /* \"DeadStock.sol\":954:1000  mapping(string => Approval) public approvalMap */\n    tag_77:\n      0x0b\n      dup2\n      dup1\n      mload\n      0x20\n      dup2\n      add\n      dup3\n      add\n      dup1\n      mload\n      dup5\n      dup3\n      mstore\n      0x20\n      dup4\n      add\n      0x20\n      dup6\n      add\n      keccak256\n      dup2\n      dup4\n      mstore\n      dup1\n      swap6\n      pop\n      pop\n      pop\n      pop\n      pop\n      pop\n      0x00\n      swap2\n      pop\n      swap1\n      pop\n      dup1\n      0x00\n      add\n      dup1\n      sload\n      tag_241\n      swap1\n      tag_112\n      jump\t// in\n    tag_241:\n      dup1\n      0x1f\n      add\n      0x20\n      dup1\n      swap2\n      div\n      mul\n      0x20\n      add\n      mload(0x40)\n      swap1\n      dup2\n      add\n      0x40\n      mstore\n      dup1\n      swap3\n      swap2\n      swap1\n      dup2\n      dup2\n      mstore\n      0x20\n      add\n      dup3\n      dup1\n      sload\n      tag_242\n      swap1\n      tag_112\n      jump\t// in\n    tag_242:\n      dup1\n      iszero\n      tag_243\n      jumpi\n      dup1\n      0x1f\n      lt\n      tag_244\n      jumpi\n      0x0100\n      dup1\n      dup4\n      sload\n      div\n      mul\n      dup4\n      mstore\n      swap2\n      0x20\n      add\n      swap2\n      jump(tag_243)\n    tag_244:\n      dup3\n      add\n      swap2\n      swap1\n      0x00\n      mstore\n      keccak256(0x00, 0x20)\n      swap1\n    tag_245:\n      dup2\n      sload\n      dup2\n      mstore\n      swap1\n      0x01\n      add\n      swap1\n      0x20\n      add\n      dup1\n      dup4\n      gt\n      tag_245\n      jumpi\n      dup3\n      swap1\n      sub\n      0x1f\n      and\n      dup3\n      add\n      swap2\n    tag_243:\n      pop\n      pop\n      pop\n      pop\n      pop\n      swap1\n      pop\n      dup2\n      jump\t// out\n        /* \"DeadStock.sol\":1451:1688  function createUser(string memory _role, address _id, string memory _name) public {... */\n    tag_83:\n        /* \"DeadStock.sol\":1539:1553  User storage u */\n      0x00\n        /* \"DeadStock.sol\":1556:1563  userMap */\n      0x09\n        /* \"DeadStock.sol\":1556:1568  userMap[_id] */\n      0x00\n        /* \"DeadStock.sol\":1564:1567  _id */\n      dup5\n        /* \"DeadStock.sol\":1556:1568  userMap[_id] */\n      0xffffffffffffffffffffffffffffffffffffffff\n      and\n      0xffffffffffffffffffffffffffffffffffffffff\n      and\n      dup2\n      mstore\n      0x20\n      add\n      swap1\n      dup2\n      mstore\n      0x20\n      add\n      0x00\n      keccak256\n        /* \"DeadStock.sol\":1539:1568  User storage u = userMap[_id] */\n      swap1\n      pop\n        /* \"DeadStock.sol\":1583:1588  _role */\n      dup4\n        /* \"DeadStock.sol\":1574:1575  u */\n      dup2\n        /* \"DeadStock.sol\":1574:1580  u.role */\n      0x01\n      add\n        /* \"DeadStock.sol\":1574:1588  u.role = _role */\n      swap1\n      dup2\n      tag_247\n      swap2\n      swap1\n      tag_151\n      jump\t// in\n    tag_247:\n      pop\n        /* \"DeadStock.sol\":1601:1604  _id */\n      dup3\n        /* \"DeadStock.sol\":1594:1595  u */\n      dup2\n        /* \"DeadStock.sol\":1594:1598  u.id */\n      0x02\n      add\n      0x00\n        /* \"DeadStock.sol\":1594:1604  u.id = _id */\n      0x0100\n      exp\n      dup2\n      sload\n      dup2\n      0xffffffffffffffffffffffffffffffffffffffff\n      mul\n      not\n      and\n      swap1\n      dup4\n      0xffffffffffffffffffffffffffffffffffffffff\n      and\n      mul\n      or\n      swap1\n      sstore\n      pop\n        /* \"DeadStock.sol\":1626:1631  _name */\n      dup2\n        /* \"DeadStock.sol\":1610:1611  u */\n      dup2\n        /* \"DeadStock.sol\":1610:1623  u.Member_Name */\n      0x00\n      add\n        /* \"DeadStock.sol\":1610:1631  u.Member_Name = _name */\n      swap1\n      dup2\n      tag_248\n      swap2\n      swap1\n      tag_151\n      jump\t// in\n    tag_248:\n      pop\n        /* \"DeadStock.sol\":1648:1657  userCount */\n      0x03\n      0x00\n        /* \"DeadStock.sol\":1648:1659  userCount++ */\n      dup2\n      sload\n      dup1\n      swap3\n      swap2\n      swap1\n      tag_249\n      swap1\n      tag_250\n      jump\t// in\n    tag_249:\n      swap2\n      swap1\n      pop\n      sstore\n        /* \"DeadStock.sol\":1637:1638  u */\n      dup2\n        /* \"DeadStock.sol\":1637:1645  u.number */\n      0x03\n      add\n        /* \"DeadStock.sol\":1637:1659  u.number = userCount++ */\n      dup2\n      swap1\n      sstore\n      pop\n        /* \"DeadStock.sol\":1665:1673  userList */\n      0x02\n        /* \"DeadStock.sol\":1679:1682  _id */\n      dup4\n        /* \"DeadStock.sol\":1665:1683  userList.push(_id) */\n      swap1\n      dup1\n      0x01\n      dup2\n      sload\n      add\n      dup1\n      dup3\n      sstore\n      dup1\n      swap2\n      pop\n      pop\n      0x01\n      swap1\n      sub\n      swap1\n      0x00\n      mstore\n      keccak256(0x00, 0x20)\n      add\n      0x00\n      swap1\n      swap2\n      swap1\n      swap2\n      swap1\n      swap2\n      0x0100\n      exp\n      dup2\n      sload\n      dup2\n      0xffffffffffffffffffffffffffffffffffffffff\n      mul\n      not\n      and\n      swap1\n      dup4\n      0xffffffffffffffffffffffffffffffffffffffff\n      and\n      mul\n      or\n      swap1\n      sstore\n      pop\n        /* \"DeadStock.sol\":1533:1688  {... */\n      pop\n        /* \"DeadStock.sol\":1451:1688  function createUser(string memory _role, address _id, string memory _name) public {... */\n      pop\n      pop\n      pop\n      jump\t// out\n        /* \"DeadStock.sol\":613:639  address public transaction */\n    tag_85:\n      0x01\n      0x00\n      swap1\n      sload\n      swap1\n      0x0100\n      exp\n      swap1\n      div\n      0xffffffffffffffffffffffffffffffffffffffff\n      and\n      dup2\n      jump\t// out\n        /* \"DeadStock.sol\":898:950  mapping(string => Transaction) public transactionMap */\n    tag_89:\n      0x0a\n      dup2\n      dup1\n      mload\n      0x20\n      dup2\n      add\n      dup3\n      add\n      dup1\n      mload\n      dup5\n      dup3\n      mstore\n      0x20\n      dup4\n      add\n      0x20\n      dup6\n      add\n      keccak256\n      dup2\n      dup4\n      mstore\n      dup1\n      swap6\n      pop\n      pop\n      pop\n      pop\n      pop\n      pop\n      0x00\n      swap2\n      pop\n      swap1\n      pop\n      dup1\n      0x00\n      add\n      dup1\n      sload\n      tag_252\n      swap1\n      tag_112\n      jump\t// in\n    tag_252:\n      dup1\n      0x1f\n      add\n      0x20\n      dup1\n      swap2\n      div\n      mul\n      0x20\n      add\n      mload(0x40)\n      swap1\n      dup2\n      add\n      0x40\n      mstore\n      dup1\n      swap3\n      swap2\n      swap1\n      dup2\n      dup2\n      mstore\n      0x20\n      add\n      dup3\n      dup1\n      sload\n      tag_253\n      swap1\n      tag_112\n      jump\t// in\n    tag_253:\n      dup1\n      iszero\n      tag_254\n      jumpi\n      dup1\n      0x1f\n      lt\n      tag_255\n      jumpi\n      0x0100\n      dup1\n      dup4\n      sload\n      div\n      mul\n      dup4\n      mstore\n      swap2\n      0x20\n      add\n      swap2\n      jump(tag_254)\n    tag_255:\n      dup3\n      add\n      swap2\n      swap1\n      0x00\n      mstore\n      keccak256(0x00, 0x20)\n      swap1\n    tag_256:\n      dup2\n      sload\n      dup2\n      mstore\n      swap1\n      0x01\n      add\n      swap1\n      0x20\n      add\n      dup1\n      dup4\n      gt\n      tag_256\n      jumpi\n      dup3\n      swap1\n      sub\n      0x1f\n      and\n      dup3\n      add\n      swap2\n    tag_254:\n      pop\n      pop\n      pop\n      pop\n      pop\n      swap1\n      dup1\n      0x01\n      add\n      dup1\n      sload\n      tag_257\n      swap1\n      tag_112\n      jump\t// in\n    tag_257:\n      dup1\n      0x1f\n      add\n      0x20\n      dup1\n      swap2\n      div\n      mul\n      0x20\n      add\n      mload(0x40)\n      swap1\n      dup2\n      add\n      0x40\n      mstore\n      dup1\n      swap3\n      swap2\n      swap1\n      dup2\n      dup2\n      mstore\n      0x20\n      add\n      dup3\n      dup1\n      sload\n      tag_258\n      swap1\n      tag_112\n      jump\t// in\n    tag_258:\n      dup1\n      iszero\n      tag_259\n      jumpi\n      dup1\n      0x1f\n      lt\n      tag_260\n      jumpi\n      0x0100\n      dup1\n      dup4\n      sload\n      div\n      mul\n      dup4\n      mstore\n      swap2\n      0x20\n      add\n      swap2\n      jump(tag_259)\n    tag_260:\n      dup3\n      add\n      swap2\n      swap1\n      0x00\n      mstore\n      keccak256(0x00, 0x20)\n      swap1\n    tag_261:\n      dup2\n      sload\n      dup2\n      mstore\n      swap1\n      0x01\n      add\n      swap1\n      0x20\n      add\n      dup1\n      dup4\n      gt\n      tag_261\n      jumpi\n      dup3\n      swap1\n      sub\n      0x1f\n      and\n      dup3\n      add\n      swap2\n    tag_259:\n      pop\n      pop\n      pop\n      pop\n      pop\n      swap1\n      dup1\n      0x02\n      add\n      dup1\n      sload\n      tag_262\n      swap1\n      tag_112\n      jump\t// in\n    tag_262:\n      dup1\n      0x1f\n      add\n      0x20\n      dup1\n      swap2\n      div\n      mul\n      0x20\n      add\n      mload(0x40)\n      swap1\n      dup2\n      add\n      0x40\n      mstore\n      dup1\n      swap3\n      swap2\n      swap1\n      dup2\n      dup2\n      mstore\n      0x20\n      add\n      dup3\n      dup1\n      sload\n      tag_263\n      swap1\n      tag_112\n      jump\t// in\n    tag_263:\n      dup1\n      iszero\n      tag_264\n      jumpi\n      dup1\n      0x1f\n      lt\n      tag_265\n      jumpi\n      0x0100\n      dup1\n      dup4\n      sload\n      div\n      mul\n      dup4\n      mstore\n      swap2\n      0x20\n      add\n      swap2\n      jump(tag_264)\n    tag_265:\n      dup3\n      add\n      swap2\n      swap1\n      0x00\n      mstore\n      keccak256(0x00, 0x20)\n      swap1\n    tag_266:\n      dup2\n      sload\n      dup2\n      mstore\n      swap1\n      0x01\n      add\n      swap1\n      0x20\n      add\n      dup1\n      dup4\n      gt\n      tag_266\n      jumpi\n      dup3\n      swap1\n      sub\n      0x1f\n      and\n      dup3\n      add\n      swap2\n    tag_264:\n      pop\n      pop\n      pop\n      pop\n      pop\n      swap1\n      dup1\n      0x03\n      add\n      dup1\n      sload\n      tag_267\n      swap1\n      tag_112\n      jump\t// in\n    tag_267:\n      dup1\n      0x1f\n      add\n      0x20\n      dup1\n      swap2\n      div\n      mul\n      0x20\n      add\n      mload(0x40)\n      swap1\n      dup2\n      add\n      0x40\n      mstore\n      dup1\n      swap3\n      swap2\n      swap1\n      dup2\n      dup2\n      mstore\n      0x20\n      add\n      dup3\n      dup1\n      sload\n      tag_268\n      swap1\n      tag_112\n      jump\t// in\n    tag_268:\n      dup1\n      iszero\n      tag_269\n      jumpi\n      dup1\n      0x1f\n      lt\n      tag_270\n      jumpi\n      0x0100\n      dup1\n      dup4\n      sload\n      div\n      mul\n      dup4\n      mstore\n      swap2\n      0x20\n      add\n      swap2\n      jump(tag_269)\n    tag_270:\n      dup3\n      add\n      swap2\n      swap1\n      0x00\n      mstore\n      keccak256(0x00, 0x20)\n      swap1\n    tag_271:\n      dup2\n      sload\n      dup2\n      mstore\n      swap1\n      0x01\n      add\n      swap1\n      0x20\n      add\n      dup1\n      dup4\n      gt\n      tag_271\n      jumpi\n      dup3\n      swap1\n      sub\n      0x1f\n      and\n      dup3\n      add\n      swap2\n    tag_269:\n      pop\n      pop\n      pop\n      pop\n      pop\n      swap1\n      dup1\n      0x04\n      add\n      sload\n      swap1\n      dup1\n      0x05\n      add\n      dup1\n      sload\n      tag_272\n      swap1\n      tag_112\n      jump\t// in\n    tag_272:\n      dup1\n      0x1f\n      add\n      0x20\n      dup1\n      swap2\n      div\n      mul\n      0x20\n      add\n      mload(0x40)\n      swap1\n      dup2\n      add\n      0x40\n      mstore\n      dup1\n      swap3\n      swap2\n      swap1\n      dup2\n      dup2\n      mstore\n      0x20\n      add\n      dup3\n      dup1\n      sload\n      tag_273\n      swap1\n      tag_112\n      jump\t// in\n    tag_273:\n      dup1\n      iszero\n      tag_274\n      jumpi\n      dup1\n      0x1f\n      lt\n      tag_275\n      jumpi\n      0x0100\n      dup1\n      dup4\n      sload\n      div\n      mul\n      dup4\n      mstore\n      swap2\n      0x20\n      add\n      swap2\n      jump(tag_274)\n    tag_275:\n      dup3\n      add\n      swap2\n      swap1\n      0x00\n      mstore\n      keccak256(0x00, 0x20)\n      swap1\n    tag_276:\n      dup2\n      sload\n      dup2\n      mstore\n      swap1\n      0x01\n      add\n      swap1\n      0x20\n      add\n      dup1\n      dup4\n      gt\n      tag_276\n      jumpi\n      dup3\n      swap1\n      sub\n      0x1f\n      and\n      dup3\n      add\n      swap2\n    tag_274:\n      pop\n      pop\n      pop\n      pop\n      pop\n      swap1\n      dup1\n      0x06\n      add\n      dup1\n      sload\n      tag_277\n      swap1\n      tag_112\n      jump\t// in\n    tag_277:\n      dup1\n      0x1f\n      add\n      0x20\n      dup1\n      swap2\n      div\n      mul\n      0x20\n      add\n      mload(0x40)\n      swap1\n      dup2\n      add\n      0x40\n      mstore\n      dup1\n      swap3\n      swap2\n      swap1\n      dup2\n      dup2\n      mstore\n      0x20\n      add\n      dup3\n      dup1\n      sload\n      tag_278\n      swap1\n      tag_112\n      jump\t// in\n    tag_278:\n      dup1\n      iszero\n      tag_279\n      jumpi\n      dup1\n      0x1f\n      lt\n      tag_280\n      jumpi\n      0x0100\n      dup1\n      dup4\n      sload\n      div\n      mul\n      dup4\n      mstore\n      swap2\n      0x20\n      add\n      swap2\n      jump(tag_279)\n    tag_280:\n      dup3\n      add\n      swap2\n      swap1\n      0x00\n      mstore\n      keccak256(0x00, 0x20)\n      swap1\n    tag_281:\n      dup2\n      sload\n      dup2\n      mstore\n      swap1\n      0x01\n      add\n      swap1\n      0x20\n      add\n      dup1\n      dup4\n      gt\n      tag_281\n      jumpi\n      dup3\n      swap1\n      sub\n      0x1f\n      and\n      dup3\n      add\n      swap2\n    tag_279:\n      pop\n      pop\n      pop\n      pop\n      pop\n      swap1\n      dup1\n      0x07\n      add\n      0x00\n      swap1\n      sload\n      swap1\n      0x0100\n      exp\n      swap1\n      div\n      0xffffffffffffffffffffffffffffffffffffffff\n      and\n      swap1\n      dup1\n      0x08\n      add\n      0x00\n      swap1\n      sload\n      swap1\n      0x0100\n      exp\n      swap1\n      div\n      0xffffffffffffffffffffffffffffffffffffffff\n      and\n      swap1\n      dup1\n      0x09\n      add\n      sload\n      swap1\n      dup1\n      0x0a\n      add\n      dup1\n      sload\n      tag_282\n      swap1\n      tag_112\n      jump\t// in\n    tag_282:\n      dup1\n      0x1f\n      add\n      0x20\n      dup1\n      swap2\n      div\n      mul\n      0x20\n      add\n      mload(0x40)\n      swap1\n      dup2\n      add\n      0x40\n      mstore\n      dup1\n      swap3\n      swap2\n      swap1\n      dup2\n      dup2\n      mstore\n      0x20\n      add\n      dup3\n      dup1\n      sload\n      tag_283\n      swap1\n      tag_112\n      jump\t// in\n    tag_283:\n      dup1\n      iszero\n      tag_284\n      jumpi\n      dup1\n      0x1f\n      lt\n      tag_285\n      jumpi\n      0x0100\n      dup1\n      dup4\n      sload\n      div\n      mul\n      dup4\n      mstore\n      swap2\n      0x20\n      add\n      swap2\n      jump(tag_284)\n    tag_285:\n      dup3\n      add\n      swap2\n      swap1\n      0x00\n      mstore\n      keccak256(0x00, 0x20)\n      swap1\n    tag_286:\n      dup2\n      sload\n      dup2\n      mstore\n      swap1\n      0x01\n      add\n      swap1\n      0x20\n      add\n      dup1\n      dup4\n      gt\n      tag_286\n      jumpi\n      dup3\n      swap1\n      sub\n      0x1f\n      and\n      dup3\n      add\n      swap2\n    tag_284:\n      pop\n      pop\n      pop\n      pop\n      pop\n      swap1\n      pop\n      dup12\n      jump\t// out\n        /* \"DeadStock.sol\":1897:2150  function verifyItem(string memory _hash, string memory _location, string memory _date) public{... */\n    tag_93:\n        /* \"DeadStock.sol\":1996:2017  Transaction storage t */\n      0x00\n        /* \"DeadStock.sol\":2020:2034  transactionMap */\n      0x0a\n        /* \"DeadStock.sol\":2035:2040  _hash */\n      dup5\n        /* \"DeadStock.sol\":2020:2041  transactionMap[_hash] */\n      mload(0x40)\n      tag_288\n      swap2\n      swap1\n      tag_149\n      jump\t// in\n    tag_288:\n      swap1\n      dup2\n      mstore\n      0x20\n      add\n      mload(0x40)\n      dup1\n      swap2\n      sub\n      swap1\n      keccak256\n        /* \"DeadStock.sol\":1996:2041  Transaction storage t = transactionMap[_hash] */\n      swap1\n      pop\n        /* \"DeadStock.sol\":2061:2071  msg.sender */\n      caller\n        /* \"DeadStock.sol\":2047:2048  t */\n      dup2\n        /* \"DeadStock.sol\":2047:2058  t.updatedBy */\n      0x08\n      add\n      0x00\n        /* \"DeadStock.sol\":2047:2071  t.updatedBy = msg.sender */\n      0x0100\n      exp\n      dup2\n      sload\n      dup2\n      0xffffffffffffffffffffffffffffffffffffffff\n      mul\n      not\n      and\n      swap1\n      dup4\n      0xffffffffffffffffffffffffffffffffffffffff\n      and\n      mul\n      or\n      swap1\n      sstore\n      pop\n        /* \"DeadStock.sol\":2090:2099  _location */\n      dup3\n        /* \"DeadStock.sol\":2077:2078  t */\n      dup2\n        /* \"DeadStock.sol\":2077:2087  t.Location */\n      0x06\n      add\n        /* \"DeadStock.sol\":2077:2099  t.Location = _location */\n      swap1\n      dup2\n      tag_289\n      swap2\n      swap1\n      tag_151\n      jump\t// in\n    tag_289:\n      pop\n        /* \"DeadStock.sol\":2114:2119  _date */\n      dup2\n        /* \"DeadStock.sol\":2105:2106  t */\n      dup2\n        /* \"DeadStock.sol\":2105:2111  t.Date */\n      0x05\n      add\n        /* \"DeadStock.sol\":2105:2119  t.Date = _date */\n      swap1\n      dup2\n      tag_290\n      swap2\n      swap1\n      tag_151\n      jump\t// in\n    tag_290:\n      pop\n        /* \"DeadStock.sol\":2125:2145  t.state = \"approved\" */\n      mload(0x40)\n      dup1\n      0x40\n      add\n      0x40\n      mstore\n      dup1\n      0x08\n      dup2\n      mstore\n      0x20\n      add\n      0x617070726f766564000000000000000000000000000000000000000000000000\n      dup2\n      mstore\n      pop\n        /* \"DeadStock.sol\":2125:2126  t */\n      dup2\n        /* \"DeadStock.sol\":2125:2132  t.state */\n      0x0a\n      add\n        /* \"DeadStock.sol\":2125:2145  t.state = \"approved\" */\n      swap1\n      dup2\n      tag_291\n      swap2\n      swap1\n      tag_151\n      jump\t// in\n    tag_291:\n      pop\n        /* \"DeadStock.sol\":1990:2150  {... */\n      pop\n        /* \"DeadStock.sol\":1897:2150  function verifyItem(string memory _hash, string memory _location, string memory _date) public{... */\n      pop\n      pop\n      pop\n      jump\t// out\n        /* \"DeadStock.sol\":1692:1893  function createRole(string memory _role, string memory _name) public {... */\n    tag_97:\n        /* \"DeadStock.sol\":1767:1781  Role storage r */\n      0x00\n        /* \"DeadStock.sol\":1784:1791  roleMap */\n      0x08\n        /* \"DeadStock.sol\":1792:1797  _role */\n      dup4\n        /* \"DeadStock.sol\":1784:1798  roleMap[_role] */\n      mload(0x40)\n      tag_293\n      swap2\n      swap1\n      tag_149\n      jump\t// in\n    tag_293:\n      swap1\n      dup2\n      mstore\n      0x20\n      add\n      mload(0x40)\n      dup1\n      swap2\n      sub\n      swap1\n      keccak256\n        /* \"DeadStock.sol\":1767:1798  Role storage r = roleMap[_role] */\n      swap1\n      pop\n        /* \"DeadStock.sol\":1815:1824  roleCount */\n      0x05\n      0x00\n        /* \"DeadStock.sol\":1815:1826  roleCount++ */\n      dup2\n      sload\n      dup1\n      swap3\n      swap2\n      swap1\n      tag_294\n      swap1\n      tag_250\n      jump\t// in\n    tag_294:\n      swap2\n      swap1\n      pop\n      sstore\n        /* \"DeadStock.sol\":1804:1805  r */\n      dup2\n        /* \"DeadStock.sol\":1804:1812  r.number */\n      0x00\n      add\n        /* \"DeadStock.sol\":1804:1826  r.number = roleCount++ */\n      dup2\n      swap1\n      sstore\n      pop\n        /* \"DeadStock.sol\":1841:1846  _role */\n      dup3\n        /* \"DeadStock.sol\":1832:1833  r */\n      dup2\n        /* \"DeadStock.sol\":1832:1838  r.role */\n      0x01\n      add\n        /* \"DeadStock.sol\":1832:1846  r.role = _role */\n      swap1\n      dup2\n      tag_295\n      swap2\n      swap1\n      tag_151\n      jump\t// in\n    tag_295:\n      pop\n        /* \"DeadStock.sol\":1861:1866  _name */\n      dup2\n        /* \"DeadStock.sol\":1852:1853  r */\n      dup2\n        /* \"DeadStock.sol\":1852:1858  r.name */\n      0x02\n      add\n        /* \"DeadStock.sol\":1852:1866  r.name = _name */\n      swap1\n      dup2\n      tag_296\n      swap2\n      swap1\n      tag_151\n      jump\t// in\n    tag_296:\n      pop\n        /* \"DeadStock.sol\":1872:1880  roleList */\n      0x06\n        /* \"DeadStock.sol\":1886:1887  r */\n      dup2\n        /* \"DeadStock.sol\":1872:1888  roleList.push(r) */\n      swap1\n      dup1\n      0x01\n      dup2\n      sload\n      add\n      dup1\n      dup3\n      sstore\n      dup1\n      swap2\n      pop\n      pop\n      0x01\n      swap1\n      sub\n      swap1\n      0x00\n      mstore\n      keccak256(0x00, 0x20)\n      swap1\n      0x03\n      mul\n      add\n      0x00\n      swap1\n      swap2\n      swap1\n      swap2\n      swap1\n      swap2\n      pop\n      0x00\n      dup3\n      add\n      sload\n      dup2\n      0x00\n      add\n      sstore\n      0x01\n      dup3\n      add\n      dup2\n      0x01\n      add\n      swap1\n      dup2\n      tag_298\n      swap2\n      swap1\n      tag_232\n      jump\t// in\n    tag_298:\n      pop\n      0x02\n      dup3\n      add\n      dup2\n      0x02\n      add\n      swap1\n      dup2\n      tag_299\n      swap2\n      swap1\n      tag_232\n      jump\t// in\n    tag_299:\n      pop\n      pop\n      pop\n        /* \"DeadStock.sol\":1761:1893  {... */\n      pop\n        /* \"DeadStock.sol\":1692:1893  function createRole(string memory _role, string memory _name) public {... */\n      pop\n      pop\n      jump\t// out\n        /* \"DeadStock.sol\":746:768  Role[] public roleList */\n    tag_100:\n      0x06\n      dup2\n      dup2\n      sload\n      dup2\n      lt\n      tag_300\n      jumpi\n      0x00\n      dup1\n      revert\n    tag_300:\n      swap1\n      0x00\n      mstore\n      keccak256(0x00, 0x20)\n      swap1\n      0x03\n      mul\n      add\n      0x00\n      swap2\n      pop\n      swap1\n      pop\n      dup1\n      0x00\n      add\n      sload\n      swap1\n      dup1\n      0x01\n      add\n      dup1\n      sload\n      tag_302\n      swap1\n      tag_112\n      jump\t// in\n    tag_302:\n      dup1\n      0x1f\n      add\n      0x20\n      dup1\n      swap2\n      div\n      mul\n      0x20\n      add\n      mload(0x40)\n      swap1\n      dup2\n      add\n      0x40\n      mstore\n      dup1\n      swap3\n      swap2\n      swap1\n      dup2\n      dup2\n      mstore\n      0x20\n      add\n      dup3\n      dup1\n      sload\n      tag_303\n      swap1\n      tag_112\n      jump\t// in\n    tag_303:\n      dup1\n      iszero\n      tag_304\n      jumpi\n      dup1\n      0x1f\n      lt\n      tag_305\n      jumpi\n      0x0100\n      dup1\n      dup4\n      sload\n      div\n      mul\n      dup4\n      mstore\n      swap2\n      0x20\n      add\n      swap2\n      jump(tag_304)\n    tag_305:\n      dup3\n      add\n      swap2\n      swap1\n      0x00\n      mstore\n      keccak256(0x00, 0x20)\n      swap1\n    tag_306:\n      dup2\n      sload\n      dup2\n      mstore\n      swap1\n      0x01\n      add\n      swap1\n      0x20\n      add\n      dup1\n      dup4\n      gt\n      tag_306\n      jumpi\n      dup3\n      swap1\n      sub\n      0x1f\n      and\n      dup3\n      add\n      swap2\n    tag_304:\n      pop\n      pop\n      pop\n      pop\n      pop\n      swap1\n      dup1\n      0x02\n      add\n      dup1\n      sload\n      tag_307\n      swap1\n      tag_112\n      jump\t// in\n    tag_307:\n      dup1\n      0x1f\n      add\n      0x20\n      dup1\n      swap2\n      div\n      mul\n      0x20\n      add\n      mload(0x40)\n      swap1\n      dup2\n      add\n      0x40\n      mstore\n      dup1\n      swap3\n      swap2\n      swap1\n      dup2\n      dup2\n      mstore\n      0x20\n      add\n      dup3\n      dup1\n      sload\n      tag_308\n      swap1\n      tag_112\n      jump\t// in\n    tag_308:\n      dup1\n      iszero\n      tag_309\n      jumpi\n      dup1\n      0x1f\n      lt\n      tag_310\n      jumpi\n      0x0100\n      dup1\n      dup4\n      sload\n      div\n      mul\n      dup4\n      mstore\n      swap2\n      0x20\n      add\n      swap2\n      jump(tag_309)\n    tag_310:\n      dup3\n      add\n      swap2\n      swap1\n      0x00\n      mstore\n      keccak256(0x00, 0x20)\n      swap1\n    tag_311:\n      dup2\n      sload\n      dup2\n      mstore\n      swap1\n      0x01\n      add\n      swap1\n      0x20\n      add\n      dup1\n      dup4\n      gt\n      tag_311\n      jumpi\n      dup3\n      swap1\n      sub\n      0x1f\n      and\n      dup3\n      add\n      swap2\n    tag_309:\n      pop\n      pop\n      pop\n      pop\n      pop\n      swap1\n      pop\n      dup4\n      jump\t// out\n        /* \"DeadStock.sol\":3391:3473  function listRoles() public view returns(Role[] memory) {... */\n    tag_103:\n        /* \"DeadStock.sol\":3432:3445  Role[] memory */\n      0x60\n        /* \"DeadStock.sol\":3460:3468  roleList */\n      0x06\n        /* \"DeadStock.sol\":3453:3468  return roleList */\n      dup1\n      sload\n      dup1\n      0x20\n      mul\n      0x20\n      add\n      mload(0x40)\n      swap1\n      dup2\n      add\n      0x40\n      mstore\n      dup1\n      swap3\n      swap2\n      swap1\n      dup2\n      dup2\n      mstore\n      0x20\n      add\n      0x00\n      swap1\n    tag_313:\n      dup3\n      dup3\n      lt\n      iszero\n      tag_314\n      jumpi\n      dup4\n      dup3\n      swap1\n      0x00\n      mstore\n      keccak256(0x00, 0x20)\n      swap1\n      0x03\n      mul\n      add\n      mload(0x40)\n      dup1\n      0x60\n      add\n      0x40\n      mstore\n      swap1\n      dup2\n      0x00\n      dup3\n      add\n      sload\n      dup2\n      mstore\n      0x20\n      add\n      0x01\n      dup3\n      add\n      dup1\n      sload\n      tag_316\n      swap1\n      tag_112\n      jump\t// in\n    tag_316:\n      dup1\n      0x1f\n      add\n      0x20\n      dup1\n      swap2\n      div\n      mul\n      0x20\n      add\n      mload(0x40)\n      swap1\n      dup2\n      add\n      0x40\n      mstore\n      dup1\n      swap3\n      swap2\n      swap1\n      dup2\n      dup2\n      mstore\n      0x20\n      add\n      dup3\n      dup1\n      sload\n      tag_317\n      swap1\n      tag_112\n      jump\t// in\n    tag_317:\n      dup1\n      iszero\n      tag_318\n      jumpi\n      dup1\n      0x1f\n      lt\n      tag_319\n      jumpi\n      0x0100\n      dup1\n      dup4\n      sload\n      div\n      mul\n      dup4\n      mstore\n      swap2\n      0x20\n      add\n      swap2\n      jump(tag_318)\n    tag_319:\n      dup3\n      add\n      swap2\n      swap1\n      0x00\n      mstore\n      keccak256(0x00, 0x20)\n      swap1\n    tag_320:\n      dup2\n      sload\n      dup2\n      mstore\n      swap1\n      0x01\n      add\n      swap1\n      0x20\n      add\n      dup1\n      dup4\n      gt\n      tag_320\n      jumpi\n      dup3\n      swap1\n      sub\n      0x1f\n      and\n      dup3\n      add\n      swap2\n    tag_318:\n      pop\n      pop\n      pop\n      pop\n      pop\n      dup2\n      mstore\n      0x20\n      add\n      0x02\n      dup3\n      add\n      dup1\n      sload\n      tag_321\n      swap1\n      tag_112\n      jump\t// in\n    tag_321:\n      dup1\n      0x1f\n      add\n      0x20\n      dup1\n      swap2\n      div\n      mul\n      0x20\n      add\n      mload(0x40)\n      swap1\n      dup2\n      add\n      0x40\n      mstore\n      dup1\n      swap3\n      swap2\n      swap1\n      dup2\n      dup2\n      mstore\n      0x20\n      add\n      dup3\n      dup1\n      sload\n      tag_322\n      swap1\n      tag_112\n      jump\t// in\n    tag_322:\n      dup1\n      iszero\n      tag_323\n      jumpi\n      dup1\n      0x1f\n      lt\n      tag_324\n      jumpi\n      0x0100\n      dup1\n      dup4\n      sload\n      div\n      mul\n      dup4\n      mstore\n      swap2\n      0x20\n      add\n      swap2\n      jump(tag_323)\n    tag_324:\n      dup3\n      add\n      swap2\n      swap1\n      0x00\n      mstore\n      keccak256(0x00, 0x20)\n      swap1\n    tag_325:\n      dup2\n      sload\n      dup2\n      mstore\n      swap1\n      0x01\n      add\n      swap1\n      0x20\n      add\n      dup1\n      dup4\n      gt\n      tag_325\n      jumpi\n      dup3\n      swap1\n      sub\n      0x1f\n      and\n      dup3\n      add\n      swap2\n    tag_323:\n      pop\n      pop\n      pop\n      pop\n      pop\n      dup2\n      mstore\n      pop\n      pop\n      dup2\n      mstore\n      0x20\n      add\n      swap1\n      0x01\n      add\n      swap1\n      jump(tag_313)\n    tag_314:\n      pop\n      pop\n      pop\n      pop\n      swap1\n      pop\n        /* \"DeadStock.sol\":3391:3473  function listRoles() public view returns(Role[] memory) {... */\n      swap1\n      jump\t// out\n        /* \"DeadStock.sol\":2700:2951  function writeOff(string memory _hash, string memory _location, string memory _date) public{... */\n    tag_108:\n        /* \"DeadStock.sol\":2797:2818  Transaction storage t */\n      0x00\n        /* \"DeadStock.sol\":2821:2835  transactionMap */\n      0x0a\n        /* \"DeadStock.sol\":2836:2841  _hash */\n      dup5\n        /* \"DeadStock.sol\":2821:2842  transactionMap[_hash] */\n      mload(0x40)\n      tag_327\n      swap2\n      swap1\n      tag_149\n      jump\t// in\n    tag_327:\n      swap1\n      dup2\n      mstore\n      0x20\n      add\n      mload(0x40)\n      dup1\n      swap2\n      sub\n      swap1\n      keccak256\n        /* \"DeadStock.sol\":2797:2842  Transaction storage t = transactionMap[_hash] */\n      swap1\n      pop\n        /* \"DeadStock.sol\":2861:2870  _location */\n      dup3\n        /* \"DeadStock.sol\":2848:2849  t */\n      dup2\n        /* \"DeadStock.sol\":2848:2858  t.Location */\n      0x06\n      add\n        /* \"DeadStock.sol\":2848:2870  t.Location = _location */\n      swap1\n      dup2\n      tag_328\n      swap2\n      swap1\n      tag_151\n      jump\t// in\n    tag_328:\n      pop\n        /* \"DeadStock.sol\":2890:2900  msg.sender */\n      caller\n        /* \"DeadStock.sol\":2876:2877  t */\n      dup2\n        /* \"DeadStock.sol\":2876:2887  t.updatedBy */\n      0x08\n      add\n      0x00\n        /* \"DeadStock.sol\":2876:2900  t.updatedBy = msg.sender */\n      0x0100\n      exp\n      dup2\n      sload\n      dup2\n      0xffffffffffffffffffffffffffffffffffffffff\n      mul\n      not\n      and\n      swap1\n      dup4\n      0xffffffffffffffffffffffffffffffffffffffff\n      and\n      mul\n      or\n      swap1\n      sstore\n      pop\n        /* \"DeadStock.sol\":2915:2920  _date */\n      dup2\n        /* \"DeadStock.sol\":2906:2907  t */\n      dup2\n        /* \"DeadStock.sol\":2906:2912  t.Date */\n      0x05\n      add\n        /* \"DeadStock.sol\":2906:2920  t.Date = _date */\n      swap1\n      dup2\n      tag_329\n      swap2\n      swap1\n      tag_151\n      jump\t// in\n    tag_329:\n      pop\n        /* \"DeadStock.sol\":2926:2946  t.state = \"writeoff\" */\n      mload(0x40)\n      dup1\n      0x40\n      add\n      0x40\n      mstore\n      dup1\n      0x08\n      dup2\n      mstore\n      0x20\n      add\n      0x77726974656f6666000000000000000000000000000000000000000000000000\n      dup2\n      mstore\n      pop\n        /* \"DeadStock.sol\":2926:2927  t */\n      dup2\n        /* \"DeadStock.sol\":2926:2933  t.state */\n      0x0a\n      add\n        /* \"DeadStock.sol\":2926:2946  t.state = \"writeoff\" */\n      swap1\n      dup2\n      tag_330\n      swap2\n      swap1\n      tag_151\n      jump\t// in\n    tag_330:\n      pop\n        /* \"DeadStock.sol\":2791:2951  {... */\n      pop\n        /* \"DeadStock.sol\":2700:2951  function writeOff(string memory _hash, string memory _location, string memory _date) public{... */\n      pop\n      pop\n      pop\n      jump\t// out\n        /* \"#utility.yul\":7:133   */\n    tag_331:\n        /* \"#utility.yul\":44:51   */\n      0x00\n        /* \"#utility.yul\":84:126   */\n      0xffffffffffffffffffffffffffffffffffffffff\n        /* \"#utility.yul\":77:82   */\n      dup3\n        /* \"#utility.yul\":73:127   */\n      and\n        /* \"#utility.yul\":62:127   */\n      swap1\n      pop\n        /* \"#utility.yul\":7:133   */\n      swap2\n      swap1\n      pop\n      jump\t// out\n        /* \"#utility.yul\":139:235   */\n    tag_332:\n        /* \"#utility.yul\":176:183   */\n      0x00\n        /* \"#utility.yul\":205:229   */\n      tag_406\n        /* \"#utility.yul\":223:228   */\n      dup3\n        /* \"#utility.yul\":205:229   */\n      tag_331\n      jump\t// in\n    tag_406:\n        /* \"#utility.yul\":194:229   */\n      swap1\n      pop\n        /* \"#utility.yul\":139:235   */\n      swap2\n      swap1\n      pop\n      jump\t// out\n        /* \"#utility.yul\":241:359   */\n    tag_333:\n        /* \"#utility.yul\":328:352   */\n      tag_408\n        /* \"#utility.yul\":346:351   */\n      dup2\n        /* \"#utility.yul\":328:352   */\n      tag_332\n      jump\t// in\n    tag_408:\n        /* \"#utility.yul\":323:326   */\n      dup3\n        /* \"#utility.yul\":316:353   */\n      mstore\n        /* \"#utility.yul\":241:359   */\n      pop\n      pop\n      jump\t// out\n        /* \"#utility.yul\":365:587   */\n    tag_29:\n        /* \"#utility.yul\":458:462   */\n      0x00\n        /* \"#utility.yul\":496:498   */\n      0x20\n        /* \"#utility.yul\":485:494   */\n      dup3\n        /* \"#utility.yul\":481:499   */\n      add\n        /* \"#utility.yul\":473:499   */\n      swap1\n      pop\n        /* \"#utility.yul\":509:580   */\n      tag_410\n        /* \"#utility.yul\":577:578   */\n      0x00\n        /* \"#utility.yul\":566:575   */\n      dup4\n        /* \"#utility.yul\":562:579   */\n      add\n        /* \"#utility.yul\":553:559   */\n      dup5\n        /* \"#utility.yul\":509:580   */\n      tag_333\n      jump\t// in\n    tag_410:\n        /* \"#utility.yul\":365:587   */\n      swap3\n      swap2\n      pop\n      pop\n      jump\t// out\n        /* \"#utility.yul\":593:668   */\n    tag_334:\n        /* \"#utility.yul\":626:632   */\n      0x00\n        /* \"#utility.yul\":659:661   */\n      0x40\n        /* \"#utility.yul\":653:662   */\n      mload\n        /* \"#utility.yul\":643:662   */\n      swap1\n      pop\n        /* \"#utility.yul\":593:668   */\n      swap1\n      jump\t// out\n        /* \"#utility.yul\":674:791   */\n    tag_335:\n        /* \"#utility.yul\":783:784   */\n      0x00\n        /* \"#utility.yul\":780:781   */\n      dup1\n        /* \"#utility.yul\":773:785   */\n      revert\n        /* \"#utility.yul\":797:914   */\n    tag_336:\n        /* \"#utility.yul\":906:907   */\n      0x00\n        /* \"#utility.yul\":903:904   */\n      dup1\n        /* \"#utility.yul\":896:908   */\n      revert\n        /* \"#utility.yul\":920:997   */\n    tag_337:\n        /* \"#utility.yul\":957:964   */\n      0x00\n        /* \"#utility.yul\":986:991   */\n      dup2\n        /* \"#utility.yul\":975:991   */\n      swap1\n      pop\n        /* \"#utility.yul\":920:997   */\n      swap2\n      swap1\n      pop\n      jump\t// out\n        /* \"#utility.yul\":1003:1125   */\n    tag_338:\n        /* \"#utility.yul\":1076:1100   */\n      tag_416\n        /* \"#utility.yul\":1094:1099   */\n      dup2\n        /* \"#utility.yul\":1076:1100   */\n      tag_337\n      jump\t// in\n    tag_416:\n        /* \"#utility.yul\":1069:1074   */\n      dup2\n        /* \"#utility.yul\":1066:1101   */\n      eq\n        /* \"#utility.yul\":1056:1119   */\n      tag_417\n      jumpi\n        /* \"#utility.yul\":1115:1116   */\n      0x00\n        /* \"#utility.yul\":1112:1113   */\n      dup1\n        /* \"#utility.yul\":1105:1117   */\n      revert\n        /* \"#utility.yul\":1056:1119   */\n    tag_417:\n        /* \"#utility.yul\":1003:1125   */\n      pop\n      jump\t// out\n        /* \"#utility.yul\":1131:1270   */\n    tag_339:\n        /* \"#utility.yul\":1177:1182   */\n      0x00\n        /* \"#utility.yul\":1215:1221   */\n      dup2\n        /* \"#utility.yul\":1202:1222   */\n      calldataload\n        /* \"#utility.yul\":1193:1222   */\n      swap1\n      pop\n        /* \"#utility.yul\":1231:1264   */\n      tag_419\n        /* \"#utility.yul\":1258:1263   */\n      dup2\n        /* \"#utility.yul\":1231:1264   */\n      tag_338\n      jump\t// in\n    tag_419:\n        /* \"#utility.yul\":1131:1270   */\n      swap3\n      swap2\n      pop\n      pop\n      jump\t// out\n        /* \"#utility.yul\":1276:1605   */\n    tag_32:\n        /* \"#utility.yul\":1335:1341   */\n      0x00\n        /* \"#utility.yul\":1384:1386   */\n      0x20\n        /* \"#utility.yul\":1372:1381   */\n      dup3\n        /* \"#utility.yul\":1363:1370   */\n      dup5\n        /* \"#utility.yul\":1359:1382   */\n      sub\n        /* \"#utility.yul\":1355:1387   */\n      slt\n        /* \"#utility.yul\":1352:1471   */\n      iszero\n      tag_421\n      jumpi\n        /* \"#utility.yul\":1390:1469   */\n      tag_422\n      tag_335\n      jump\t// in\n    tag_422:\n        /* \"#utility.yul\":1352:1471   */\n    tag_421:\n        /* \"#utility.yul\":1510:1511   */\n      0x00\n        /* \"#utility.yul\":1535:1588   */\n      tag_423\n        /* \"#utility.yul\":1580:1587   */\n      dup5\n        /* \"#utility.yul\":1571:1577   */\n      dup3\n        /* \"#utility.yul\":1560:1569   */\n      dup6\n        /* \"#utility.yul\":1556:1578   */\n      add\n        /* \"#utility.yul\":1535:1588   */\n      tag_339\n      jump\t// in\n    tag_423:\n        /* \"#utility.yul\":1525:1588   */\n      swap2\n      pop\n        /* \"#utility.yul\":1481:1598   */\n      pop\n        /* \"#utility.yul\":1276:1605   */\n      swap3\n      swap2\n      pop\n      pop\n      jump\t// out\n        /* \"#utility.yul\":1611:1710   */\n    tag_340:\n        /* \"#utility.yul\":1663:1669   */\n      0x00\n        /* \"#utility.yul\":1697:1702   */\n      dup2\n        /* \"#utility.yul\":1691:1703   */\n      mload\n        /* \"#utility.yul\":1681:1703   */\n      swap1\n      pop\n        /* \"#utility.yul\":1611:1710   */\n      swap2\n      swap1\n      pop\n      jump\t// out\n        /* \"#utility.yul\":1716:1885   */\n    tag_341:\n        /* \"#utility.yul\":1800:1811   */\n      0x00\n        /* \"#utility.yul\":1834:1840   */\n      dup3\n        /* \"#utility.yul\":1829:1832   */\n      dup3\n        /* \"#utility.yul\":1822:1841   */\n      mstore\n        /* \"#utility.yul\":1874:1878   */\n      0x20\n        /* \"#utility.yul\":1869:1872   */\n      dup3\n        /* \"#utility.yul\":1865:1879   */\n      add\n        /* \"#utility.yul\":1850:1879   */\n      swap1\n      pop\n        /* \"#utility.yul\":1716:1885   */\n      swap3\n      swap2\n      pop\n      pop\n      jump\t// out\n        /* \"#utility.yul\":1891:2137   */\n    tag_342:\n        /* \"#utility.yul\":1972:1973   */\n      0x00\n        /* \"#utility.yul\":1982:2095   */\n    tag_427:\n        /* \"#utility.yul\":1996:2002   */\n      dup4\n        /* \"#utility.yul\":1993:1994   */\n      dup2\n        /* \"#utility.yul\":1990:2003   */\n      lt\n        /* \"#utility.yul\":1982:2095   */\n      iszero\n      tag_429\n      jumpi\n        /* \"#utility.yul\":2081:2082   */\n      dup1\n        /* \"#utility.yul\":2076:2079   */\n      dup3\n        /* \"#utility.yul\":2072:2083   */\n      add\n        /* \"#utility.yul\":2066:2084   */\n      mload\n        /* \"#utility.yul\":2062:2063   */\n      dup2\n        /* \"#utility.yul\":2057:2060   */\n      dup5\n        /* \"#utility.yul\":2053:2064   */\n      add\n        /* \"#utility.yul\":2046:2085   */\n      mstore\n        /* \"#utility.yul\":2018:2020   */\n      0x20\n        /* \"#utility.yul\":2015:2016   */\n      dup2\n        /* \"#utility.yul\":2011:2021   */\n      add\n        /* \"#utility.yul\":2006:2021   */\n      swap1\n      pop\n        /* \"#utility.yul\":1982:2095   */\n      jump(tag_427)\n    tag_429:\n        /* \"#utility.yul\":2129:2130   */\n      0x00\n        /* \"#utility.yul\":2120:2126   */\n      dup5\n        /* \"#utility.yul\":2115:2118   */\n      dup5\n        /* \"#utility.yul\":2111:2127   */\n      add\n        /* \"#utility.yul\":2104:2131   */\n      mstore\n        /* \"#utility.yul\":1953:2137   */\n      pop\n        /* \"#utility.yul\":1891:2137   */\n      pop\n      pop\n      pop\n      jump\t// out\n        /* \"#utility.yul\":2143:2245   */\n    tag_343:\n        /* \"#utility.yul\":2184:2190   */\n      0x00\n        /* \"#utility.yul\":2235:2237   */\n      0x1f\n        /* \"#utility.yul\":2231:2238   */\n      not\n        /* \"#utility.yul\":2226:2228   */\n      0x1f\n        /* \"#utility.yul\":2219:2224   */\n      dup4\n        /* \"#utility.yul\":2215:2229   */\n      add\n        /* \"#utility.yul\":2211:2239   */\n      and\n        /* \"#utility.yul\":2201:2239   */\n      swap1\n      pop\n        /* \"#utility.yul\":2143:2245   */\n      swap2\n      swap1\n      pop\n      jump\t// out\n        /* \"#utility.yul\":2251:2628   */\n    tag_344:\n        /* \"#utility.yul\":2339:2342   */\n      0x00\n        /* \"#utility.yul\":2367:2406   */\n      tag_432\n        /* \"#utility.yul\":2400:2405   */\n      dup3\n        /* \"#utility.yul\":2367:2406   */\n      tag_340\n      jump\t// in\n    tag_432:\n        /* \"#utility.yul\":2422:2493   */\n      tag_433\n        /* \"#utility.yul\":2486:2492   */\n      dup2\n        /* \"#utility.yul\":2481:2484   */\n      dup6\n        /* \"#utility.yul\":2422:2493   */\n      tag_341\n      jump\t// in\n    tag_433:\n        /* \"#utility.yul\":2415:2493   */\n      swap4\n      pop\n        /* \"#utility.yul\":2502:2567   */\n      tag_434\n        /* \"#utility.yul\":2560:2566   */\n      dup2\n        /* \"#utility.yul\":2555:2558   */\n      dup6\n        /* \"#utility.yul\":2548:2552   */\n      0x20\n        /* \"#utility.yul\":2541:2546   */\n      dup7\n        /* \"#utility.yul\":2537:2553   */\n      add\n        /* \"#utility.yul\":2502:2567   */\n      tag_342\n      jump\t// in\n    tag_434:\n        /* \"#utility.yul\":2592:2621   */\n      tag_435\n        /* \"#utility.yul\":2614:2620   */\n      dup2\n        /* \"#utility.yul\":2592:2621   */\n      tag_343\n      jump\t// in\n    tag_435:\n        /* \"#utility.yul\":2587:2590   */\n      dup5\n        /* \"#utility.yul\":2583:2622   */\n      add\n        /* \"#utility.yul\":2576:2622   */\n      swap2\n      pop\n        /* \"#utility.yul\":2343:2628   */\n      pop\n        /* \"#utility.yul\":2251:2628   */\n      swap3\n      swap2\n      pop\n      pop\n      jump\t// out\n        /* \"#utility.yul\":2634:2752   */\n    tag_345:\n        /* \"#utility.yul\":2721:2745   */\n      tag_437\n        /* \"#utility.yul\":2739:2744   */\n      dup2\n        /* \"#utility.yul\":2721:2745   */\n      tag_337\n      jump\t// in\n    tag_437:\n        /* \"#utility.yul\":2716:2719   */\n      dup3\n        /* \"#utility.yul\":2709:2746   */\n      mstore\n        /* \"#utility.yul\":2634:2752   */\n      pop\n      pop\n      jump\t// out\n        /* \"#utility.yul\":2758:4727   */\n    tag_35:\n        /* \"#utility.yul\":3272:3276   */\n      0x00\n        /* \"#utility.yul\":3310:3313   */\n      0x0160\n        /* \"#utility.yul\":3299:3308   */\n      dup3\n        /* \"#utility.yul\":3295:3314   */\n      add\n        /* \"#utility.yul\":3287:3314   */\n      swap1\n      pop\n        /* \"#utility.yul\":3360:3369   */\n      dup2\n        /* \"#utility.yul\":3354:3358   */\n      dup2\n        /* \"#utility.yul\":3350:3370   */\n      sub\n        /* \"#utility.yul\":3346:3347   */\n      0x00\n        /* \"#utility.yul\":3335:3344   */\n      dup4\n        /* \"#utility.yul\":3331:3348   */\n      add\n        /* \"#utility.yul\":3324:3371   */\n      mstore\n        /* \"#utility.yul\":3388:3466   */\n      tag_439\n        /* \"#utility.yul\":3461:3465   */\n      dup2\n        /* \"#utility.yul\":3452:3458   */\n      dup15\n        /* \"#utility.yul\":3388:3466   */\n      tag_344\n      jump\t// in\n    tag_439:\n        /* \"#utility.yul\":3380:3466   */\n      swap1\n      pop\n        /* \"#utility.yul\":3513:3522   */\n      dup2\n        /* \"#utility.yul\":3507:3511   */\n      dup2\n        /* \"#utility.yul\":3503:3523   */\n      sub\n        /* \"#utility.yul\":3498:3500   */\n      0x20\n        /* \"#utility.yul\":3487:3496   */\n      dup4\n        /* \"#utility.yul\":3483:3501   */\n      add\n        /* \"#utility.yul\":3476:3524   */\n      mstore\n        /* \"#utility.yul\":3541:3619   */\n      tag_440\n        /* \"#utility.yul\":3614:3618   */\n      dup2\n        /* \"#utility.yul\":3605:3611   */\n      dup14\n        /* \"#utility.yul\":3541:3619   */\n      tag_344\n      jump\t// in\n    tag_440:\n        /* \"#utility.yul\":3533:3619   */\n      swap1\n      pop\n        /* \"#utility.yul\":3666:3675   */\n      dup2\n        /* \"#utility.yul\":3660:3664   */\n      dup2\n        /* \"#utility.yul\":3656:3676   */\n      sub\n        /* \"#utility.yul\":3651:3653   */\n      0x40\n        /* \"#utility.yul\":3640:3649   */\n      dup4\n        /* \"#utility.yul\":3636:3654   */\n      add\n        /* \"#utility.yul\":3629:3677   */\n      mstore\n        /* \"#utility.yul\":3694:3772   */\n      tag_441\n        /* \"#utility.yul\":3767:3771   */\n      dup2\n        /* \"#utility.yul\":3758:3764   */\n      dup13\n        /* \"#utility.yul\":3694:3772   */\n      tag_344\n      jump\t// in\n    tag_441:\n        /* \"#utility.yul\":3686:3772   */\n      swap1\n      pop\n        /* \"#utility.yul\":3819:3828   */\n      dup2\n        /* \"#utility.yul\":3813:3817   */\n      dup2\n        /* \"#utility.yul\":3809:3829   */\n      sub\n        /* \"#utility.yul\":3804:3806   */\n      0x60\n        /* \"#utility.yul\":3793:3802   */\n      dup4\n        /* \"#utility.yul\":3789:3807   */\n      add\n        /* \"#utility.yul\":3782:3830   */\n      mstore\n        /* \"#utility.yul\":3847:3925   */\n      tag_442\n        /* \"#utility.yul\":3920:3924   */\n      dup2\n        /* \"#utility.yul\":3911:3917   */\n      dup12\n        /* \"#utility.yul\":3847:3925   */\n      tag_344\n      jump\t// in\n    tag_442:\n        /* \"#utility.yul\":3839:3925   */\n      swap1\n      pop\n        /* \"#utility.yul\":3935:4008   */\n      tag_443\n        /* \"#utility.yul\":4003:4006   */\n      0x80\n        /* \"#utility.yul\":3992:4001   */\n      dup4\n        /* \"#utility.yul\":3988:4007   */\n      add\n        /* \"#utility.yul\":3979:3985   */\n      dup11\n        /* \"#utility.yul\":3935:4008   */\n      tag_345\n      jump\t// in\n    tag_443:\n        /* \"#utility.yul\":4056:4065   */\n      dup2\n        /* \"#utility.yul\":4050:4054   */\n      dup2\n        /* \"#utility.yul\":4046:4066   */\n      sub\n        /* \"#utility.yul\":4040:4043   */\n      0xa0\n        /* \"#utility.yul\":4029:4038   */\n      dup4\n        /* \"#utility.yul\":4025:4044   */\n      add\n        /* \"#utility.yul\":4018:4067   */\n      mstore\n        /* \"#utility.yul\":4084:4162   */\n      tag_444\n        /* \"#utility.yul\":4157:4161   */\n      dup2\n        /* \"#utility.yul\":4148:4154   */\n      dup10\n        /* \"#utility.yul\":4084:4162   */\n      tag_344\n      jump\t// in\n    tag_444:\n        /* \"#utility.yul\":4076:4162   */\n      swap1\n      pop\n        /* \"#utility.yul\":4210:4219   */\n      dup2\n        /* \"#utility.yul\":4204:4208   */\n      dup2\n        /* \"#utility.yul\":4200:4220   */\n      sub\n        /* \"#utility.yul\":4194:4197   */\n      0xc0\n        /* \"#utility.yul\":4183:4192   */\n      dup4\n        /* \"#utility.yul\":4179:4198   */\n      add\n        /* \"#utility.yul\":4172:4221   */\n      mstore\n        /* \"#utility.yul\":4238:4316   */\n      tag_445\n        /* \"#utility.yul\":4311:4315   */\n      dup2\n        /* \"#utility.yul\":4302:4308   */\n      dup9\n        /* \"#utility.yul\":4238:4316   */\n      tag_344\n      jump\t// in\n    tag_445:\n        /* \"#utility.yul\":4230:4316   */\n      swap1\n      pop\n        /* \"#utility.yul\":4326:4399   */\n      tag_446\n        /* \"#utility.yul\":4394:4397   */\n      0xe0\n        /* \"#utility.yul\":4383:4392   */\n      dup4\n        /* \"#utility.yul\":4379:4398   */\n      add\n        /* \"#utility.yul\":4370:4376   */\n      dup8\n        /* \"#utility.yul\":4326:4399   */\n      tag_333\n      jump\t// in\n    tag_446:\n        /* \"#utility.yul\":4409:4482   */\n      tag_447\n        /* \"#utility.yul\":4477:4480   */\n      0x0100\n        /* \"#utility.yul\":4466:4475   */\n      dup4\n        /* \"#utility.yul\":4462:4481   */\n      add\n        /* \"#utility.yul\":4453:4459   */\n      dup7\n        /* \"#utility.yul\":4409:4482   */\n      tag_333\n      jump\t// in\n    tag_447:\n        /* \"#utility.yul\":4492:4565   */\n      tag_448\n        /* \"#utility.yul\":4560:4563   */\n      0x0120\n        /* \"#utility.yul\":4549:4558   */\n      dup4\n        /* \"#utility.yul\":4545:4564   */\n      add\n        /* \"#utility.yul\":4536:4542   */\n      dup6\n        /* \"#utility.yul\":4492:4565   */\n      tag_345\n      jump\t// in\n    tag_448:\n        /* \"#utility.yul\":4613:4622   */\n      dup2\n        /* \"#utility.yul\":4607:4611   */\n      dup2\n        /* \"#utility.yul\":4603:4623   */\n      sub\n        /* \"#utility.yul\":4597:4600   */\n      0x0140\n        /* \"#utility.yul\":4586:4595   */\n      dup4\n        /* \"#utility.yul\":4582:4601   */\n      add\n        /* \"#utility.yul\":4575:4624   */\n      mstore\n        /* \"#utility.yul\":4641:4720   */\n      tag_449\n        /* \"#utility.yul\":4715:4719   */\n      dup2\n        /* \"#utility.yul\":4705:4712   */\n      dup5\n        /* \"#utility.yul\":4641:4720   */\n      tag_344\n      jump\t// in\n    tag_449:\n        /* \"#utility.yul\":4633:4720   */\n      swap1\n      pop\n        /* \"#utility.yul\":2758:4727   */\n      swap13\n      swap12\n      pop\n      pop\n      pop\n      pop\n      pop\n      pop\n      pop\n      pop\n      pop\n      pop\n      pop\n      pop\n      jump\t// out\n        /* \"#utility.yul\":4733:4850   */\n    tag_346:\n        /* \"#utility.yul\":4842:4843   */\n      0x00\n        /* \"#utility.yul\":4839:4840   */\n      dup1\n        /* \"#utility.yul\":4832:4844   */\n      revert\n        /* \"#utility.yul\":4856:4973   */\n    tag_347:\n        /* \"#utility.yul\":4965:4966   */\n      0x00\n        /* \"#utility.yul\":4962:4963   */\n      dup1\n        /* \"#utility.yul\":4955:4967   */\n      revert\n        /* \"#utility.yul\":4979:5159   */\n    tag_348:\n        /* \"#utility.yul\":5027:5104   */\n      0x4e487b7100000000000000000000000000000000000000000000000000000000\n        /* \"#utility.yul\":5024:5025   */\n      0x00\n        /* \"#utility.yul\":5017:5105   */\n      mstore\n        /* \"#utility.yul\":5124:5128   */\n      0x41\n        /* \"#utility.yul\":5121:5122   */\n      0x04\n        /* \"#utility.yul\":5114:5129   */\n      mstore\n        /* \"#utility.yul\":5148:5152   */\n      0x24\n        /* \"#utility.yul\":5145:5146   */\n      0x00\n        /* \"#utility.yul\":5138:5153   */\n      revert\n        /* \"#utility.yul\":5165:5446   */\n    tag_349:\n        /* \"#utility.yul\":5248:5275   */\n      tag_454\n        /* \"#utility.yul\":5270:5274   */\n      dup3\n        /* \"#utility.yul\":5248:5275   */\n      tag_343\n      jump\t// in\n    tag_454:\n        /* \"#utility.yul\":5240:5246   */\n      dup2\n        /* \"#utility.yul\":5236:5276   */\n      add\n        /* \"#utility.yul\":5378:5384   */\n      dup2\n        /* \"#utility.yul\":5366:5376   */\n      dup2\n        /* \"#utility.yul\":5363:5385   */\n      lt\n        /* \"#utility.yul\":5342:5360   */\n      0xffffffffffffffff\n        /* \"#utility.yul\":5330:5340   */\n      dup3\n        /* \"#utility.yul\":5327:5361   */\n      gt\n        /* \"#utility.yul\":5324:5386   */\n      or\n        /* \"#utility.yul\":5321:5409   */\n      iszero\n      tag_455\n      jumpi\n        /* \"#utility.yul\":5389:5407   */\n      tag_456\n      tag_348\n      jump\t// in\n    tag_456:\n        /* \"#utility.yul\":5321:5409   */\n    tag_455:\n        /* \"#utility.yul\":5429:5439   */\n      dup1\n        /* \"#utility.yul\":5425:5427   */\n      0x40\n        /* \"#utility.yul\":5418:5440   */\n      mstore\n        /* \"#utility.yul\":5208:5446   */\n      pop\n        /* \"#utility.yul\":5165:5446   */\n      pop\n      pop\n      jump\t// out\n        /* \"#utility.yul\":5452:5581   */\n    tag_350:\n        /* \"#utility.yul\":5486:5492   */\n      0x00\n        /* \"#utility.yul\":5513:5533   */\n      tag_458\n      tag_334\n      jump\t// in\n    tag_458:\n        /* \"#utility.yul\":5503:5533   */\n      swap1\n      pop\n        /* \"#utility.yul\":5542:5575   */\n      tag_459\n        /* \"#utility.yul\":5570:5574   */\n      dup3\n        /* \"#utility.yul\":5562:5568   */\n      dup3\n        /* \"#utility.yul\":5542:5575   */\n      tag_349\n      jump\t// in\n    tag_459:\n        /* \"#utility.yul\":5452:5581   */\n      swap2\n      swap1\n      pop\n      jump\t// out\n        /* \"#utility.yul\":5587:5895   */\n    tag_351:\n        /* \"#utility.yul\":5649:5653   */\n      0x00\n        /* \"#utility.yul\":5739:5757   */\n      0xffffffffffffffff\n        /* \"#utility.yul\":5731:5737   */\n      dup3\n        /* \"#utility.yul\":5728:5758   */\n      gt\n        /* \"#utility.yul\":5725:5781   */\n      iszero\n      tag_461\n      jumpi\n        /* \"#utility.yul\":5761:5779   */\n      tag_462\n      tag_348\n      jump\t// in\n    tag_462:\n        /* \"#utility.yul\":5725:5781   */\n    tag_461:\n        /* \"#utility.yul\":5799:5828   */\n      tag_463\n        /* \"#utility.yul\":5821:5827   */\n      dup3\n        /* \"#utility.yul\":5799:5828   */\n      tag_343\n      jump\t// in\n    tag_463:\n        /* \"#utility.yul\":5791:5828   */\n      swap1\n      pop\n        /* \"#utility.yul\":5883:5887   */\n      0x20\n        /* \"#utility.yul\":5877:5881   */\n      dup2\n        /* \"#utility.yul\":5873:5888   */\n      add\n        /* \"#utility.yul\":5865:5888   */\n      swap1\n      pop\n        /* \"#utility.yul\":5587:5895   */\n      swap2\n      swap1\n      pop\n      jump\t// out\n        /* \"#utility.yul\":5901:6047   */\n    tag_352:\n        /* \"#utility.yul\":5998:6004   */\n      dup3\n        /* \"#utility.yul\":5993:5996   */\n      dup2\n        /* \"#utility.yul\":5988:5991   */\n      dup4\n        /* \"#utility.yul\":5975:6005   */\n      calldatacopy\n        /* \"#utility.yul\":6039:6040   */\n      0x00\n        /* \"#utility.yul\":6030:6036   */\n      dup4\n        /* \"#utility.yul\":6025:6028   */\n      dup4\n        /* \"#utility.yul\":6021:6037   */\n      add\n        /* \"#utility.yul\":6014:6041   */\n      mstore\n        /* \"#utility.yul\":5901:6047   */\n      pop\n      pop\n      pop\n      jump\t// out\n        /* \"#utility.yul\":6053:6478   */\n    tag_353:\n        /* \"#utility.yul\":6131:6136   */\n      0x00\n        /* \"#utility.yul\":6156:6222   */\n      tag_466\n        /* \"#utility.yul\":6172:6221   */\n      tag_467\n        /* \"#utility.yul\":6214:6220   */\n      dup5\n        /* \"#utility.yul\":6172:6221   */\n      tag_351\n      jump\t// in\n    tag_467:\n        /* \"#utility.yul\":6156:6222   */\n      tag_350\n      jump\t// in\n    tag_466:\n        /* \"#utility.yul\":6147:6222   */\n      swap1\n      pop\n        /* \"#utility.yul\":6245:6251   */\n      dup3\n        /* \"#utility.yul\":6238:6243   */\n      dup2\n        /* \"#utility.yul\":6231:6252   */\n      mstore\n        /* \"#utility.yul\":6283:6287   */\n      0x20\n        /* \"#utility.yul\":6276:6281   */\n      dup2\n        /* \"#utility.yul\":6272:6288   */\n      add\n        /* \"#utility.yul\":6321:6324   */\n      dup5\n        /* \"#utility.yul\":6312:6318   */\n      dup5\n        /* \"#utility.yul\":6307:6310   */\n      dup5\n        /* \"#utility.yul\":6303:6319   */\n      add\n        /* \"#utility.yul\":6300:6325   */\n      gt\n        /* \"#utility.yul\":6297:6409   */\n      iszero\n      tag_468\n      jumpi\n        /* \"#utility.yul\":6328:6407   */\n      tag_469\n      tag_347\n      jump\t// in\n    tag_469:\n        /* \"#utility.yul\":6297:6409   */\n    tag_468:\n        /* \"#utility.yul\":6418:6472   */\n      tag_470\n        /* \"#utility.yul\":6465:6471   */\n      dup5\n        /* \"#utility.yul\":6460:6463   */\n      dup3\n        /* \"#utility.yul\":6455:6458   */\n      dup6\n        /* \"#utility.yul\":6418:6472   */\n      tag_352\n      jump\t// in\n    tag_470:\n        /* \"#utility.yul\":6137:6478   */\n      pop\n        /* \"#utility.yul\":6053:6478   */\n      swap4\n      swap3\n      pop\n      pop\n      pop\n      jump\t// out\n        /* \"#utility.yul\":6498:6838   */\n    tag_354:\n        /* \"#utility.yul\":6554:6559   */\n      0x00\n        /* \"#utility.yul\":6603:6606   */\n      dup3\n        /* \"#utility.yul\":6596:6600   */\n      0x1f\n        /* \"#utility.yul\":6588:6594   */\n      dup4\n        /* \"#utility.yul\":6584:6601   */\n      add\n        /* \"#utility.yul\":6580:6607   */\n      slt\n        /* \"#utility.yul\":6570:6692   */\n      tag_472\n      jumpi\n        /* \"#utility.yul\":6611:6690   */\n      tag_473\n      tag_346\n      jump\t// in\n    tag_473:\n        /* \"#utility.yul\":6570:6692   */\n    tag_472:\n        /* \"#utility.yul\":6728:6734   */\n      dup2\n        /* \"#utility.yul\":6715:6735   */\n      calldataload\n        /* \"#utility.yul\":6753:6832   */\n      tag_474\n        /* \"#utility.yul\":6828:6831   */\n      dup5\n        /* \"#utility.yul\":6820:6826   */\n      dup3\n        /* \"#utility.yul\":6813:6817   */\n      0x20\n        /* \"#utility.yul\":6805:6811   */\n      dup7\n        /* \"#utility.yul\":6801:6818   */\n      add\n        /* \"#utility.yul\":6753:6832   */\n      tag_353\n      jump\t// in\n    tag_474:\n        /* \"#utility.yul\":6744:6832   */\n      swap2\n      pop\n        /* \"#utility.yul\":6560:6838   */\n      pop\n        /* \"#utility.yul\":6498:6838   */\n      swap3\n      swap2\n      pop\n      pop\n      jump\t// out\n        /* \"#utility.yul\":6844:8003   */\n    tag_38:\n        /* \"#utility.yul\":6951:6957   */\n      0x00\n        /* \"#utility.yul\":6959:6965   */\n      dup1\n        /* \"#utility.yul\":6967:6973   */\n      0x00\n        /* \"#utility.yul\":7016:7018   */\n      0x60\n        /* \"#utility.yul\":7004:7013   */\n      dup5\n        /* \"#utility.yul\":6995:7002   */\n      dup7\n        /* \"#utility.yul\":6991:7014   */\n      sub\n        /* \"#utility.yul\":6987:7019   */\n      slt\n        /* \"#utility.yul\":6984:7103   */\n      iszero\n      tag_476\n      jumpi\n        /* \"#utility.yul\":7022:7101   */\n      tag_477\n      tag_335\n      jump\t// in\n    tag_477:\n        /* \"#utility.yul\":6984:7103   */\n    tag_476:\n        /* \"#utility.yul\":7170:7171   */\n      0x00\n        /* \"#utility.yul\":7159:7168   */\n      dup5\n        /* \"#utility.yul\":7155:7172   */\n      add\n        /* \"#utility.yul\":7142:7173   */\n      calldataload\n        /* \"#utility.yul\":7200:7218   */\n      0xffffffffffffffff\n        /* \"#utility.yul\":7192:7198   */\n      dup2\n        /* \"#utility.yul\":7189:7219   */\n      gt\n        /* \"#utility.yul\":7186:7303   */\n      iszero\n      tag_478\n      jumpi\n        /* \"#utility.yul\":7222:7301   */\n      tag_479\n      tag_336\n      jump\t// in\n    tag_479:\n        /* \"#utility.yul\":7186:7303   */\n    tag_478:\n        /* \"#utility.yul\":7327:7390   */\n      tag_480\n        /* \"#utility.yul\":7382:7389   */\n      dup7\n        /* \"#utility.yul\":7373:7379   */\n      dup3\n        /* \"#utility.yul\":7362:7371   */\n      dup8\n        /* \"#utility.yul\":7358:7380   */\n      add\n        /* \"#utility.yul\":7327:7390   */\n      tag_354\n      jump\t// in\n    tag_480:\n        /* \"#utility.yul\":7317:7390   */\n      swap4\n      pop\n        /* \"#utility.yul\":7113:7400   */\n      pop\n        /* \"#utility.yul\":7467:7469   */\n      0x20\n        /* \"#utility.yul\":7456:7465   */\n      dup5\n        /* \"#utility.yul\":7452:7470   */\n      add\n        /* \"#utility.yul\":7439:7471   */\n      calldataload\n        /* \"#utility.yul\":7498:7516   */\n      0xffffffffffffffff\n        /* \"#utility.yul\":7490:7496   */\n      dup2\n        /* \"#utility.yul\":7487:7517   */\n      gt\n        /* \"#utility.yul\":7484:7601   */\n      iszero\n      tag_481\n      jumpi\n        /* \"#utility.yul\":7520:7599   */\n      tag_482\n      tag_336\n      jump\t// in\n    tag_482:\n        /* \"#utility.yul\":7484:7601   */\n    tag_481:\n        /* \"#utility.yul\":7625:7688   */\n      tag_483\n        /* \"#utility.yul\":7680:7687   */\n      dup7\n        /* \"#utility.yul\":7671:7677   */\n      dup3\n        /* \"#utility.yul\":7660:7669   */\n      dup8\n        /* \"#utility.yul\":7656:7678   */\n      add\n        /* \"#utility.yul\":7625:7688   */\n      tag_354\n      jump\t// in\n    tag_483:\n        /* \"#utility.yul\":7615:7688   */\n      swap3\n      pop\n        /* \"#utility.yul\":7410:7698   */\n      pop\n        /* \"#utility.yul\":7765:7767   */\n      0x40\n        /* \"#utility.yul\":7754:7763   */\n      dup5\n        /* \"#utility.yul\":7750:7768   */\n      add\n        /* \"#utility.yul\":7737:7769   */\n      calldataload\n        /* \"#utility.yul\":7796:7814   */\n      0xffffffffffffffff\n        /* \"#utility.yul\":7788:7794   */\n      dup2\n        /* \"#utility.yul\":7785:7815   */\n      gt\n        /* \"#utility.yul\":7782:7899   */\n      iszero\n      tag_484\n      jumpi\n        /* \"#utility.yul\":7818:7897   */\n      tag_485\n      tag_336\n      jump\t// in\n    tag_485:\n        /* \"#utility.yul\":7782:7899   */\n    tag_484:\n        /* \"#utility.yul\":7923:7986   */\n      tag_486\n        /* \"#utility.yul\":7978:7985   */\n      dup7\n        /* \"#utility.yul\":7969:7975   */\n      dup3\n        /* \"#utility.yul\":7958:7967   */\n      dup8\n        /* \"#utility.yul\":7954:7976   */\n      add\n        /* \"#utility.yul\":7923:7986   */\n      tag_354\n      jump\t// in\n    tag_486:\n        /* \"#utility.yul\":7913:7986   */\n      swap2\n      pop\n        /* \"#utility.yul\":7708:7996   */\n      pop\n        /* \"#utility.yul\":6844:8003   */\n      swap3\n      pop\n      swap3\n      pop\n      swap3\n      jump\t// out\n        /* \"#utility.yul\":8009:8518   */\n    tag_42:\n        /* \"#utility.yul\":8078:8084   */\n      0x00\n        /* \"#utility.yul\":8127:8129   */\n      0x20\n        /* \"#utility.yul\":8115:8124   */\n      dup3\n        /* \"#utility.yul\":8106:8113   */\n      dup5\n        /* \"#utility.yul\":8102:8125   */\n      sub\n        /* \"#utility.yul\":8098:8130   */\n      slt\n        /* \"#utility.yul\":8095:8214   */\n      iszero\n      tag_488\n      jumpi\n        /* \"#utility.yul\":8133:8212   */\n      tag_489\n      tag_335\n      jump\t// in\n    tag_489:\n        /* \"#utility.yul\":8095:8214   */\n    tag_488:\n        /* \"#utility.yul\":8281:8282   */\n      0x00\n        /* \"#utility.yul\":8270:8279   */\n      dup3\n        /* \"#utility.yul\":8266:8283   */\n      add\n        /* \"#utility.yul\":8253:8284   */\n      calldataload\n        /* \"#utility.yul\":8311:8329   */\n      0xffffffffffffffff\n        /* \"#utility.yul\":8303:8309   */\n      dup2\n        /* \"#utility.yul\":8300:8330   */\n      gt\n        /* \"#utility.yul\":8297:8414   */\n      iszero\n      tag_490\n      jumpi\n        /* \"#utility.yul\":8333:8412   */\n      tag_491\n      tag_336\n      jump\t// in\n    tag_491:\n        /* \"#utility.yul\":8297:8414   */\n    tag_490:\n        /* \"#utility.yul\":8438:8501   */\n      tag_492\n        /* \"#utility.yul\":8493:8500   */\n      dup5\n        /* \"#utility.yul\":8484:8490   */\n      dup3\n        /* \"#utility.yul\":8473:8482   */\n      dup6\n        /* \"#utility.yul\":8469:8491   */\n      add\n        /* \"#utility.yul\":8438:8501   */\n      tag_354\n      jump\t// in\n    tag_492:\n        /* \"#utility.yul\":8428:8501   */\n      swap2\n      pop\n        /* \"#utility.yul\":8224:8511   */\n      pop\n        /* \"#utility.yul\":8009:8518   */\n      swap3\n      swap2\n      pop\n      pop\n      jump\t// out\n        /* \"#utility.yul\":8524:9148   */\n    tag_45:\n        /* \"#utility.yul\":8713:8717   */\n      0x00\n        /* \"#utility.yul\":8751:8753   */\n      0x60\n        /* \"#utility.yul\":8740:8749   */\n      dup3\n        /* \"#utility.yul\":8736:8754   */\n      add\n        /* \"#utility.yul\":8728:8754   */\n      swap1\n      pop\n        /* \"#utility.yul\":8764:8835   */\n      tag_494\n        /* \"#utility.yul\":8832:8833   */\n      0x00\n        /* \"#utility.yul\":8821:8830   */\n      dup4\n        /* \"#utility.yul\":8817:8834   */\n      add\n        /* \"#utility.yul\":8808:8814   */\n      dup7\n        /* \"#utility.yul\":8764:8835   */\n      tag_345\n      jump\t// in\n    tag_494:\n        /* \"#utility.yul\":8882:8891   */\n      dup2\n        /* \"#utility.yul\":8876:8880   */\n      dup2\n        /* \"#utility.yul\":8872:8892   */\n      sub\n        /* \"#utility.yul\":8867:8869   */\n      0x20\n        /* \"#utility.yul\":8856:8865   */\n      dup4\n        /* \"#utility.yul\":8852:8870   */\n      add\n        /* \"#utility.yul\":8845:8893   */\n      mstore\n        /* \"#utility.yul\":8910:8988   */\n      tag_495\n        /* \"#utility.yul\":8983:8987   */\n      dup2\n        /* \"#utility.yul\":8974:8980   */\n      dup6\n        /* \"#utility.yul\":8910:8988   */\n      tag_344\n      jump\t// in\n    tag_495:\n        /* \"#utility.yul\":8902:8988   */\n      swap1\n      pop\n        /* \"#utility.yul\":9035:9044   */\n      dup2\n        /* \"#utility.yul\":9029:9033   */\n      dup2\n        /* \"#utility.yul\":9025:9045   */\n      sub\n        /* \"#utility.yul\":9020:9022   */\n      0x40\n        /* \"#utility.yul\":9009:9018   */\n      dup4\n        /* \"#utility.yul\":9005:9023   */\n      add\n        /* \"#utility.yul\":8998:9046   */\n      mstore\n        /* \"#utility.yul\":9063:9141   */\n      tag_496\n        /* \"#utility.yul\":9136:9140   */\n      dup2\n        /* \"#utility.yul\":9127:9133   */\n      dup5\n        /* \"#utility.yul\":9063:9141   */\n      tag_344\n      jump\t// in\n    tag_496:\n        /* \"#utility.yul\":9055:9141   */\n      swap1\n      pop\n        /* \"#utility.yul\":8524:9148   */\n      swap5\n      swap4\n      pop\n      pop\n      pop\n      pop\n      jump\t// out\n        /* \"#utility.yul\":9154:9295   */\n    tag_355:\n        /* \"#utility.yul\":9248:9254   */\n      0x00\n        /* \"#utility.yul\":9282:9287   */\n      dup2\n        /* \"#utility.yul\":9276:9288   */\n      mload\n        /* \"#utility.yul\":9266:9288   */\n      swap1\n      pop\n        /* \"#utility.yul\":9154:9295   */\n      swap2\n      swap1\n      pop\n      jump\t// out\n        /* \"#utility.yul\":9301:9512   */\n    tag_356:\n        /* \"#utility.yul\":9427:9438   */\n      0x00\n        /* \"#utility.yul\":9461:9467   */\n      dup3\n        /* \"#utility.yul\":9456:9459   */\n      dup3\n        /* \"#utility.yul\":9449:9468   */\n      mstore\n        /* \"#utility.yul\":9501:9505   */\n      0x20\n        /* \"#utility.yul\":9496:9499   */\n      dup3\n        /* \"#utility.yul\":9492:9506   */\n      add\n        /* \"#utility.yul\":9477:9506   */\n      swap1\n      pop\n        /* \"#utility.yul\":9301:9512   */\n      swap3\n      swap2\n      pop\n      pop\n      jump\t// out\n        /* \"#utility.yul\":9518:9677   */\n    tag_357:\n        /* \"#utility.yul\":9612:9616   */\n      0x00\n        /* \"#utility.yul\":9635:9638   */\n      dup2\n        /* \"#utility.yul\":9627:9638   */\n      swap1\n      pop\n        /* \"#utility.yul\":9665:9669   */\n      0x20\n        /* \"#utility.yul\":9660:9663   */\n      dup3\n        /* \"#utility.yul\":9656:9670   */\n      add\n        /* \"#utility.yul\":9648:9670   */\n      swap1\n      pop\n        /* \"#utility.yul\":9518:9677   */\n      swap2\n      swap1\n      pop\n      jump\t// out\n        /* \"#utility.yul\":9683:9842   */\n    tag_358:\n        /* \"#utility.yul\":9757:9768   */\n      0x00\n        /* \"#utility.yul\":9791:9797   */\n      dup3\n        /* \"#utility.yul\":9786:9789   */\n      dup3\n        /* \"#utility.yul\":9779:9798   */\n      mstore\n        /* \"#utility.yul\":9831:9835   */\n      0x20\n        /* \"#utility.yul\":9826:9829   */\n      dup3\n        /* \"#utility.yul\":9822:9836   */\n      add\n        /* \"#utility.yul\":9807:9836   */\n      swap1\n      pop\n        /* \"#utility.yul\":9683:9842   */\n      swap3\n      swap2\n      pop\n      pop\n      jump\t// out\n        /* \"#utility.yul\":9848:10205   */\n    tag_359:\n        /* \"#utility.yul\":9926:9929   */\n      0x00\n        /* \"#utility.yul\":9954:9993   */\n      tag_502\n        /* \"#utility.yul\":9987:9992   */\n      dup3\n        /* \"#utility.yul\":9954:9993   */\n      tag_340\n      jump\t// in\n    tag_502:\n        /* \"#utility.yul\":10009:10070   */\n      tag_503\n        /* \"#utility.yul\":10063:10069   */\n      dup2\n        /* \"#utility.yul\":10058:10061   */\n      dup6\n        /* \"#utility.yul\":10009:10070   */\n      tag_358\n      jump\t// in\n    tag_503:\n        /* \"#utility.yul\":10002:10070   */\n      swap4\n      pop\n        /* \"#utility.yul\":10079:10144   */\n      tag_504\n        /* \"#utility.yul\":10137:10143   */\n      dup2\n        /* \"#utility.yul\":10132:10135   */\n      dup6\n        /* \"#utility.yul\":10125:10129   */\n      0x20\n        /* \"#utility.yul\":10118:10123   */\n      dup7\n        /* \"#utility.yul\":10114:10130   */\n      add\n        /* \"#utility.yul\":10079:10144   */\n      tag_342\n      jump\t// in\n    tag_504:\n        /* \"#utility.yul\":10169:10198   */\n      tag_505\n        /* \"#utility.yul\":10191:10197   */\n      dup2\n        /* \"#utility.yul\":10169:10198   */\n      tag_343\n      jump\t// in\n    tag_505:\n        /* \"#utility.yul\":10164:10167   */\n      dup5\n        /* \"#utility.yul\":10160:10199   */\n      add\n        /* \"#utility.yul\":10153:10199   */\n      swap2\n      pop\n        /* \"#utility.yul\":9930:10205   */\n      pop\n        /* \"#utility.yul\":9848:10205   */\n      swap3\n      swap2\n      pop\n      pop\n      jump\t// out\n        /* \"#utility.yul\":10211:10319   */\n    tag_360:\n        /* \"#utility.yul\":10288:10312   */\n      tag_507\n        /* \"#utility.yul\":10306:10311   */\n      dup2\n        /* \"#utility.yul\":10288:10312   */\n      tag_337\n      jump\t// in\n    tag_507:\n        /* \"#utility.yul\":10283:10286   */\n      dup3\n        /* \"#utility.yul\":10276:10313   */\n      mstore\n        /* \"#utility.yul\":10211:10319   */\n      pop\n      pop\n      jump\t// out\n        /* \"#utility.yul\":10325:10433   */\n    tag_361:\n        /* \"#utility.yul\":10402:10426   */\n      tag_509\n        /* \"#utility.yul\":10420:10425   */\n      dup2\n        /* \"#utility.yul\":10402:10426   */\n      tag_332\n      jump\t// in\n    tag_509:\n        /* \"#utility.yul\":10397:10400   */\n      dup3\n        /* \"#utility.yul\":10390:10427   */\n      mstore\n        /* \"#utility.yul\":10325:10433   */\n      pop\n      pop\n      jump\t// out\n        /* \"#utility.yul\":10507:13146   */\n    tag_362:\n        /* \"#utility.yul\":10620:10623   */\n      0x00\n        /* \"#utility.yul\":10656:10662   */\n      0x0160\n        /* \"#utility.yul\":10651:10654   */\n      dup4\n        /* \"#utility.yul\":10647:10663   */\n      add\n        /* \"#utility.yul\":10743:10747   */\n      0x00\n        /* \"#utility.yul\":10736:10741   */\n      dup4\n        /* \"#utility.yul\":10732:10748   */\n      add\n        /* \"#utility.yul\":10726:10749   */\n      mload\n        /* \"#utility.yul\":10796:10799   */\n      dup5\n        /* \"#utility.yul\":10790:10794   */\n      dup3\n        /* \"#utility.yul\":10786:10800   */\n      sub\n        /* \"#utility.yul\":10779:10783   */\n      0x00\n        /* \"#utility.yul\":10774:10777   */\n      dup7\n        /* \"#utility.yul\":10770:10784   */\n      add\n        /* \"#utility.yul\":10763:10801   */\n      mstore\n        /* \"#utility.yul\":10822:10895   */\n      tag_511\n        /* \"#utility.yul\":10890:10894   */\n      dup3\n        /* \"#utility.yul\":10876:10888   */\n      dup3\n        /* \"#utility.yul\":10822:10895   */\n      tag_359\n      jump\t// in\n    tag_511:\n        /* \"#utility.yul\":10814:10895   */\n      swap2\n      pop\n        /* \"#utility.yul\":10673:10906   */\n      pop\n        /* \"#utility.yul\":10992:10996   */\n      0x20\n        /* \"#utility.yul\":10985:10990   */\n      dup4\n        /* \"#utility.yul\":10981:10997   */\n      add\n        /* \"#utility.yul\":10975:10998   */\n      mload\n        /* \"#utility.yul\":11045:11048   */\n      dup5\n        /* \"#utility.yul\":11039:11043   */\n      dup3\n        /* \"#utility.yul\":11035:11049   */\n      sub\n        /* \"#utility.yul\":11028:11032   */\n      0x20\n        /* \"#utility.yul\":11023:11026   */\n      dup7\n        /* \"#utility.yul\":11019:11033   */\n      add\n        /* \"#utility.yul\":11012:11050   */\n      mstore\n        /* \"#utility.yul\":11071:11144   */\n      tag_512\n        /* \"#utility.yul\":11139:11143   */\n      dup3\n        /* \"#utility.yul\":11125:11137   */\n      dup3\n        /* \"#utility.yul\":11071:11144   */\n      tag_359\n      jump\t// in\n    tag_512:\n        /* \"#utility.yul\":11063:11144   */\n      swap2\n      pop\n        /* \"#utility.yul\":10916:11155   */\n      pop\n        /* \"#utility.yul\":11241:11245   */\n      0x40\n        /* \"#utility.yul\":11234:11239   */\n      dup4\n        /* \"#utility.yul\":11230:11246   */\n      add\n        /* \"#utility.yul\":11224:11247   */\n      mload\n        /* \"#utility.yul\":11294:11297   */\n      dup5\n        /* \"#utility.yul\":11288:11292   */\n      dup3\n        /* \"#utility.yul\":11284:11298   */\n      sub\n        /* \"#utility.yul\":11277:11281   */\n      0x40\n        /* \"#utility.yul\":11272:11275   */\n      dup7\n        /* \"#utility.yul\":11268:11282   */\n      add\n        /* \"#utility.yul\":11261:11299   */\n      mstore\n        /* \"#utility.yul\":11320:11393   */\n      tag_513\n        /* \"#utility.yul\":11388:11392   */\n      dup3\n        /* \"#utility.yul\":11374:11386   */\n      dup3\n        /* \"#utility.yul\":11320:11393   */\n      tag_359\n      jump\t// in\n    tag_513:\n        /* \"#utility.yul\":11312:11393   */\n      swap2\n      pop\n        /* \"#utility.yul\":11165:11404   */\n      pop\n        /* \"#utility.yul\":11493:11497   */\n      0x60\n        /* \"#utility.yul\":11486:11491   */\n      dup4\n        /* \"#utility.yul\":11482:11498   */\n      add\n        /* \"#utility.yul\":11476:11499   */\n      mload\n        /* \"#utility.yul\":11546:11549   */\n      dup5\n        /* \"#utility.yul\":11540:11544   */\n      dup3\n        /* \"#utility.yul\":11536:11550   */\n      sub\n        /* \"#utility.yul\":11529:11533   */\n      0x60\n        /* \"#utility.yul\":11524:11527   */\n      dup7\n        /* \"#utility.yul\":11520:11534   */\n      add\n        /* \"#utility.yul\":11513:11551   */\n      mstore\n        /* \"#utility.yul\":11572:11645   */\n      tag_514\n        /* \"#utility.yul\":11640:11644   */\n      dup3\n        /* \"#utility.yul\":11626:11638   */\n      dup3\n        /* \"#utility.yul\":11572:11645   */\n      tag_359\n      jump\t// in\n    tag_514:\n        /* \"#utility.yul\":11564:11645   */\n      swap2\n      pop\n        /* \"#utility.yul\":11414:11656   */\n      pop\n        /* \"#utility.yul\":11740:11744   */\n      0x80\n        /* \"#utility.yul\":11733:11738   */\n      dup4\n        /* \"#utility.yul\":11729:11745   */\n      add\n        /* \"#utility.yul\":11723:11746   */\n      mload\n        /* \"#utility.yul\":11759:11822   */\n      tag_515\n        /* \"#utility.yul\":11816:11820   */\n      0x80\n        /* \"#utility.yul\":11811:11814   */\n      dup7\n        /* \"#utility.yul\":11807:11821   */\n      add\n        /* \"#utility.yul\":11793:11805   */\n      dup3\n        /* \"#utility.yul\":11759:11822   */\n      tag_360\n      jump\t// in\n    tag_515:\n        /* \"#utility.yul\":11666:11832   */\n      pop\n        /* \"#utility.yul\":11914:11918   */\n      0xa0\n        /* \"#utility.yul\":11907:11912   */\n      dup4\n        /* \"#utility.yul\":11903:11919   */\n      add\n        /* \"#utility.yul\":11897:11920   */\n      mload\n        /* \"#utility.yul\":11967:11970   */\n      dup5\n        /* \"#utility.yul\":11961:11965   */\n      dup3\n        /* \"#utility.yul\":11957:11971   */\n      sub\n        /* \"#utility.yul\":11950:11954   */\n      0xa0\n        /* \"#utility.yul\":11945:11948   */\n      dup7\n        /* \"#utility.yul\":11941:11955   */\n      add\n        /* \"#utility.yul\":11934:11972   */\n      mstore\n        /* \"#utility.yul\":11993:12066   */\n      tag_516\n        /* \"#utility.yul\":12061:12065   */\n      dup3\n        /* \"#utility.yul\":12047:12059   */\n      dup3\n        /* \"#utility.yul\":11993:12066   */\n      tag_359\n      jump\t// in\n    tag_516:\n        /* \"#utility.yul\":11985:12066   */\n      swap2\n      pop\n        /* \"#utility.yul\":11842:12077   */\n      pop\n        /* \"#utility.yul\":12163:12167   */\n      0xc0\n        /* \"#utility.yul\":12156:12161   */\n      dup4\n        /* \"#utility.yul\":12152:12168   */\n      add\n        /* \"#utility.yul\":12146:12169   */\n      mload\n        /* \"#utility.yul\":12216:12219   */\n      dup5\n        /* \"#utility.yul\":12210:12214   */\n      dup3\n        /* \"#utility.yul\":12206:12220   */\n      sub\n        /* \"#utility.yul\":12199:12203   */\n      0xc0\n        /* \"#utility.yul\":12194:12197   */\n      dup7\n        /* \"#utility.yul\":12190:12204   */\n      add\n        /* \"#utility.yul\":12183:12221   */\n      mstore\n        /* \"#utility.yul\":12242:12315   */\n      tag_517\n        /* \"#utility.yul\":12310:12314   */\n      dup3\n        /* \"#utility.yul\":12296:12308   */\n      dup3\n        /* \"#utility.yul\":12242:12315   */\n      tag_359\n      jump\t// in\n    tag_517:\n        /* \"#utility.yul\":12234:12315   */\n      swap2\n      pop\n        /* \"#utility.yul\":12087:12326   */\n      pop\n        /* \"#utility.yul\":12411:12415   */\n      0xe0\n        /* \"#utility.yul\":12404:12409   */\n      dup4\n        /* \"#utility.yul\":12400:12416   */\n      add\n        /* \"#utility.yul\":12394:12417   */\n      mload\n        /* \"#utility.yul\":12430:12493   */\n      tag_518\n        /* \"#utility.yul\":12487:12491   */\n      0xe0\n        /* \"#utility.yul\":12482:12485   */\n      dup7\n        /* \"#utility.yul\":12478:12492   */\n      add\n        /* \"#utility.yul\":12464:12476   */\n      dup3\n        /* \"#utility.yul\":12430:12493   */\n      tag_361\n      jump\t// in\n    tag_518:\n        /* \"#utility.yul\":12336:12503   */\n      pop\n        /* \"#utility.yul\":12590:12596   */\n      0x0100\n        /* \"#utility.yul\":12583:12588   */\n      dup4\n        /* \"#utility.yul\":12579:12597   */\n      add\n        /* \"#utility.yul\":12573:12598   */\n      mload\n        /* \"#utility.yul\":12611:12676   */\n      tag_519\n        /* \"#utility.yul\":12668:12674   */\n      0x0100\n        /* \"#utility.yul\":12663:12666   */\n      dup7\n        /* \"#utility.yul\":12659:12675   */\n      add\n        /* \"#utility.yul\":12645:12657   */\n      dup3\n        /* \"#utility.yul\":12611:12676   */\n      tag_361\n      jump\t// in\n    tag_519:\n        /* \"#utility.yul\":12513:12686   */\n      pop\n        /* \"#utility.yul\":12773:12779   */\n      0x0120\n        /* \"#utility.yul\":12766:12771   */\n      dup4\n        /* \"#utility.yul\":12762:12780   */\n      add\n        /* \"#utility.yul\":12756:12781   */\n      mload\n        /* \"#utility.yul\":12794:12859   */\n      tag_520\n        /* \"#utility.yul\":12851:12857   */\n      0x0120\n        /* \"#utility.yul\":12846:12849   */\n      dup7\n        /* \"#utility.yul\":12842:12858   */\n      add\n        /* \"#utility.yul\":12828:12840   */\n      dup3\n        /* \"#utility.yul\":12794:12859   */\n      tag_360\n      jump\t// in\n    tag_520:\n        /* \"#utility.yul\":12696:12869   */\n      pop\n        /* \"#utility.yul\":12952:12958   */\n      0x0140\n        /* \"#utility.yul\":12945:12950   */\n      dup4\n        /* \"#utility.yul\":12941:12959   */\n      add\n        /* \"#utility.yul\":12935:12960   */\n      mload\n        /* \"#utility.yul\":13009:13012   */\n      dup5\n        /* \"#utility.yul\":13003:13007   */\n      dup3\n        /* \"#utility.yul\":12999:13013   */\n      sub\n        /* \"#utility.yul\":12990:12996   */\n      0x0140\n        /* \"#utility.yul\":12985:12988   */\n      dup7\n        /* \"#utility.yul\":12981:12997   */\n      add\n        /* \"#utility.yul\":12974:13014   */\n      mstore\n        /* \"#utility.yul\":13035:13108   */\n      tag_521\n        /* \"#utility.yul\":13103:13107   */\n      dup3\n        /* \"#utility.yul\":13089:13101   */\n      dup3\n        /* \"#utility.yul\":13035:13108   */\n      tag_359\n      jump\t// in\n    tag_521:\n        /* \"#utility.yul\":13027:13108   */\n      swap2\n      pop\n        /* \"#utility.yul\":12879:13119   */\n      pop\n        /* \"#utility.yul\":13136:13140   */\n      dup1\n        /* \"#utility.yul\":13129:13140   */\n      swap2\n      pop\n        /* \"#utility.yul\":10625:13146   */\n      pop\n        /* \"#utility.yul\":10507:13146   */\n      swap3\n      swap2\n      pop\n      pop\n      jump\t// out\n        /* \"#utility.yul\":13152:13416   */\n    tag_363:\n        /* \"#utility.yul\":13275:13285   */\n      0x00\n        /* \"#utility.yul\":13310:13410   */\n      tag_523\n        /* \"#utility.yul\":13406:13409   */\n      dup4\n        /* \"#utility.yul\":13398:13404   */\n      dup4\n        /* \"#utility.yul\":13310:13410   */\n      tag_362\n      jump\t// in\n    tag_523:\n        /* \"#utility.yul\":13296:13410   */\n      swap1\n      pop\n        /* \"#utility.yul\":13152:13416   */\n      swap3\n      swap2\n      pop\n      pop\n      jump\t// out\n        /* \"#utility.yul\":13422:13562   */\n    tag_364:\n        /* \"#utility.yul\":13519:13523   */\n      0x00\n        /* \"#utility.yul\":13551:13555   */\n      0x20\n        /* \"#utility.yul\":13546:13549   */\n      dup3\n        /* \"#utility.yul\":13542:13556   */\n      add\n        /* \"#utility.yul\":13534:13556   */\n      swap1\n      pop\n        /* \"#utility.yul\":13422:13562   */\n      swap2\n      swap1\n      pop\n      jump\t// out\n        /* \"#utility.yul\":13640:14767   */\n    tag_365:\n        /* \"#utility.yul\":13813:13816   */\n      0x00\n        /* \"#utility.yul\":13842:13923   */\n      tag_526\n        /* \"#utility.yul\":13917:13922   */\n      dup3\n        /* \"#utility.yul\":13842:13923   */\n      tag_355\n      jump\t// in\n    tag_526:\n        /* \"#utility.yul\":13939:14052   */\n      tag_527\n        /* \"#utility.yul\":14045:14051   */\n      dup2\n        /* \"#utility.yul\":14040:14043   */\n      dup6\n        /* \"#utility.yul\":13939:14052   */\n      tag_356\n      jump\t// in\n    tag_527:\n        /* \"#utility.yul\":13932:14052   */\n      swap4\n      pop\n        /* \"#utility.yul\":14078:14081   */\n      dup4\n        /* \"#utility.yul\":14123:14127   */\n      0x20\n        /* \"#utility.yul\":14115:14121   */\n      dup3\n        /* \"#utility.yul\":14111:14128   */\n      mul\n        /* \"#utility.yul\":14106:14109   */\n      dup6\n        /* \"#utility.yul\":14102:14129   */\n      add\n        /* \"#utility.yul\":14153:14236   */\n      tag_528\n        /* \"#utility.yul\":14230:14235   */\n      dup6\n        /* \"#utility.yul\":14153:14236   */\n      tag_357\n      jump\t// in\n    tag_528:\n        /* \"#utility.yul\":14259:14266   */\n      dup1\n        /* \"#utility.yul\":14290:14291   */\n      0x00\n        /* \"#utility.yul\":14275:14722   */\n    tag_529:\n        /* \"#utility.yul\":14300:14306   */\n      dup6\n        /* \"#utility.yul\":14297:14298   */\n      dup2\n        /* \"#utility.yul\":14294:14307   */\n      lt\n        /* \"#utility.yul\":14275:14722   */\n      iszero\n      tag_531\n      jumpi\n        /* \"#utility.yul\":14371:14380   */\n      dup5\n        /* \"#utility.yul\":14365:14369   */\n      dup5\n        /* \"#utility.yul\":14361:14381   */\n      sub\n        /* \"#utility.yul\":14356:14359   */\n      dup10\n        /* \"#utility.yul\":14349:14382   */\n      mstore\n        /* \"#utility.yul\":14422:14428   */\n      dup2\n        /* \"#utility.yul\":14416:14429   */\n      mload\n        /* \"#utility.yul\":14450:14568   */\n      tag_532\n        /* \"#utility.yul\":14563:14567   */\n      dup6\n        /* \"#utility.yul\":14548:14561   */\n      dup3\n        /* \"#utility.yul\":14450:14568   */\n      tag_363\n      jump\t// in\n    tag_532:\n        /* \"#utility.yul\":14442:14568   */\n      swap5\n      pop\n        /* \"#utility.yul\":14591:14678   */\n      tag_533\n        /* \"#utility.yul\":14671:14677   */\n      dup4\n        /* \"#utility.yul\":14591:14678   */\n      tag_364\n      jump\t// in\n    tag_533:\n        /* \"#utility.yul\":14581:14678   */\n      swap3\n      pop\n        /* \"#utility.yul\":14707:14711   */\n      0x20\n        /* \"#utility.yul\":14702:14705   */\n      dup11\n        /* \"#utility.yul\":14698:14712   */\n      add\n        /* \"#utility.yul\":14691:14712   */\n      swap10\n      pop\n        /* \"#utility.yul\":14335:14722   */\n      pop\n        /* \"#utility.yul\":14322:14323   */\n      0x01\n        /* \"#utility.yul\":14319:14320   */\n      dup2\n        /* \"#utility.yul\":14315:14324   */\n      add\n        /* \"#utility.yul\":14310:14324   */\n      swap1\n      pop\n        /* \"#utility.yul\":14275:14722   */\n      jump(tag_529)\n    tag_531:\n        /* \"#utility.yul\":14279:14293   */\n      pop\n        /* \"#utility.yul\":14738:14742   */\n      dup3\n        /* \"#utility.yul\":14731:14742   */\n      swap8\n      pop\n        /* \"#utility.yul\":14758:14761   */\n      dup8\n        /* \"#utility.yul\":14751:14761   */\n      swap6\n      pop\n        /* \"#utility.yul\":13818:14767   */\n      pop\n      pop\n      pop\n      pop\n      pop\n        /* \"#utility.yul\":13640:14767   */\n      swap3\n      swap2\n      pop\n      pop\n      jump\t// out\n        /* \"#utility.yul\":14773:15254   */\n    tag_49:\n        /* \"#utility.yul\":14970:14974   */\n      0x00\n        /* \"#utility.yul\":15008:15010   */\n      0x20\n        /* \"#utility.yul\":14997:15006   */\n      dup3\n        /* \"#utility.yul\":14993:15011   */\n      add\n        /* \"#utility.yul\":14985:15011   */\n      swap1\n      pop\n        /* \"#utility.yul\":15057:15066   */\n      dup2\n        /* \"#utility.yul\":15051:15055   */\n      dup2\n        /* \"#utility.yul\":15047:15067   */\n      sub\n        /* \"#utility.yul\":15043:15044   */\n      0x00\n        /* \"#utility.yul\":15032:15041   */\n      dup4\n        /* \"#utility.yul\":15028:15045   */\n      add\n        /* \"#utility.yul\":15021:15068   */\n      mstore\n        /* \"#utility.yul\":15085:15247   */\n      tag_535\n        /* \"#utility.yul\":15242:15246   */\n      dup2\n        /* \"#utility.yul\":15233:15239   */\n      dup5\n        /* \"#utility.yul\":15085:15247   */\n      tag_365\n      jump\t// in\n    tag_535:\n        /* \"#utility.yul\":15077:15247   */\n      swap1\n      pop\n        /* \"#utility.yul\":14773:15254   */\n      swap3\n      swap2\n      pop\n      pop\n      jump\t// out\n        /* \"#utility.yul\":15260:15382   */\n    tag_366:\n        /* \"#utility.yul\":15333:15357   */\n      tag_537\n        /* \"#utility.yul\":15351:15356   */\n      dup2\n        /* \"#utility.yul\":15333:15357   */\n      tag_332\n      jump\t// in\n    tag_537:\n        /* \"#utility.yul\":15326:15331   */\n      dup2\n        /* \"#utility.yul\":15323:15358   */\n      eq\n        /* \"#utility.yul\":15313:15376   */\n      tag_538\n      jumpi\n        /* \"#utility.yul\":15372:15373   */\n      0x00\n        /* \"#utility.yul\":15369:15370   */\n      dup1\n        /* \"#utility.yul\":15362:15374   */\n      revert\n        /* \"#utility.yul\":15313:15376   */\n    tag_538:\n        /* \"#utility.yul\":15260:15382   */\n      pop\n      jump\t// out\n        /* \"#utility.yul\":15388:15527   */\n    tag_367:\n        /* \"#utility.yul\":15434:15439   */\n      0x00\n        /* \"#utility.yul\":15472:15478   */\n      dup2\n        /* \"#utility.yul\":15459:15479   */\n      calldataload\n        /* \"#utility.yul\":15450:15479   */\n      swap1\n      pop\n        /* \"#utility.yul\":15488:15521   */\n      tag_540\n        /* \"#utility.yul\":15515:15520   */\n      dup2\n        /* \"#utility.yul\":15488:15521   */\n      tag_366\n      jump\t// in\n    tag_540:\n        /* \"#utility.yul\":15388:15527   */\n      swap3\n      swap2\n      pop\n      pop\n      jump\t// out\n        /* \"#utility.yul\":15533:15862   */\n    tag_52:\n        /* \"#utility.yul\":15592:15598   */\n      0x00\n        /* \"#utility.yul\":15641:15643   */\n      0x20\n        /* \"#utility.yul\":15629:15638   */\n      dup3\n        /* \"#utility.yul\":15620:15627   */\n      dup5\n        /* \"#utility.yul\":15616:15639   */\n      sub\n        /* \"#utility.yul\":15612:15644   */\n      slt\n        /* \"#utility.yul\":15609:15728   */\n      iszero\n      tag_542\n      jumpi\n        /* \"#utility.yul\":15647:15726   */\n      tag_543\n      tag_335\n      jump\t// in\n    tag_543:\n        /* \"#utility.yul\":15609:15728   */\n    tag_542:\n        /* \"#utility.yul\":15767:15768   */\n      0x00\n        /* \"#utility.yul\":15792:15845   */\n      tag_544\n        /* \"#utility.yul\":15837:15844   */\n      dup5\n        /* \"#utility.yul\":15828:15834   */\n      dup3\n        /* \"#utility.yul\":15817:15826   */\n      dup6\n        /* \"#utility.yul\":15813:15835   */\n      add\n        /* \"#utility.yul\":15792:15845   */\n      tag_367\n      jump\t// in\n    tag_544:\n        /* \"#utility.yul\":15782:15845   */\n      swap2\n      pop\n        /* \"#utility.yul\":15738:15855   */\n      pop\n        /* \"#utility.yul\":15533:15862   */\n      swap3\n      swap2\n      pop\n      pop\n      jump\t// out\n        /* \"#utility.yul\":15868:16603   */\n    tag_55:\n        /* \"#utility.yul\":16085:16089   */\n      0x00\n        /* \"#utility.yul\":16123:16126   */\n      0x80\n        /* \"#utility.yul\":16112:16121   */\n      dup3\n        /* \"#utility.yul\":16108:16127   */\n      add\n        /* \"#utility.yul\":16100:16127   */\n      swap1\n      pop\n        /* \"#utility.yul\":16173:16182   */\n      dup2\n        /* \"#utility.yul\":16167:16171   */\n      dup2\n        /* \"#utility.yul\":16163:16183   */\n      sub\n        /* \"#utility.yul\":16159:16160   */\n      0x00\n        /* \"#utility.yul\":16148:16157   */\n      dup4\n        /* \"#utility.yul\":16144:16161   */\n      add\n        /* \"#utility.yul\":16137:16184   */\n      mstore\n        /* \"#utility.yul\":16201:16279   */\n      tag_546\n        /* \"#utility.yul\":16274:16278   */\n      dup2\n        /* \"#utility.yul\":16265:16271   */\n      dup8\n        /* \"#utility.yul\":16201:16279   */\n      tag_344\n      jump\t// in\n    tag_546:\n        /* \"#utility.yul\":16193:16279   */\n      swap1\n      pop\n        /* \"#utility.yul\":16326:16335   */\n      dup2\n        /* \"#utility.yul\":16320:16324   */\n      dup2\n        /* \"#utility.yul\":16316:16336   */\n      sub\n        /* \"#utility.yul\":16311:16313   */\n      0x20\n        /* \"#utility.yul\":16300:16309   */\n      dup4\n        /* \"#utility.yul\":16296:16314   */\n      add\n        /* \"#utility.yul\":16289:16337   */\n      mstore\n        /* \"#utility.yul\":16354:16432   */\n      tag_547\n        /* \"#utility.yul\":16427:16431   */\n      dup2\n        /* \"#utility.yul\":16418:16424   */\n      dup7\n        /* \"#utility.yul\":16354:16432   */\n      tag_344\n      jump\t// in\n    tag_547:\n        /* \"#utility.yul\":16346:16432   */\n      swap1\n      pop\n        /* \"#utility.yul\":16442:16514   */\n      tag_548\n        /* \"#utility.yul\":16510:16512   */\n      0x40\n        /* \"#utility.yul\":16499:16508   */\n      dup4\n        /* \"#utility.yul\":16495:16513   */\n      add\n        /* \"#utility.yul\":16486:16492   */\n      dup6\n        /* \"#utility.yul\":16442:16514   */\n      tag_333\n      jump\t// in\n    tag_548:\n        /* \"#utility.yul\":16524:16596   */\n      tag_549\n        /* \"#utility.yul\":16592:16594   */\n      0x60\n        /* \"#utility.yul\":16581:16590   */\n      dup4\n        /* \"#utility.yul\":16577:16595   */\n      add\n        /* \"#utility.yul\":16568:16574   */\n      dup5\n        /* \"#utility.yul\":16524:16596   */\n      tag_345\n      jump\t// in\n    tag_549:\n        /* \"#utility.yul\":15868:16603   */\n      swap6\n      swap5\n      pop\n      pop\n      pop\n      pop\n      pop\n      jump\t// out\n        /* \"#utility.yul\":16609:16699   */\n    tag_368:\n        /* \"#utility.yul\":16643:16650   */\n      0x00\n        /* \"#utility.yul\":16686:16691   */\n      dup2\n        /* \"#utility.yul\":16679:16692   */\n      iszero\n        /* \"#utility.yul\":16672:16693   */\n      iszero\n        /* \"#utility.yul\":16661:16693   */\n      swap1\n      pop\n        /* \"#utility.yul\":16609:16699   */\n      swap2\n      swap1\n      pop\n      jump\t// out\n        /* \"#utility.yul\":16705:16814   */\n    tag_369:\n        /* \"#utility.yul\":16786:16807   */\n      tag_552\n        /* \"#utility.yul\":16801:16806   */\n      dup2\n        /* \"#utility.yul\":16786:16807   */\n      tag_368\n      jump\t// in\n    tag_552:\n        /* \"#utility.yul\":16781:16784   */\n      dup3\n        /* \"#utility.yul\":16774:16808   */\n      mstore\n        /* \"#utility.yul\":16705:16814   */\n      pop\n      pop\n      jump\t// out\n        /* \"#utility.yul\":16820:17030   */\n    tag_59:\n        /* \"#utility.yul\":16907:16911   */\n      0x00\n        /* \"#utility.yul\":16945:16947   */\n      0x20\n        /* \"#utility.yul\":16934:16943   */\n      dup3\n        /* \"#utility.yul\":16930:16948   */\n      add\n        /* \"#utility.yul\":16922:16948   */\n      swap1\n      pop\n        /* \"#utility.yul\":16958:17023   */\n      tag_554\n        /* \"#utility.yul\":17020:17021   */\n      0x00\n        /* \"#utility.yul\":17009:17018   */\n      dup4\n        /* \"#utility.yul\":17005:17022   */\n      add\n        /* \"#utility.yul\":16996:17002   */\n      dup5\n        /* \"#utility.yul\":16958:17023   */\n      tag_369\n      jump\t// in\n    tag_554:\n        /* \"#utility.yul\":16820:17030   */\n      swap3\n      swap2\n      pop\n      pop\n      jump\t// out\n        /* \"#utility.yul\":17036:17150   */\n    tag_370:\n        /* \"#utility.yul\":17103:17109   */\n      0x00\n        /* \"#utility.yul\":17137:17142   */\n      dup2\n        /* \"#utility.yul\":17131:17143   */\n      mload\n        /* \"#utility.yul\":17121:17143   */\n      swap1\n      pop\n        /* \"#utility.yul\":17036:17150   */\n      swap2\n      swap1\n      pop\n      jump\t// out\n        /* \"#utility.yul\":17156:17340   */\n    tag_371:\n        /* \"#utility.yul\":17255:17266   */\n      0x00\n        /* \"#utility.yul\":17289:17295   */\n      dup3\n        /* \"#utility.yul\":17284:17287   */\n      dup3\n        /* \"#utility.yul\":17277:17296   */\n      mstore\n        /* \"#utility.yul\":17329:17333   */\n      0x20\n        /* \"#utility.yul\":17324:17327   */\n      dup3\n        /* \"#utility.yul\":17320:17334   */\n      add\n        /* \"#utility.yul\":17305:17334   */\n      swap1\n      pop\n        /* \"#utility.yul\":17156:17340   */\n      swap3\n      swap2\n      pop\n      pop\n      jump\t// out\n        /* \"#utility.yul\":17346:17478   */\n    tag_372:\n        /* \"#utility.yul\":17413:17417   */\n      0x00\n        /* \"#utility.yul\":17436:17439   */\n      dup2\n        /* \"#utility.yul\":17428:17439   */\n      swap1\n      pop\n        /* \"#utility.yul\":17466:17470   */\n      0x20\n        /* \"#utility.yul\":17461:17464   */\n      dup3\n        /* \"#utility.yul\":17457:17471   */\n      add\n        /* \"#utility.yul\":17449:17471   */\n      swap1\n      pop\n        /* \"#utility.yul\":17346:17478   */\n      swap2\n      swap1\n      pop\n      jump\t// out\n        /* \"#utility.yul\":17484:17663   */\n    tag_373:\n        /* \"#utility.yul\":17553:17563   */\n      0x00\n        /* \"#utility.yul\":17574:17620   */\n      tag_559\n        /* \"#utility.yul\":17616:17619   */\n      dup4\n        /* \"#utility.yul\":17608:17614   */\n      dup4\n        /* \"#utility.yul\":17574:17620   */\n      tag_361\n      jump\t// in\n    tag_559:\n        /* \"#utility.yul\":17652:17656   */\n      0x20\n        /* \"#utility.yul\":17647:17650   */\n      dup4\n        /* \"#utility.yul\":17643:17657   */\n      add\n        /* \"#utility.yul\":17629:17657   */\n      swap1\n      pop\n        /* \"#utility.yul\":17484:17663   */\n      swap3\n      swap2\n      pop\n      pop\n      jump\t// out\n        /* \"#utility.yul\":17669:17782   */\n    tag_374:\n        /* \"#utility.yul\":17739:17743   */\n      0x00\n        /* \"#utility.yul\":17771:17775   */\n      0x20\n        /* \"#utility.yul\":17766:17769   */\n      dup3\n        /* \"#utility.yul\":17762:17776   */\n      add\n        /* \"#utility.yul\":17754:17776   */\n      swap1\n      pop\n        /* \"#utility.yul\":17669:17782   */\n      swap2\n      swap1\n      pop\n      jump\t// out\n        /* \"#utility.yul\":17818:18550   */\n    tag_375:\n        /* \"#utility.yul\":17937:17940   */\n      0x00\n        /* \"#utility.yul\":17966:18020   */\n      tag_562\n        /* \"#utility.yul\":18014:18019   */\n      dup3\n        /* \"#utility.yul\":17966:18020   */\n      tag_370\n      jump\t// in\n    tag_562:\n        /* \"#utility.yul\":18036:18122   */\n      tag_563\n        /* \"#utility.yul\":18115:18121   */\n      dup2\n        /* \"#utility.yul\":18110:18113   */\n      dup6\n        /* \"#utility.yul\":18036:18122   */\n      tag_371\n      jump\t// in\n    tag_563:\n        /* \"#utility.yul\":18029:18122   */\n      swap4\n      pop\n        /* \"#utility.yul\":18146:18202   */\n      tag_564\n        /* \"#utility.yul\":18196:18201   */\n      dup4\n        /* \"#utility.yul\":18146:18202   */\n      tag_372\n      jump\t// in\n    tag_564:\n        /* \"#utility.yul\":18225:18232   */\n      dup1\n        /* \"#utility.yul\":18256:18257   */\n      0x00\n        /* \"#utility.yul\":18241:18525   */\n    tag_565:\n        /* \"#utility.yul\":18266:18272   */\n      dup4\n        /* \"#utility.yul\":18263:18264   */\n      dup2\n        /* \"#utility.yul\":18260:18273   */\n      lt\n        /* \"#utility.yul\":18241:18525   */\n      iszero\n      tag_567\n      jumpi\n        /* \"#utility.yul\":18342:18348   */\n      dup2\n        /* \"#utility.yul\":18336:18349   */\n      mload\n        /* \"#utility.yul\":18369:18432   */\n      tag_568\n        /* \"#utility.yul\":18428:18431   */\n      dup9\n        /* \"#utility.yul\":18413:18426   */\n      dup3\n        /* \"#utility.yul\":18369:18432   */\n      tag_373\n      jump\t// in\n    tag_568:\n        /* \"#utility.yul\":18362:18432   */\n      swap8\n      pop\n        /* \"#utility.yul\":18455:18515   */\n      tag_569\n        /* \"#utility.yul\":18508:18514   */\n      dup4\n        /* \"#utility.yul\":18455:18515   */\n      tag_374\n      jump\t// in\n    tag_569:\n        /* \"#utility.yul\":18445:18515   */\n      swap3\n      pop\n        /* \"#utility.yul\":18301:18525   */\n      pop\n        /* \"#utility.yul\":18288:18289   */\n      0x01\n        /* \"#utility.yul\":18285:18286   */\n      dup2\n        /* \"#utility.yul\":18281:18290   */\n      add\n        /* \"#utility.yul\":18276:18290   */\n      swap1\n      pop\n        /* \"#utility.yul\":18241:18525   */\n      jump(tag_565)\n    tag_567:\n        /* \"#utility.yul\":18245:18259   */\n      pop\n        /* \"#utility.yul\":18541:18544   */\n      dup6\n        /* \"#utility.yul\":18534:18544   */\n      swap4\n      pop\n        /* \"#utility.yul\":17942:18550   */\n      pop\n      pop\n      pop\n        /* \"#utility.yul\":17818:18550   */\n      swap3\n      swap2\n      pop\n      pop\n      jump\t// out\n        /* \"#utility.yul\":18556:18929   */\n    tag_66:\n        /* \"#utility.yul\":18699:18703   */\n      0x00\n        /* \"#utility.yul\":18737:18739   */\n      0x20\n        /* \"#utility.yul\":18726:18735   */\n      dup3\n        /* \"#utility.yul\":18722:18740   */\n      add\n        /* \"#utility.yul\":18714:18740   */\n      swap1\n      pop\n        /* \"#utility.yul\":18786:18795   */\n      dup2\n        /* \"#utility.yul\":18780:18784   */\n      dup2\n        /* \"#utility.yul\":18776:18796   */\n      sub\n        /* \"#utility.yul\":18772:18773   */\n      0x00\n        /* \"#utility.yul\":18761:18770   */\n      dup4\n        /* \"#utility.yul\":18757:18774   */\n      add\n        /* \"#utility.yul\":18750:18797   */\n      mstore\n        /* \"#utility.yul\":18814:18922   */\n      tag_571\n        /* \"#utility.yul\":18917:18921   */\n      dup2\n        /* \"#utility.yul\":18908:18914   */\n      dup5\n        /* \"#utility.yul\":18814:18922   */\n      tag_375\n      jump\t// in\n    tag_571:\n        /* \"#utility.yul\":18806:18922   */\n      swap1\n      pop\n        /* \"#utility.yul\":18556:18929   */\n      swap3\n      swap2\n      pop\n      pop\n      jump\t// out\n        /* \"#utility.yul\":18935:21218   */\n    tag_69:\n        /* \"#utility.yul\":19108:19114   */\n      0x00\n        /* \"#utility.yul\":19116:19122   */\n      dup1\n        /* \"#utility.yul\":19124:19130   */\n      0x00\n        /* \"#utility.yul\":19132:19138   */\n      dup1\n        /* \"#utility.yul\":19140:19146   */\n      0x00\n        /* \"#utility.yul\":19148:19154   */\n      dup1\n        /* \"#utility.yul\":19156:19162   */\n      0x00\n        /* \"#utility.yul\":19205:19208   */\n      0xe0\n        /* \"#utility.yul\":19193:19202   */\n      dup9\n        /* \"#utility.yul\":19184:19191   */\n      dup11\n        /* \"#utility.yul\":19180:19203   */\n      sub\n        /* \"#utility.yul\":19176:19209   */\n      slt\n        /* \"#utility.yul\":19173:19293   */\n      iszero\n      tag_573\n      jumpi\n        /* \"#utility.yul\":19212:19291   */\n      tag_574\n      tag_335\n      jump\t// in\n    tag_574:\n        /* \"#utility.yul\":19173:19293   */\n    tag_573:\n        /* \"#utility.yul\":19360:19361   */\n      0x00\n        /* \"#utility.yul\":19349:19358   */\n      dup9\n        /* \"#utility.yul\":19345:19362   */\n      add\n        /* \"#utility.yul\":19332:19363   */\n      calldataload\n        /* \"#utility.yul\":19390:19408   */\n      0xffffffffffffffff\n        /* \"#utility.yul\":19382:19388   */\n      dup2\n        /* \"#utility.yul\":19379:19409   */\n      gt\n        /* \"#utility.yul\":19376:19493   */\n      iszero\n      tag_575\n      jumpi\n        /* \"#utility.yul\":19412:19491   */\n      tag_576\n      tag_336\n      jump\t// in\n    tag_576:\n        /* \"#utility.yul\":19376:19493   */\n    tag_575:\n        /* \"#utility.yul\":19517:19580   */\n      tag_577\n        /* \"#utility.yul\":19572:19579   */\n      dup11\n        /* \"#utility.yul\":19563:19569   */\n      dup3\n        /* \"#utility.yul\":19552:19561   */\n      dup12\n        /* \"#utility.yul\":19548:19570   */\n      add\n        /* \"#utility.yul\":19517:19580   */\n      tag_354\n      jump\t// in\n    tag_577:\n        /* \"#utility.yul\":19507:19580   */\n      swap8\n      pop\n        /* \"#utility.yul\":19303:19590   */\n      pop\n        /* \"#utility.yul\":19657:19659   */\n      0x20\n        /* \"#utility.yul\":19646:19655   */\n      dup9\n        /* \"#utility.yul\":19642:19660   */\n      add\n        /* \"#utility.yul\":19629:19661   */\n      calldataload\n        /* \"#utility.yul\":19688:19706   */\n      0xffffffffffffffff\n        /* \"#utility.yul\":19680:19686   */\n      dup2\n        /* \"#utility.yul\":19677:19707   */\n      gt\n        /* \"#utility.yul\":19674:19791   */\n      iszero\n      tag_578\n      jumpi\n        /* \"#utility.yul\":19710:19789   */\n      tag_579\n      tag_336\n      jump\t// in\n    tag_579:\n        /* \"#utility.yul\":19674:19791   */\n    tag_578:\n        /* \"#utility.yul\":19815:19878   */\n      tag_580\n        /* \"#utility.yul\":19870:19877   */\n      dup11\n        /* \"#utility.yul\":19861:19867   */\n      dup3\n        /* \"#utility.yul\":19850:19859   */\n      dup12\n        /* \"#utility.yul\":19846:19868   */\n      add\n        /* \"#utility.yul\":19815:19878   */\n      tag_354\n      jump\t// in\n    tag_580:\n        /* \"#utility.yul\":19805:19878   */\n      swap7\n      pop\n        /* \"#utility.yul\":19600:19888   */\n      pop\n        /* \"#utility.yul\":19927:19929   */\n      0x40\n        /* \"#utility.yul\":19953:20006   */\n      tag_581\n        /* \"#utility.yul\":19998:20005   */\n      dup11\n        /* \"#utility.yul\":19989:19995   */\n      dup3\n        /* \"#utility.yul\":19978:19987   */\n      dup12\n        /* \"#utility.yul\":19974:19996   */\n      add\n        /* \"#utility.yul\":19953:20006   */\n      tag_339\n      jump\t// in\n    tag_581:\n        /* \"#utility.yul\":19943:20006   */\n      swap6\n      pop\n        /* \"#utility.yul\":19898:20016   */\n      pop\n        /* \"#utility.yul\":20083:20085   */\n      0x60\n        /* \"#utility.yul\":20072:20081   */\n      dup9\n        /* \"#utility.yul\":20068:20086   */\n      add\n        /* \"#utility.yul\":20055:20087   */\n      calldataload\n        /* \"#utility.yul\":20114:20132   */\n      0xffffffffffffffff\n        /* \"#utility.yul\":20106:20112   */\n      dup2\n        /* \"#utility.yul\":20103:20133   */\n      gt\n        /* \"#utility.yul\":20100:20217   */\n      iszero\n      tag_582\n      jumpi\n        /* \"#utility.yul\":20136:20215   */\n      tag_583\n      tag_336\n      jump\t// in\n    tag_583:\n        /* \"#utility.yul\":20100:20217   */\n    tag_582:\n        /* \"#utility.yul\":20241:20304   */\n      tag_584\n        /* \"#utility.yul\":20296:20303   */\n      dup11\n        /* \"#utility.yul\":20287:20293   */\n      dup3\n        /* \"#utility.yul\":20276:20285   */\n      dup12\n        /* \"#utility.yul\":20272:20294   */\n      add\n        /* \"#utility.yul\":20241:20304   */\n      tag_354\n      jump\t// in\n    tag_584:\n        /* \"#utility.yul\":20231:20304   */\n      swap5\n      pop\n        /* \"#utility.yul\":20026:20314   */\n      pop\n        /* \"#utility.yul\":20381:20384   */\n      0x80\n        /* \"#utility.yul\":20370:20379   */\n      dup9\n        /* \"#utility.yul\":20366:20385   */\n      add\n        /* \"#utility.yul\":20353:20386   */\n      calldataload\n        /* \"#utility.yul\":20413:20431   */\n      0xffffffffffffffff\n        /* \"#utility.yul\":20405:20411   */\n      dup2\n        /* \"#utility.yul\":20402:20432   */\n      gt\n        /* \"#utility.yul\":20399:20516   */\n      iszero\n      tag_585\n      jumpi\n        /* \"#utility.yul\":20435:20514   */\n      tag_586\n      tag_336\n      jump\t// in\n    tag_586:\n        /* \"#utility.yul\":20399:20516   */\n    tag_585:\n        /* \"#utility.yul\":20540:20603   */\n      tag_587\n        /* \"#utility.yul\":20595:20602   */\n      dup11\n        /* \"#utility.yul\":20586:20592   */\n      dup3\n        /* \"#utility.yul\":20575:20584   */\n      dup12\n        /* \"#utility.yul\":20571:20593   */\n      add\n        /* \"#utility.yul\":20540:20603   */\n      tag_354\n      jump\t// in\n    tag_587:\n        /* \"#utility.yul\":20530:20603   */\n      swap4\n      pop\n        /* \"#utility.yul\":20324:20613   */\n      pop\n        /* \"#utility.yul\":20680:20683   */\n      0xa0\n        /* \"#utility.yul\":20669:20678   */\n      dup9\n        /* \"#utility.yul\":20665:20684   */\n      add\n        /* \"#utility.yul\":20652:20685   */\n      calldataload\n        /* \"#utility.yul\":20712:20730   */\n      0xffffffffffffffff\n        /* \"#utility.yul\":20704:20710   */\n      dup2\n        /* \"#utility.yul\":20701:20731   */\n      gt\n        /* \"#utility.yul\":20698:20815   */\n      iszero\n      tag_588\n      jumpi\n        /* \"#utility.yul\":20734:20813   */\n      tag_589\n      tag_336\n      jump\t// in\n    tag_589:\n        /* \"#utility.yul\":20698:20815   */\n    tag_588:\n        /* \"#utility.yul\":20839:20902   */\n      tag_590\n        /* \"#utility.yul\":20894:20901   */\n      dup11\n        /* \"#utility.yul\":20885:20891   */\n      dup3\n        /* \"#utility.yul\":20874:20883   */\n      dup12\n        /* \"#utility.yul\":20870:20892   */\n      add\n        /* \"#utility.yul\":20839:20902   */\n      tag_354\n      jump\t// in\n    tag_590:\n        /* \"#utility.yul\":20829:20902   */\n      swap3\n      pop\n        /* \"#utility.yul\":20623:20912   */\n      pop\n        /* \"#utility.yul\":20979:20982   */\n      0xc0\n        /* \"#utility.yul\":20968:20977   */\n      dup9\n        /* \"#utility.yul\":20964:20983   */\n      add\n        /* \"#utility.yul\":20951:20984   */\n      calldataload\n        /* \"#utility.yul\":21011:21029   */\n      0xffffffffffffffff\n        /* \"#utility.yul\":21003:21009   */\n      dup2\n        /* \"#utility.yul\":21000:21030   */\n      gt\n        /* \"#utility.yul\":20997:21114   */\n      iszero\n      tag_591\n      jumpi\n        /* \"#utility.yul\":21033:21112   */\n      tag_592\n      tag_336\n      jump\t// in\n    tag_592:\n        /* \"#utility.yul\":20997:21114   */\n    tag_591:\n        /* \"#utility.yul\":21138:21201   */\n      tag_593\n        /* \"#utility.yul\":21193:21200   */\n      dup11\n        /* \"#utility.yul\":21184:21190   */\n      dup3\n        /* \"#utility.yul\":21173:21182   */\n      dup12\n        /* \"#utility.yul\":21169:21191   */\n      add\n        /* \"#utility.yul\":21138:21201   */\n      tag_354\n      jump\t// in\n    tag_593:\n        /* \"#utility.yul\":21128:21201   */\n      swap2\n      pop\n        /* \"#utility.yul\":20922:21211   */\n      pop\n        /* \"#utility.yul\":18935:21218   */\n      swap3\n      swap6\n      swap9\n      swap2\n      swap5\n      swap8\n      pop\n      swap3\n      swap6\n      pop\n      jump\t// out\n        /* \"#utility.yul\":21224:21537   */\n    tag_79:\n        /* \"#utility.yul\":21337:21341   */\n      0x00\n        /* \"#utility.yul\":21375:21377   */\n      0x20\n        /* \"#utility.yul\":21364:21373   */\n      dup3\n        /* \"#utility.yul\":21360:21378   */\n      add\n        /* \"#utility.yul\":21352:21378   */\n      swap1\n      pop\n        /* \"#utility.yul\":21424:21433   */\n      dup2\n        /* \"#utility.yul\":21418:21422   */\n      dup2\n        /* \"#utility.yul\":21414:21434   */\n      sub\n        /* \"#utility.yul\":21410:21411   */\n      0x00\n        /* \"#utility.yul\":21399:21408   */\n      dup4\n        /* \"#utility.yul\":21395:21412   */\n      add\n        /* \"#utility.yul\":21388:21435   */\n      mstore\n        /* \"#utility.yul\":21452:21530   */\n      tag_595\n        /* \"#utility.yul\":21525:21529   */\n      dup2\n        /* \"#utility.yul\":21516:21522   */\n      dup5\n        /* \"#utility.yul\":21452:21530   */\n      tag_344\n      jump\t// in\n    tag_595:\n        /* \"#utility.yul\":21444:21530   */\n      swap1\n      pop\n        /* \"#utility.yul\":21224:21537   */\n      swap3\n      swap2\n      pop\n      pop\n      jump\t// out\n        /* \"#utility.yul\":21543:22522   */\n    tag_82:\n        /* \"#utility.yul\":21640:21646   */\n      0x00\n        /* \"#utility.yul\":21648:21654   */\n      dup1\n        /* \"#utility.yul\":21656:21662   */\n      0x00\n        /* \"#utility.yul\":21705:21707   */\n      0x60\n        /* \"#utility.yul\":21693:21702   */\n      dup5\n        /* \"#utility.yul\":21684:21691   */\n      dup7\n        /* \"#utility.yul\":21680:21703   */\n      sub\n        /* \"#utility.yul\":21676:21708   */\n      slt\n        /* \"#utility.yul\":21673:21792   */\n      iszero\n      tag_597\n      jumpi\n        /* \"#utility.yul\":21711:21790   */\n      tag_598\n      tag_335\n      jump\t// in\n    tag_598:\n        /* \"#utility.yul\":21673:21792   */\n    tag_597:\n        /* \"#utility.yul\":21859:21860   */\n      0x00\n        /* \"#utility.yul\":21848:21857   */\n      dup5\n        /* \"#utility.yul\":21844:21861   */\n      add\n        /* \"#utility.yul\":21831:21862   */\n      calldataload\n        /* \"#utility.yul\":21889:21907   */\n      0xffffffffffffffff\n        /* \"#utility.yul\":21881:21887   */\n      dup2\n        /* \"#utility.yul\":21878:21908   */\n      gt\n        /* \"#utility.yul\":21875:21992   */\n      iszero\n      tag_599\n      jumpi\n        /* \"#utility.yul\":21911:21990   */\n      tag_600\n      tag_336\n      jump\t// in\n    tag_600:\n        /* \"#utility.yul\":21875:21992   */\n    tag_599:\n        /* \"#utility.yul\":22016:22079   */\n      tag_601\n        /* \"#utility.yul\":22071:22078   */\n      dup7\n        /* \"#utility.yul\":22062:22068   */\n      dup3\n        /* \"#utility.yul\":22051:22060   */\n      dup8\n        /* \"#utility.yul\":22047:22069   */\n      add\n        /* \"#utility.yul\":22016:22079   */\n      tag_354\n      jump\t// in\n    tag_601:\n        /* \"#utility.yul\":22006:22079   */\n      swap4\n      pop\n        /* \"#utility.yul\":21802:22089   */\n      pop\n        /* \"#utility.yul\":22128:22130   */\n      0x20\n        /* \"#utility.yul\":22154:22207   */\n      tag_602\n        /* \"#utility.yul\":22199:22206   */\n      dup7\n        /* \"#utility.yul\":22190:22196   */\n      dup3\n        /* \"#utility.yul\":22179:22188   */\n      dup8\n        /* \"#utility.yul\":22175:22197   */\n      add\n        /* \"#utility.yul\":22154:22207   */\n      tag_367\n      jump\t// in\n    tag_602:\n        /* \"#utility.yul\":22144:22207   */\n      swap3\n      pop\n        /* \"#utility.yul\":22099:22217   */\n      pop\n        /* \"#utility.yul\":22284:22286   */\n      0x40\n        /* \"#utility.yul\":22273:22282   */\n      dup5\n        /* \"#utility.yul\":22269:22287   */\n      add\n        /* \"#utility.yul\":22256:22288   */\n      calldataload\n        /* \"#utility.yul\":22315:22333   */\n      0xffffffffffffffff\n        /* \"#utility.yul\":22307:22313   */\n      dup2\n        /* \"#utility.yul\":22304:22334   */\n      gt\n        /* \"#utility.yul\":22301:22418   */\n      iszero\n      tag_603\n      jumpi\n        /* \"#utility.yul\":22337:22416   */\n      tag_604\n      tag_336\n      jump\t// in\n    tag_604:\n        /* \"#utility.yul\":22301:22418   */\n    tag_603:\n        /* \"#utility.yul\":22442:22505   */\n      tag_605\n        /* \"#utility.yul\":22497:22504   */\n      dup7\n        /* \"#utility.yul\":22488:22494   */\n      dup3\n        /* \"#utility.yul\":22477:22486   */\n      dup8\n        /* \"#utility.yul\":22473:22495   */\n      add\n        /* \"#utility.yul\":22442:22505   */\n      tag_354\n      jump\t// in\n    tag_605:\n        /* \"#utility.yul\":22432:22505   */\n      swap2\n      pop\n        /* \"#utility.yul\":22227:22515   */\n      pop\n        /* \"#utility.yul\":21543:22522   */\n      swap3\n      pop\n      swap3\n      pop\n      swap3\n      jump\t// out\n        /* \"#utility.yul\":22528:23362   */\n    tag_96:\n        /* \"#utility.yul\":22616:22622   */\n      0x00\n        /* \"#utility.yul\":22624:22630   */\n      dup1\n        /* \"#utility.yul\":22673:22675   */\n      0x40\n        /* \"#utility.yul\":22661:22670   */\n      dup4\n        /* \"#utility.yul\":22652:22659   */\n      dup6\n        /* \"#utility.yul\":22648:22671   */\n      sub\n        /* \"#utility.yul\":22644:22676   */\n      slt\n        /* \"#utility.yul\":22641:22760   */\n      iszero\n      tag_607\n      jumpi\n        /* \"#utility.yul\":22679:22758   */\n      tag_608\n      tag_335\n      jump\t// in\n    tag_608:\n        /* \"#utility.yul\":22641:22760   */\n    tag_607:\n        /* \"#utility.yul\":22827:22828   */\n      0x00\n        /* \"#utility.yul\":22816:22825   */\n      dup4\n        /* \"#utility.yul\":22812:22829   */\n      add\n        /* \"#utility.yul\":22799:22830   */\n      calldataload\n        /* \"#utility.yul\":22857:22875   */\n      0xffffffffffffffff\n        /* \"#utility.yul\":22849:22855   */\n      dup2\n        /* \"#utility.yul\":22846:22876   */\n      gt\n        /* \"#utility.yul\":22843:22960   */\n      iszero\n      tag_609\n      jumpi\n        /* \"#utility.yul\":22879:22958   */\n      tag_610\n      tag_336\n      jump\t// in\n    tag_610:\n        /* \"#utility.yul\":22843:22960   */\n    tag_609:\n        /* \"#utility.yul\":22984:23047   */\n      tag_611\n        /* \"#utility.yul\":23039:23046   */\n      dup6\n        /* \"#utility.yul\":23030:23036   */\n      dup3\n        /* \"#utility.yul\":23019:23028   */\n      dup7\n        /* \"#utility.yul\":23015:23037   */\n      add\n        /* \"#utility.yul\":22984:23047   */\n      tag_354\n      jump\t// in\n    tag_611:\n        /* \"#utility.yul\":22974:23047   */\n      swap3\n      pop\n        /* \"#utility.yul\":22770:23057   */\n      pop\n        /* \"#utility.yul\":23124:23126   */\n      0x20\n        /* \"#utility.yul\":23113:23122   */\n      dup4\n        /* \"#utility.yul\":23109:23127   */\n      add\n        /* \"#utility.yul\":23096:23128   */\n      calldataload\n        /* \"#utility.yul\":23155:23173   */\n      0xffffffffffffffff\n        /* \"#utility.yul\":23147:23153   */\n      dup2\n        /* \"#utility.yul\":23144:23174   */\n      gt\n        /* \"#utility.yul\":23141:23258   */\n      iszero\n      tag_612\n      jumpi\n        /* \"#utility.yul\":23177:23256   */\n      tag_613\n      tag_336\n      jump\t// in\n    tag_613:\n        /* \"#utility.yul\":23141:23258   */\n    tag_612:\n        /* \"#utility.yul\":23282:23345   */\n      tag_614\n        /* \"#utility.yul\":23337:23344   */\n      dup6\n        /* \"#utility.yul\":23328:23334   */\n      dup3\n        /* \"#utility.yul\":23317:23326   */\n      dup7\n        /* \"#utility.yul\":23313:23335   */\n      add\n        /* \"#utility.yul\":23282:23345   */\n      tag_354\n      jump\t// in\n    tag_614:\n        /* \"#utility.yul\":23272:23345   */\n      swap2\n      pop\n        /* \"#utility.yul\":23067:23355   */\n      pop\n        /* \"#utility.yul\":22528:23362   */\n      swap3\n      pop\n      swap3\n      swap1\n      pop\n      jump\t// out\n        /* \"#utility.yul\":23368:23501   */\n    tag_376:\n        /* \"#utility.yul\":23454:23460   */\n      0x00\n        /* \"#utility.yul\":23488:23493   */\n      dup2\n        /* \"#utility.yul\":23482:23494   */\n      mload\n        /* \"#utility.yul\":23472:23494   */\n      swap1\n      pop\n        /* \"#utility.yul\":23368:23501   */\n      swap2\n      swap1\n      pop\n      jump\t// out\n        /* \"#utility.yul\":23507:23710   */\n    tag_377:\n        /* \"#utility.yul\":23625:23636   */\n      0x00\n        /* \"#utility.yul\":23659:23665   */\n      dup3\n        /* \"#utility.yul\":23654:23657   */\n      dup3\n        /* \"#utility.yul\":23647:23666   */\n      mstore\n        /* \"#utility.yul\":23699:23703   */\n      0x20\n        /* \"#utility.yul\":23694:23697   */\n      dup3\n        /* \"#utility.yul\":23690:23704   */\n      add\n        /* \"#utility.yul\":23675:23704   */\n      swap1\n      pop\n        /* \"#utility.yul\":23507:23710   */\n      swap3\n      swap2\n      pop\n      pop\n      jump\t// out\n        /* \"#utility.yul\":23716:23867   */\n    tag_378:\n        /* \"#utility.yul\":23802:23806   */\n      0x00\n        /* \"#utility.yul\":23825:23828   */\n      dup2\n        /* \"#utility.yul\":23817:23828   */\n      swap1\n      pop\n        /* \"#utility.yul\":23855:23859   */\n      0x20\n        /* \"#utility.yul\":23850:23853   */\n      dup3\n        /* \"#utility.yul\":23846:23860   */\n      add\n        /* \"#utility.yul\":23838:23860   */\n      swap1\n      pop\n        /* \"#utility.yul\":23716:23867   */\n      swap2\n      swap1\n      pop\n      jump\t// out\n        /* \"#utility.yul\":23927:24758   */\n    tag_379:\n        /* \"#utility.yul\":24024:24027   */\n      0x00\n        /* \"#utility.yul\":24060:24064   */\n      0x60\n        /* \"#utility.yul\":24055:24058   */\n      dup4\n        /* \"#utility.yul\":24051:24065   */\n      add\n        /* \"#utility.yul\":24149:24153   */\n      0x00\n        /* \"#utility.yul\":24142:24147   */\n      dup4\n        /* \"#utility.yul\":24138:24154   */\n      add\n        /* \"#utility.yul\":24132:24155   */\n      mload\n        /* \"#utility.yul\":24168:24231   */\n      tag_619\n        /* \"#utility.yul\":24225:24229   */\n      0x00\n        /* \"#utility.yul\":24220:24223   */\n      dup7\n        /* \"#utility.yul\":24216:24230   */\n      add\n        /* \"#utility.yul\":24202:24214   */\n      dup3\n        /* \"#utility.yul\":24168:24231   */\n      tag_360\n      jump\t// in\n    tag_619:\n        /* \"#utility.yul\":24075:24241   */\n      pop\n        /* \"#utility.yul\":24323:24327   */\n      0x20\n        /* \"#utility.yul\":24316:24321   */\n      dup4\n        /* \"#utility.yul\":24312:24328   */\n      add\n        /* \"#utility.yul\":24306:24329   */\n      mload\n        /* \"#utility.yul\":24376:24379   */\n      dup5\n        /* \"#utility.yul\":24370:24374   */\n      dup3\n        /* \"#utility.yul\":24366:24380   */\n      sub\n        /* \"#utility.yul\":24359:24363   */\n      0x20\n        /* \"#utility.yul\":24354:24357   */\n      dup7\n        /* \"#utility.yul\":24350:24364   */\n      add\n        /* \"#utility.yul\":24343:24381   */\n      mstore\n        /* \"#utility.yul\":24402:24475   */\n      tag_620\n        /* \"#utility.yul\":24470:24474   */\n      dup3\n        /* \"#utility.yul\":24456:24468   */\n      dup3\n        /* \"#utility.yul\":24402:24475   */\n      tag_359\n      jump\t// in\n    tag_620:\n        /* \"#utility.yul\":24394:24475   */\n      swap2\n      pop\n        /* \"#utility.yul\":24251:24486   */\n      pop\n        /* \"#utility.yul\":24568:24572   */\n      0x40\n        /* \"#utility.yul\":24561:24566   */\n      dup4\n        /* \"#utility.yul\":24557:24573   */\n      add\n        /* \"#utility.yul\":24551:24574   */\n      mload\n        /* \"#utility.yul\":24621:24624   */\n      dup5\n        /* \"#utility.yul\":24615:24619   */\n      dup3\n        /* \"#utility.yul\":24611:24625   */\n      sub\n        /* \"#utility.yul\":24604:24608   */\n      0x40\n        /* \"#utility.yul\":24599:24602   */\n      dup7\n        /* \"#utility.yul\":24595:24609   */\n      add\n        /* \"#utility.yul\":24588:24626   */\n      mstore\n        /* \"#utility.yul\":24647:24720   */\n      tag_621\n        /* \"#utility.yul\":24715:24719   */\n      dup3\n        /* \"#utility.yul\":24701:24713   */\n      dup3\n        /* \"#utility.yul\":24647:24720   */\n      tag_359\n      jump\t// in\n    tag_621:\n        /* \"#utility.yul\":24639:24720   */\n      swap2\n      pop\n        /* \"#utility.yul\":24496:24731   */\n      pop\n        /* \"#utility.yul\":24748:24752   */\n      dup1\n        /* \"#utility.yul\":24741:24752   */\n      swap2\n      pop\n        /* \"#utility.yul\":24029:24758   */\n      pop\n        /* \"#utility.yul\":23927:24758   */\n      swap3\n      swap2\n      pop\n      pop\n      jump\t// out\n        /* \"#utility.yul\":24764:24996   */\n    tag_380:\n        /* \"#utility.yul\":24871:24881   */\n      0x00\n        /* \"#utility.yul\":24906:24990   */\n      tag_623\n        /* \"#utility.yul\":24986:24989   */\n      dup4\n        /* \"#utility.yul\":24978:24984   */\n      dup4\n        /* \"#utility.yul\":24906:24990   */\n      tag_379\n      jump\t// in\n    tag_623:\n        /* \"#utility.yul\":24892:24990   */\n      swap1\n      pop\n        /* \"#utility.yul\":24764:24996   */\n      swap3\n      swap2\n      pop\n      pop\n      jump\t// out\n        /* \"#utility.yul\":25002:25134   */\n    tag_381:\n        /* \"#utility.yul\":25091:25095   */\n      0x00\n        /* \"#utility.yul\":25123:25127   */\n      0x20\n        /* \"#utility.yul\":25118:25121   */\n      dup3\n        /* \"#utility.yul\":25114:25128   */\n      add\n        /* \"#utility.yul\":25106:25128   */\n      swap1\n      pop\n        /* \"#utility.yul\":25002:25134   */\n      swap2\n      swap1\n      pop\n      jump\t// out\n        /* \"#utility.yul\":25198:26261   */\n    tag_382:\n        /* \"#utility.yul\":25355:25358   */\n      0x00\n        /* \"#utility.yul\":25384:25457   */\n      tag_626\n        /* \"#utility.yul\":25451:25456   */\n      dup3\n        /* \"#utility.yul\":25384:25457   */\n      tag_376\n      jump\t// in\n    tag_626:\n        /* \"#utility.yul\":25473:25578   */\n      tag_627\n        /* \"#utility.yul\":25571:25577   */\n      dup2\n        /* \"#utility.yul\":25566:25569   */\n      dup6\n        /* \"#utility.yul\":25473:25578   */\n      tag_377\n      jump\t// in\n    tag_627:\n        /* \"#utility.yul\":25466:25578   */\n      swap4\n      pop\n        /* \"#utility.yul\":25604:25607   */\n      dup4\n        /* \"#utility.yul\":25649:25653   */\n      0x20\n        /* \"#utility.yul\":25641:25647   */\n      dup3\n        /* \"#utility.yul\":25637:25654   */\n      mul\n        /* \"#utility.yul\":25632:25635   */\n      dup6\n        /* \"#utility.yul\":25628:25655   */\n      add\n        /* \"#utility.yul\":25679:25754   */\n      tag_628\n        /* \"#utility.yul\":25748:25753   */\n      dup6\n        /* \"#utility.yul\":25679:25754   */\n      tag_378\n      jump\t// in\n    tag_628:\n        /* \"#utility.yul\":25777:25784   */\n      dup1\n        /* \"#utility.yul\":25808:25809   */\n      0x00\n        /* \"#utility.yul\":25793:26216   */\n    tag_629:\n        /* \"#utility.yul\":25818:25824   */\n      dup6\n        /* \"#utility.yul\":25815:25816   */\n      dup2\n        /* \"#utility.yul\":25812:25825   */\n      lt\n        /* \"#utility.yul\":25793:26216   */\n      iszero\n      tag_631\n      jumpi\n        /* \"#utility.yul\":25889:25898   */\n      dup5\n        /* \"#utility.yul\":25883:25887   */\n      dup5\n        /* \"#utility.yul\":25879:25899   */\n      sub\n        /* \"#utility.yul\":25874:25877   */\n      dup10\n        /* \"#utility.yul\":25867:25900   */\n      mstore\n        /* \"#utility.yul\":25940:25946   */\n      dup2\n        /* \"#utility.yul\":25934:25947   */\n      mload\n        /* \"#utility.yul\":25968:26070   */\n      tag_632\n        /* \"#utility.yul\":26065:26069   */\n      dup6\n        /* \"#utility.yul\":26050:26063   */\n      dup3\n        /* \"#utility.yul\":25968:26070   */\n      tag_380\n      jump\t// in\n    tag_632:\n        /* \"#utility.yul\":25960:26070   */\n      swap5\n      pop\n        /* \"#utility.yul\":26093:26172   */\n      tag_633\n        /* \"#utility.yul\":26165:26171   */\n      dup4\n        /* \"#utility.yul\":26093:26172   */\n      tag_381\n      jump\t// in\n    tag_633:\n        /* \"#utility.yul\":26083:26172   */\n      swap3\n      pop\n        /* \"#utility.yul\":26201:26205   */\n      0x20\n        /* \"#utility.yul\":26196:26199   */\n      dup11\n        /* \"#utility.yul\":26192:26206   */\n      add\n        /* \"#utility.yul\":26185:26206   */\n      swap10\n      pop\n        /* \"#utility.yul\":25853:26216   */\n      pop\n        /* \"#utility.yul\":25840:25841   */\n      0x01\n        /* \"#utility.yul\":25837:25838   */\n      dup2\n        /* \"#utility.yul\":25833:25842   */\n      add\n        /* \"#utility.yul\":25828:25842   */\n      swap1\n      pop\n        /* \"#utility.yul\":25793:26216   */\n      jump(tag_629)\n    tag_631:\n        /* \"#utility.yul\":25797:25811   */\n      pop\n        /* \"#utility.yul\":26232:26236   */\n      dup3\n        /* \"#utility.yul\":26225:26236   */\n      swap8\n      pop\n        /* \"#utility.yul\":26252:26255   */\n      dup8\n        /* \"#utility.yul\":26245:26255   */\n      swap6\n      pop\n        /* \"#utility.yul\":25360:26261   */\n      pop\n      pop\n      pop\n      pop\n      pop\n        /* \"#utility.yul\":25198:26261   */\n      swap3\n      swap2\n      pop\n      pop\n      jump\t// out\n        /* \"#utility.yul\":26267:26716   */\n    tag_105:\n        /* \"#utility.yul\":26448:26452   */\n      0x00\n        /* \"#utility.yul\":26486:26488   */\n      0x20\n        /* \"#utility.yul\":26475:26484   */\n      dup3\n        /* \"#utility.yul\":26471:26489   */\n      add\n        /* \"#utility.yul\":26463:26489   */\n      swap1\n      pop\n        /* \"#utility.yul\":26535:26544   */\n      dup2\n        /* \"#utility.yul\":26529:26533   */\n      dup2\n        /* \"#utility.yul\":26525:26545   */\n      sub\n        /* \"#utility.yul\":26521:26522   */\n      0x00\n        /* \"#utility.yul\":26510:26519   */\n      dup4\n        /* \"#utility.yul\":26506:26523   */\n      add\n        /* \"#utility.yul\":26499:26546   */\n      mstore\n        /* \"#utility.yul\":26563:26709   */\n      tag_635\n        /* \"#utility.yul\":26704:26708   */\n      dup2\n        /* \"#utility.yul\":26695:26701   */\n      dup5\n        /* \"#utility.yul\":26563:26709   */\n      tag_382\n      jump\t// in\n    tag_635:\n        /* \"#utility.yul\":26555:26709   */\n      swap1\n      pop\n        /* \"#utility.yul\":26267:26716   */\n      swap3\n      swap2\n      pop\n      pop\n      jump\t// out\n        /* \"#utility.yul\":26722:26902   */\n    tag_383:\n        /* \"#utility.yul\":26770:26847   */\n      0x4e487b7100000000000000000000000000000000000000000000000000000000\n        /* \"#utility.yul\":26767:26768   */\n      0x00\n        /* \"#utility.yul\":26760:26848   */\n      mstore\n        /* \"#utility.yul\":26867:26871   */\n      0x22\n        /* \"#utility.yul\":26864:26865   */\n      0x04\n        /* \"#utility.yul\":26857:26872   */\n      mstore\n        /* \"#utility.yul\":26891:26895   */\n      0x24\n        /* \"#utility.yul\":26888:26889   */\n      0x00\n        /* \"#utility.yul\":26881:26896   */\n      revert\n        /* \"#utility.yul\":26908:27228   */\n    tag_112:\n        /* \"#utility.yul\":26952:26958   */\n      0x00\n        /* \"#utility.yul\":26989:26990   */\n      0x02\n        /* \"#utility.yul\":26983:26987   */\n      dup3\n        /* \"#utility.yul\":26979:26991   */\n      div\n        /* \"#utility.yul\":26969:26991   */\n      swap1\n      pop\n        /* \"#utility.yul\":27036:27037   */\n      0x01\n        /* \"#utility.yul\":27030:27034   */\n      dup3\n        /* \"#utility.yul\":27026:27038   */\n      and\n        /* \"#utility.yul\":27057:27075   */\n      dup1\n        /* \"#utility.yul\":27047:27128   */\n      tag_638\n      jumpi\n        /* \"#utility.yul\":27113:27117   */\n      0x7f\n        /* \"#utility.yul\":27105:27111   */\n      dup3\n        /* \"#utility.yul\":27101:27118   */\n      and\n        /* \"#utility.yul\":27091:27118   */\n      swap2\n      pop\n        /* \"#utility.yul\":27047:27128   */\n    tag_638:\n        /* \"#utility.yul\":27175:27177   */\n      0x20\n        /* \"#utility.yul\":27167:27173   */\n      dup3\n        /* \"#utility.yul\":27164:27178   */\n      lt\n        /* \"#utility.yul\":27144:27162   */\n      dup2\n        /* \"#utility.yul\":27141:27179   */\n      sub\n        /* \"#utility.yul\":27138:27222   */\n      tag_639\n      jumpi\n        /* \"#utility.yul\":27194:27212   */\n      tag_640\n      tag_383\n      jump\t// in\n    tag_640:\n        /* \"#utility.yul\":27138:27222   */\n    tag_639:\n        /* \"#utility.yul\":26959:27228   */\n      pop\n        /* \"#utility.yul\":26908:27228   */\n      swap2\n      swap1\n      pop\n      jump\t// out\n        /* \"#utility.yul\":27234:27382   */\n    tag_384:\n        /* \"#utility.yul\":27336:27347   */\n      0x00\n        /* \"#utility.yul\":27373:27376   */\n      dup2\n        /* \"#utility.yul\":27358:27376   */\n      swap1\n      pop\n        /* \"#utility.yul\":27234:27382   */\n      swap3\n      swap2\n      pop\n      pop\n      jump\t// out\n        /* \"#utility.yul\":27388:27778   */\n    tag_385:\n        /* \"#utility.yul\":27494:27497   */\n      0x00\n        /* \"#utility.yul\":27522:27561   */\n      tag_643\n        /* \"#utility.yul\":27555:27560   */\n      dup3\n        /* \"#utility.yul\":27522:27561   */\n      tag_340\n      jump\t// in\n    tag_643:\n        /* \"#utility.yul\":27577:27666   */\n      tag_644\n        /* \"#utility.yul\":27659:27665   */\n      dup2\n        /* \"#utility.yul\":27654:27657   */\n      dup6\n        /* \"#utility.yul\":27577:27666   */\n      tag_384\n      jump\t// in\n    tag_644:\n        /* \"#utility.yul\":27570:27666   */\n      swap4\n      pop\n        /* \"#utility.yul\":27675:27740   */\n      tag_645\n        /* \"#utility.yul\":27733:27739   */\n      dup2\n        /* \"#utility.yul\":27728:27731   */\n      dup6\n        /* \"#utility.yul\":27721:27725   */\n      0x20\n        /* \"#utility.yul\":27714:27719   */\n      dup7\n        /* \"#utility.yul\":27710:27726   */\n      add\n        /* \"#utility.yul\":27675:27740   */\n      tag_342\n      jump\t// in\n    tag_645:\n        /* \"#utility.yul\":27765:27771   */\n      dup1\n        /* \"#utility.yul\":27760:27763   */\n      dup5\n        /* \"#utility.yul\":27756:27772   */\n      add\n        /* \"#utility.yul\":27749:27772   */\n      swap2\n      pop\n        /* \"#utility.yul\":27498:27778   */\n      pop\n        /* \"#utility.yul\":27388:27778   */\n      swap3\n      swap2\n      pop\n      pop\n      jump\t// out\n        /* \"#utility.yul\":27784:28059   */\n    tag_149:\n        /* \"#utility.yul\":27916:27919   */\n      0x00\n        /* \"#utility.yul\":27938:28033   */\n      tag_647\n        /* \"#utility.yul\":28029:28032   */\n      dup3\n        /* \"#utility.yul\":28020:28026   */\n      dup5\n        /* \"#utility.yul\":27938:28033   */\n      tag_385\n      jump\t// in\n    tag_647:\n        /* \"#utility.yul\":27931:28033   */\n      swap2\n      pop\n        /* \"#utility.yul\":28050:28053   */\n      dup2\n        /* \"#utility.yul\":28043:28053   */\n      swap1\n      pop\n        /* \"#utility.yul\":27784:28059   */\n      swap3\n      swap2\n      pop\n      pop\n      jump\t// out\n        /* \"#utility.yul\":28065:28206   */\n    tag_386:\n        /* \"#utility.yul\":28114:28118   */\n      0x00\n        /* \"#utility.yul\":28137:28140   */\n      dup2\n        /* \"#utility.yul\":28129:28140   */\n      swap1\n      pop\n        /* \"#utility.yul\":28160:28163   */\n      dup2\n        /* \"#utility.yul\":28157:28158   */\n      0x00\n        /* \"#utility.yul\":28150:28164   */\n      mstore\n        /* \"#utility.yul\":28194:28198   */\n      0x20\n        /* \"#utility.yul\":28191:28192   */\n      0x00\n        /* \"#utility.yul\":28181:28199   */\n      keccak256\n        /* \"#utility.yul\":28173:28199   */\n      swap1\n      pop\n        /* \"#utility.yul\":28065:28206   */\n      swap2\n      swap1\n      pop\n      jump\t// out\n        /* \"#utility.yul\":28212:28305   */\n    tag_387:\n        /* \"#utility.yul\":28249:28255   */\n      0x00\n        /* \"#utility.yul\":28296:28298   */\n      0x20\n        /* \"#utility.yul\":28291:28293   */\n      0x1f\n        /* \"#utility.yul\":28284:28289   */\n      dup4\n        /* \"#utility.yul\":28280:28294   */\n      add\n        /* \"#utility.yul\":28276:28299   */\n      div\n        /* \"#utility.yul\":28266:28299   */\n      swap1\n      pop\n        /* \"#utility.yul\":28212:28305   */\n      swap2\n      swap1\n      pop\n      jump\t// out\n        /* \"#utility.yul\":28311:28418   */\n    tag_388:\n        /* \"#utility.yul\":28355:28363   */\n      0x00\n        /* \"#utility.yul\":28405:28410   */\n      dup3\n        /* \"#utility.yul\":28399:28403   */\n      dup3\n        /* \"#utility.yul\":28395:28411   */\n      shl\n        /* \"#utility.yul\":28374:28411   */\n      swap1\n      pop\n        /* \"#utility.yul\":28311:28418   */\n      swap3\n      swap2\n      pop\n      pop\n      jump\t// out\n        /* \"#utility.yul\":28424:28817   */\n    tag_389:\n        /* \"#utility.yul\":28493:28499   */\n      0x00\n        /* \"#utility.yul\":28543:28544   */\n      0x08\n        /* \"#utility.yul\":28531:28541   */\n      dup4\n        /* \"#utility.yul\":28527:28545   */\n      mul\n        /* \"#utility.yul\":28566:28663   */\n      tag_652\n        /* \"#utility.yul\":28596:28662   */\n      0xffffffffffffffffffffffffffffffffffffffffffffffffffffffffffffffff\n        /* \"#utility.yul\":28585:28594   */\n      dup3\n        /* \"#utility.yul\":28566:28663   */\n      tag_388\n      jump\t// in\n    tag_652:\n        /* \"#utility.yul\":28684:28723   */\n      tag_653\n        /* \"#utility.yul\":28714:28722   */\n      dup7\n        /* \"#utility.yul\":28703:28712   */\n      dup4\n        /* \"#utility.yul\":28684:28723   */\n      tag_388\n      jump\t// in\n    tag_653:\n        /* \"#utility.yul\":28672:28723   */\n      swap6\n      pop\n        /* \"#utility.yul\":28756:28760   */\n      dup1\n        /* \"#utility.yul\":28752:28761   */\n      not\n        /* \"#utility.yul\":28745:28750   */\n      dup5\n        /* \"#utility.yul\":28741:28762   */\n      and\n        /* \"#utility.yul\":28732:28762   */\n      swap4\n      pop\n        /* \"#utility.yul\":28805:28809   */\n      dup1\n        /* \"#utility.yul\":28795:28803   */\n      dup7\n        /* \"#utility.yul\":28791:28810   */\n      and\n        /* \"#utility.yul\":28784:28789   */\n      dup5\n        /* \"#utility.yul\":28781:28811   */\n      or\n        /* \"#utility.yul\":28771:28811   */\n      swap3\n      pop\n        /* \"#utility.yul\":28500:28817   */\n      pop\n      pop\n        /* \"#utility.yul\":28424:28817   */\n      swap4\n      swap3\n      pop\n      pop\n      pop\n      jump\t// out\n        /* \"#utility.yul\":28823:28883   */\n    tag_390:\n        /* \"#utility.yul\":28851:28854   */\n      0x00\n        /* \"#utility.yul\":28872:28877   */\n      dup2\n        /* \"#utility.yul\":28865:28877   */\n      swap1\n      pop\n        /* \"#utility.yul\":28823:28883   */\n      swap2\n      swap1\n      pop\n      jump\t// out\n        /* \"#utility.yul\":28889:29031   */\n    tag_391:\n        /* \"#utility.yul\":28939:28948   */\n      0x00\n        /* \"#utility.yul\":28972:29025   */\n      tag_656\n        /* \"#utility.yul\":28990:29024   */\n      tag_657\n        /* \"#utility.yul\":28999:29023   */\n      tag_658\n        /* \"#utility.yul\":29017:29022   */\n      dup5\n        /* \"#utility.yul\":28999:29023   */\n      tag_337\n      jump\t// in\n    tag_658:\n        /* \"#utility.yul\":28990:29024   */\n      tag_390\n      jump\t// in\n    tag_657:\n        /* \"#utility.yul\":28972:29025   */\n      tag_337\n      jump\t// in\n    tag_656:\n        /* \"#utility.yul\":28959:29025   */\n      swap1\n      pop\n        /* \"#utility.yul\":28889:29031   */\n      swap2\n      swap1\n      pop\n      jump\t// out\n        /* \"#utility.yul\":29037:29112   */\n    tag_392:\n        /* \"#utility.yul\":29080:29083   */\n      0x00\n        /* \"#utility.yul\":29101:29106   */\n      dup2\n        /* \"#utility.yul\":29094:29106   */\n      swap1\n      pop\n        /* \"#utility.yul\":29037:29112   */\n      swap2\n      swap1\n      pop\n      jump\t// out\n        /* \"#utility.yul\":29118:29387   */\n    tag_393:\n        /* \"#utility.yul\":29228:29267   */\n      tag_661\n        /* \"#utility.yul\":29259:29266   */\n      dup4\n        /* \"#utility.yul\":29228:29267   */\n      tag_391\n      jump\t// in\n    tag_661:\n        /* \"#utility.yul\":29289:29380   */\n      tag_662\n        /* \"#utility.yul\":29338:29379   */\n      tag_663\n        /* \"#utility.yul\":29362:29378   */\n      dup3\n        /* \"#utility.yul\":29338:29379   */\n      tag_392\n      jump\t// in\n    tag_663:\n        /* \"#utility.yul\":29330:29336   */\n      dup5\n        /* \"#utility.yul\":29323:29327   */\n      dup5\n        /* \"#utility.yul\":29317:29328   */\n      sload\n        /* \"#utility.yul\":29289:29380   */\n      tag_389\n      jump\t// in\n    tag_662:\n        /* \"#utility.yul\":29283:29287   */\n      dup3\n        /* \"#utility.yul\":29276:29381   */\n      sstore\n        /* \"#utility.yul\":29194:29387   */\n      pop\n        /* \"#utility.yul\":29118:29387   */\n      pop\n      pop\n      pop\n      jump\t// out\n        /* \"#utility.yul\":29393:29466   */\n    tag_394:\n        /* \"#utility.yul\":29438:29441   */\n      0x00\n        /* \"#utility.yul\":29393:29466   */\n      swap1\n      jump\t// out\n        /* \"#utility.yul\":29472:29661   */\n    tag_395:\n        /* \"#utility.yul\":29549:29581   */\n      tag_666\n      tag_394\n      jump\t// in\n    tag_666:\n        /* \"#utility.yul\":29590:29655   */\n      tag_667\n        /* \"#utility.yul\":29648:29654   */\n      dup2\n        /* \"#utility.yul\":29640:29646   */\n      dup5\n        /* \"#utility.yul\":29634:29638   */\n      dup5\n        /* \"#utility.yul\":29590:29655   */\n      tag_393\n      jump\t// in\n    tag_667:\n        /* \"#utility.yul\":29525:29661   */\n      pop\n        /* \"#utility.yul\":29472:29661   */\n      pop\n      pop\n      jump\t// out\n        /* \"#utility.yul\":29667:29853   */\n    tag_396:\n        /* \"#utility.yul\":29727:29847   */\n    tag_669:\n        /* \"#utility.yul\":29744:29747   */\n      dup2\n        /* \"#utility.yul\":29737:29742   */\n      dup2\n        /* \"#utility.yul\":29734:29748   */\n      lt\n        /* \"#utility.yul\":29727:29847   */\n      iszero\n      tag_671\n      jumpi\n        /* \"#utility.yul\":29798:29837   */\n      tag_672\n        /* \"#utility.yul\":29835:29836   */\n      0x00\n        /* \"#utility.yul\":29828:29833   */\n      dup3\n        /* \"#utility.yul\":29798:29837   */\n      tag_395\n      jump\t// in\n    tag_672:\n        /* \"#utility.yul\":29771:29772   */\n      0x01\n        /* \"#utility.yul\":29764:29769   */\n      dup2\n        /* \"#utility.yul\":29760:29773   */\n      add\n        /* \"#utility.yul\":29751:29773   */\n      swap1\n      pop\n        /* \"#utility.yul\":29727:29847   */\n      jump(tag_669)\n    tag_671:\n        /* \"#utility.yul\":29667:29853   */\n      pop\n      pop\n      jump\t// out\n        /* \"#utility.yul\":29859:30402   */\n    tag_397:\n        /* \"#utility.yul\":29960:29962   */\n      0x1f\n        /* \"#utility.yul\":29955:29958   */\n      dup3\n        /* \"#utility.yul\":29952:29963   */\n      gt\n        /* \"#utility.yul\":29949:30395   */\n      iszero\n      tag_674\n      jumpi\n        /* \"#utility.yul\":29994:30032   */\n      tag_675\n        /* \"#utility.yul\":30026:30031   */\n      dup2\n        /* \"#utility.yul\":29994:30032   */\n      tag_386\n      jump\t// in\n    tag_675:\n        /* \"#utility.yul\":30078:30107   */\n      tag_676\n        /* \"#utility.yul\":30096:30106   */\n      dup5\n        /* \"#utility.yul\":30078:30107   */\n      tag_387\n      jump\t// in\n    tag_676:\n        /* \"#utility.yul\":30068:30076   */\n      dup2\n        /* \"#utility.yul\":30064:30108   */\n      add\n        /* \"#utility.yul\":30261:30263   */\n      0x20\n        /* \"#utility.yul\":30249:30259   */\n      dup6\n        /* \"#utility.yul\":30246:30264   */\n      lt\n        /* \"#utility.yul\":30243:30292   */\n      iszero\n      tag_677\n      jumpi\n        /* \"#utility.yul\":30282:30290   */\n      dup2\n        /* \"#utility.yul\":30267:30290   */\n      swap1\n      pop\n        /* \"#utility.yul\":30243:30292   */\n    tag_677:\n        /* \"#utility.yul\":30305:30385   */\n      tag_678\n        /* \"#utility.yul\":30361:30383   */\n      tag_679\n        /* \"#utility.yul\":30379:30382   */\n      dup6\n        /* \"#utility.yul\":30361:30383   */\n      tag_387\n      jump\t// in\n    tag_679:\n        /* \"#utility.yul\":30351:30359   */\n      dup4\n        /* \"#utility.yul\":30347:30384   */\n      add\n        /* \"#utility.yul\":30334:30345   */\n      dup3\n        /* \"#utility.yul\":30305:30385   */\n      tag_396\n      jump\t// in\n    tag_678:\n        /* \"#utility.yul\":29964:30395   */\n      pop\n      pop\n        /* \"#utility.yul\":29949:30395   */\n    tag_674:\n        /* \"#utility.yul\":29859:30402   */\n      pop\n      pop\n      pop\n      jump\t// out\n        /* \"#utility.yul\":30408:30525   */\n    tag_398:\n        /* \"#utility.yul\":30462:30470   */\n      0x00\n        /* \"#utility.yul\":30512:30517   */\n      dup3\n        /* \"#utility.yul\":30506:30510   */\n      dup3\n        /* \"#utility.yul\":30502:30518   */\n      shr\n        /* \"#utility.yul\":30481:30518   */\n      swap1\n      pop\n        /* \"#utility.yul\":30408:30525   */\n      swap3\n      swap2\n      pop\n      pop\n      jump\t// out\n        /* \"#utility.yul\":30531:30700   */\n    tag_399:\n        /* \"#utility.yul\":30575:30581   */\n      0x00\n        /* \"#utility.yul\":30608:30659   */\n      tag_682\n        /* \"#utility.yul\":30656:30657   */\n      0x00\n        /* \"#utility.yul\":30652:30658   */\n      not\n        /* \"#utility.yul\":30644:30649   */\n      dup5\n        /* \"#utility.yul\":30641:30642   */\n      0x08\n        /* \"#utility.yul\":30637:30650   */\n      mul\n        /* \"#utility.yul\":30608:30659   */\n      tag_398\n      jump\t// in\n    tag_682:\n        /* \"#utility.yul\":30604:30660   */\n      not\n        /* \"#utility.yul\":30689:30693   */\n      dup1\n        /* \"#utility.yul\":30683:30687   */\n      dup4\n        /* \"#utility.yul\":30679:30694   */\n      and\n        /* \"#utility.yul\":30669:30694   */\n      swap2\n      pop\n        /* \"#utility.yul\":30582:30700   */\n      pop\n        /* \"#utility.yul\":30531:30700   */\n      swap3\n      swap2\n      pop\n      pop\n      jump\t// out\n        /* \"#utility.yul\":30705:31000   */\n    tag_400:\n        /* \"#utility.yul\":30781:30785   */\n      0x00\n        /* \"#utility.yul\":30927:30956   */\n      tag_684\n        /* \"#utility.yul\":30952:30955   */\n      dup4\n        /* \"#utility.yul\":30946:30950   */\n      dup4\n        /* \"#utility.yul\":30927:30956   */\n      tag_399\n      jump\t// in\n    tag_684:\n        /* \"#utility.yul\":30919:30956   */\n      swap2\n      pop\n        /* \"#utility.yul\":30989:30992   */\n      dup3\n        /* \"#utility.yul\":30986:30987   */\n      0x02\n        /* \"#utility.yul\":30982:30993   */\n      mul\n        /* \"#utility.yul\":30976:30980   */\n      dup3\n        /* \"#utility.yul\":30973:30994   */\n      or\n        /* \"#utility.yul\":30965:30994   */\n      swap1\n      pop\n        /* \"#utility.yul\":30705:31000   */\n      swap3\n      swap2\n      pop\n      pop\n      jump\t// out\n        /* \"#utility.yul\":31005:32400   */\n    tag_151:\n        /* \"#utility.yul\":31122:31159   */\n      tag_686\n        /* \"#utility.yul\":31155:31158   */\n      dup3\n        /* \"#utility.yul\":31122:31159   */\n      tag_340\n      jump\t// in\n    tag_686:\n        /* \"#utility.yul\":31224:31242   */\n      0xffffffffffffffff\n        /* \"#utility.yul\":31216:31222   */\n      dup2\n        /* \"#utility.yul\":31213:31243   */\n      gt\n        /* \"#utility.yul\":31210:31266   */\n      iszero\n      tag_687\n      jumpi\n        /* \"#utility.yul\":31246:31264   */\n      tag_688\n      tag_348\n      jump\t// in\n    tag_688:\n        /* \"#utility.yul\":31210:31266   */\n    tag_687:\n        /* \"#utility.yul\":31290:31328   */\n      tag_689\n        /* \"#utility.yul\":31322:31326   */\n      dup3\n        /* \"#utility.yul\":31316:31327   */\n      sload\n        /* \"#utility.yul\":31290:31328   */\n      tag_112\n      jump\t// in\n    tag_689:\n        /* \"#utility.yul\":31375:31442   */\n      tag_690\n        /* \"#utility.yul\":31435:31441   */\n      dup3\n        /* \"#utility.yul\":31427:31433   */\n      dup3\n        /* \"#utility.yul\":31421:31425   */\n      dup6\n        /* \"#utility.yul\":31375:31442   */\n      tag_397\n      jump\t// in\n    tag_690:\n        /* \"#utility.yul\":31469:31470   */\n      0x00\n        /* \"#utility.yul\":31493:31497   */\n      0x20\n        /* \"#utility.yul\":31480:31497   */\n      swap1\n      pop\n        /* \"#utility.yul\":31525:31527   */\n      0x1f\n        /* \"#utility.yul\":31517:31523   */\n      dup4\n        /* \"#utility.yul\":31514:31528   */\n      gt\n        /* \"#utility.yul\":31542:31543   */\n      0x01\n        /* \"#utility.yul\":31537:32155   */\n      dup2\n      eq\n      tag_692\n      jumpi\n        /* \"#utility.yul\":32199:32200   */\n      0x00\n        /* \"#utility.yul\":32216:32222   */\n      dup5\n        /* \"#utility.yul\":32213:32290   */\n      iszero\n      tag_693\n      jumpi\n        /* \"#utility.yul\":32265:32274   */\n      dup3\n        /* \"#utility.yul\":32260:32263   */\n      dup8\n        /* \"#utility.yul\":32256:32275   */\n      add\n        /* \"#utility.yul\":32250:32276   */\n      mload\n        /* \"#utility.yul\":32241:32276   */\n      swap1\n      pop\n        /* \"#utility.yul\":32213:32290   */\n    tag_693:\n        /* \"#utility.yul\":32316:32383   */\n      tag_694\n        /* \"#utility.yul\":32376:32382   */\n      dup6\n        /* \"#utility.yul\":32369:32374   */\n      dup3\n        /* \"#utility.yul\":32316:32383   */\n      tag_400\n      jump\t// in\n    tag_694:\n        /* \"#utility.yul\":32310:32314   */\n      dup7\n        /* \"#utility.yul\":32303:32384   */\n      sstore\n        /* \"#utility.yul\":32172:32394   */\n      pop\n        /* \"#utility.yul\":31507:32394   */\n      jump(tag_691)\n        /* \"#utility.yul\":31537:32155   */\n    tag_692:\n        /* \"#utility.yul\":31589:31593   */\n      0x1f\n        /* \"#utility.yul\":31585:31594   */\n      not\n        /* \"#utility.yul\":31577:31583   */\n      dup5\n        /* \"#utility.yul\":31573:31595   */\n      and\n        /* \"#utility.yul\":31623:31660   */\n      tag_695\n        /* \"#utility.yul\":31655:31659   */\n      dup7\n        /* \"#utility.yul\":31623:31660   */\n      tag_386\n      jump\t// in\n    tag_695:\n        /* \"#utility.yul\":31682:31683   */\n      0x00\n        /* \"#utility.yul\":31696:31904   */\n    tag_696:\n        /* \"#utility.yul\":31710:31717   */\n      dup3\n        /* \"#utility.yul\":31707:31708   */\n      dup2\n        /* \"#utility.yul\":31704:31718   */\n      lt\n        /* \"#utility.yul\":31696:31904   */\n      iszero\n      tag_698\n      jumpi\n        /* \"#utility.yul\":31789:31798   */\n      dup5\n        /* \"#utility.yul\":31784:31787   */\n      dup10\n        /* \"#utility.yul\":31780:31799   */\n      add\n        /* \"#utility.yul\":31774:31800   */\n      mload\n        /* \"#utility.yul\":31766:31772   */\n      dup3\n        /* \"#utility.yul\":31759:31801   */\n      sstore\n        /* \"#utility.yul\":31840:31841   */\n      0x01\n        /* \"#utility.yul\":31832:31838   */\n      dup3\n        /* \"#utility.yul\":31828:31842   */\n      add\n        /* \"#utility.yul\":31818:31842   */\n      swap2\n      pop\n        /* \"#utility.yul\":31887:31889   */\n      0x20\n        /* \"#utility.yul\":31876:31885   */\n      dup6\n        /* \"#utility.yul\":31872:31890   */\n      add\n        /* \"#utility.yul\":31859:31890   */\n      swap5\n      pop\n        /* \"#utility.yul\":31733:31737   */\n      0x20\n        /* \"#utility.yul\":31730:31731   */\n      dup2\n        /* \"#utility.yul\":31726:31738   */\n      add\n        /* \"#utility.yul\":31721:31738   */\n      swap1\n      pop\n        /* \"#utility.yul\":31696:31904   */\n      jump(tag_696)\n    tag_698:\n        /* \"#utility.yul\":31932:31938   */\n      dup7\n        /* \"#utility.yul\":31923:31930   */\n      dup4\n        /* \"#utility.yul\":31920:31939   */\n      lt\n        /* \"#utility.yul\":31917:32096   */\n      iszero\n      tag_699\n      jumpi\n        /* \"#utility.yul\":31990:31999   */\n      dup5\n        /* \"#utility.yul\":31985:31988   */\n      dup10\n        /* \"#utility.yul\":31981:32000   */\n      add\n        /* \"#utility.yul\":31975:32001   */\n      mload\n        /* \"#utility.yul\":32033:32081   */\n      tag_700\n        /* \"#utility.yul\":32075:32079   */\n      0x1f\n        /* \"#utility.yul\":32067:32073   */\n      dup10\n        /* \"#utility.yul\":32063:32080   */\n      and\n        /* \"#utility.yul\":32052:32061   */\n      dup3\n        /* \"#utility.yul\":32033:32081   */\n      tag_399\n      jump\t// in\n    tag_700:\n        /* \"#utility.yul\":32025:32031   */\n      dup4\n        /* \"#utility.yul\":32018:32082   */\n      sstore\n        /* \"#utility.yul\":31940:32096   */\n      pop\n        /* \"#utility.yul\":31917:32096   */\n    tag_699:\n        /* \"#utility.yul\":32142:32143   */\n      0x01\n        /* \"#utility.yul\":32138:32139   */\n      0x02\n        /* \"#utility.yul\":32130:32136   */\n      dup9\n        /* \"#utility.yul\":32126:32140   */\n      mul\n        /* \"#utility.yul\":32122:32144   */\n      add\n        /* \"#utility.yul\":32116:32120   */\n      dup9\n        /* \"#utility.yul\":32109:32145   */\n      sstore\n        /* \"#utility.yul\":31544:32155   */\n      pop\n      pop\n      pop\n        /* \"#utility.yul\":31507:32394   */\n    tag_691:\n      pop\n        /* \"#utility.yul\":31097:32400   */\n      pop\n      pop\n      pop\n        /* \"#utility.yul\":31005:32400   */\n      pop\n      pop\n      jump\t// out\n        /* \"#utility.yul\":32406:32555   */\n    tag_401:\n        /* \"#utility.yul\":32455:32461   */\n      0x00\n        /* \"#utility.yul\":32489:32494   */\n      dup2\n        /* \"#utility.yul\":32483:32495   */\n      sload\n        /* \"#utility.yul\":32473:32495   */\n      swap1\n      pop\n        /* \"#utility.yul\":32515:32548   */\n      tag_702\n        /* \"#utility.yul\":32541:32547   */\n      dup2\n        /* \"#utility.yul\":32515:32548   */\n      tag_112\n      jump\t// in\n    tag_702:\n        /* \"#utility.yul\":32505:32548   */\n      swap1\n      pop\n        /* \"#utility.yul\":32406:32555   */\n      swap2\n      swap1\n      pop\n      jump\t// out\n        /* \"#utility.yul\":32561:34012   */\n    tag_232:\n        /* \"#utility.yul\":32672:32675   */\n      dup2\n        /* \"#utility.yul\":32666:32670   */\n      dup2\n        /* \"#utility.yul\":32663:32676   */\n      sub\n        /* \"#utility.yul\":32660:32686   */\n      tag_704\n      jumpi\n        /* \"#utility.yul\":32679:32684   */\n      pop\n      pop\n      jump(tag_703)\n        /* \"#utility.yul\":32660:32686   */\n    tag_704:\n        /* \"#utility.yul\":32710:32744   */\n      tag_705\n        /* \"#utility.yul\":32740:32743   */\n      dup3\n        /* \"#utility.yul\":32710:32744   */\n      tag_401\n      jump\t// in\n    tag_705:\n        /* \"#utility.yul\":32809:32827   */\n      0xffffffffffffffff\n        /* \"#utility.yul\":32801:32807   */\n      dup2\n        /* \"#utility.yul\":32798:32828   */\n      gt\n        /* \"#utility.yul\":32795:32851   */\n      iszero\n      tag_706\n      jumpi\n        /* \"#utility.yul\":32831:32849   */\n      tag_707\n      tag_348\n      jump\t// in\n    tag_707:\n        /* \"#utility.yul\":32795:32851   */\n    tag_706:\n        /* \"#utility.yul\":32875:32913   */\n      tag_708\n        /* \"#utility.yul\":32907:32911   */\n      dup3\n        /* \"#utility.yul\":32901:32912   */\n      sload\n        /* \"#utility.yul\":32875:32913   */\n      tag_112\n      jump\t// in\n    tag_708:\n        /* \"#utility.yul\":32960:33027   */\n      tag_709\n        /* \"#utility.yul\":33020:33026   */\n      dup3\n        /* \"#utility.yul\":33012:33018   */\n      dup3\n        /* \"#utility.yul\":33006:33010   */\n      dup6\n        /* \"#utility.yul\":32960:33027   */\n      tag_397\n      jump\t// in\n    tag_709:\n        /* \"#utility.yul\":33054:33055   */\n      0x00\n        /* \"#utility.yul\":33083:33085   */\n      0x1f\n        /* \"#utility.yul\":33075:33081   */\n      dup4\n        /* \"#utility.yul\":33072:33086   */\n      gt\n        /* \"#utility.yul\":33100:33101   */\n      0x01\n        /* \"#utility.yul\":33095:33767   */\n      dup2\n      eq\n      tag_711\n      jumpi\n        /* \"#utility.yul\":33811:33812   */\n      0x00\n        /* \"#utility.yul\":33828:33834   */\n      dup5\n        /* \"#utility.yul\":33825:33902   */\n      iszero\n      tag_712\n      jumpi\n        /* \"#utility.yul\":33877:33886   */\n      dup3\n        /* \"#utility.yul\":33872:33875   */\n      dup8\n        /* \"#utility.yul\":33868:33887   */\n      add\n        /* \"#utility.yul\":33862:33888   */\n      sload\n        /* \"#utility.yul\":33853:33888   */\n      swap1\n      pop\n        /* \"#utility.yul\":33825:33902   */\n    tag_712:\n        /* \"#utility.yul\":33928:33995   */\n      tag_713\n        /* \"#utility.yul\":33988:33994   */\n      dup6\n        /* \"#utility.yul\":33981:33986   */\n      dup3\n        /* \"#utility.yul\":33928:33995   */\n      tag_400\n      jump\t// in\n    tag_713:\n        /* \"#utility.yul\":33922:33926   */\n      dup7\n        /* \"#utility.yul\":33915:33996   */\n      sstore\n        /* \"#utility.yul\":33784:34006   */\n      pop\n        /* \"#utility.yul\":33065:34006   */\n      jump(tag_710)\n        /* \"#utility.yul\":33095:33767   */\n    tag_711:\n        /* \"#utility.yul\":33147:33151   */\n      0x1f\n        /* \"#utility.yul\":33143:33152   */\n      not\n        /* \"#utility.yul\":33135:33141   */\n      dup5\n        /* \"#utility.yul\":33131:33153   */\n      and\n        /* \"#utility.yul\":33173:33209   */\n      tag_714\n        /* \"#utility.yul\":33205:33208   */\n      dup8\n        /* \"#utility.yul\":33173:33209   */\n      tag_386\n      jump\t// in\n    tag_714:\n        /* \"#utility.yul\":33166:33209   */\n      swap7\n      pop\n        /* \"#utility.yul\":33236:33273   */\n      tag_715\n        /* \"#utility.yul\":33268:33272   */\n      dup7\n        /* \"#utility.yul\":33236:33273   */\n      tag_386\n      jump\t// in\n    tag_715:\n        /* \"#utility.yul\":33295:33296   */\n      0x00\n        /* \"#utility.yul\":33309:33516   */\n    tag_716:\n        /* \"#utility.yul\":33323:33330   */\n      dup3\n        /* \"#utility.yul\":33320:33321   */\n      dup2\n        /* \"#utility.yul\":33317:33331   */\n      lt\n        /* \"#utility.yul\":33309:33516   */\n      iszero\n      tag_718\n      jumpi\n        /* \"#utility.yul\":33402:33411   */\n      dup5\n        /* \"#utility.yul\":33397:33400   */\n      dup10\n        /* \"#utility.yul\":33393:33412   */\n      add\n        /* \"#utility.yul\":33387:33413   */\n      sload\n        /* \"#utility.yul\":33379:33385   */\n      dup3\n        /* \"#utility.yul\":33372:33414   */\n      sstore\n        /* \"#utility.yul\":33453:33454   */\n      0x01\n        /* \"#utility.yul\":33445:33451   */\n      dup3\n        /* \"#utility.yul\":33441:33455   */\n      add\n        /* \"#utility.yul\":33431:33455   */\n      swap2\n      pop\n        /* \"#utility.yul\":33500:33501   */\n      0x01\n        /* \"#utility.yul\":33489:33498   */\n      dup6\n        /* \"#utility.yul\":33485:33502   */\n      add\n        /* \"#utility.yul\":33472:33502   */\n      swap5\n      pop\n        /* \"#utility.yul\":33346:33350   */\n      0x20\n        /* \"#utility.yul\":33343:33344   */\n      dup2\n        /* \"#utility.yul\":33339:33351   */\n      add\n        /* \"#utility.yul\":33334:33351   */\n      swap1\n      pop\n        /* \"#utility.yul\":33309:33516   */\n      jump(tag_716)\n    tag_718:\n        /* \"#utility.yul\":33544:33550   */\n      dup7\n        /* \"#utility.yul\":33535:33542   */\n      dup4\n        /* \"#utility.yul\":33532:33551   */\n      lt\n        /* \"#utility.yul\":33529:33708   */\n      iszero\n      tag_719\n      jumpi\n        /* \"#utility.yul\":33602:33611   */\n      dup5\n        /* \"#utility.yul\":33597:33600   */\n      dup10\n        /* \"#utility.yul\":33593:33612   */\n      add\n        /* \"#utility.yul\":33587:33613   */\n      sload\n        /* \"#utility.yul\":33645:33693   */\n      tag_720\n        /* \"#utility.yul\":33687:33691   */\n      0x1f\n        /* \"#utility.yul\":33679:33685   */\n      dup10\n        /* \"#utility.yul\":33675:33692   */\n      and\n        /* \"#utility.yul\":33664:33673   */\n      dup3\n        /* \"#utility.yul\":33645:33693   */\n      tag_399\n      jump\t// in\n    tag_720:\n        /* \"#utility.yul\":33637:33643   */\n      dup4\n        /* \"#utility.yul\":33630:33694   */\n      sstore\n        /* \"#utility.yul\":33552:33708   */\n      pop\n        /* \"#utility.yul\":33529:33708   */\n    tag_719:\n        /* \"#utility.yul\":33754:33755   */\n      0x01\n        /* \"#utility.yul\":33750:33751   */\n      0x02\n        /* \"#utility.yul\":33742:33748   */\n      dup9\n        /* \"#utility.yul\":33738:33752   */\n      mul\n        /* \"#utility.yul\":33734:33756   */\n      add\n        /* \"#utility.yul\":33728:33732   */\n      dup9\n        /* \"#utility.yul\":33721:33757   */\n      sstore\n        /* \"#utility.yul\":33102:33767   */\n      pop\n      pop\n      pop\n        /* \"#utility.yul\":33065:34006   */\n    tag_710:\n      pop\n        /* \"#utility.yul\":32650:34012   */\n      pop\n      pop\n      pop\n        /* \"#utility.yul\":32561:34012   */\n      pop\n      pop\n    tag_703:\n      jump\t// out\n        /* \"#utility.yul\":34018:34198   */\n    tag_402:\n        /* \"#utility.yul\":34066:34143   */\n      0x4e487b7100000000000000000000000000000000000000000000000000000000\n        /* \"#utility.yul\":34063:34064   */\n      0x00\n        /* \"#utility.yul\":34056:34144   */\n      mstore\n        /* \"#utility.yul\":34163:34167   */\n      0x11\n        /* \"#utility.yul\":34160:34161   */\n      0x04\n        /* \"#utility.yul\":34153:34168   */\n      mstore\n        /* \"#utility.yul\":34187:34191   */\n      0x24\n        /* \"#utility.yul\":34184:34185   */\n      0x00\n        /* \"#utility.yul\":34177:34192   */\n      revert\n        /* \"#utility.yul\":34204:34437   */\n    tag_250:\n        /* \"#utility.yul\":34243:34246   */\n      0x00\n        /* \"#utility.yul\":34266:34290   */\n      tag_723\n        /* \"#utility.yul\":34284:34289   */\n      dup3\n        /* \"#utility.yul\":34266:34290   */\n      tag_337\n      jump\t// in\n    tag_723:\n        /* \"#utility.yul\":34257:34290   */\n      swap2\n      pop\n        /* \"#utility.yul\":34312:34378   */\n      0xffffffffffffffffffffffffffffffffffffffffffffffffffffffffffffffff\n        /* \"#utility.yul\":34305:34310   */\n      dup3\n        /* \"#utility.yul\":34302:34379   */\n      sub\n        /* \"#utility.yul\":34299:34402   */\n      tag_724\n      jumpi\n        /* \"#utility.yul\":34382:34400   */\n      tag_725\n      tag_402\n      jump\t// in\n    tag_725:\n        /* \"#utility.yul\":34299:34402   */\n    tag_724:\n        /* \"#utility.yul\":34429:34430   */\n      0x01\n        /* \"#utility.yul\":34422:34427   */\n      dup3\n        /* \"#utility.yul\":34418:34431   */\n      add\n        /* \"#utility.yul\":34411:34431   */\n      swap1\n      pop\n        /* \"#utility.yul\":34204:34437   */\n      swap2\n      swap1\n      pop\n      jump\t// out\n\n    auxdata: 0xa26469706673582212203c049a95be1817dc54afa2ebcbf9a079d499e8ff8f3b124a9b41da1c6b49dd9164736f6c63430008130033\n}\n","bytecode":{"linkReferences":{},"object":"60806040523480156200001157600080fd5b50604051620039b9380380620039b983398181016040528101906200003791906200029d565b806000806101000a81548173ffffffffffffffffffffffffffffffffffffffff021916908373ffffffffffffffffffffffffffffffffffffffff160217905550620000f46040518060400160405280600581526020017f4f776e6572000000000000000000000000000000000000000000000000000000815250826040518060400160405280600581526020017f41646d696e000000000000000000000000000000000000000000000000000000815250620000fb60201b60201c565b50620006ac565b6000600960008473ffffffffffffffffffffffffffffffffffffffff1673ffffffffffffffffffffffffffffffffffffffff16815260200190815260200160002090508381600101908162000151919062000549565b50828160020160006101000a81548173ffffffffffffffffffffffffffffffffffffffff021916908373ffffffffffffffffffffffffffffffffffffffff16021790555081816000019081620001a8919062000549565b5060036000815480929190620001be906200065f565b9190505581600301819055506002839080600181540180825580915050600190039060005260206000200160009091909190916101000a81548173ffffffffffffffffffffffffffffffffffffffff021916908373ffffffffffffffffffffffffffffffffffffffff16021790555050505050565b600080fd5b600073ffffffffffffffffffffffffffffffffffffffff82169050919050565b6000620002658262000238565b9050919050565b620002778162000258565b81146200028357600080fd5b50565b60008151905062000297816200026c565b92915050565b600060208284031215620002b657620002b562000233565b5b6000620002c68482850162000286565b91505092915050565b600081519050919050565b7f4e487b7100000000000000000000000000000000000000000000000000000000600052604160045260246000fd5b7f4e487b7100000000000000000000000000000000000000000000000000000000600052602260045260246000fd5b600060028204905060018216806200035157607f821691505b60208210810362000367576200036662000309565b5b50919050565b60008190508160005260206000209050919050565b60006020601f8301049050919050565b600082821b905092915050565b600060088302620003d17fffffffffffffffffffffffffffffffffffffffffffffffffffffffffffffffff8262000392565b620003dd868362000392565b95508019841693508086168417925050509392505050565b6000819050919050565b6000819050919050565b60006200042a620004246200041e84620003f5565b620003ff565b620003f5565b9050919050565b6000819050919050565b620004468362000409565b6200045e620004558262000431565b8484546200039f565b825550505050565b600090565b6200047562000466565b620004828184846200043b565b505050565b5b81811015620004aa576200049e6000826200046b565b60018101905062000488565b5050565b601f821115620004f957620004c3816200036d565b620004ce8462000382565b81016020851015620004de578190505b620004f6620004ed8562000382565b83018262000487565b50505b505050565b600082821c905092915050565b60006200051e60001984600802620004fe565b1980831691505092915050565b60006200053983836200050b565b9150826002028217905092915050565b6200055482620002cf565b67ffffffffffffffff81111562000570576200056f620002da565b5b6200057c825462000338565b62000589828285620004ae565b600060209050601f831160018114620005c15760008415620005ac578287015190505b620005b885826200052b565b86555062000628565b601f198416620005d1866200036d565b60005b82811015620005fb57848901518255600182019150602085019450602081019050620005d4565b868310156200061b578489015162000617601f8916826200050b565b8355505b6001600288020188555050505b505050505050565b7f4e487b7100000000000000000000000000000000000000000000000000000000600052601160045260246000fd5b60006200066c82620003f5565b91507fffffffffffffffffffffffffffffffffffffffffffffffffffffffffffffffff8203620006a157620006a062000630565b5b600182019050919050565b6132fd80620006bc6000396000f3fe608060405234801561001057600080fd5b506004361061012c5760003560e01c80639f4216e8116100ad578063d0e0a52f11610071578063d0e0a52f14610372578063d2192dbf1461038e578063f4558ef9146103aa578063f59badad146103dc578063f5ca6e9c146103fa5761012c565b80639f4216e81461029e578063a848bf8b146102ce578063b17e8964146102fe578063c99de57e1461031a578063ccc590f2146103385761012c565b80632bcc23f8116100f45780632bcc23f8146101f55780632cddaa861461022857806389d7c784146102465780638ad257b7146102645780638bfad1fa146102825761012c565b806302d05d3f1461013157806304ef5b211461014f57806305d4a7f5146101895780630f44f0b8146101a5578063220fd618146101d7575b600080fd5b610139610416565b60405161014691906121e8565b60405180910390f35b6101696004803603810190610164919061224d565b61043a565b6040516101809b9a99989796959493929190612319565b60405180910390f35b6101a3600480360381019061019e919061252a565b61089c565b005b6101bf60048036038101906101ba91906125d1565b61092b565b6040516101ce9392919061261a565b60405180910390f35b6101df610a7b565b6040516101ec91906128a2565b60405180910390f35b61020f600480360381019061020a91906128f0565b610f99565b60405161021f949392919061291d565b60405180910390f35b6102306110f9565b60405161023d919061298b565b60405180910390f35b61024e61115b565b60405161025b919061298b565b60405180910390f35b61026c6111fe565b6040516102799190612a55565b60405180910390f35b61029c60048036038101906102979190612a77565b61128c565b005b6102b860048036038101906102b3919061224d565b61159d565b6040516102c591906121e8565b60405180910390f35b6102e860048036038101906102e391906125d1565b6115dc565b6040516102f59190612bc1565b60405180910390f35b61031860048036038101906103139190612be3565b611698565b005b6103226117ca565b60405161032f91906121e8565b60405180910390f35b610352600480360381019061034d91906125d1565b6117f0565b6040516103699b9a99989796959493929190612319565b60405180910390f35b61038c6004803603810190610387919061252a565b611c58565b005b6103a860048036038101906103a39190612c6e565b611d2e565b005b6103c460048036038101906103bf919061224d565b611dfa565b6040516103d39392919061261a565b60405180910390f35b6103e4611f44565b6040516103f19190612dff565b60405180910390f35b610414600480360381019061040f919061252a565b6120d1565b005b60008054906101000a900473ffffffffffffffffffffffffffffffffffffffff1681565b6007818154811061044a57600080fd5b90600052602060002090600b020160009150905080600001805461046d90612e50565b80601f016020809104026020016040519081016040528092919081815260200182805461049990612e50565b80156104e65780601f106104bb576101008083540402835291602001916104e6565b820191906000526020600020905b8154815290600101906020018083116104c957829003601f168201915b5050505050908060010180546104fb90612e50565b80601f016020809104026020016040519081016040528092919081815260200182805461052790612e50565b80156105745780601f1061054957610100808354040283529160200191610574565b820191906000526020600020905b81548152906001019060200180831161055757829003601f168201915b50505050509080600201805461058990612e50565b80601f01602080910402602001604051908101604052809291908181526020018280546105b590612e50565b80156106025780601f106105d757610100808354040283529160200191610602565b820191906000526020600020905b8154815290600101906020018083116105e557829003601f168201915b50505050509080600301805461061790612e50565b80601f016020809104026020016040519081016040528092919081815260200182805461064390612e50565b80156106905780601f1061066557610100808354040283529160200191610690565b820191906000526020600020905b81548152906001019060200180831161067357829003601f168201915b5050505050908060040154908060050180546106ab90612e50565b80601f01602080910402602001604051908101604052809291908181526020018280546106d790612e50565b80156107245780601f106106f957610100808354040283529160200191610724565b820191906000526020600020905b81548152906001019060200180831161070757829003601f168201915b50505050509080600601805461073990612e50565b80601f016020809104026020016040519081016040528092919081815260200182805461076590612e50565b80156107b25780601f10610787576101008083540402835291602001916107b2565b820191906000526020600020905b81548152906001019060200180831161079557829003601f168201915b5050505050908060070160009054906101000a900473ffffffffffffffffffffffffffffffffffffffff16908060080160009054906101000a900473ffffffffffffffffffffffffffffffffffffffff169080600901549080600a01805461081990612e50565b80601f016020809104026020016040519081016040528092919081815260200182805461084590612e50565b80156108925780601f1061086757610100808354040283529160200191610892565b820191906000526020600020905b81548152906001019060200180831161087557829003601f168201915b505050505090508b565b6000600a846040516108ae9190612ebd565b90815260200160405180910390209050818160050190816108cf9190613080565b50828160060190816108e19190613080565b50338160080160006101000a81548173ffffffffffffffffffffffffffffffffffffffff021916908373ffffffffffffffffffffffffffffffffffffffff16021790555050505050565b60088180516020810182018051848252602083016020850120818352809550505050505060009150905080600001549080600101805461096a90612e50565b80601f016020809104026020016040519081016040528092919081815260200182805461099690612e50565b80156109e35780601f106109b8576101008083540402835291602001916109e3565b820191906000526020600020905b8154815290600101906020018083116109c657829003601f168201915b5050505050908060020180546109f890612e50565b80601f0160208091040260200160405190810160405280929190818152602001828054610a2490612e50565b8015610a715780601f10610a4657610100808354040283529160200191610a71565b820191906000526020600020905b815481529060010190602001808311610a5457829003601f168201915b5050505050905083565b60606007805480602002602001604051908101604052809291908181526020016000905b82821015610f9057838290600052602060002090600b020160405180610160016040529081600082018054610ad390612e50565b80601f0160208091040260200160405190810160405280929190818152602001828054610aff90612e50565b8015610b4c5780601f10610b2157610100808354040283529160200191610b4c565b820191906000526020600020905b815481529060010190602001808311610b2f57829003601f168201915b50505050508152602001600182018054610b6590612e50565b80601f0160208091040260200160405190810160405280929190818152602001828054610b9190612e50565b8015610bde5780601f10610bb357610100808354040283529160200191610bde565b820191906000526020600020905b815481529060010190602001808311610bc157829003601f168201915b50505050508152602001600282018054610bf790612e50565b80601f0160208091040260200160405190810160405280929190818152602001828054610c2390612e50565b8015610c705780601f10610c4557610100808354040283529160200191610c70565b820191906000526020600020905b815481529060010190602001808311610c5357829003601f168201915b50505050508152602001600382018054610c8990612e50565b80601f0160208091040260200160405190810160405280929190818152602001828054610cb590612e50565b8015610d025780601f10610cd757610100808354040283529160200191610d02565b820191906000526020600020905b815481529060010190602001808311610ce557829003601f168201915b5050505050815260200160048201548152602001600582018054610d2590612e50565b80601f0160208091040260200160405190810160405280929190818152602001828054610d5190612e50565b8015610d9e5780601f10610d7357610100808354040283529160200191610d9e565b820191906000526020600020905b815481529060010190602001808311610d8157829003601f168201915b50505050508152602001600682018054610db790612e50565b80601f0160208091040260200160405190810160405280929190818152602001828054610de390612e50565b8015610e305780601f10610e0557610100808354040283529160200191610e30565b820191906000526020600020905b815481529060010190602001808311610e1357829003601f168201915b505050505081526020016007820160009054906101000a900473ffffffffffffffffffffffffffffffffffffffff1673ffffffffffffffffffffffffffffffffffffffff1673ffffffffffffffffffffffffffffffffffffffff1681526020016008820160009054906101000a900473ffffffffffffffffffffffffffffffffffffffff1673ffffffffffffffffffffffffffffffffffffffff1673ffffffffffffffffffffffffffffffffffffffff16815260200160098201548152602001600a82018054610eff90612e50565b80601f0160208091040260200160405190810160405280929190818152602001828054610f2b90612e50565b8015610f785780601f10610f4d57610100808354040283529160200191610f78565b820191906000526020600020905b815481529060010190602001808311610f5b57829003601f168201915b50505050508152505081526020019060010190610a9f565b50505050905090565b6009602052806000526040600020600091509050806000018054610fbc90612e50565b80601f0160208091040260200160405190810160405280929190818152602001828054610fe890612e50565b80156110355780601f1061100a57610100808354040283529160200191611035565b820191906000526020600020905b81548152906001019060200180831161101857829003601f168201915b50505050509080600101805461104a90612e50565b80601f016020809104026020016040519081016040528092919081815260200182805461107690612e50565b80156110c35780601f10611098576101008083540402835291602001916110c3565b820191906000526020600020905b8154815290600101906020018083116110a657829003601f168201915b5050505050908060020160009054906101000a900473ffffffffffffffffffffffffffffffffffffffff16908060030154905084565b60008060009054906101000a900473ffffffffffffffffffffffffffffffffffffffff1673ffffffffffffffffffffffffffffffffffffffff163373ffffffffffffffffffffffffffffffffffffffff161461115457600080fd5b6001905090565b6000600960003373ffffffffffffffffffffffffffffffffffffffff1673ffffffffffffffffffffffffffffffffffffffff16815260200190815260200160002060020160009054906101000a900473ffffffffffffffffffffffffffffffffffffffff1673ffffffffffffffffffffffffffffffffffffffff163373ffffffffffffffffffffffffffffffffffffffff16146111f757600080fd5b6001905090565b6060600280548060200260200160405190810160405280929190818152602001828054801561128257602002820191906000526020600020905b8160009054906101000a900473ffffffffffffffffffffffffffffffffffffffff1673ffffffffffffffffffffffffffffffffffffffff1681526020019060010190808311611238575b5050505050905090565b6000600a8760405161129e9190612ebd565b90815260200160405180910390209050878160000190816112bf9190613080565b50868160010190816112d19190613080565b50848160020190816112e39190613080565b50858160040181905550838160030190816112fe9190613080565b50828160060190816113109190613080565b50818160050190816113229190613080565b50338160070160006101000a81548173ffffffffffffffffffffffffffffffffffffffff021916908373ffffffffffffffffffffffffffffffffffffffff1602179055506040518060400160405280600781526020017f70656e64696e670000000000000000000000000000000000000000000000000081525081600a0190816113ac9190613080565b50338160080160006101000a81548173ffffffffffffffffffffffffffffffffffffffff021916908373ffffffffffffffffffffffffffffffffffffffff16021790555060078190806001815401808255809150506001900390600052602060002090600b0201600090919091909150600082018160000190816114309190613168565b50600182018160010190816114459190613168565b506002820181600201908161145a9190613168565b506003820181600301908161146f9190613168565b50600482015481600401556005820181600501908161148e9190613168565b50600682018160060190816114a39190613168565b506007820160009054906101000a900473ffffffffffffffffffffffffffffffffffffffff168160070160006101000a81548173ffffffffffffffffffffffffffffffffffffffff021916908373ffffffffffffffffffffffffffffffffffffffff1602179055506008820160009054906101000a900473ffffffffffffffffffffffffffffffffffffffff168160080160006101000a81548173ffffffffffffffffffffffffffffffffffffffff021916908373ffffffffffffffffffffffffffffffffffffffff16021790555060098201548160090155600a820181600a0190816115909190613168565b5050505050505050505050565b600281815481106115ad57600080fd5b906000526020600020016000915054906101000a900473ffffffffffffffffffffffffffffffffffffffff1681565b600b8180516020810182018051848252602083016020850120818352809550505050505060009150905080600001805461161590612e50565b80601f016020809104026020016040519081016040528092919081815260200182805461164190612e50565b801561168e5780601f106116635761010080835404028352916020019161168e565b820191906000526020600020905b81548152906001019060200180831161167157829003601f168201915b5050505050905081565b6000600960008473ffffffffffffffffffffffffffffffffffffffff1673ffffffffffffffffffffffffffffffffffffffff1681526020019081526020016000209050838160010190816116ec9190613080565b50828160020160006101000a81548173ffffffffffffffffffffffffffffffffffffffff021916908373ffffffffffffffffffffffffffffffffffffffff160217905550818160000190816117419190613080565b50600360008154809291906117559061327f565b9190505581600301819055506002839080600181540180825580915050600190039060005260206000200160009091909190916101000a81548173ffffffffffffffffffffffffffffffffffffffff021916908373ffffffffffffffffffffffffffffffffffffffff16021790555050505050565b600160009054906101000a900473ffffffffffffffffffffffffffffffffffffffff1681565b600a8180516020810182018051848252602083016020850120818352809550505050505060009150905080600001805461182990612e50565b80601f016020809104026020016040519081016040528092919081815260200182805461185590612e50565b80156118a25780601f10611877576101008083540402835291602001916118a2565b820191906000526020600020905b81548152906001019060200180831161188557829003601f168201915b5050505050908060010180546118b790612e50565b80601f01602080910402602001604051908101604052809291908181526020018280546118e390612e50565b80156119305780601f1061190557610100808354040283529160200191611930565b820191906000526020600020905b81548152906001019060200180831161191357829003601f168201915b50505050509080600201805461194590612e50565b80601f016020809104026020016040519081016040528092919081815260200182805461197190612e50565b80156119be5780601f10611993576101008083540402835291602001916119be565b820191906000526020600020905b8154815290600101906020018083116119a157829003601f168201915b5050505050908060030180546119d390612e50565b80601f01602080910402602001604051908101604052809291908181526020018280546119ff90612e50565b8015611a4c5780601f10611a2157610100808354040283529160200191611a4c565b820191906000526020600020905b815481529060010190602001808311611a2f57829003601f168201915b505050505090806004015490806005018054611a6790612e50565b80601f0160208091040260200160405190810160405280929190818152602001828054611a9390612e50565b8015611ae05780601f10611ab557610100808354040283529160200191611ae0565b820191906000526020600020905b815481529060010190602001808311611ac357829003601f168201915b505050505090806006018054611af590612e50565b80601f0160208091040260200160405190810160405280929190818152602001828054611b2190612e50565b8015611b6e5780601f10611b4357610100808354040283529160200191611b6e565b820191906000526020600020905b815481529060010190602001808311611b5157829003601f168201915b5050505050908060070160009054906101000a900473ffffffffffffffffffffffffffffffffffffffff16908060080160009054906101000a900473ffffffffffffffffffffffffffffffffffffffff169080600901549080600a018054611bd590612e50565b80601f0160208091040260200160405190810160405280929190818152602001828054611c0190612e50565b8015611c4e5780601f10611c2357610100808354040283529160200191611c4e565b820191906000526020600020905b815481529060010190602001808311611c3157829003601f168201915b505050505090508b565b6000600a84604051611c6a9190612ebd565b90815260200160405180910390209050338160080160006101000a81548173ffffffffffffffffffffffffffffffffffffffff021916908373ffffffffffffffffffffffffffffffffffffffff16021790555082816006019081611cce9190613080565b5081816005019081611ce09190613080565b506040518060400160405280600881526020017f617070726f76656400000000000000000000000000000000000000000000000081525081600a019081611d279190613080565b5050505050565b6000600883604051611d409190612ebd565b9081526020016040518091039020905060056000815480929190611d639061327f565b91905055816000018190555082816001019081611d809190613080565b5081816002019081611d929190613080565b5060068190806001815401808255809150506001900390600052602060002090600302016000909190919091506000820154816000015560018201816001019081611ddd9190613168565b5060028201816002019081611df29190613168565b505050505050565b60068181548110611e0a57600080fd5b9060005260206000209060030201600091509050806000015490806001018054611e3390612e50565b80601f0160208091040260200160405190810160405280929190818152602001828054611e5f90612e50565b8015611eac5780601f10611e8157610100808354040283529160200191611eac565b820191906000526020600020905b815481529060010190602001808311611e8f57829003601f168201915b505050505090806002018054611ec190612e50565b80601f0160208091040260200160405190810160405280929190818152602001828054611eed90612e50565b8015611f3a5780601f10611f0f57610100808354040283529160200191611f3a565b820191906000526020600020905b815481529060010190602001808311611f1d57829003601f168201915b5050505050905083565b60606006805480602002602001604051908101604052809291908181526020016000905b828210156120c8578382906000526020600020906003020160405180606001604052908160008201548152602001600182018054611fa590612e50565b80601f0160208091040260200160405190810160405280929190818152602001828054611fd190612e50565b801561201e5780601f10611ff35761010080835404028352916020019161201e565b820191906000526020600020905b81548152906001019060200180831161200157829003601f168201915b5050505050815260200160028201805461203790612e50565b80601f016020809104026020016040519081016040528092919081815260200182805461206390612e50565b80156120b05780601f10612085576101008083540402835291602001916120b0565b820191906000526020600020905b81548152906001019060200180831161209357829003601f168201915b50505050508152505081526020019060010190611f68565b50505050905090565b6000600a846040516120e39190612ebd565b90815260200160405180910390209050828160060190816121049190613080565b50338160080160006101000a81548173ffffffffffffffffffffffffffffffffffffffff021916908373ffffffffffffffffffffffffffffffffffffffff160217905550818160050190816121599190613080565b506040518060400160405280600881526020017f77726974656f666600000000000000000000000000000000000000000000000081525081600a0190816121a09190613080565b5050505050565b600073ffffffffffffffffffffffffffffffffffffffff82169050919050565b60006121d2826121a7565b9050919050565b6121e2816121c7565b82525050565b60006020820190506121fd60008301846121d9565b92915050565b6000604051905090565b600080fd5b600080fd5b6000819050919050565b61222a81612217565b811461223557600080fd5b50565b60008135905061224781612221565b92915050565b6000602082840312156122635761226261220d565b5b600061227184828501612238565b91505092915050565b600081519050919050565b600082825260208201905092915050565b60005b838110156122b4578082015181840152602081019050612299565b60008484015250505050565b6000601f19601f8301169050919050565b60006122dc8261227a565b6122e68185612285565b93506122f6818560208601612296565b6122ff816122c0565b840191505092915050565b61231381612217565b82525050565b6000610160820190508181036000830152612334818e6122d1565b90508181036020830152612348818d6122d1565b9050818103604083015261235c818c6122d1565b90508181036060830152612370818b6122d1565b905061237f608083018a61230a565b81810360a083015261239181896122d1565b905081810360c08301526123a581886122d1565b90506123b460e08301876121d9565b6123c26101008301866121d9565b6123d061012083018561230a565b8181036101408301526123e381846122d1565b90509c9b505050505050505050505050565b600080fd5b600080fd5b7f4e487b7100000000000000000000000000000000000000000000000000000000600052604160045260246000fd5b612437826122c0565b810181811067ffffffffffffffff82111715612456576124556123ff565b5b80604052505050565b6000612469612203565b9050612475828261242e565b919050565b600067ffffffffffffffff821115612495576124946123ff565b5b61249e826122c0565b9050602081019050919050565b82818337600083830152505050565b60006124cd6124c88461247a565b61245f565b9050828152602081018484840111156124e9576124e86123fa565b5b6124f48482856124ab565b509392505050565b600082601f830112612511576125106123f5565b5b81356125218482602086016124ba565b91505092915050565b6000806000606084860312156125435761254261220d565b5b600084013567ffffffffffffffff81111561256157612560612212565b5b61256d868287016124fc565b935050602084013567ffffffffffffffff81111561258e5761258d612212565b5b61259a868287016124fc565b925050604084013567ffffffffffffffff8111156125bb576125ba612212565b5b6125c7868287016124fc565b9150509250925092565b6000602082840312156125e7576125e661220d565b5b600082013567ffffffffffffffff81111561260557612604612212565b5b612611848285016124fc565b91505092915050565b600060608201905061262f600083018661230a565b818103602083015261264181856122d1565b9050818103604083015261265581846122d1565b9050949350505050565b600081519050919050565b600082825260208201905092915050565b6000819050602082019050919050565b600082825260208201905092915050565b60006126a78261227a565b6126b1818561268b565b93506126c1818560208601612296565b6126ca816122c0565b840191505092915050565b6126de81612217565b82525050565b6126ed816121c7565b82525050565b6000610160830160008301518482036000860152612711828261269c565b9150506020830151848203602086015261272b828261269c565b91505060408301518482036040860152612745828261269c565b9150506060830151848203606086015261275f828261269c565b915050608083015161277460808601826126d5565b5060a083015184820360a086015261278c828261269c565b91505060c083015184820360c08601526127a6828261269c565b91505060e08301516127bb60e08601826126e4565b506101008301516127d06101008601826126e4565b506101208301516127e56101208601826126d5565b506101408301518482036101408601526127ff828261269c565b9150508091505092915050565b600061281883836126f3565b905092915050565b6000602082019050919050565b60006128388261265f565b612842818561266a565b9350836020820285016128548561267b565b8060005b858110156128905784840389528151612871858261280c565b945061287c83612820565b925060208a01995050600181019050612858565b50829750879550505050505092915050565b600060208201905081810360008301526128bc818461282d565b905092915050565b6128cd816121c7565b81146128d857600080fd5b50565b6000813590506128ea816128c4565b92915050565b6000602082840312156129065761290561220d565b5b6000612914848285016128db565b91505092915050565b6000608082019050818103600083015261293781876122d1565b9050818103602083015261294b81866122d1565b905061295a60408301856121d9565b612967606083018461230a565b95945050505050565b60008115159050919050565b61298581612970565b82525050565b60006020820190506129a0600083018461297c565b92915050565b600081519050919050565b600082825260208201905092915050565b6000819050602082019050919050565b60006129de83836126e4565b60208301905092915050565b6000602082019050919050565b6000612a02826129a6565b612a0c81856129b1565b9350612a17836129c2565b8060005b83811015612a48578151612a2f88826129d2565b9750612a3a836129ea565b925050600181019050612a1b565b5085935050505092915050565b60006020820190508181036000830152612a6f81846129f7565b905092915050565b600080600080600080600060e0888a031215612a9657612a9561220d565b5b600088013567ffffffffffffffff811115612ab457612ab3612212565b5b612ac08a828b016124fc565b975050602088013567ffffffffffffffff811115612ae157612ae0612212565b5b612aed8a828b016124fc565b9650506040612afe8a828b01612238565b955050606088013567ffffffffffffffff811115612b1f57612b1e612212565b5b612b2b8a828b016124fc565b945050608088013567ffffffffffffffff811115612b4c57612b4b612212565b5b612b588a828b016124fc565b93505060a088013567ffffffffffffffff811115612b7957612b78612212565b5b612b858a828b016124fc565b92505060c088013567ffffffffffffffff811115612ba657612ba5612212565b5b612bb28a828b016124fc565b91505092959891949750929550565b60006020820190508181036000830152612bdb81846122d1565b905092915050565b600080600060608486031215612bfc57612bfb61220d565b5b600084013567ffffffffffffffff811115612c1a57612c19612212565b5b612c26868287016124fc565b9350506020612c37868287016128db565b925050604084013567ffffffffffffffff811115612c5857612c57612212565b5b612c64868287016124fc565b9150509250925092565b60008060408385031215612c8557612c8461220d565b5b600083013567ffffffffffffffff811115612ca357612ca2612212565b5b612caf858286016124fc565b925050602083013567ffffffffffffffff811115612cd057612ccf612212565b5b612cdc858286016124fc565b9150509250929050565b600081519050919050565b600082825260208201905092915050565b6000819050602082019050919050565b6000606083016000830151612d2a60008601826126d5565b5060208301518482036020860152612d42828261269c565b91505060408301518482036040860152612d5c828261269c565b9150508091505092915050565b6000612d758383612d12565b905092915050565b6000602082019050919050565b6000612d9582612ce6565b612d9f8185612cf1565b935083602082028501612db185612d02565b8060005b85811015612ded5784840389528151612dce8582612d69565b9450612dd983612d7d565b925060208a01995050600181019050612db5565b50829750879550505050505092915050565b60006020820190508181036000830152612e198184612d8a565b905092915050565b7f4e487b7100000000000000000000000000000000000000000000000000000000600052602260045260246000fd5b60006002820490506001821680612e6857607f821691505b602082108103612e7b57612e7a612e21565b5b50919050565b600081905092915050565b6000612e978261227a565b612ea18185612e81565b9350612eb1818560208601612296565b80840191505092915050565b6000612ec98284612e8c565b915081905092915050565b60008190508160005260206000209050919050565b60006020601f8301049050919050565b600082821b905092915050565b600060088302612f367fffffffffffffffffffffffffffffffffffffffffffffffffffffffffffffffff82612ef9565b612f408683612ef9565b95508019841693508086168417925050509392505050565b6000819050919050565b6000612f7d612f78612f7384612217565b612f58565b612217565b9050919050565b6000819050919050565b612f9783612f62565b612fab612fa382612f84565b848454612f06565b825550505050565b600090565b612fc0612fb3565b612fcb818484612f8e565b505050565b5b81811015612fef57612fe4600082612fb8565b600181019050612fd1565b5050565b601f8211156130345761300581612ed4565b61300e84612ee9565b8101602085101561301d578190505b61303161302985612ee9565b830182612fd0565b50505b505050565b600082821c905092915050565b600061305760001984600802613039565b1980831691505092915050565b60006130708383613046565b9150826002028217905092915050565b6130898261227a565b67ffffffffffffffff8111156130a2576130a16123ff565b5b6130ac8254612e50565b6130b7828285612ff3565b600060209050601f8311600181146130ea57600084156130d8578287015190505b6130e28582613064565b86555061314a565b601f1984166130f886612ed4565b60005b82811015613120578489015182556001820191506020850194506020810190506130fb565b8683101561313d5784890151613139601f891682613046565b8355505b6001600288020188555050505b505050505050565b60008154905061316181612e50565b9050919050565b81810361317657505061324e565b61317f82613152565b67ffffffffffffffff811115613198576131976123ff565b5b6131a28254612e50565b6131ad828285612ff3565b6000601f8311600181146131dc57600084156131ca578287015490505b6131d48582613064565b865550613247565b601f1984166131ea87612ed4565b96506131f586612ed4565b60005b8281101561321d578489015482556001820191506001850194506020810190506131f8565b8683101561323a5784890154613236601f891682613046565b8355505b6001600288020188555050505b5050505050505b565b7f4e487b7100000000000000000000000000000000000000000000000000000000600052601160045260246000fd5b600061328a82612217565b91507fffffffffffffffffffffffffffffffffffffffffffffffffffffffffffffffff82036132bc576132bb613250565b5b60018201905091905056fea26469706673582212203c049a95be1817dc54afa2ebcbf9a079d499e8ff8f3b124a9b41da1c6b49dd9164736f6c63430008130033","opcodes":"PUSH1 0x80 PUSH1 0x40 MSTORE CALLVALUE DUP1 ISZERO PUSH3 0x11 JUMPI PUSH1 0x0 DUP1 REVERT JUMPDEST POP PUSH1 0x40 MLOAD PUSH3 0x39B9 CODESIZE SUB DUP1 PUSH3 0x39B9 DUP4 CODECOPY DUP2 DUP2 ADD PUSH1 0x40 MSTORE DUP2 ADD SWAP1 PUSH3 0x37 SWAP2 SWAP1 PUSH3 0x29D JUMP JUMPDEST DUP1 PUSH1 0x0 DUP1 PUSH2 0x100 EXP DUP2 SLOAD DUP2 PUSH20 0xFFFFFFFFFFFFFFFFFFFFFFFFFFFFFFFFFFFFFFFF MUL NOT AND SWAP1 DUP4 PUSH20 0xFFFFFFFFFFFFFFFFFFFFFFFFFFFFFFFFFFFFFFFF AND MUL OR SWAP1 SSTORE POP PUSH3 0xF4 PUSH1 0x40 MLOAD DUP1 PUSH1 0x40 ADD PUSH1 0x40 MSTORE DUP1 PUSH1 0x5 DUP2 MSTORE PUSH1 0x20 ADD PUSH32 0x4F776E6572000000000000000000000000000000000000000000000000000000 DUP2 MSTORE POP DUP3 PUSH1 0x40 MLOAD DUP1 PUSH1 0x40 ADD PUSH1 0x40 MSTORE DUP1 PUSH1 0x5 DUP2 MSTORE PUSH1 0x20 ADD PUSH32 0x41646D696E000000000000000000000000000000000000000000000000000000 DUP2 MSTORE POP PUSH3 0xFB PUSH1 0x20 SHL PUSH1 0x20 SHR JUMP JUMPDEST POP PUSH3 0x6AC JUMP JUMPDEST PUSH1 0x0 PUSH1 0x9 PUSH1 0x0 DUP5 PUSH20 0xFFFFFFFFFFFFFFFFFFFFFFFFFFFFFFFFFFFFFFFF AND PUSH20 0xFFFFFFFFFFFFFFFFFFFFFFFFFFFFFFFFFFFFFFFF AND DUP2 MSTORE PUSH1 0x20 ADD SWAP1 DUP2 MSTORE PUSH1 0x20 ADD PUSH1 0x0 KECCAK256 SWAP1 POP DUP4 DUP2 PUSH1 0x1 ADD SWAP1 DUP2 PUSH3 0x151 SWAP2 SWAP1 PUSH3 0x549 JUMP JUMPDEST POP DUP3 DUP2 PUSH1 0x2 ADD PUSH1 0x0 PUSH2 0x100 EXP DUP2 SLOAD DUP2 PUSH20 0xFFFFFFFFFFFFFFFFFFFFFFFFFFFFFFFFFFFFFFFF MUL NOT AND SWAP1 DUP4 PUSH20 0xFFFFFFFFFFFFFFFFFFFFFFFFFFFFFFFFFFFFFFFF AND MUL OR SWAP1 SSTORE POP DUP2 DUP2 PUSH1 0x0 ADD SWAP1 DUP2 PUSH3 0x1A8 SWAP2 SWAP1 PUSH3 0x549 JUMP JUMPDEST POP PUSH1 0x3 PUSH1 0x0 DUP2 SLOAD DUP1 SWAP3 SWAP2 SWAP1 PUSH3 0x1BE SWAP1 PUSH3 0x65F JUMP JUMPDEST SWAP2 SWAP1 POP SSTORE DUP2 PUSH1 0x3 ADD DUP2 SWAP1 SSTORE POP PUSH1 0x2 DUP4 SWAP1 DUP1 PUSH1 0x1 DUP2 SLOAD ADD DUP1 DUP3 SSTORE DUP1 SWAP2 POP POP PUSH1 0x1 SWAP1 SUB SWAP1 PUSH1 0x0 MSTORE PUSH1 0x20 PUSH1 0x0 KECCAK256 ADD PUSH1 0x0 SWAP1 SWAP2 SWAP1 SWAP2 SWAP1 SWAP2 PUSH2 0x100 EXP DUP2 SLOAD DUP2 PUSH20 0xFFFFFFFFFFFFFFFFFFFFFFFFFFFFFFFFFFFFFFFF MUL NOT AND SWAP1 DUP4 PUSH20 0xFFFFFFFFFFFFFFFFFFFFFFFFFFFFFFFFFFFFFFFF AND MUL OR SWAP1 SSTORE POP POP POP POP POP JUMP JUMPDEST PUSH1 0x0 DUP1 REVERT JUMPDEST PUSH1 0x0 PUSH20 0xFFFFFFFFFFFFFFFFFFFFFFFFFFFFFFFFFFFFFFFF DUP3 AND SWAP1 POP SWAP2 SWAP1 POP JUMP JUMPDEST PUSH1 0x0 PUSH3 0x265 DUP3 PUSH3 0x238 JUMP JUMPDEST SWAP1 POP SWAP2 SWAP1 POP JUMP JUMPDEST PUSH3 0x277 DUP2 PUSH3 0x258 JUMP JUMPDEST DUP2 EQ PUSH3 0x283 JUMPI PUSH1 0x0 DUP1 REVERT JUMPDEST POP JUMP JUMPDEST PUSH1 0x0 DUP2 MLOAD SWAP1 POP PUSH3 0x297 DUP2 PUSH3 0x26C JUMP JUMPDEST SWAP3 SWAP2 POP POP JUMP JUMPDEST PUSH1 0x0 PUSH1 0x20 DUP3 DUP5 SUB SLT ISZERO PUSH3 0x2B6 JUMPI PUSH3 0x2B5 PUSH3 0x233 JUMP JUMPDEST JUMPDEST PUSH1 0x0 PUSH3 0x2C6 DUP5 DUP3 DUP6 ADD PUSH3 0x286 JUMP JUMPDEST SWAP2 POP POP SWAP3 SWAP2 POP POP JUMP JUMPDEST PUSH1 0x0 DUP2 MLOAD SWAP1 POP SWAP2 SWAP1 POP JUMP JUMPDEST PUSH32 0x4E487B7100000000000000000000000000000000000000000000000000000000 PUSH1 0x0 MSTORE PUSH1 0x41 PUSH1 0x4 MSTORE PUSH1 0x24 PUSH1 0x0 REVERT JUMPDEST PUSH32 0x4E487B7100000000000000000000000000000000000000000000000000000000 PUSH1 0x0 MSTORE PUSH1 0x22 PUSH1 0x4 MSTORE PUSH1 0x24 PUSH1 0x0 REVERT JUMPDEST PUSH1 0x0 PUSH1 0x2 DUP3 DIV SWAP1 POP PUSH1 0x1 DUP3 AND DUP1 PUSH3 0x351 JUMPI PUSH1 0x7F DUP3 AND SWAP2 POP JUMPDEST PUSH1 0x20 DUP3 LT DUP2 SUB PUSH3 0x367 JUMPI PUSH3 0x366 PUSH3 0x309 JUMP JUMPDEST JUMPDEST POP SWAP2 SWAP1 POP JUMP JUMPDEST PUSH1 0x0 DUP2 SWAP1 POP DUP2 PUSH1 0x0 MSTORE PUSH1 0x20 PUSH1 0x0 KECCAK256 SWAP1 POP SWAP2 SWAP1 POP JUMP JUMPDEST PUSH1 0x0 PUSH1 0x20 PUSH1 0x1F DUP4 ADD DIV SWAP1 POP SWAP2 SWAP1 POP JUMP JUMPDEST PUSH1 0x0 DUP3 DUP3 SHL SWAP1 POP SWAP3 SWAP2 POP POP JUMP JUMPDEST PUSH1 0x0 PUSH1 0x8 DUP4 MUL PUSH3 0x3D1 PUSH32 0xFFFFFFFFFFFFFFFFFFFFFFFFFFFFFFFFFFFFFFFFFFFFFFFFFFFFFFFFFFFFFFFF DUP3 PUSH3 0x392 JUMP JUMPDEST PUSH3 0x3DD DUP7 DUP4 PUSH3 0x392 JUMP JUMPDEST SWAP6 POP DUP1 NOT DUP5 AND SWAP4 POP DUP1 DUP7 AND DUP5 OR SWAP3 POP POP POP SWAP4 SWAP3 POP POP POP JUMP JUMPDEST PUSH1 0x0 DUP2 SWAP1 POP SWAP2 SWAP1 POP JUMP JUMPDEST PUSH1 0x0 DUP2 SWAP1 POP SWAP2 SWAP1 POP JUMP JUMPDEST PUSH1 0x0 PUSH3 0x42A PUSH3 0x424 PUSH3 0x41E DUP5 PUSH3 0x3F5 JUMP JUMPDEST PUSH3 0x3FF JUMP JUMPDEST PUSH3 0x3F5 JUMP JUMPDEST SWAP1 POP SWAP2 SWAP1 POP JUMP JUMPDEST PUSH1 0x0 DUP2 SWAP1 POP SWAP2 SWAP1 POP JUMP JUMPDEST PUSH3 0x446 DUP4 PUSH3 0x409 JUMP JUMPDEST PUSH3 0x45E PUSH3 0x455 DUP3 PUSH3 0x431 JUMP JUMPDEST DUP5 DUP5 SLOAD PUSH3 0x39F JUMP JUMPDEST DUP3 SSTORE POP POP POP POP JUMP JUMPDEST PUSH1 0x0 SWAP1 JUMP JUMPDEST PUSH3 0x475 PUSH3 0x466 JUMP JUMPDEST PUSH3 0x482 DUP2 DUP5 DUP5 PUSH3 0x43B JUMP JUMPDEST POP POP POP JUMP JUMPDEST JUMPDEST DUP2 DUP2 LT ISZERO PUSH3 0x4AA JUMPI PUSH3 0x49E PUSH1 0x0 DUP3 PUSH3 0x46B JUMP JUMPDEST PUSH1 0x1 DUP2 ADD SWAP1 POP PUSH3 0x488 JUMP JUMPDEST POP POP JUMP JUMPDEST PUSH1 0x1F DUP3 GT ISZERO PUSH3 0x4F9 JUMPI PUSH3 0x4C3 DUP2 PUSH3 0x36D JUMP JUMPDEST PUSH3 0x4CE DUP5 PUSH3 0x382 JUMP JUMPDEST DUP2 ADD PUSH1 0x20 DUP6 LT ISZERO PUSH3 0x4DE JUMPI DUP2 SWAP1 POP JUMPDEST PUSH3 0x4F6 PUSH3 0x4ED DUP6 PUSH3 0x382 JUMP JUMPDEST DUP4 ADD DUP3 PUSH3 0x487 JUMP JUMPDEST POP POP JUMPDEST POP POP POP JUMP JUMPDEST PUSH1 0x0 DUP3 DUP3 SHR SWAP1 POP SWAP3 SWAP2 POP POP JUMP JUMPDEST PUSH1 0x0 PUSH3 0x51E PUSH1 0x0 NOT DUP5 PUSH1 0x8 MUL PUSH3 0x4FE JUMP JUMPDEST NOT DUP1 DUP4 AND SWAP2 POP POP SWAP3 SWAP2 POP POP JUMP JUMPDEST PUSH1 0x0 PUSH3 0x539 DUP4 DUP4 PUSH3 0x50B JUMP JUMPDEST SWAP2 POP DUP3 PUSH1 0x2 MUL DUP3 OR SWAP1 POP SWAP3 SWAP2 POP POP JUMP JUMPDEST PUSH3 0x554 DUP3 PUSH3 0x2CF JUMP JUMPDEST PUSH8 0xFFFFFFFFFFFFFFFF DUP2 GT ISZERO PUSH3 0x570 JUMPI PUSH3 0x56F PUSH3 0x2DA JUMP JUMPDEST JUMPDEST PUSH3 0x57C DUP3 SLOAD PUSH3 0x338 JUMP JUMPDEST PUSH3 0x589 DUP3 DUP3 DUP6 PUSH3 0x4AE JUMP JUMPDEST PUSH1 0x0 PUSH1 0x20 SWAP1 POP PUSH1 0x1F DUP4 GT PUSH1 0x1 DUP2 EQ PUSH3 0x5C1 JUMPI PUSH1 0x0 DUP5 ISZERO PUSH3 0x5AC JUMPI DUP3 DUP8 ADD MLOAD SWAP1 POP JUMPDEST PUSH3 0x5B8 DUP6 DUP3 PUSH3 0x52B JUMP JUMPDEST DUP7 SSTORE POP PUSH3 0x628 JUMP JUMPDEST PUSH1 0x1F NOT DUP5 AND PUSH3 0x5D1 DUP7 PUSH3 0x36D JUMP JUMPDEST PUSH1 0x0 JUMPDEST DUP3 DUP2 LT ISZERO PUSH3 0x5FB JUMPI DUP5 DUP10 ADD MLOAD DUP3 SSTORE PUSH1 0x1 DUP3 ADD SWAP2 POP PUSH1 0x20 DUP6 ADD SWAP5 POP PUSH1 0x20 DUP2 ADD SWAP1 POP PUSH3 0x5D4 JUMP JUMPDEST DUP7 DUP4 LT ISZERO PUSH3 0x61B JUMPI DUP5 DUP10 ADD MLOAD PUSH3 0x617 PUSH1 0x1F DUP10 AND DUP3 PUSH3 0x50B JUMP JUMPDEST DUP4 SSTORE POP JUMPDEST PUSH1 0x1 PUSH1 0x2 DUP9 MUL ADD DUP9 SSTORE POP POP POP JUMPDEST POP POP POP POP POP POP JUMP JUMPDEST PUSH32 0x4E487B7100000000000000000000000000000000000000000000000000000000 PUSH1 0x0 MSTORE PUSH1 0x11 PUSH1 0x4 MSTORE PUSH1 0x24 PUSH1 0x0 REVERT JUMPDEST PUSH1 0x0 PUSH3 0x66C DUP3 PUSH3 0x3F5 JUMP JUMPDEST SWAP2 POP PUSH32 0xFFFFFFFFFFFFFFFFFFFFFFFFFFFFFFFFFFFFFFFFFFFFFFFFFFFFFFFFFFFFFFFF DUP3 SUB PUSH3 0x6A1 JUMPI PUSH3 0x6A0 PUSH3 0x630 JUMP JUMPDEST JUMPDEST PUSH1 0x1 DUP3 ADD SWAP1 POP SWAP2 SWAP1 POP JUMP JUMPDEST PUSH2 0x32FD DUP1 PUSH3 0x6BC PUSH1 0x0 CODECOPY PUSH1 0x0 RETURN INVALID PUSH1 0x80 PUSH1 0x40 MSTORE CALLVALUE DUP1 ISZERO PUSH2 0x10 JUMPI PUSH1 0x0 DUP1 REVERT JUMPDEST POP PUSH1 0x4 CALLDATASIZE LT PUSH2 0x12C JUMPI PUSH1 0x0 CALLDATALOAD PUSH1 0xE0 SHR DUP1 PUSH4 0x9F4216E8 GT PUSH2 0xAD JUMPI DUP1 PUSH4 0xD0E0A52F GT PUSH2 0x71 JUMPI DUP1 PUSH4 0xD0E0A52F EQ PUSH2 0x372 JUMPI DUP1 PUSH4 0xD2192DBF EQ PUSH2 0x38E JUMPI DUP1 PUSH4 0xF4558EF9 EQ PUSH2 0x3AA JUMPI DUP1 PUSH4 0xF59BADAD EQ PUSH2 0x3DC JUMPI DUP1 PUSH4 0xF5CA6E9C EQ PUSH2 0x3FA JUMPI PUSH2 0x12C JUMP JUMPDEST DUP1 PUSH4 0x9F4216E8 EQ PUSH2 0x29E JUMPI DUP1 PUSH4 0xA848BF8B EQ PUSH2 0x2CE JUMPI DUP1 PUSH4 0xB17E8964 EQ PUSH2 0x2FE JUMPI DUP1 PUSH4 0xC99DE57E EQ PUSH2 0x31A JUMPI DUP1 PUSH4 0xCCC590F2 EQ PUSH2 0x338 JUMPI PUSH2 0x12C JUMP JUMPDEST DUP1 PUSH4 0x2BCC23F8 GT PUSH2 0xF4 JUMPI DUP1 PUSH4 0x2BCC23F8 EQ PUSH2 0x1F5 JUMPI DUP1 PUSH4 0x2CDDAA86 EQ PUSH2 0x228 JUMPI DUP1 PUSH4 0x89D7C784 EQ PUSH2 0x246 JUMPI DUP1 PUSH4 0x8AD257B7 EQ PUSH2 0x264 JUMPI DUP1 PUSH4 0x8BFAD1FA EQ PUSH2 0x282 JUMPI PUSH2 0x12C JUMP JUMPDEST DUP1 PUSH4 0x2D05D3F EQ PUSH2 0x131 JUMPI DUP1 PUSH4 0x4EF5B21 EQ PUSH2 0x14F JUMPI DUP1 PUSH4 0x5D4A7F5 EQ PUSH2 0x189 JUMPI DUP1 PUSH4 0xF44F0B8 EQ PUSH2 0x1A5 JUMPI DUP1 PUSH4 0x220FD618 EQ PUSH2 0x1D7 JUMPI JUMPDEST PUSH1 0x0 DUP1 REVERT JUMPDEST PUSH2 0x139 PUSH2 0x416 JUMP JUMPDEST PUSH1 0x40 MLOAD PUSH2 0x146 SWAP2 SWAP1 PUSH2 0x21E8 JUMP JUMPDEST PUSH1 0x40 MLOAD DUP1 SWAP2 SUB SWAP1 RETURN JUMPDEST PUSH2 0x169 PUSH1 0x4 DUP1 CALLDATASIZE SUB DUP2 ADD SWAP1 PUSH2 0x164 SWAP2 SWAP1 PUSH2 0x224D JUMP JUMPDEST PUSH2 0x43A JUMP JUMPDEST PUSH1 0x40 MLOAD PUSH2 0x180 SWAP12 SWAP11 SWAP10 SWAP9 SWAP8 SWAP7 SWAP6 SWAP5 SWAP4 SWAP3 SWAP2 SWAP1 PUSH2 0x2319 JUMP JUMPDEST PUSH1 0x40 MLOAD DUP1 SWAP2 SUB SWAP1 RETURN JUMPDEST PUSH2 0x1A3 PUSH1 0x4 DUP1 CALLDATASIZE SUB DUP2 ADD SWAP1 PUSH2 0x19E SWAP2 SWAP1 PUSH2 0x252A JUMP JUMPDEST PUSH2 0x89C JUMP JUMPDEST STOP JUMPDEST PUSH2 0x1BF PUSH1 0x4 DUP1 CALLDATASIZE SUB DUP2 ADD SWAP1 PUSH2 0x1BA SWAP2 SWAP1 PUSH2 0x25D1 JUMP JUMPDEST PUSH2 0x92B JUMP JUMPDEST PUSH1 0x40 MLOAD PUSH2 0x1CE SWAP4 SWAP3 SWAP2 SWAP1 PUSH2 0x261A JUMP JUMPDEST PUSH1 0x40 MLOAD DUP1 SWAP2 SUB SWAP1 RETURN JUMPDEST PUSH2 0x1DF PUSH2 0xA7B JUMP JUMPDEST PUSH1 0x40 MLOAD PUSH2 0x1EC SWAP2 SWAP1 PUSH2 0x28A2 JUMP JUMPDEST PUSH1 0x40 MLOAD DUP1 SWAP2 SUB SWAP1 RETURN JUMPDEST PUSH2 0x20F PUSH1 0x4 DUP1 CALLDATASIZE SUB DUP2 ADD SWAP1 PUSH2 0x20A SWAP2 SWAP1 PUSH2 0x28F0 JUMP JUMPDEST PUSH2 0xF99 JUMP JUMPDEST PUSH1 0x40 MLOAD PUSH2 0x21F SWAP5 SWAP4 SWAP3 SWAP2 SWAP1 PUSH2 0x291D JUMP JUMPDEST PUSH1 0x40 MLOAD DUP1 SWAP2 SUB SWAP1 RETURN JUMPDEST PUSH2 0x230 PUSH2 0x10F9 JUMP JUMPDEST PUSH1 0x40 MLOAD PUSH2 0x23D SWAP2 SWAP1 PUSH2 0x298B JUMP JUMPDEST PUSH1 0x40 MLOAD DUP1 SWAP2 SUB SWAP1 RETURN JUMPDEST PUSH2 0x24E PUSH2 0x115B JUMP JUMPDEST PUSH1 0x40 MLOAD PUSH2 0x25B SWAP2 SWAP1 PUSH2 0x298B JUMP JUMPDEST PUSH1 0x40 MLOAD DUP1 SWAP2 SUB SWAP1 RETURN JUMPDEST PUSH2 0x26C PUSH2 0x11FE JUMP JUMPDEST PUSH1 0x40 MLOAD PUSH2 0x279 SWAP2 SWAP1 PUSH2 0x2A55 JUMP JUMPDEST PUSH1 0x40 MLOAD DUP1 SWAP2 SUB SWAP1 RETURN JUMPDEST PUSH2 0x29C PUSH1 0x4 DUP1 CALLDATASIZE SUB DUP2 ADD SWAP1 PUSH2 0x297 SWAP2 SWAP1 PUSH2 0x2A77 JUMP JUMPDEST PUSH2 0x128C JUMP JUMPDEST STOP JUMPDEST PUSH2 0x2B8 PUSH1 0x4 DUP1 CALLDATASIZE SUB DUP2 ADD SWAP1 PUSH2 0x2B3 SWAP2 SWAP1 PUSH2 0x224D JUMP JUMPDEST PUSH2 0x159D JUMP JUMPDEST PUSH1 0x40 MLOAD PUSH2 0x2C5 SWAP2 SWAP1 PUSH2 0x21E8 JUMP JUMPDEST PUSH1 0x40 MLOAD DUP1 SWAP2 SUB SWAP1 RETURN JUMPDEST PUSH2 0x2E8 PUSH1 0x4 DUP1 CALLDATASIZE SUB DUP2 ADD SWAP1 PUSH2 0x2E3 SWAP2 SWAP1 PUSH2 0x25D1 JUMP JUMPDEST PUSH2 0x15DC JUMP JUMPDEST PUSH1 0x40 MLOAD PUSH2 0x2F5 SWAP2 SWAP1 PUSH2 0x2BC1 JUMP JUMPDEST PUSH1 0x40 MLOAD DUP1 SWAP2 SUB SWAP1 RETURN JUMPDEST PUSH2 0x318 PUSH1 0x4 DUP1 CALLDATASIZE SUB DUP2 ADD SWAP1 PUSH2 0x313 SWAP2 SWAP1 PUSH2 0x2BE3 JUMP JUMPDEST PUSH2 0x1698 JUMP JUMPDEST STOP JUMPDEST PUSH2 0x322 PUSH2 0x17CA JUMP JUMPDEST PUSH1 0x40 MLOAD PUSH2 0x32F SWAP2 SWAP1 PUSH2 0x21E8 JUMP JUMPDEST PUSH1 0x40 MLOAD DUP1 SWAP2 SUB SWAP1 RETURN JUMPDEST PUSH2 0x352 PUSH1 0x4 DUP1 CALLDATASIZE SUB DUP2 ADD SWAP1 PUSH2 0x34D SWAP2 SWAP1 PUSH2 0x25D1 JUMP JUMPDEST PUSH2 0x17F0 JUMP JUMPDEST PUSH1 0x40 MLOAD PUSH2 0x369 SWAP12 SWAP11 SWAP10 SWAP9 SWAP8 SWAP7 SWAP6 SWAP5 SWAP4 SWAP3 SWAP2 SWAP1 PUSH2 0x2319 JUMP JUMPDEST PUSH1 0x40 MLOAD DUP1 SWAP2 SUB SWAP1 RETURN JUMPDEST PUSH2 0x38C PUSH1 0x4 DUP1 CALLDATASIZE SUB DUP2 ADD SWAP1 PUSH2 0x387 SWAP2 SWAP1 PUSH2 0x252A JUMP JUMPDEST PUSH2 0x1C58 JUMP JUMPDEST STOP JUMPDEST PUSH2 0x3A8 PUSH1 0x4 DUP1 CALLDATASIZE SUB DUP2 ADD SWAP1 PUSH2 0x3A3 SWAP2 SWAP1 PUSH2 0x2C6E JUMP JUMPDEST PUSH2 0x1D2E JUMP JUMPDEST STOP JUMPDEST PUSH2 0x3C4 PUSH1 0x4 DUP1 CALLDATASIZE SUB DUP2 ADD SWAP1 PUSH2 0x3BF SWAP2 SWAP1 PUSH2 0x224D JUMP JUMPDEST PUSH2 0x1DFA JUMP JUMPDEST PUSH1 0x40 MLOAD PUSH2 0x3D3 SWAP4 SWAP3 SWAP2 SWAP1 PUSH2 0x261A JUMP JUMPDEST PUSH1 0x40 MLOAD DUP1 SWAP2 SUB SWAP1 RETURN JUMPDEST PUSH2 0x3E4 PUSH2 0x1F44 JUMP JUMPDEST PUSH1 0x40 MLOAD PUSH2 0x3F1 SWAP2 SWAP1 PUSH2 0x2DFF JUMP JUMPDEST PUSH1 0x40 MLOAD DUP1 SWAP2 SUB SWAP1 RETURN JUMPDEST PUSH2 0x414 PUSH1 0x4 DUP1 CALLDATASIZE SUB DUP2 ADD SWAP1 PUSH2 0x40F SWAP2 SWAP1 PUSH2 0x252A JUMP JUMPDEST PUSH2 0x20D1 JUMP JUMPDEST STOP JUMPDEST PUSH1 0x0 DUP1 SLOAD SWAP1 PUSH2 0x100 EXP SWAP1 DIV PUSH20 0xFFFFFFFFFFFFFFFFFFFFFFFFFFFFFFFFFFFFFFFF AND DUP2 JUMP JUMPDEST PUSH1 0x7 DUP2 DUP2 SLOAD DUP2 LT PUSH2 0x44A JUMPI PUSH1 0x0 DUP1 REVERT JUMPDEST SWAP1 PUSH1 0x0 MSTORE PUSH1 0x20 PUSH1 0x0 KECCAK256 SWAP1 PUSH1 0xB MUL ADD PUSH1 0x0 SWAP2 POP SWAP1 POP DUP1 PUSH1 0x0 ADD DUP1 SLOAD PUSH2 0x46D SWAP1 PUSH2 0x2E50 JUMP JUMPDEST DUP1 PUSH1 0x1F ADD PUSH1 0x20 DUP1 SWAP2 DIV MUL PUSH1 0x20 ADD PUSH1 0x40 MLOAD SWAP1 DUP2 ADD PUSH1 0x40 MSTORE DUP1 SWAP3 SWAP2 SWAP1 DUP2 DUP2 MSTORE PUSH1 0x20 ADD DUP3 DUP1 SLOAD PUSH2 0x499 SWAP1 PUSH2 0x2E50 JUMP JUMPDEST DUP1 ISZERO PUSH2 0x4E6 JUMPI DUP1 PUSH1 0x1F LT PUSH2 0x4BB JUMPI PUSH2 0x100 DUP1 DUP4 SLOAD DIV MUL DUP4 MSTORE SWAP2 PUSH1 0x20 ADD SWAP2 PUSH2 0x4E6 JUMP JUMPDEST DUP3 ADD SWAP2 SWAP1 PUSH1 0x0 MSTORE PUSH1 0x20 PUSH1 0x0 KECCAK256 SWAP1 JUMPDEST DUP2 SLOAD DUP2 MSTORE SWAP1 PUSH1 0x1 ADD SWAP1 PUSH1 0x20 ADD DUP1 DUP4 GT PUSH2 0x4C9 JUMPI DUP3 SWAP1 SUB PUSH1 0x1F AND DUP3 ADD SWAP2 JUMPDEST POP POP POP POP POP SWAP1 DUP1 PUSH1 0x1 ADD DUP1 SLOAD PUSH2 0x4FB SWAP1 PUSH2 0x2E50 JUMP JUMPDEST DUP1 PUSH1 0x1F ADD PUSH1 0x20 DUP1 SWAP2 DIV MUL PUSH1 0x20 ADD PUSH1 0x40 MLOAD SWAP1 DUP2 ADD PUSH1 0x40 MSTORE DUP1 SWAP3 SWAP2 SWAP1 DUP2 DUP2 MSTORE PUSH1 0x20 ADD DUP3 DUP1 SLOAD PUSH2 0x527 SWAP1 PUSH2 0x2E50 JUMP JUMPDEST DUP1 ISZERO PUSH2 0x574 JUMPI DUP1 PUSH1 0x1F LT PUSH2 0x549 JUMPI PUSH2 0x100 DUP1 DUP4 SLOAD DIV MUL DUP4 MSTORE SWAP2 PUSH1 0x20 ADD SWAP2 PUSH2 0x574 JUMP JUMPDEST DUP3 ADD SWAP2 SWAP1 PUSH1 0x0 MSTORE PUSH1 0x20 PUSH1 0x0 KECCAK256 SWAP1 JUMPDEST DUP2 SLOAD DUP2 MSTORE SWAP1 PUSH1 0x1 ADD SWAP1 PUSH1 0x20 ADD DUP1 DUP4 GT PUSH2 0x557 JUMPI DUP3 SWAP1 SUB PUSH1 0x1F AND DUP3 ADD SWAP2 JUMPDEST POP POP POP POP POP SWAP1 DUP1 PUSH1 0x2 ADD DUP1 SLOAD PUSH2 0x589 SWAP1 PUSH2 0x2E50 JUMP JUMPDEST DUP1 PUSH1 0x1F ADD PUSH1 0x20 DUP1 SWAP2 DIV MUL PUSH1 0x20 ADD PUSH1 0x40 MLOAD SWAP1 DUP2 ADD PUSH1 0x40 MSTORE DUP1 SWAP3 SWAP2 SWAP1 DUP2 DUP2 MSTORE PUSH1 0x20 ADD DUP3 DUP1 SLOAD PUSH2 0x5B5 SWAP1 PUSH2 0x2E50 JUMP JUMPDEST DUP1 ISZERO PUSH2 0x602 JUMPI DUP1 PUSH1 0x1F LT PUSH2 0x5D7 JUMPI PUSH2 0x100 DUP1 DUP4 SLOAD DIV MUL DUP4 MSTORE SWAP2 PUSH1 0x20 ADD SWAP2 PUSH2 0x602 JUMP JUMPDEST DUP3 ADD SWAP2 SWAP1 PUSH1 0x0 MSTORE PUSH1 0x20 PUSH1 0x0 KECCAK256 SWAP1 JUMPDEST DUP2 SLOAD DUP2 MSTORE SWAP1 PUSH1 0x1 ADD SWAP1 PUSH1 0x20 ADD DUP1 DUP4 GT PUSH2 0x5E5 JUMPI DUP3 SWAP1 SUB PUSH1 0x1F AND DUP3 ADD SWAP2 JUMPDEST POP POP POP POP POP SWAP1 DUP1 PUSH1 0x3 ADD DUP1 SLOAD PUSH2 0x617 SWAP1 PUSH2 0x2E50 JUMP JUMPDEST DUP1 PUSH1 0x1F ADD PUSH1 0x20 DUP1 SWAP2 DIV MUL PUSH1 0x20 ADD PUSH1 0x40 MLOAD SWAP1 DUP2 ADD PUSH1 0x40 MSTORE DUP1 SWAP3 SWAP2 SWAP1 DUP2 DUP2 MSTORE PUSH1 0x20 ADD DUP3 DUP1 SLOAD PUSH2 0x643 SWAP1 PUSH2 0x2E50 JUMP JUMPDEST DUP1 ISZERO PUSH2 0x690 JUMPI DUP1 PUSH1 0x1F LT PUSH2 0x665 JUMPI PUSH2 0x100 DUP1 DUP4 SLOAD DIV MUL DUP4 MSTORE SWAP2 PUSH1 0x20 ADD SWAP2 PUSH2 0x690 JUMP JUMPDEST DUP3 ADD SWAP2 SWAP1 PUSH1 0x0 MSTORE PUSH1 0x20 PUSH1 0x0 KECCAK256 SWAP1 JUMPDEST DUP2 SLOAD DUP2 MSTORE SWAP1 PUSH1 0x1 ADD SWAP1 PUSH1 0x20 ADD DUP1 DUP4 GT PUSH2 0x673 JUMPI DUP3 SWAP1 SUB PUSH1 0x1F AND DUP3 ADD SWAP2 JUMPDEST POP POP POP POP POP SWAP1 DUP1 PUSH1 0x4 ADD SLOAD SWAP1 DUP1 PUSH1 0x5 ADD DUP1 SLOAD PUSH2 0x6AB SWAP1 PUSH2 0x2E50 JUMP JUMPDEST DUP1 PUSH1 0x1F ADD PUSH1 0x20 DUP1 SWAP2 DIV MUL PUSH1 0x20 ADD PUSH1 0x40 MLOAD SWAP1 DUP2 ADD PUSH1 0x40 MSTORE DUP1 SWAP3 SWAP2 SWAP1 DUP2 DUP2 MSTORE PUSH1 0x20 ADD DUP3 DUP1 SLOAD PUSH2 0x6D7 SWAP1 PUSH2 0x2E50 JUMP JUMPDEST DUP1 ISZERO PUSH2 0x724 JUMPI DUP1 PUSH1 0x1F LT PUSH2 0x6F9 JUMPI PUSH2 0x100 DUP1 DUP4 SLOAD DIV MUL DUP4 MSTORE SWAP2 PUSH1 0x20 ADD SWAP2 PUSH2 0x724 JUMP JUMPDEST DUP3 ADD SWAP2 SWAP1 PUSH1 0x0 MSTORE PUSH1 0x20 PUSH1 0x0 KECCAK256 SWAP1 JUMPDEST DUP2 SLOAD DUP2 MSTORE SWAP1 PUSH1 0x1 ADD SWAP1 PUSH1 0x20 ADD DUP1 DUP4 GT PUSH2 0x707 JUMPI DUP3 SWAP1 SUB PUSH1 0x1F AND DUP3 ADD SWAP2 JUMPDEST POP POP POP POP POP SWAP1 DUP1 PUSH1 0x6 ADD DUP1 SLOAD PUSH2 0x739 SWAP1 PUSH2 0x2E50 JUMP JUMPDEST DUP1 PUSH1 0x1F ADD PUSH1 0x20 DUP1 SWAP2 DIV MUL PUSH1 0x20 ADD PUSH1 0x40 MLOAD SWAP1 DUP2 ADD PUSH1 0x40 MSTORE DUP1 SWAP3 SWAP2 SWAP1 DUP2 DUP2 MSTORE PUSH1 0x20 ADD DUP3 DUP1 SLOAD PUSH2 0x765 SWAP1 PUSH2 0x2E50 JUMP JUMPDEST DUP1 ISZERO PUSH2 0x7B2 JUMPI DUP1 PUSH1 0x1F LT PUSH2 0x787 JUMPI PUSH2 0x100 DUP1 DUP4 SLOAD DIV MUL DUP4 MSTORE SWAP2 PUSH1 0x20 ADD SWAP2 PUSH2 0x7B2 JUMP JUMPDEST DUP3 ADD SWAP2 SWAP1 PUSH1 0x0 MSTORE PUSH1 0x20 PUSH1 0x0 KECCAK256 SWAP1 JUMPDEST DUP2 SLOAD DUP2 MSTORE SWAP1 PUSH1 0x1 ADD SWAP1 PUSH1 0x20 ADD DUP1 DUP4 GT PUSH2 0x795 JUMPI DUP3 SWAP1 SUB PUSH1 0x1F AND DUP3 ADD SWAP2 JUMPDEST POP POP POP POP POP SWAP1 DUP1 PUSH1 0x7 ADD PUSH1 0x0 SWAP1 SLOAD SWAP1 PUSH2 0x100 EXP SWAP1 DIV PUSH20 0xFFFFFFFFFFFFFFFFFFFFFFFFFFFFFFFFFFFFFFFF AND SWAP1 DUP1 PUSH1 0x8 ADD PUSH1 0x0 SWAP1 SLOAD SWAP1 PUSH2 0x100 EXP SWAP1 DIV PUSH20 0xFFFFFFFFFFFFFFFFFFFFFFFFFFFFFFFFFFFFFFFF AND SWAP1 DUP1 PUSH1 0x9 ADD SLOAD SWAP1 DUP1 PUSH1 0xA ADD DUP1 SLOAD PUSH2 0x819 SWAP1 PUSH2 0x2E50 JUMP JUMPDEST DUP1 PUSH1 0x1F ADD PUSH1 0x20 DUP1 SWAP2 DIV MUL PUSH1 0x20 ADD PUSH1 0x40 MLOAD SWAP1 DUP2 ADD PUSH1 0x40 MSTORE DUP1 SWAP3 SWAP2 SWAP1 DUP2 DUP2 MSTORE PUSH1 0x20 ADD DUP3 DUP1 SLOAD PUSH2 0x845 SWAP1 PUSH2 0x2E50 JUMP JUMPDEST DUP1 ISZERO PUSH2 0x892 JUMPI DUP1 PUSH1 0x1F LT PUSH2 0x867 JUMPI PUSH2 0x100 DUP1 DUP4 SLOAD DIV MUL DUP4 MSTORE SWAP2 PUSH1 0x20 ADD SWAP2 PUSH2 0x892 JUMP JUMPDEST DUP3 ADD SWAP2 SWAP1 PUSH1 0x0 MSTORE PUSH1 0x20 PUSH1 0x0 KECCAK256 SWAP1 JUMPDEST DUP2 SLOAD DUP2 MSTORE SWAP1 PUSH1 0x1 ADD SWAP1 PUSH1 0x20 ADD DUP1 DUP4 GT PUSH2 0x875 JUMPI DUP3 SWAP1 SUB PUSH1 0x1F AND DUP3 ADD SWAP2 JUMPDEST POP POP POP POP POP SWAP1 POP DUP12 JUMP JUMPDEST PUSH1 0x0 PUSH1 0xA DUP5 PUSH1 0x40 MLOAD PUSH2 0x8AE SWAP2 SWAP1 PUSH2 0x2EBD JUMP JUMPDEST SWAP1 DUP2 MSTORE PUSH1 0x20 ADD PUSH1 0x40 MLOAD DUP1 SWAP2 SUB SWAP1 KECCAK256 SWAP1 POP DUP2 DUP2 PUSH1 0x5 ADD SWAP1 DUP2 PUSH2 0x8CF SWAP2 SWAP1 PUSH2 0x3080 JUMP JUMPDEST POP DUP3 DUP2 PUSH1 0x6 ADD SWAP1 DUP2 PUSH2 0x8E1 SWAP2 SWAP1 PUSH2 0x3080 JUMP JUMPDEST POP CALLER DUP2 PUSH1 0x8 ADD PUSH1 0x0 PUSH2 0x100 EXP DUP2 SLOAD DUP2 PUSH20 0xFFFFFFFFFFFFFFFFFFFFFFFFFFFFFFFFFFFFFFFF MUL NOT AND SWAP1 DUP4 PUSH20 0xFFFFFFFFFFFFFFFFFFFFFFFFFFFFFFFFFFFFFFFF AND MUL OR SWAP1 SSTORE POP POP POP POP POP JUMP JUMPDEST PUSH1 0x8 DUP2 DUP1 MLOAD PUSH1 0x20 DUP2 ADD DUP3 ADD DUP1 MLOAD DUP5 DUP3 MSTORE PUSH1 0x20 DUP4 ADD PUSH1 0x20 DUP6 ADD KECCAK256 DUP2 DUP4 MSTORE DUP1 SWAP6 POP POP POP POP POP POP PUSH1 0x0 SWAP2 POP SWAP1 POP DUP1 PUSH1 0x0 ADD SLOAD SWAP1 DUP1 PUSH1 0x1 ADD DUP1 SLOAD PUSH2 0x96A SWAP1 PUSH2 0x2E50 JUMP JUMPDEST DUP1 PUSH1 0x1F ADD PUSH1 0x20 DUP1 SWAP2 DIV MUL PUSH1 0x20 ADD PUSH1 0x40 MLOAD SWAP1 DUP2 ADD PUSH1 0x40 MSTORE DUP1 SWAP3 SWAP2 SWAP1 DUP2 DUP2 MSTORE PUSH1 0x20 ADD DUP3 DUP1 SLOAD PUSH2 0x996 SWAP1 PUSH2 0x2E50 JUMP JUMPDEST DUP1 ISZERO PUSH2 0x9E3 JUMPI DUP1 PUSH1 0x1F LT PUSH2 0x9B8 JUMPI PUSH2 0x100 DUP1 DUP4 SLOAD DIV MUL DUP4 MSTORE SWAP2 PUSH1 0x20 ADD SWAP2 PUSH2 0x9E3 JUMP JUMPDEST DUP3 ADD SWAP2 SWAP1 PUSH1 0x0 MSTORE PUSH1 0x20 PUSH1 0x0 KECCAK256 SWAP1 JUMPDEST DUP2 SLOAD DUP2 MSTORE SWAP1 PUSH1 0x1 ADD SWAP1 PUSH1 0x20 ADD DUP1 DUP4 GT PUSH2 0x9C6 JUMPI DUP3 SWAP1 SUB PUSH1 0x1F AND DUP3 ADD SWAP2 JUMPDEST POP POP POP POP POP SWAP1 DUP1 PUSH1 0x2 ADD DUP1 SLOAD PUSH2 0x9F8 SWAP1 PUSH2 0x2E50 JUMP JUMPDEST DUP1 PUSH1 0x1F ADD PUSH1 0x20 DUP1 SWAP2 DIV MUL PUSH1 0x20 ADD PUSH1 0x40 MLOAD SWAP1 DUP2 ADD PUSH1 0x40 MSTORE DUP1 SWAP3 SWAP2 SWAP1 DUP2 DUP2 MSTORE PUSH1 0x20 ADD DUP3 DUP1 SLOAD PUSH2 0xA24 SWAP1 PUSH2 0x2E50 JUMP JUMPDEST DUP1 ISZERO PUSH2 0xA71 JUMPI DUP1 PUSH1 0x1F LT PUSH2 0xA46 JUMPI PUSH2 0x100 DUP1 DUP4 SLOAD DIV MUL DUP4 MSTORE SWAP2 PUSH1 0x20 ADD SWAP2 PUSH2 0xA71 JUMP JUMPDEST DUP3 ADD SWAP2 SWAP1 PUSH1 0x0 MSTORE PUSH1 0x20 PUSH1 0x0 KECCAK256 SWAP1 JUMPDEST DUP2 SLOAD DUP2 MSTORE SWAP1 PUSH1 0x1 ADD SWAP1 PUSH1 0x20 ADD DUP1 DUP4 GT PUSH2 0xA54 JUMPI DUP3 SWAP1 SUB PUSH1 0x1F AND DUP3 ADD SWAP2 JUMPDEST POP POP POP POP POP SWAP1 POP DUP4 JUMP JUMPDEST PUSH1 0x60 PUSH1 0x7 DUP1 SLOAD DUP1 PUSH1 0x20 MUL PUSH1 0x20 ADD PUSH1 0x40 MLOAD SWAP1 DUP2 ADD PUSH1 0x40 MSTORE DUP1 SWAP3 SWAP2 SWAP1 DUP2 DUP2 MSTORE PUSH1 0x20 ADD PUSH1 0x0 SWAP1 JUMPDEST DUP3 DUP3 LT ISZERO PUSH2 0xF90 JUMPI DUP4 DUP3 SWAP1 PUSH1 0x0 MSTORE PUSH1 0x20 PUSH1 0x0 KECCAK256 SWAP1 PUSH1 0xB MUL ADD PUSH1 0x40 MLOAD DUP1 PUSH2 0x160 ADD PUSH1 0x40 MSTORE SWAP1 DUP2 PUSH1 0x0 DUP3 ADD DUP1 SLOAD PUSH2 0xAD3 SWAP1 PUSH2 0x2E50 JUMP JUMPDEST DUP1 PUSH1 0x1F ADD PUSH1 0x20 DUP1 SWAP2 DIV MUL PUSH1 0x20 ADD PUSH1 0x40 MLOAD SWAP1 DUP2 ADD PUSH1 0x40 MSTORE DUP1 SWAP3 SWAP2 SWAP1 DUP2 DUP2 MSTORE PUSH1 0x20 ADD DUP3 DUP1 SLOAD PUSH2 0xAFF SWAP1 PUSH2 0x2E50 JUMP JUMPDEST DUP1 ISZERO PUSH2 0xB4C JUMPI DUP1 PUSH1 0x1F LT PUSH2 0xB21 JUMPI PUSH2 0x100 DUP1 DUP4 SLOAD DIV MUL DUP4 MSTORE SWAP2 PUSH1 0x20 ADD SWAP2 PUSH2 0xB4C JUMP JUMPDEST DUP3 ADD SWAP2 SWAP1 PUSH1 0x0 MSTORE PUSH1 0x20 PUSH1 0x0 KECCAK256 SWAP1 JUMPDEST DUP2 SLOAD DUP2 MSTORE SWAP1 PUSH1 0x1 ADD SWAP1 PUSH1 0x20 ADD DUP1 DUP4 GT PUSH2 0xB2F JUMPI DUP3 SWAP1 SUB PUSH1 0x1F AND DUP3 ADD SWAP2 JUMPDEST POP POP POP POP POP DUP2 MSTORE PUSH1 0x20 ADD PUSH1 0x1 DUP3 ADD DUP1 SLOAD PUSH2 0xB65 SWAP1 PUSH2 0x2E50 JUMP JUMPDEST DUP1 PUSH1 0x1F ADD PUSH1 0x20 DUP1 SWAP2 DIV MUL PUSH1 0x20 ADD PUSH1 0x40 MLOAD SWAP1 DUP2 ADD PUSH1 0x40 MSTORE DUP1 SWAP3 SWAP2 SWAP1 DUP2 DUP2 MSTORE PUSH1 0x20 ADD DUP3 DUP1 SLOAD PUSH2 0xB91 SWAP1 PUSH2 0x2E50 JUMP JUMPDEST DUP1 ISZERO PUSH2 0xBDE JUMPI DUP1 PUSH1 0x1F LT PUSH2 0xBB3 JUMPI PUSH2 0x100 DUP1 DUP4 SLOAD DIV MUL DUP4 MSTORE SWAP2 PUSH1 0x20 ADD SWAP2 PUSH2 0xBDE JUMP JUMPDEST DUP3 ADD SWAP2 SWAP1 PUSH1 0x0 MSTORE PUSH1 0x20 PUSH1 0x0 KECCAK256 SWAP1 JUMPDEST DUP2 SLOAD DUP2 MSTORE SWAP1 PUSH1 0x1 ADD SWAP1 PUSH1 0x20 ADD DUP1 DUP4 GT PUSH2 0xBC1 JUMPI DUP3 SWAP1 SUB PUSH1 0x1F AND DUP3 ADD SWAP2 JUMPDEST POP POP POP POP POP DUP2 MSTORE PUSH1 0x20 ADD PUSH1 0x2 DUP3 ADD DUP1 SLOAD PUSH2 0xBF7 SWAP1 PUSH2 0x2E50 JUMP JUMPDEST DUP1 PUSH1 0x1F ADD PUSH1 0x20 DUP1 SWAP2 DIV MUL PUSH1 0x20 ADD PUSH1 0x40 MLOAD SWAP1 DUP2 ADD PUSH1 0x40 MSTORE DUP1 SWAP3 SWAP2 SWAP1 DUP2 DUP2 MSTORE PUSH1 0x20 ADD DUP3 DUP1 SLOAD PUSH2 0xC23 SWAP1 PUSH2 0x2E50 JUMP JUMPDEST DUP1 ISZERO PUSH2 0xC70 JUMPI DUP1 PUSH1 0x1F LT PUSH2 0xC45 JUMPI PUSH2 0x100 DUP1 DUP4 SLOAD DIV MUL DUP4 MSTORE SWAP2 PUSH1 0x20 ADD SWAP2 PUSH2 0xC70 JUMP JUMPDEST DUP3 ADD SWAP2 SWAP1 PUSH1 0x0 MSTORE PUSH1 0x20 PUSH1 0x0 KECCAK256 SWAP1 JUMPDEST DUP2 SLOAD DUP2 MSTORE SWAP1 PUSH1 0x1 ADD SWAP1 PUSH1 0x20 ADD DUP1 DUP4 GT PUSH2 0xC53 JUMPI DUP3 SWAP1 SUB PUSH1 0x1F AND DUP3 ADD SWAP2 JUMPDEST POP POP POP POP POP DUP2 MSTORE PUSH1 0x20 ADD PUSH1 0x3 DUP3 ADD DUP1 SLOAD PUSH2 0xC89 SWAP1 PUSH2 0x2E50 JUMP JUMPDEST DUP1 PUSH1 0x1F ADD PUSH1 0x20 DUP1 SWAP2 DIV MUL PUSH1 0x20 ADD PUSH1 0x40 MLOAD SWAP1 DUP2 ADD PUSH1 0x40 MSTORE DUP1 SWAP3 SWAP2 SWAP1 DUP2 DUP2 MSTORE PUSH1 0x20 ADD DUP3 DUP1 SLOAD PUSH2 0xCB5 SWAP1 PUSH2 0x2E50 JUMP JUMPDEST DUP1 ISZERO PUSH2 0xD02 JUMPI DUP1 PUSH1 0x1F LT PUSH2 0xCD7 JUMPI PUSH2 0x100 DUP1 DUP4 SLOAD DIV MUL DUP4 MSTORE SWAP2 PUSH1 0x20 ADD SWAP2 PUSH2 0xD02 JUMP JUMPDEST DUP3 ADD SWAP2 SWAP1 PUSH1 0x0 MSTORE PUSH1 0x20 PUSH1 0x0 KECCAK256 SWAP1 JUMPDEST DUP2 SLOAD DUP2 MSTORE SWAP1 PUSH1 0x1 ADD SWAP1 PUSH1 0x20 ADD DUP1 DUP4 GT PUSH2 0xCE5 JUMPI DUP3 SWAP1 SUB PUSH1 0x1F AND DUP3 ADD SWAP2 JUMPDEST POP POP POP POP POP DUP2 MSTORE PUSH1 0x20 ADD PUSH1 0x4 DUP3 ADD SLOAD DUP2 MSTORE PUSH1 0x20 ADD PUSH1 0x5 DUP3 ADD DUP1 SLOAD PUSH2 0xD25 SWAP1 PUSH2 0x2E50 JUMP JUMPDEST DUP1 PUSH1 0x1F ADD PUSH1 0x20 DUP1 SWAP2 DIV MUL PUSH1 0x20 ADD PUSH1 0x40 MLOAD SWAP1 DUP2 ADD PUSH1 0x40 MSTORE DUP1 SWAP3 SWAP2 SWAP1 DUP2 DUP2 MSTORE PUSH1 0x20 ADD DUP3 DUP1 SLOAD PUSH2 0xD51 SWAP1 PUSH2 0x2E50 JUMP JUMPDEST DUP1 ISZERO PUSH2 0xD9E JUMPI DUP1 PUSH1 0x1F LT PUSH2 0xD73 JUMPI PUSH2 0x100 DUP1 DUP4 SLOAD DIV MUL DUP4 MSTORE SWAP2 PUSH1 0x20 ADD SWAP2 PUSH2 0xD9E JUMP JUMPDEST DUP3 ADD SWAP2 SWAP1 PUSH1 0x0 MSTORE PUSH1 0x20 PUSH1 0x0 KECCAK256 SWAP1 JUMPDEST DUP2 SLOAD DUP2 MSTORE SWAP1 PUSH1 0x1 ADD SWAP1 PUSH1 0x20 ADD DUP1 DUP4 GT PUSH2 0xD81 JUMPI DUP3 SWAP1 SUB PUSH1 0x1F AND DUP3 ADD SWAP2 JUMPDEST POP POP POP POP POP DUP2 MSTORE PUSH1 0x20 ADD PUSH1 0x6 DUP3 ADD DUP1 SLOAD PUSH2 0xDB7 SWAP1 PUSH2 0x2E50 JUMP JUMPDEST DUP1 PUSH1 0x1F ADD PUSH1 0x20 DUP1 SWAP2 DIV MUL PUSH1 0x20 ADD PUSH1 0x40 MLOAD SWAP1 DUP2 ADD PUSH1 0x40 MSTORE DUP1 SWAP3 SWAP2 SWAP1 DUP2 DUP2 MSTORE PUSH1 0x20 ADD DUP3 DUP1 SLOAD PUSH2 0xDE3 SWAP1 PUSH2 0x2E50 JUMP JUMPDEST DUP1 ISZERO PUSH2 0xE30 JUMPI DUP1 PUSH1 0x1F LT PUSH2 0xE05 JUMPI PUSH2 0x100 DUP1 DUP4 SLOAD DIV MUL DUP4 MSTORE SWAP2 PUSH1 0x20 ADD SWAP2 PUSH2 0xE30 JUMP JUMPDEST DUP3 ADD SWAP2 SWAP1 PUSH1 0x0 MSTORE PUSH1 0x20 PUSH1 0x0 KECCAK256 SWAP1 JUMPDEST DUP2 SLOAD DUP2 MSTORE SWAP1 PUSH1 0x1 ADD SWAP1 PUSH1 0x20 ADD DUP1 DUP4 GT PUSH2 0xE13 JUMPI DUP3 SWAP1 SUB PUSH1 0x1F AND DUP3 ADD SWAP2 JUMPDEST POP POP POP POP POP DUP2 MSTORE PUSH1 0x20 ADD PUSH1 0x7 DUP3 ADD PUSH1 0x0 SWAP1 SLOAD SWAP1 PUSH2 0x100 EXP SWAP1 DIV PUSH20 0xFFFFFFFFFFFFFFFFFFFFFFFFFFFFFFFFFFFFFFFF AND PUSH20 0xFFFFFFFFFFFFFFFFFFFFFFFFFFFFFFFFFFFFFFFF AND PUSH20 0xFFFFFFFFFFFFFFFFFFFFFFFFFFFFFFFFFFFFFFFF AND DUP2 MSTORE PUSH1 0x20 ADD PUSH1 0x8 DUP3 ADD PUSH1 0x0 SWAP1 SLOAD SWAP1 PUSH2 0x100 EXP SWAP1 DIV PUSH20 0xFFFFFFFFFFFFFFFFFFFFFFFFFFFFFFFFFFFFFFFF AND PUSH20 0xFFFFFFFFFFFFFFFFFFFFFFFFFFFFFFFFFFFFFFFF AND PUSH20 0xFFFFFFFFFFFFFFFFFFFFFFFFFFFFFFFFFFFFFFFF AND DUP2 MSTORE PUSH1 0x20 ADD PUSH1 0x9 DUP3 ADD SLOAD DUP2 MSTORE PUSH1 0x20 ADD PUSH1 0xA DUP3 ADD DUP1 SLOAD PUSH2 0xEFF SWAP1 PUSH2 0x2E50 JUMP JUMPDEST DUP1 PUSH1 0x1F ADD PUSH1 0x20 DUP1 SWAP2 DIV MUL PUSH1 0x20 ADD PUSH1 0x40 MLOAD SWAP1 DUP2 ADD PUSH1 0x40 MSTORE DUP1 SWAP3 SWAP2 SWAP1 DUP2 DUP2 MSTORE PUSH1 0x20 ADD DUP3 DUP1 SLOAD PUSH2 0xF2B SWAP1 PUSH2 0x2E50 JUMP JUMPDEST DUP1 ISZERO PUSH2 0xF78 JUMPI DUP1 PUSH1 0x1F LT PUSH2 0xF4D JUMPI PUSH2 0x100 DUP1 DUP4 SLOAD DIV MUL DUP4 MSTORE SWAP2 PUSH1 0x20 ADD SWAP2 PUSH2 0xF78 JUMP JUMPDEST DUP3 ADD SWAP2 SWAP1 PUSH1 0x0 MSTORE PUSH1 0x20 PUSH1 0x0 KECCAK256 SWAP1 JUMPDEST DUP2 SLOAD DUP2 MSTORE SWAP1 PUSH1 0x1 ADD SWAP1 PUSH1 0x20 ADD DUP1 DUP4 GT PUSH2 0xF5B JUMPI DUP3 SWAP1 SUB PUSH1 0x1F AND DUP3 ADD SWAP2 JUMPDEST POP POP POP POP POP DUP2 MSTORE POP POP DUP2 MSTORE PUSH1 0x20 ADD SWAP1 PUSH1 0x1 ADD SWAP1 PUSH2 0xA9F JUMP JUMPDEST POP POP POP POP SWAP1 POP SWAP1 JUMP JUMPDEST PUSH1 0x9 PUSH1 0x20 MSTORE DUP1 PUSH1 0x0 MSTORE PUSH1 0x40 PUSH1 0x0 KECCAK256 PUSH1 0x0 SWAP2 POP SWAP1 POP DUP1 PUSH1 0x0 ADD DUP1 SLOAD PUSH2 0xFBC SWAP1 PUSH2 0x2E50 JUMP JUMPDEST DUP1 PUSH1 0x1F ADD PUSH1 0x20 DUP1 SWAP2 DIV MUL PUSH1 0x20 ADD PUSH1 0x40 MLOAD SWAP1 DUP2 ADD PUSH1 0x40 MSTORE DUP1 SWAP3 SWAP2 SWAP1 DUP2 DUP2 MSTORE PUSH1 0x20 ADD DUP3 DUP1 SLOAD PUSH2 0xFE8 SWAP1 PUSH2 0x2E50 JUMP JUMPDEST DUP1 ISZERO PUSH2 0x1035 JUMPI DUP1 PUSH1 0x1F LT PUSH2 0x100A JUMPI PUSH2 0x100 DUP1 DUP4 SLOAD DIV MUL DUP4 MSTORE SWAP2 PUSH1 0x20 ADD SWAP2 PUSH2 0x1035 JUMP JUMPDEST DUP3 ADD SWAP2 SWAP1 PUSH1 0x0 MSTORE PUSH1 0x20 PUSH1 0x0 KECCAK256 SWAP1 JUMPDEST DUP2 SLOAD DUP2 MSTORE SWAP1 PUSH1 0x1 ADD SWAP1 PUSH1 0x20 ADD DUP1 DUP4 GT PUSH2 0x1018 JUMPI DUP3 SWAP1 SUB PUSH1 0x1F AND DUP3 ADD SWAP2 JUMPDEST POP POP POP POP POP SWAP1 DUP1 PUSH1 0x1 ADD DUP1 SLOAD PUSH2 0x104A SWAP1 PUSH2 0x2E50 JUMP JUMPDEST DUP1 PUSH1 0x1F ADD PUSH1 0x20 DUP1 SWAP2 DIV MUL PUSH1 0x20 ADD PUSH1 0x40 MLOAD SWAP1 DUP2 ADD PUSH1 0x40 MSTORE DUP1 SWAP3 SWAP2 SWAP1 DUP2 DUP2 MSTORE PUSH1 0x20 ADD DUP3 DUP1 SLOAD PUSH2 0x1076 SWAP1 PUSH2 0x2E50 JUMP JUMPDEST DUP1 ISZERO PUSH2 0x10C3 JUMPI DUP1 PUSH1 0x1F LT PUSH2 0x1098 JUMPI PUSH2 0x100 DUP1 DUP4 SLOAD DIV MUL DUP4 MSTORE SWAP2 PUSH1 0x20 ADD SWAP2 PUSH2 0x10C3 JUMP JUMPDEST DUP3 ADD SWAP2 SWAP1 PUSH1 0x0 MSTORE PUSH1 0x20 PUSH1 0x0 KECCAK256 SWAP1 JUMPDEST DUP2 SLOAD DUP2 MSTORE SWAP1 PUSH1 0x1 ADD SWAP1 PUSH1 0x20 ADD DUP1 DUP4 GT PUSH2 0x10A6 JUMPI DUP3 SWAP1 SUB PUSH1 0x1F AND DUP3 ADD SWAP2 JUMPDEST POP POP POP POP POP SWAP1 DUP1 PUSH1 0x2 ADD PUSH1 0x0 SWAP1 SLOAD SWAP1 PUSH2 0x100 EXP SWAP1 DIV PUSH20 0xFFFFFFFFFFFFFFFFFFFFFFFFFFFFFFFFFFFFFFFF AND SWAP1 DUP1 PUSH1 0x3 ADD SLOAD SWAP1 POP DUP5 JUMP JUMPDEST PUSH1 0x0 DUP1 PUSH1 0x0 SWAP1 SLOAD SWAP1 PUSH2 0x100 EXP SWAP1 DIV PUSH20 0xFFFFFFFFFFFFFFFFFFFFFFFFFFFFFFFFFFFFFFFF AND PUSH20 0xFFFFFFFFFFFFFFFFFFFFFFFFFFFFFFFFFFFFFFFF AND CALLER PUSH20 0xFFFFFFFFFFFFFFFFFFFFFFFFFFFFFFFFFFFFFFFF AND EQ PUSH2 0x1154 JUMPI PUSH1 0x0 DUP1 REVERT JUMPDEST PUSH1 0x1 SWAP1 POP SWAP1 JUMP JUMPDEST PUSH1 0x0 PUSH1 0x9 PUSH1 0x0 CALLER PUSH20 0xFFFFFFFFFFFFFFFFFFFFFFFFFFFFFFFFFFFFFFFF AND PUSH20 0xFFFFFFFFFFFFFFFFFFFFFFFFFFFFFFFFFFFFFFFF AND DUP2 MSTORE PUSH1 0x20 ADD SWAP1 DUP2 MSTORE PUSH1 0x20 ADD PUSH1 0x0 KECCAK256 PUSH1 0x2 ADD PUSH1 0x0 SWAP1 SLOAD SWAP1 PUSH2 0x100 EXP SWAP1 DIV PUSH20 0xFFFFFFFFFFFFFFFFFFFFFFFFFFFFFFFFFFFFFFFF AND PUSH20 0xFFFFFFFFFFFFFFFFFFFFFFFFFFFFFFFFFFFFFFFF AND CALLER PUSH20 0xFFFFFFFFFFFFFFFFFFFFFFFFFFFFFFFFFFFFFFFF AND EQ PUSH2 0x11F7 JUMPI PUSH1 0x0 DUP1 REVERT JUMPDEST PUSH1 0x1 SWAP1 POP SWAP1 JUMP JUMPDEST PUSH1 0x60 PUSH1 0x2 DUP1 SLOAD DUP1 PUSH1 0x20 MUL PUSH1 0x20 ADD PUSH1 0x40 MLOAD SWAP1 DUP2 ADD PUSH1 0x40 MSTORE DUP1 SWAP3 SWAP2 SWAP1 DUP2 DUP2 MSTORE PUSH1 0x20 ADD DUP3 DUP1 SLOAD DUP1 ISZERO PUSH2 0x1282 JUMPI PUSH1 0x20 MUL DUP3 ADD SWAP2 SWAP1 PUSH1 0x0 MSTORE PUSH1 0x20 PUSH1 0x0 KECCAK256 SWAP1 JUMPDEST DUP2 PUSH1 0x0 SWAP1 SLOAD SWAP1 PUSH2 0x100 EXP SWAP1 DIV PUSH20 0xFFFFFFFFFFFFFFFFFFFFFFFFFFFFFFFFFFFFFFFF AND PUSH20 0xFFFFFFFFFFFFFFFFFFFFFFFFFFFFFFFFFFFFFFFF AND DUP2 MSTORE PUSH1 0x20 ADD SWAP1 PUSH1 0x1 ADD SWAP1 DUP1 DUP4 GT PUSH2 0x1238 JUMPI JUMPDEST POP POP POP POP POP SWAP1 POP SWAP1 JUMP JUMPDEST PUSH1 0x0 PUSH1 0xA DUP8 PUSH1 0x40 MLOAD PUSH2 0x129E SWAP2 SWAP1 PUSH2 0x2EBD JUMP JUMPDEST SWAP1 DUP2 MSTORE PUSH1 0x20 ADD PUSH1 0x40 MLOAD DUP1 SWAP2 SUB SWAP1 KECCAK256 SWAP1 POP DUP8 DUP2 PUSH1 0x0 ADD SWAP1 DUP2 PUSH2 0x12BF SWAP2 SWAP1 PUSH2 0x3080 JUMP JUMPDEST POP DUP7 DUP2 PUSH1 0x1 ADD SWAP1 DUP2 PUSH2 0x12D1 SWAP2 SWAP1 PUSH2 0x3080 JUMP JUMPDEST POP DUP5 DUP2 PUSH1 0x2 ADD SWAP1 DUP2 PUSH2 0x12E3 SWAP2 SWAP1 PUSH2 0x3080 JUMP JUMPDEST POP DUP6 DUP2 PUSH1 0x4 ADD DUP2 SWAP1 SSTORE POP DUP4 DUP2 PUSH1 0x3 ADD SWAP1 DUP2 PUSH2 0x12FE SWAP2 SWAP1 PUSH2 0x3080 JUMP JUMPDEST POP DUP3 DUP2 PUSH1 0x6 ADD SWAP1 DUP2 PUSH2 0x1310 SWAP2 SWAP1 PUSH2 0x3080 JUMP JUMPDEST POP DUP2 DUP2 PUSH1 0x5 ADD SWAP1 DUP2 PUSH2 0x1322 SWAP2 SWAP1 PUSH2 0x3080 JUMP JUMPDEST POP CALLER DUP2 PUSH1 0x7 ADD PUSH1 0x0 PUSH2 0x100 EXP DUP2 SLOAD DUP2 PUSH20 0xFFFFFFFFFFFFFFFFFFFFFFFFFFFFFFFFFFFFFFFF MUL NOT AND SWAP1 DUP4 PUSH20 0xFFFFFFFFFFFFFFFFFFFFFFFFFFFFFFFFFFFFFFFF AND MUL OR SWAP1 SSTORE POP PUSH1 0x40 MLOAD DUP1 PUSH1 0x40 ADD PUSH1 0x40 MSTORE DUP1 PUSH1 0x7 DUP2 MSTORE PUSH1 0x20 ADD PUSH32 0x70656E64696E6700000000000000000000000000000000000000000000000000 DUP2 MSTORE POP DUP2 PUSH1 0xA ADD SWAP1 DUP2 PUSH2 0x13AC SWAP2 SWAP1 PUSH2 0x3080 JUMP JUMPDEST POP CALLER DUP2 PUSH1 0x8 ADD PUSH1 0x0 PUSH2 0x100 EXP DUP2 SLOAD DUP2 PUSH20 0xFFFFFFFFFFFFFFFFFFFFFFFFFFFFFFFFFFFFFFFF MUL NOT AND SWAP1 DUP4 PUSH20 0xFFFFFFFFFFFFFFFFFFFFFFFFFFFFFFFFFFFFFFFF AND MUL OR SWAP1 SSTORE POP PUSH1 0x7 DUP2 SWAP1 DUP1 PUSH1 0x1 DUP2 SLOAD ADD DUP1 DUP3 SSTORE DUP1 SWAP2 POP POP PUSH1 0x1 SWAP1 SUB SWAP1 PUSH1 0x0 MSTORE PUSH1 0x20 PUSH1 0x0 KECCAK256 SWAP1 PUSH1 0xB MUL ADD PUSH1 0x0 SWAP1 SWAP2 SWAP1 SWAP2 SWAP1 SWAP2 POP PUSH1 0x0 DUP3 ADD DUP2 PUSH1 0x0 ADD SWAP1 DUP2 PUSH2 0x1430 SWAP2 SWAP1 PUSH2 0x3168 JUMP JUMPDEST POP PUSH1 0x1 DUP3 ADD DUP2 PUSH1 0x1 ADD SWAP1 DUP2 PUSH2 0x1445 SWAP2 SWAP1 PUSH2 0x3168 JUMP JUMPDEST POP PUSH1 0x2 DUP3 ADD DUP2 PUSH1 0x2 ADD SWAP1 DUP2 PUSH2 0x145A SWAP2 SWAP1 PUSH2 0x3168 JUMP JUMPDEST POP PUSH1 0x3 DUP3 ADD DUP2 PUSH1 0x3 ADD SWAP1 DUP2 PUSH2 0x146F SWAP2 SWAP1 PUSH2 0x3168 JUMP JUMPDEST POP PUSH1 0x4 DUP3 ADD SLOAD DUP2 PUSH1 0x4 ADD SSTORE PUSH1 0x5 DUP3 ADD DUP2 PUSH1 0x5 ADD SWAP1 DUP2 PUSH2 0x148E SWAP2 SWAP1 PUSH2 0x3168 JUMP JUMPDEST POP PUSH1 0x6 DUP3 ADD DUP2 PUSH1 0x6 ADD SWAP1 DUP2 PUSH2 0x14A3 SWAP2 SWAP1 PUSH2 0x3168 JUMP JUMPDEST POP PUSH1 0x7 DUP3 ADD PUSH1 0x0 SWAP1 SLOAD SWAP1 PUSH2 0x100 EXP SWAP1 DIV PUSH20 0xFFFFFFFFFFFFFFFFFFFFFFFFFFFFFFFFFFFFFFFF AND DUP2 PUSH1 0x7 ADD PUSH1 0x0 PUSH2 0x100 EXP DUP2 SLOAD DUP2 PUSH20 0xFFFFFFFFFFFFFFFFFFFFFFFFFFFFFFFFFFFFFFFF MUL NOT AND SWAP1 DUP4 PUSH20 0xFFFFFFFFFFFFFFFFFFFFFFFFFFFFFFFFFFFFFFFF AND MUL OR SWAP1 SSTORE POP PUSH1 0x8 DUP3 ADD PUSH1 0x0 SWAP1 SLOAD SWAP1 PUSH2 0x100 EXP SWAP1 DIV PUSH20 0xFFFFFFFFFFFFFFFFFFFFFFFFFFFFFFFFFFFFFFFF AND DUP2 PUSH1 0x8 ADD PUSH1 0x0 PUSH2 0x100 EXP DUP2 SLOAD DUP2 PUSH20 0xFFFFFFFFFFFFFFFFFFFFFFFFFFFFFFFFFFFFFFFF MUL NOT AND SWAP1 DUP4 PUSH20 0xFFFFFFFFFFFFFFFFFFFFFFFFFFFFFFFFFFFFFFFF AND MUL OR SWAP1 SSTORE POP PUSH1 0x9 DUP3 ADD SLOAD DUP2 PUSH1 0x9 ADD SSTORE PUSH1 0xA DUP3 ADD DUP2 PUSH1 0xA ADD SWAP1 DUP2 PUSH2 0x1590 SWAP2 SWAP1 PUSH2 0x3168 JUMP JUMPDEST POP POP POP POP POP POP POP POP POP POP POP JUMP JUMPDEST PUSH1 0x2 DUP2 DUP2 SLOAD DUP2 LT PUSH2 0x15AD JUMPI PUSH1 0x0 DUP1 REVERT JUMPDEST SWAP1 PUSH1 0x0 MSTORE PUSH1 0x20 PUSH1 0x0 KECCAK256 ADD PUSH1 0x0 SWAP2 POP SLOAD SWAP1 PUSH2 0x100 EXP SWAP1 DIV PUSH20 0xFFFFFFFFFFFFFFFFFFFFFFFFFFFFFFFFFFFFFFFF AND DUP2 JUMP JUMPDEST PUSH1 0xB DUP2 DUP1 MLOAD PUSH1 0x20 DUP2 ADD DUP3 ADD DUP1 MLOAD DUP5 DUP3 MSTORE PUSH1 0x20 DUP4 ADD PUSH1 0x20 DUP6 ADD KECCAK256 DUP2 DUP4 MSTORE DUP1 SWAP6 POP POP POP POP POP POP PUSH1 0x0 SWAP2 POP SWAP1 POP DUP1 PUSH1 0x0 ADD DUP1 SLOAD PUSH2 0x1615 SWAP1 PUSH2 0x2E50 JUMP JUMPDEST DUP1 PUSH1 0x1F ADD PUSH1 0x20 DUP1 SWAP2 DIV MUL PUSH1 0x20 ADD PUSH1 0x40 MLOAD SWAP1 DUP2 ADD PUSH1 0x40 MSTORE DUP1 SWAP3 SWAP2 SWAP1 DUP2 DUP2 MSTORE PUSH1 0x20 ADD DUP3 DUP1 SLOAD PUSH2 0x1641 SWAP1 PUSH2 0x2E50 JUMP JUMPDEST DUP1 ISZERO PUSH2 0x168E JUMPI DUP1 PUSH1 0x1F LT PUSH2 0x1663 JUMPI PUSH2 0x100 DUP1 DUP4 SLOAD DIV MUL DUP4 MSTORE SWAP2 PUSH1 0x20 ADD SWAP2 PUSH2 0x168E JUMP JUMPDEST DUP3 ADD SWAP2 SWAP1 PUSH1 0x0 MSTORE PUSH1 0x20 PUSH1 0x0 KECCAK256 SWAP1 JUMPDEST DUP2 SLOAD DUP2 MSTORE SWAP1 PUSH1 0x1 ADD SWAP1 PUSH1 0x20 ADD DUP1 DUP4 GT PUSH2 0x1671 JUMPI DUP3 SWAP1 SUB PUSH1 0x1F AND DUP3 ADD SWAP2 JUMPDEST POP POP POP POP POP SWAP1 POP DUP2 JUMP JUMPDEST PUSH1 0x0 PUSH1 0x9 PUSH1 0x0 DUP5 PUSH20 0xFFFFFFFFFFFFFFFFFFFFFFFFFFFFFFFFFFFFFFFF AND PUSH20 0xFFFFFFFFFFFFFFFFFFFFFFFFFFFFFFFFFFFFFFFF AND DUP2 MSTORE PUSH1 0x20 ADD SWAP1 DUP2 MSTORE PUSH1 0x20 ADD PUSH1 0x0 KECCAK256 SWAP1 POP DUP4 DUP2 PUSH1 0x1 ADD SWAP1 DUP2 PUSH2 0x16EC SWAP2 SWAP1 PUSH2 0x3080 JUMP JUMPDEST POP DUP3 DUP2 PUSH1 0x2 ADD PUSH1 0x0 PUSH2 0x100 EXP DUP2 SLOAD DUP2 PUSH20 0xFFFFFFFFFFFFFFFFFFFFFFFFFFFFFFFFFFFFFFFF MUL NOT AND SWAP1 DUP4 PUSH20 0xFFFFFFFFFFFFFFFFFFFFFFFFFFFFFFFFFFFFFFFF AND MUL OR SWAP1 SSTORE POP DUP2 DUP2 PUSH1 0x0 ADD SWAP1 DUP2 PUSH2 0x1741 SWAP2 SWAP1 PUSH2 0x3080 JUMP JUMPDEST POP PUSH1 0x3 PUSH1 0x0 DUP2 SLOAD DUP1 SWAP3 SWAP2 SWAP1 PUSH2 0x1755 SWAP1 PUSH2 0x327F JUMP JUMPDEST SWAP2 SWAP1 POP SSTORE DUP2 PUSH1 0x3 ADD DUP2 SWAP1 SSTORE POP PUSH1 0x2 DUP4 SWAP1 DUP1 PUSH1 0x1 DUP2 SLOAD ADD DUP1 DUP3 SSTORE DUP1 SWAP2 POP POP PUSH1 0x1 SWAP1 SUB SWAP1 PUSH1 0x0 MSTORE PUSH1 0x20 PUSH1 0x0 KECCAK256 ADD PUSH1 0x0 SWAP1 SWAP2 SWAP1 SWAP2 SWAP1 SWAP2 PUSH2 0x100 EXP DUP2 SLOAD DUP2 PUSH20 0xFFFFFFFFFFFFFFFFFFFFFFFFFFFFFFFFFFFFFFFF MUL NOT AND SWAP1 DUP4 PUSH20 0xFFFFFFFFFFFFFFFFFFFFFFFFFFFFFFFFFFFFFFFF AND MUL OR SWAP1 SSTORE POP POP POP POP POP JUMP JUMPDEST PUSH1 0x1 PUSH1 0x0 SWAP1 SLOAD SWAP1 PUSH2 0x100 EXP SWAP1 DIV PUSH20 0xFFFFFFFFFFFFFFFFFFFFFFFFFFFFFFFFFFFFFFFF AND DUP2 JUMP JUMPDEST PUSH1 0xA DUP2 DUP1 MLOAD PUSH1 0x20 DUP2 ADD DUP3 ADD DUP1 MLOAD DUP5 DUP3 MSTORE PUSH1 0x20 DUP4 ADD PUSH1 0x20 DUP6 ADD KECCAK256 DUP2 DUP4 MSTORE DUP1 SWAP6 POP POP POP POP POP POP PUSH1 0x0 SWAP2 POP SWAP1 POP DUP1 PUSH1 0x0 ADD DUP1 SLOAD PUSH2 0x1829 SWAP1 PUSH2 0x2E50 JUMP JUMPDEST DUP1 PUSH1 0x1F ADD PUSH1 0x20 DUP1 SWAP2 DIV MUL PUSH1 0x20 ADD PUSH1 0x40 MLOAD SWAP1 DUP2 ADD PUSH1 0x40 MSTORE DUP1 SWAP3 SWAP2 SWAP1 DUP2 DUP2 MSTORE PUSH1 0x20 ADD DUP3 DUP1 SLOAD PUSH2 0x1855 SWAP1 PUSH2 0x2E50 JUMP JUMPDEST DUP1 ISZERO PUSH2 0x18A2 JUMPI DUP1 PUSH1 0x1F LT PUSH2 0x1877 JUMPI PUSH2 0x100 DUP1 DUP4 SLOAD DIV MUL DUP4 MSTORE SWAP2 PUSH1 0x20 ADD SWAP2 PUSH2 0x18A2 JUMP JUMPDEST DUP3 ADD SWAP2 SWAP1 PUSH1 0x0 MSTORE PUSH1 0x20 PUSH1 0x0 KECCAK256 SWAP1 JUMPDEST DUP2 SLOAD DUP2 MSTORE SWAP1 PUSH1 0x1 ADD SWAP1 PUSH1 0x20 ADD DUP1 DUP4 GT PUSH2 0x1885 JUMPI DUP3 SWAP1 SUB PUSH1 0x1F AND DUP3 ADD SWAP2 JUMPDEST POP POP POP POP POP SWAP1 DUP1 PUSH1 0x1 ADD DUP1 SLOAD PUSH2 0x18B7 SWAP1 PUSH2 0x2E50 JUMP JUMPDEST DUP1 PUSH1 0x1F ADD PUSH1 0x20 DUP1 SWAP2 DIV MUL PUSH1 0x20 ADD PUSH1 0x40 MLOAD SWAP1 DUP2 ADD PUSH1 0x40 MSTORE DUP1 SWAP3 SWAP2 SWAP1 DUP2 DUP2 MSTORE PUSH1 0x20 ADD DUP3 DUP1 SLOAD PUSH2 0x18E3 SWAP1 PUSH2 0x2E50 JUMP JUMPDEST DUP1 ISZERO PUSH2 0x1930 JUMPI DUP1 PUSH1 0x1F LT PUSH2 0x1905 JUMPI PUSH2 0x100 DUP1 DUP4 SLOAD DIV MUL DUP4 MSTORE SWAP2 PUSH1 0x20 ADD SWAP2 PUSH2 0x1930 JUMP JUMPDEST DUP3 ADD SWAP2 SWAP1 PUSH1 0x0 MSTORE PUSH1 0x20 PUSH1 0x0 KECCAK256 SWAP1 JUMPDEST DUP2 SLOAD DUP2 MSTORE SWAP1 PUSH1 0x1 ADD SWAP1 PUSH1 0x20 ADD DUP1 DUP4 GT PUSH2 0x1913 JUMPI DUP3 SWAP1 SUB PUSH1 0x1F AND DUP3 ADD SWAP2 JUMPDEST POP POP POP POP POP SWAP1 DUP1 PUSH1 0x2 ADD DUP1 SLOAD PUSH2 0x1945 SWAP1 PUSH2 0x2E50 JUMP JUMPDEST DUP1 PUSH1 0x1F ADD PUSH1 0x20 DUP1 SWAP2 DIV MUL PUSH1 0x20 ADD PUSH1 0x40 MLOAD SWAP1 DUP2 ADD PUSH1 0x40 MSTORE DUP1 SWAP3 SWAP2 SWAP1 DUP2 DUP2 MSTORE PUSH1 0x20 ADD DUP3 DUP1 SLOAD PUSH2 0x1971 SWAP1 PUSH2 0x2E50 JUMP JUMPDEST DUP1 ISZERO PUSH2 0x19BE JUMPI DUP1 PUSH1 0x1F LT PUSH2 0x1993 JUMPI PUSH2 0x100 DUP1 DUP4 SLOAD DIV MUL DUP4 MSTORE SWAP2 PUSH1 0x20 ADD SWAP2 PUSH2 0x19BE JUMP JUMPDEST DUP3 ADD SWAP2 SWAP1 PUSH1 0x0 MSTORE PUSH1 0x20 PUSH1 0x0 KECCAK256 SWAP1 JUMPDEST DUP2 SLOAD DUP2 MSTORE SWAP1 PUSH1 0x1 ADD SWAP1 PUSH1 0x20 ADD DUP1 DUP4 GT PUSH2 0x19A1 JUMPI DUP3 SWAP1 SUB PUSH1 0x1F AND DUP3 ADD SWAP2 JUMPDEST POP POP POP POP POP SWAP1 DUP1 PUSH1 0x3 ADD DUP1 SLOAD PUSH2 0x19D3 SWAP1 PUSH2 0x2E50 JUMP JUMPDEST DUP1 PUSH1 0x1F ADD PUSH1 0x20 DUP1 SWAP2 DIV MUL PUSH1 0x20 ADD PUSH1 0x40 MLOAD SWAP1 DUP2 ADD PUSH1 0x40 MSTORE DUP1 SWAP3 SWAP2 SWAP1 DUP2 DUP2 MSTORE PUSH1 0x20 ADD DUP3 DUP1 SLOAD PUSH2 0x19FF SWAP1 PUSH2 0x2E50 JUMP JUMPDEST DUP1 ISZERO PUSH2 0x1A4C JUMPI DUP1 PUSH1 0x1F LT PUSH2 0x1A21 JUMPI PUSH2 0x100 DUP1 DUP4 SLOAD DIV MUL DUP4 MSTORE SWAP2 PUSH1 0x20 ADD SWAP2 PUSH2 0x1A4C JUMP JUMPDEST DUP3 ADD SWAP2 SWAP1 PUSH1 0x0 MSTORE PUSH1 0x20 PUSH1 0x0 KECCAK256 SWAP1 JUMPDEST DUP2 SLOAD DUP2 MSTORE SWAP1 PUSH1 0x1 ADD SWAP1 PUSH1 0x20 ADD DUP1 DUP4 GT PUSH2 0x1A2F JUMPI DUP3 SWAP1 SUB PUSH1 0x1F AND DUP3 ADD SWAP2 JUMPDEST POP POP POP POP POP SWAP1 DUP1 PUSH1 0x4 ADD SLOAD SWAP1 DUP1 PUSH1 0x5 ADD DUP1 SLOAD PUSH2 0x1A67 SWAP1 PUSH2 0x2E50 JUMP JUMPDEST DUP1 PUSH1 0x1F ADD PUSH1 0x20 DUP1 SWAP2 DIV MUL PUSH1 0x20 ADD PUSH1 0x40 MLOAD SWAP1 DUP2 ADD PUSH1 0x40 MSTORE DUP1 SWAP3 SWAP2 SWAP1 DUP2 DUP2 MSTORE PUSH1 0x20 ADD DUP3 DUP1 SLOAD PUSH2 0x1A93 SWAP1 PUSH2 0x2E50 JUMP JUMPDEST DUP1 ISZERO PUSH2 0x1AE0 JUMPI DUP1 PUSH1 0x1F LT PUSH2 0x1AB5 JUMPI PUSH2 0x100 DUP1 DUP4 SLOAD DIV MUL DUP4 MSTORE SWAP2 PUSH1 0x20 ADD SWAP2 PUSH2 0x1AE0 JUMP JUMPDEST DUP3 ADD SWAP2 SWAP1 PUSH1 0x0 MSTORE PUSH1 0x20 PUSH1 0x0 KECCAK256 SWAP1 JUMPDEST DUP2 SLOAD DUP2 MSTORE SWAP1 PUSH1 0x1 ADD SWAP1 PUSH1 0x20 ADD DUP1 DUP4 GT PUSH2 0x1AC3 JUMPI DUP3 SWAP1 SUB PUSH1 0x1F AND DUP3 ADD SWAP2 JUMPDEST POP POP POP POP POP SWAP1 DUP1 PUSH1 0x6 ADD DUP1 SLOAD PUSH2 0x1AF5 SWAP1 PUSH2 0x2E50 JUMP JUMPDEST DUP1 PUSH1 0x1F ADD PUSH1 0x20 DUP1 SWAP2 DIV MUL PUSH1 0x20 ADD PUSH1 0x40 MLOAD SWAP1 DUP2 ADD PUSH1 0x40 MSTORE DUP1 SWAP3 SWAP2 SWAP1 DUP2 DUP2 MSTORE PUSH1 0x20 ADD DUP3 DUP1 SLOAD PUSH2 0x1B21 SWAP1 PUSH2 0x2E50 JUMP JUMPDEST DUP1 ISZERO PUSH2 0x1B6E JUMPI DUP1 PUSH1 0x1F LT PUSH2 0x1B43 JUMPI PUSH2 0x100 DUP1 DUP4 SLOAD DIV MUL DUP4 MSTORE SWAP2 PUSH1 0x20 ADD SWAP2 PUSH2 0x1B6E JUMP JUMPDEST DUP3 ADD SWAP2 SWAP1 PUSH1 0x0 MSTORE PUSH1 0x20 PUSH1 0x0 KECCAK256 SWAP1 JUMPDEST DUP2 SLOAD DUP2 MSTORE SWAP1 PUSH1 0x1 ADD SWAP1 PUSH1 0x20 ADD DUP1 DUP4 GT PUSH2 0x1B51 JUMPI DUP3 SWAP1 SUB PUSH1 0x1F AND DUP3 ADD SWAP2 JUMPDEST POP POP POP POP POP SWAP1 DUP1 PUSH1 0x7 ADD PUSH1 0x0 SWAP1 SLOAD SWAP1 PUSH2 0x100 EXP SWAP1 DIV PUSH20 0xFFFFFFFFFFFFFFFFFFFFFFFFFFFFFFFFFFFFFFFF AND SWAP1 DUP1 PUSH1 0x8 ADD PUSH1 0x0 SWAP1 SLOAD SWAP1 PUSH2 0x100 EXP SWAP1 DIV PUSH20 0xFFFFFFFFFFFFFFFFFFFFFFFFFFFFFFFFFFFFFFFF AND SWAP1 DUP1 PUSH1 0x9 ADD SLOAD SWAP1 DUP1 PUSH1 0xA ADD DUP1 SLOAD PUSH2 0x1BD5 SWAP1 PUSH2 0x2E50 JUMP JUMPDEST DUP1 PUSH1 0x1F ADD PUSH1 0x20 DUP1 SWAP2 DIV MUL PUSH1 0x20 ADD PUSH1 0x40 MLOAD SWAP1 DUP2 ADD PUSH1 0x40 MSTORE DUP1 SWAP3 SWAP2 SWAP1 DUP2 DUP2 MSTORE PUSH1 0x20 ADD DUP3 DUP1 SLOAD PUSH2 0x1C01 SWAP1 PUSH2 0x2E50 JUMP JUMPDEST DUP1 ISZERO PUSH2 0x1C4E JUMPI DUP1 PUSH1 0x1F LT PUSH2 0x1C23 JUMPI PUSH2 0x100 DUP1 DUP4 SLOAD DIV MUL DUP4 MSTORE SWAP2 PUSH1 0x20 ADD SWAP2 PUSH2 0x1C4E JUMP JUMPDEST DUP3 ADD SWAP2 SWAP1 PUSH1 0x0 MSTORE PUSH1 0x20 PUSH1 0x0 KECCAK256 SWAP1 JUMPDEST DUP2 SLOAD DUP2 MSTORE SWAP1 PUSH1 0x1 ADD SWAP1 PUSH1 0x20 ADD DUP1 DUP4 GT PUSH2 0x1C31 JUMPI DUP3 SWAP1 SUB PUSH1 0x1F AND DUP3 ADD SWAP2 JUMPDEST POP POP POP POP POP SWAP1 POP DUP12 JUMP JUMPDEST PUSH1 0x0 PUSH1 0xA DUP5 PUSH1 0x40 MLOAD PUSH2 0x1C6A SWAP2 SWAP1 PUSH2 0x2EBD JUMP JUMPDEST SWAP1 DUP2 MSTORE PUSH1 0x20 ADD PUSH1 0x40 MLOAD DUP1 SWAP2 SUB SWAP1 KECCAK256 SWAP1 POP CALLER DUP2 PUSH1 0x8 ADD PUSH1 0x0 PUSH2 0x100 EXP DUP2 SLOAD DUP2 PUSH20 0xFFFFFFFFFFFFFFFFFFFFFFFFFFFFFFFFFFFFFFFF MUL NOT AND SWAP1 DUP4 PUSH20 0xFFFFFFFFFFFFFFFFFFFFFFFFFFFFFFFFFFFFFFFF AND MUL OR SWAP1 SSTORE POP DUP3 DUP2 PUSH1 0x6 ADD SWAP1 DUP2 PUSH2 0x1CCE SWAP2 SWAP1 PUSH2 0x3080 JUMP JUMPDEST POP DUP2 DUP2 PUSH1 0x5 ADD SWAP1 DUP2 PUSH2 0x1CE0 SWAP2 SWAP1 PUSH2 0x3080 JUMP JUMPDEST POP PUSH1 0x40 MLOAD DUP1 PUSH1 0x40 ADD PUSH1 0x40 MSTORE DUP1 PUSH1 0x8 DUP2 MSTORE PUSH1 0x20 ADD PUSH32 0x617070726F766564000000000000000000000000000000000000000000000000 DUP2 MSTORE POP DUP2 PUSH1 0xA ADD SWAP1 DUP2 PUSH2 0x1D27 SWAP2 SWAP1 PUSH2 0x3080 JUMP JUMPDEST POP POP POP POP POP JUMP JUMPDEST PUSH1 0x0 PUSH1 0x8 DUP4 PUSH1 0x40 MLOAD PUSH2 0x1D40 SWAP2 SWAP1 PUSH2 0x2EBD JUMP JUMPDEST SWAP1 DUP2 MSTORE PUSH1 0x20 ADD PUSH1 0x40 MLOAD DUP1 SWAP2 SUB SWAP1 KECCAK256 SWAP1 POP PUSH1 0x5 PUSH1 0x0 DUP2 SLOAD DUP1 SWAP3 SWAP2 SWAP1 PUSH2 0x1D63 SWAP1 PUSH2 0x327F JUMP JUMPDEST SWAP2 SWAP1 POP SSTORE DUP2 PUSH1 0x0 ADD DUP2 SWAP1 SSTORE POP DUP3 DUP2 PUSH1 0x1 ADD SWAP1 DUP2 PUSH2 0x1D80 SWAP2 SWAP1 PUSH2 0x3080 JUMP JUMPDEST POP DUP2 DUP2 PUSH1 0x2 ADD SWAP1 DUP2 PUSH2 0x1D92 SWAP2 SWAP1 PUSH2 0x3080 JUMP JUMPDEST POP PUSH1 0x6 DUP2 SWAP1 DUP1 PUSH1 0x1 DUP2 SLOAD ADD DUP1 DUP3 SSTORE DUP1 SWAP2 POP POP PUSH1 0x1 SWAP1 SUB SWAP1 PUSH1 0x0 MSTORE PUSH1 0x20 PUSH1 0x0 KECCAK256 SWAP1 PUSH1 0x3 MUL ADD PUSH1 0x0 SWAP1 SWAP2 SWAP1 SWAP2 SWAP1 SWAP2 POP PUSH1 0x0 DUP3 ADD SLOAD DUP2 PUSH1 0x0 ADD SSTORE PUSH1 0x1 DUP3 ADD DUP2 PUSH1 0x1 ADD SWAP1 DUP2 PUSH2 0x1DDD SWAP2 SWAP1 PUSH2 0x3168 JUMP JUMPDEST POP PUSH1 0x2 DUP3 ADD DUP2 PUSH1 0x2 ADD SWAP1 DUP2 PUSH2 0x1DF2 SWAP2 SWAP1 PUSH2 0x3168 JUMP JUMPDEST POP POP POP POP POP POP JUMP JUMPDEST PUSH1 0x6 DUP2 DUP2 SLOAD DUP2 LT PUSH2 0x1E0A JUMPI PUSH1 0x0 DUP1 REVERT JUMPDEST SWAP1 PUSH1 0x0 MSTORE PUSH1 0x20 PUSH1 0x0 KECCAK256 SWAP1 PUSH1 0x3 MUL ADD PUSH1 0x0 SWAP2 POP SWAP1 POP DUP1 PUSH1 0x0 ADD SLOAD SWAP1 DUP1 PUSH1 0x1 ADD DUP1 SLOAD PUSH2 0x1E33 SWAP1 PUSH2 0x2E50 JUMP JUMPDEST DUP1 PUSH1 0x1F ADD PUSH1 0x20 DUP1 SWAP2 DIV MUL PUSH1 0x20 ADD PUSH1 0x40 MLOAD SWAP1 DUP2 ADD PUSH1 0x40 MSTORE DUP1 SWAP3 SWAP2 SWAP1 DUP2 DUP2 MSTORE PUSH1 0x20 ADD DUP3 DUP1 SLOAD PUSH2 0x1E5F SWAP1 PUSH2 0x2E50 JUMP JUMPDEST DUP1 ISZERO PUSH2 0x1EAC JUMPI DUP1 PUSH1 0x1F LT PUSH2 0x1E81 JUMPI PUSH2 0x100 DUP1 DUP4 SLOAD DIV MUL DUP4 MSTORE SWAP2 PUSH1 0x20 ADD SWAP2 PUSH2 0x1EAC JUMP JUMPDEST DUP3 ADD SWAP2 SWAP1 PUSH1 0x0 MSTORE PUSH1 0x20 PUSH1 0x0 KECCAK256 SWAP1 JUMPDEST DUP2 SLOAD DUP2 MSTORE SWAP1 PUSH1 0x1 ADD SWAP1 PUSH1 0x20 ADD DUP1 DUP4 GT PUSH2 0x1E8F JUMPI DUP3 SWAP1 SUB PUSH1 0x1F AND DUP3 ADD SWAP2 JUMPDEST POP POP POP POP POP SWAP1 DUP1 PUSH1 0x2 ADD DUP1 SLOAD PUSH2 0x1EC1 SWAP1 PUSH2 0x2E50 JUMP JUMPDEST DUP1 PUSH1 0x1F ADD PUSH1 0x20 DUP1 SWAP2 DIV MUL PUSH1 0x20 ADD PUSH1 0x40 MLOAD SWAP1 DUP2 ADD PUSH1 0x40 MSTORE DUP1 SWAP3 SWAP2 SWAP1 DUP2 DUP2 MSTORE PUSH1 0x20 ADD DUP3 DUP1 SLOAD PUSH2 0x1EED SWAP1 PUSH2 0x2E50 JUMP JUMPDEST DUP1 ISZERO PUSH2 0x1F3A JUMPI DUP1 PUSH1 0x1F LT PUSH2 0x1F0F JUMPI PUSH2 0x100 DUP1 DUP4 SLOAD DIV MUL DUP4 MSTORE SWAP2 PUSH1 0x20 ADD SWAP2 PUSH2 0x1F3A JUMP JUMPDEST DUP3 ADD SWAP2 SWAP1 PUSH1 0x0 MSTORE PUSH1 0x20 PUSH1 0x0 KECCAK256 SWAP1 JUMPDEST DUP2 SLOAD DUP2 MSTORE SWAP1 PUSH1 0x1 ADD SWAP1 PUSH1 0x20 ADD DUP1 DUP4 GT PUSH2 0x1F1D JUMPI DUP3 SWAP1 SUB PUSH1 0x1F AND DUP3 ADD SWAP2 JUMPDEST POP POP POP POP POP SWAP1 POP DUP4 JUMP JUMPDEST PUSH1 0x60 PUSH1 0x6 DUP1 SLOAD DUP1 PUSH1 0x20 MUL PUSH1 0x20 ADD PUSH1 0x40 MLOAD SWAP1 DUP2 ADD PUSH1 0x40 MSTORE DUP1 SWAP3 SWAP2 SWAP1 DUP2 DUP2 MSTORE PUSH1 0x20 ADD PUSH1 0x0 SWAP1 JUMPDEST DUP3 DUP3 LT ISZERO PUSH2 0x20C8 JUMPI DUP4 DUP3 SWAP1 PUSH1 0x0 MSTORE PUSH1 0x20 PUSH1 0x0 KECCAK256 SWAP1 PUSH1 0x3 MUL ADD PUSH1 0x40 MLOAD DUP1 PUSH1 0x60 ADD PUSH1 0x40 MSTORE SWAP1 DUP2 PUSH1 0x0 DUP3 ADD SLOAD DUP2 MSTORE PUSH1 0x20 ADD PUSH1 0x1 DUP3 ADD DUP1 SLOAD PUSH2 0x1FA5 SWAP1 PUSH2 0x2E50 JUMP JUMPDEST DUP1 PUSH1 0x1F ADD PUSH1 0x20 DUP1 SWAP2 DIV MUL PUSH1 0x20 ADD PUSH1 0x40 MLOAD SWAP1 DUP2 ADD PUSH1 0x40 MSTORE DUP1 SWAP3 SWAP2 SWAP1 DUP2 DUP2 MSTORE PUSH1 0x20 ADD DUP3 DUP1 SLOAD PUSH2 0x1FD1 SWAP1 PUSH2 0x2E50 JUMP JUMPDEST DUP1 ISZERO PUSH2 0x201E JUMPI DUP1 PUSH1 0x1F LT PUSH2 0x1FF3 JUMPI PUSH2 0x100 DUP1 DUP4 SLOAD DIV MUL DUP4 MSTORE SWAP2 PUSH1 0x20 ADD SWAP2 PUSH2 0x201E JUMP JUMPDEST DUP3 ADD SWAP2 SWAP1 PUSH1 0x0 MSTORE PUSH1 0x20 PUSH1 0x0 KECCAK256 SWAP1 JUMPDEST DUP2 SLOAD DUP2 MSTORE SWAP1 PUSH1 0x1 ADD SWAP1 PUSH1 0x20 ADD DUP1 DUP4 GT PUSH2 0x2001 JUMPI DUP3 SWAP1 SUB PUSH1 0x1F AND DUP3 ADD SWAP2 JUMPDEST POP POP POP POP POP DUP2 MSTORE PUSH1 0x20 ADD PUSH1 0x2 DUP3 ADD DUP1 SLOAD PUSH2 0x2037 SWAP1 PUSH2 0x2E50 JUMP JUMPDEST DUP1 PUSH1 0x1F ADD PUSH1 0x20 DUP1 SWAP2 DIV MUL PUSH1 0x20 ADD PUSH1 0x40 MLOAD SWAP1 DUP2 ADD PUSH1 0x40 MSTORE DUP1 SWAP3 SWAP2 SWAP1 DUP2 DUP2 MSTORE PUSH1 0x20 ADD DUP3 DUP1 SLOAD PUSH2 0x2063 SWAP1 PUSH2 0x2E50 JUMP JUMPDEST DUP1 ISZERO PUSH2 0x20B0 JUMPI DUP1 PUSH1 0x1F LT PUSH2 0x2085 JUMPI PUSH2 0x100 DUP1 DUP4 SLOAD DIV MUL DUP4 MSTORE SWAP2 PUSH1 0x20 ADD SWAP2 PUSH2 0x20B0 JUMP JUMPDEST DUP3 ADD SWAP2 SWAP1 PUSH1 0x0 MSTORE PUSH1 0x20 PUSH1 0x0 KECCAK256 SWAP1 JUMPDEST DUP2 SLOAD DUP2 MSTORE SWAP1 PUSH1 0x1 ADD SWAP1 PUSH1 0x20 ADD DUP1 DUP4 GT PUSH2 0x2093 JUMPI DUP3 SWAP1 SUB PUSH1 0x1F AND DUP3 ADD SWAP2 JUMPDEST POP POP POP POP POP DUP2 MSTORE POP POP DUP2 MSTORE PUSH1 0x20 ADD SWAP1 PUSH1 0x1 ADD SWAP1 PUSH2 0x1F68 JUMP JUMPDEST POP POP POP POP SWAP1 POP SWAP1 JUMP JUMPDEST PUSH1 0x0 PUSH1 0xA DUP5 PUSH1 0x40 MLOAD PUSH2 0x20E3 SWAP2 SWAP1 PUSH2 0x2EBD JUMP JUMPDEST SWAP1 DUP2 MSTORE PUSH1 0x20 ADD PUSH1 0x40 MLOAD DUP1 SWAP2 SUB SWAP1 KECCAK256 SWAP1 POP DUP3 DUP2 PUSH1 0x6 ADD SWAP1 DUP2 PUSH2 0x2104 SWAP2 SWAP1 PUSH2 0x3080 JUMP JUMPDEST POP CALLER DUP2 PUSH1 0x8 ADD PUSH1 0x0 PUSH2 0x100 EXP DUP2 SLOAD DUP2 PUSH20 0xFFFFFFFFFFFFFFFFFFFFFFFFFFFFFFFFFFFFFFFF MUL NOT AND SWAP1 DUP4 PUSH20 0xFFFFFFFFFFFFFFFFFFFFFFFFFFFFFFFFFFFFFFFF AND MUL OR SWAP1 SSTORE POP DUP2 DUP2 PUSH1 0x5 ADD SWAP1 DUP2 PUSH2 0x2159 SWAP2 SWAP1 PUSH2 0x3080 JUMP JUMPDEST POP PUSH1 0x40 MLOAD DUP1 PUSH1 0x40 ADD PUSH1 0x40 MSTORE DUP1 PUSH1 0x8 DUP2 MSTORE PUSH1 0x20 ADD PUSH32 0x77726974656F6666000000000000000000000000000000000000000000000000 DUP2 MSTORE POP DUP2 PUSH1 0xA ADD SWAP1 DUP2 PUSH2 0x21A0 SWAP2 SWAP1 PUSH2 0x3080 JUMP JUMPDEST POP POP POP POP POP JUMP JUMPDEST PUSH1 0x0 PUSH20 0xFFFFFFFFFFFFFFFFFFFFFFFFFFFFFFFFFFFFFFFF DUP3 AND SWAP1 POP SWAP2 SWAP1 POP JUMP JUMPDEST PUSH1 0x0 PUSH2 0x21D2 DUP3 PUSH2 0x21A7 JUMP JUMPDEST SWAP1 POP SWAP2 SWAP1 POP JUMP JUMPDEST PUSH2 0x21E2 DUP2 PUSH2 0x21C7 JUMP JUMPDEST DUP3 MSTORE POP POP JUMP JUMPDEST PUSH1 0x0 PUSH1 0x20 DUP3 ADD SWAP1 POP PUSH2 0x21FD PUSH1 0x0 DUP4 ADD DUP5 PUSH2 0x21D9 JUMP JUMPDEST SWAP3 SWAP2 POP POP JUMP JUMPDEST PUSH1 0x0 PUSH1 0x40 MLOAD SWAP1 POP SWAP1 JUMP JUMPDEST PUSH1 0x0 DUP1 REVERT JUMPDEST PUSH1 0x0 DUP1 REVERT JUMPDEST PUSH1 0x0 DUP2 SWAP1 POP SWAP2 SWAP1 POP JUMP JUMPDEST PUSH2 0x222A DUP2 PUSH2 0x2217 JUMP JUMPDEST DUP2 EQ PUSH2 0x2235 JUMPI PUSH1 0x0 DUP1 REVERT JUMPDEST POP JUMP JUMPDEST PUSH1 0x0 DUP2 CALLDATALOAD SWAP1 POP PUSH2 0x2247 DUP2 PUSH2 0x2221 JUMP JUMPDEST SWAP3 SWAP2 POP POP JUMP JUMPDEST PUSH1 0x0 PUSH1 0x20 DUP3 DUP5 SUB SLT ISZERO PUSH2 0x2263 JUMPI PUSH2 0x2262 PUSH2 0x220D JUMP JUMPDEST JUMPDEST PUSH1 0x0 PUSH2 0x2271 DUP5 DUP3 DUP6 ADD PUSH2 0x2238 JUMP JUMPDEST SWAP2 POP POP SWAP3 SWAP2 POP POP JUMP JUMPDEST PUSH1 0x0 DUP2 MLOAD SWAP1 POP SWAP2 SWAP1 POP JUMP JUMPDEST PUSH1 0x0 DUP3 DUP3 MSTORE PUSH1 0x20 DUP3 ADD SWAP1 POP SWAP3 SWAP2 POP POP JUMP JUMPDEST PUSH1 0x0 JUMPDEST DUP4 DUP2 LT ISZERO PUSH2 0x22B4 JUMPI DUP1 DUP3 ADD MLOAD DUP2 DUP5 ADD MSTORE PUSH1 0x20 DUP2 ADD SWAP1 POP PUSH2 0x2299 JUMP JUMPDEST PUSH1 0x0 DUP5 DUP5 ADD MSTORE POP POP POP POP JUMP JUMPDEST PUSH1 0x0 PUSH1 0x1F NOT PUSH1 0x1F DUP4 ADD AND SWAP1 POP SWAP2 SWAP1 POP JUMP JUMPDEST PUSH1 0x0 PUSH2 0x22DC DUP3 PUSH2 0x227A JUMP JUMPDEST PUSH2 0x22E6 DUP2 DUP6 PUSH2 0x2285 JUMP JUMPDEST SWAP4 POP PUSH2 0x22F6 DUP2 DUP6 PUSH1 0x20 DUP7 ADD PUSH2 0x2296 JUMP JUMPDEST PUSH2 0x22FF DUP2 PUSH2 0x22C0 JUMP JUMPDEST DUP5 ADD SWAP2 POP POP SWAP3 SWAP2 POP POP JUMP JUMPDEST PUSH2 0x2313 DUP2 PUSH2 0x2217 JUMP JUMPDEST DUP3 MSTORE POP POP JUMP JUMPDEST PUSH1 0x0 PUSH2 0x160 DUP3 ADD SWAP1 POP DUP2 DUP2 SUB PUSH1 0x0 DUP4 ADD MSTORE PUSH2 0x2334 DUP2 DUP15 PUSH2 0x22D1 JUMP JUMPDEST SWAP1 POP DUP2 DUP2 SUB PUSH1 0x20 DUP4 ADD MSTORE PUSH2 0x2348 DUP2 DUP14 PUSH2 0x22D1 JUMP JUMPDEST SWAP1 POP DUP2 DUP2 SUB PUSH1 0x40 DUP4 ADD MSTORE PUSH2 0x235C DUP2 DUP13 PUSH2 0x22D1 JUMP JUMPDEST SWAP1 POP DUP2 DUP2 SUB PUSH1 0x60 DUP4 ADD MSTORE PUSH2 0x2370 DUP2 DUP12 PUSH2 0x22D1 JUMP JUMPDEST SWAP1 POP PUSH2 0x237F PUSH1 0x80 DUP4 ADD DUP11 PUSH2 0x230A JUMP JUMPDEST DUP2 DUP2 SUB PUSH1 0xA0 DUP4 ADD MSTORE PUSH2 0x2391 DUP2 DUP10 PUSH2 0x22D1 JUMP JUMPDEST SWAP1 POP DUP2 DUP2 SUB PUSH1 0xC0 DUP4 ADD MSTORE PUSH2 0x23A5 DUP2 DUP9 PUSH2 0x22D1 JUMP JUMPDEST SWAP1 POP PUSH2 0x23B4 PUSH1 0xE0 DUP4 ADD DUP8 PUSH2 0x21D9 JUMP JUMPDEST PUSH2 0x23C2 PUSH2 0x100 DUP4 ADD DUP7 PUSH2 0x21D9 JUMP JUMPDEST PUSH2 0x23D0 PUSH2 0x120 DUP4 ADD DUP6 PUSH2 0x230A JUMP JUMPDEST DUP2 DUP2 SUB PUSH2 0x140 DUP4 ADD MSTORE PUSH2 0x23E3 DUP2 DUP5 PUSH2 0x22D1 JUMP JUMPDEST SWAP1 POP SWAP13 SWAP12 POP POP POP POP POP POP POP POP POP POP POP POP JUMP JUMPDEST PUSH1 0x0 DUP1 REVERT JUMPDEST PUSH1 0x0 DUP1 REVERT JUMPDEST PUSH32 0x4E487B7100000000000000000000000000000000000000000000000000000000 PUSH1 0x0 MSTORE PUSH1 0x41 PUSH1 0x4 MSTORE PUSH1 0x24 PUSH1 0x0 REVERT JUMPDEST PUSH2 0x2437 DUP3 PUSH2 0x22C0 JUMP JUMPDEST DUP2 ADD DUP2 DUP2 LT PUSH8 0xFFFFFFFFFFFFFFFF DUP3 GT OR ISZERO PUSH2 0x2456 JUMPI PUSH2 0x2455 PUSH2 0x23FF JUMP JUMPDEST JUMPDEST DUP1 PUSH1 0x40 MSTORE POP POP POP JUMP JUMPDEST PUSH1 0x0 PUSH2 0x2469 PUSH2 0x2203 JUMP JUMPDEST SWAP1 POP PUSH2 0x2475 DUP3 DUP3 PUSH2 0x242E JUMP JUMPDEST SWAP2 SWAP1 POP JUMP JUMPDEST PUSH1 0x0 PUSH8 0xFFFFFFFFFFFFFFFF DUP3 GT ISZERO PUSH2 0x2495 JUMPI PUSH2 0x2494 PUSH2 0x23FF JUMP JUMPDEST JUMPDEST PUSH2 0x249E DUP3 PUSH2 0x22C0 JUMP JUMPDEST SWAP1 POP PUSH1 0x20 DUP2 ADD SWAP1 POP SWAP2 SWAP1 POP JUMP JUMPDEST DUP3 DUP2 DUP4 CALLDATACOPY PUSH1 0x0 DUP4 DUP4 ADD MSTORE POP POP POP JUMP JUMPDEST PUSH1 0x0 PUSH2 0x24CD PUSH2 0x24C8 DUP5 PUSH2 0x247A JUMP JUMPDEST PUSH2 0x245F JUMP JUMPDEST SWAP1 POP DUP3 DUP2 MSTORE PUSH1 0x20 DUP2 ADD DUP5 DUP5 DUP5 ADD GT ISZERO PUSH2 0x24E9 JUMPI PUSH2 0x24E8 PUSH2 0x23FA JUMP JUMPDEST JUMPDEST PUSH2 0x24F4 DUP5 DUP3 DUP6 PUSH2 0x24AB JUMP JUMPDEST POP SWAP4 SWAP3 POP POP POP JUMP JUMPDEST PUSH1 0x0 DUP3 PUSH1 0x1F DUP4 ADD SLT PUSH2 0x2511 JUMPI PUSH2 0x2510 PUSH2 0x23F5 JUMP JUMPDEST JUMPDEST DUP2 CALLDATALOAD PUSH2 0x2521 DUP5 DUP3 PUSH1 0x20 DUP7 ADD PUSH2 0x24BA JUMP JUMPDEST SWAP2 POP POP SWAP3 SWAP2 POP POP JUMP JUMPDEST PUSH1 0x0 DUP1 PUSH1 0x0 PUSH1 0x60 DUP5 DUP7 SUB SLT ISZERO PUSH2 0x2543 JUMPI PUSH2 0x2542 PUSH2 0x220D JUMP JUMPDEST JUMPDEST PUSH1 0x0 DUP5 ADD CALLDATALOAD PUSH8 0xFFFFFFFFFFFFFFFF DUP2 GT ISZERO PUSH2 0x2561 JUMPI PUSH2 0x2560 PUSH2 0x2212 JUMP JUMPDEST JUMPDEST PUSH2 0x256D DUP7 DUP3 DUP8 ADD PUSH2 0x24FC JUMP JUMPDEST SWAP4 POP POP PUSH1 0x20 DUP5 ADD CALLDATALOAD PUSH8 0xFFFFFFFFFFFFFFFF DUP2 GT ISZERO PUSH2 0x258E JUMPI PUSH2 0x258D PUSH2 0x2212 JUMP JUMPDEST JUMPDEST PUSH2 0x259A DUP7 DUP3 DUP8 ADD PUSH2 0x24FC JUMP JUMPDEST SWAP3 POP POP PUSH1 0x40 DUP5 ADD CALLDATALOAD PUSH8 0xFFFFFFFFFFFFFFFF DUP2 GT ISZERO PUSH2 0x25BB JUMPI PUSH2 0x25BA PUSH2 0x2212 JUMP JUMPDEST JUMPDEST PUSH2 0x25C7 DUP7 DUP3 DUP8 ADD PUSH2 0x24FC JUMP JUMPDEST SWAP2 POP POP SWAP3 POP SWAP3 POP SWAP3 JUMP JUMPDEST PUSH1 0x0 PUSH1 0x20 DUP3 DUP5 SUB SLT ISZERO PUSH2 0x25E7 JUMPI PUSH2 0x25E6 PUSH2 0x220D JUMP JUMPDEST JUMPDEST PUSH1 0x0 DUP3 ADD CALLDATALOAD PUSH8 0xFFFFFFFFFFFFFFFF DUP2 GT ISZERO PUSH2 0x2605 JUMPI PUSH2 0x2604 PUSH2 0x2212 JUMP JUMPDEST JUMPDEST PUSH2 0x2611 DUP5 DUP3 DUP6 ADD PUSH2 0x24FC JUMP JUMPDEST SWAP2 POP POP SWAP3 SWAP2 POP POP JUMP JUMPDEST PUSH1 0x0 PUSH1 0x60 DUP3 ADD SWAP1 POP PUSH2 0x262F PUSH1 0x0 DUP4 ADD DUP7 PUSH2 0x230A JUMP JUMPDEST DUP2 DUP2 SUB PUSH1 0x20 DUP4 ADD MSTORE PUSH2 0x2641 DUP2 DUP6 PUSH2 0x22D1 JUMP JUMPDEST SWAP1 POP DUP2 DUP2 SUB PUSH1 0x40 DUP4 ADD MSTORE PUSH2 0x2655 DUP2 DUP5 PUSH2 0x22D1 JUMP JUMPDEST SWAP1 POP SWAP5 SWAP4 POP POP POP POP JUMP JUMPDEST PUSH1 0x0 DUP2 MLOAD SWAP1 POP SWAP2 SWAP1 POP JUMP JUMPDEST PUSH1 0x0 DUP3 DUP3 MSTORE PUSH1 0x20 DUP3 ADD SWAP1 POP SWAP3 SWAP2 POP POP JUMP JUMPDEST PUSH1 0x0 DUP2 SWAP1 POP PUSH1 0x20 DUP3 ADD SWAP1 POP SWAP2 SWAP1 POP JUMP JUMPDEST PUSH1 0x0 DUP3 DUP3 MSTORE PUSH1 0x20 DUP3 ADD SWAP1 POP SWAP3 SWAP2 POP POP JUMP JUMPDEST PUSH1 0x0 PUSH2 0x26A7 DUP3 PUSH2 0x227A JUMP JUMPDEST PUSH2 0x26B1 DUP2 DUP6 PUSH2 0x268B JUMP JUMPDEST SWAP4 POP PUSH2 0x26C1 DUP2 DUP6 PUSH1 0x20 DUP7 ADD PUSH2 0x2296 JUMP JUMPDEST PUSH2 0x26CA DUP2 PUSH2 0x22C0 JUMP JUMPDEST DUP5 ADD SWAP2 POP POP SWAP3 SWAP2 POP POP JUMP JUMPDEST PUSH2 0x26DE DUP2 PUSH2 0x2217 JUMP JUMPDEST DUP3 MSTORE POP POP JUMP JUMPDEST PUSH2 0x26ED DUP2 PUSH2 0x21C7 JUMP JUMPDEST DUP3 MSTORE POP POP JUMP JUMPDEST PUSH1 0x0 PUSH2 0x160 DUP4 ADD PUSH1 0x0 DUP4 ADD MLOAD DUP5 DUP3 SUB PUSH1 0x0 DUP7 ADD MSTORE PUSH2 0x2711 DUP3 DUP3 PUSH2 0x269C JUMP JUMPDEST SWAP2 POP POP PUSH1 0x20 DUP4 ADD MLOAD DUP5 DUP3 SUB PUSH1 0x20 DUP7 ADD MSTORE PUSH2 0x272B DUP3 DUP3 PUSH2 0x269C JUMP JUMPDEST SWAP2 POP POP PUSH1 0x40 DUP4 ADD MLOAD DUP5 DUP3 SUB PUSH1 0x40 DUP7 ADD MSTORE PUSH2 0x2745 DUP3 DUP3 PUSH2 0x269C JUMP JUMPDEST SWAP2 POP POP PUSH1 0x60 DUP4 ADD MLOAD DUP5 DUP3 SUB PUSH1 0x60 DUP7 ADD MSTORE PUSH2 0x275F DUP3 DUP3 PUSH2 0x269C JUMP JUMPDEST SWAP2 POP POP PUSH1 0x80 DUP4 ADD MLOAD PUSH2 0x2774 PUSH1 0x80 DUP7 ADD DUP3 PUSH2 0x26D5 JUMP JUMPDEST POP PUSH1 0xA0 DUP4 ADD MLOAD DUP5 DUP3 SUB PUSH1 0xA0 DUP7 ADD MSTORE PUSH2 0x278C DUP3 DUP3 PUSH2 0x269C JUMP JUMPDEST SWAP2 POP POP PUSH1 0xC0 DUP4 ADD MLOAD DUP5 DUP3 SUB PUSH1 0xC0 DUP7 ADD MSTORE PUSH2 0x27A6 DUP3 DUP3 PUSH2 0x269C JUMP JUMPDEST SWAP2 POP POP PUSH1 0xE0 DUP4 ADD MLOAD PUSH2 0x27BB PUSH1 0xE0 DUP7 ADD DUP3 PUSH2 0x26E4 JUMP JUMPDEST POP PUSH2 0x100 DUP4 ADD MLOAD PUSH2 0x27D0 PUSH2 0x100 DUP7 ADD DUP3 PUSH2 0x26E4 JUMP JUMPDEST POP PUSH2 0x120 DUP4 ADD MLOAD PUSH2 0x27E5 PUSH2 0x120 DUP7 ADD DUP3 PUSH2 0x26D5 JUMP JUMPDEST POP PUSH2 0x140 DUP4 ADD MLOAD DUP5 DUP3 SUB PUSH2 0x140 DUP7 ADD MSTORE PUSH2 0x27FF DUP3 DUP3 PUSH2 0x269C JUMP JUMPDEST SWAP2 POP POP DUP1 SWAP2 POP POP SWAP3 SWAP2 POP POP JUMP JUMPDEST PUSH1 0x0 PUSH2 0x2818 DUP4 DUP4 PUSH2 0x26F3 JUMP JUMPDEST SWAP1 POP SWAP3 SWAP2 POP POP JUMP JUMPDEST PUSH1 0x0 PUSH1 0x20 DUP3 ADD SWAP1 POP SWAP2 SWAP1 POP JUMP JUMPDEST PUSH1 0x0 PUSH2 0x2838 DUP3 PUSH2 0x265F JUMP JUMPDEST PUSH2 0x2842 DUP2 DUP6 PUSH2 0x266A JUMP JUMPDEST SWAP4 POP DUP4 PUSH1 0x20 DUP3 MUL DUP6 ADD PUSH2 0x2854 DUP6 PUSH2 0x267B JUMP JUMPDEST DUP1 PUSH1 0x0 JUMPDEST DUP6 DUP2 LT ISZERO PUSH2 0x2890 JUMPI DUP5 DUP5 SUB DUP10 MSTORE DUP2 MLOAD PUSH2 0x2871 DUP6 DUP3 PUSH2 0x280C JUMP JUMPDEST SWAP5 POP PUSH2 0x287C DUP4 PUSH2 0x2820 JUMP JUMPDEST SWAP3 POP PUSH1 0x20 DUP11 ADD SWAP10 POP POP PUSH1 0x1 DUP2 ADD SWAP1 POP PUSH2 0x2858 JUMP JUMPDEST POP DUP3 SWAP8 POP DUP8 SWAP6 POP POP POP POP POP POP SWAP3 SWAP2 POP POP JUMP JUMPDEST PUSH1 0x0 PUSH1 0x20 DUP3 ADD SWAP1 POP DUP2 DUP2 SUB PUSH1 0x0 DUP4 ADD MSTORE PUSH2 0x28BC DUP2 DUP5 PUSH2 0x282D JUMP JUMPDEST SWAP1 POP SWAP3 SWAP2 POP POP JUMP JUMPDEST PUSH2 0x28CD DUP2 PUSH2 0x21C7 JUMP JUMPDEST DUP2 EQ PUSH2 0x28D8 JUMPI PUSH1 0x0 DUP1 REVERT JUMPDEST POP JUMP JUMPDEST PUSH1 0x0 DUP2 CALLDATALOAD SWAP1 POP PUSH2 0x28EA DUP2 PUSH2 0x28C4 JUMP JUMPDEST SWAP3 SWAP2 POP POP JUMP JUMPDEST PUSH1 0x0 PUSH1 0x20 DUP3 DUP5 SUB SLT ISZERO PUSH2 0x2906 JUMPI PUSH2 0x2905 PUSH2 0x220D JUMP JUMPDEST JUMPDEST PUSH1 0x0 PUSH2 0x2914 DUP5 DUP3 DUP6 ADD PUSH2 0x28DB JUMP JUMPDEST SWAP2 POP POP SWAP3 SWAP2 POP POP JUMP JUMPDEST PUSH1 0x0 PUSH1 0x80 DUP3 ADD SWAP1 POP DUP2 DUP2 SUB PUSH1 0x0 DUP4 ADD MSTORE PUSH2 0x2937 DUP2 DUP8 PUSH2 0x22D1 JUMP JUMPDEST SWAP1 POP DUP2 DUP2 SUB PUSH1 0x20 DUP4 ADD MSTORE PUSH2 0x294B DUP2 DUP7 PUSH2 0x22D1 JUMP JUMPDEST SWAP1 POP PUSH2 0x295A PUSH1 0x40 DUP4 ADD DUP6 PUSH2 0x21D9 JUMP JUMPDEST PUSH2 0x2967 PUSH1 0x60 DUP4 ADD DUP5 PUSH2 0x230A JUMP JUMPDEST SWAP6 SWAP5 POP POP POP POP POP JUMP JUMPDEST PUSH1 0x0 DUP2 ISZERO ISZERO SWAP1 POP SWAP2 SWAP1 POP JUMP JUMPDEST PUSH2 0x2985 DUP2 PUSH2 0x2970 JUMP JUMPDEST DUP3 MSTORE POP POP JUMP JUMPDEST PUSH1 0x0 PUSH1 0x20 DUP3 ADD SWAP1 POP PUSH2 0x29A0 PUSH1 0x0 DUP4 ADD DUP5 PUSH2 0x297C JUMP JUMPDEST SWAP3 SWAP2 POP POP JUMP JUMPDEST PUSH1 0x0 DUP2 MLOAD SWAP1 POP SWAP2 SWAP1 POP JUMP JUMPDEST PUSH1 0x0 DUP3 DUP3 MSTORE PUSH1 0x20 DUP3 ADD SWAP1 POP SWAP3 SWAP2 POP POP JUMP JUMPDEST PUSH1 0x0 DUP2 SWAP1 POP PUSH1 0x20 DUP3 ADD SWAP1 POP SWAP2 SWAP1 POP JUMP JUMPDEST PUSH1 0x0 PUSH2 0x29DE DUP4 DUP4 PUSH2 0x26E4 JUMP JUMPDEST PUSH1 0x20 DUP4 ADD SWAP1 POP SWAP3 SWAP2 POP POP JUMP JUMPDEST PUSH1 0x0 PUSH1 0x20 DUP3 ADD SWAP1 POP SWAP2 SWAP1 POP JUMP JUMPDEST PUSH1 0x0 PUSH2 0x2A02 DUP3 PUSH2 0x29A6 JUMP JUMPDEST PUSH2 0x2A0C DUP2 DUP6 PUSH2 0x29B1 JUMP JUMPDEST SWAP4 POP PUSH2 0x2A17 DUP4 PUSH2 0x29C2 JUMP JUMPDEST DUP1 PUSH1 0x0 JUMPDEST DUP4 DUP2 LT ISZERO PUSH2 0x2A48 JUMPI DUP2 MLOAD PUSH2 0x2A2F DUP9 DUP3 PUSH2 0x29D2 JUMP JUMPDEST SWAP8 POP PUSH2 0x2A3A DUP4 PUSH2 0x29EA JUMP JUMPDEST SWAP3 POP POP PUSH1 0x1 DUP2 ADD SWAP1 POP PUSH2 0x2A1B JUMP JUMPDEST POP DUP6 SWAP4 POP POP POP POP SWAP3 SWAP2 POP POP JUMP JUMPDEST PUSH1 0x0 PUSH1 0x20 DUP3 ADD SWAP1 POP DUP2 DUP2 SUB PUSH1 0x0 DUP4 ADD MSTORE PUSH2 0x2A6F DUP2 DUP5 PUSH2 0x29F7 JUMP JUMPDEST SWAP1 POP SWAP3 SWAP2 POP POP JUMP JUMPDEST PUSH1 0x0 DUP1 PUSH1 0x0 DUP1 PUSH1 0x0 DUP1 PUSH1 0x0 PUSH1 0xE0 DUP9 DUP11 SUB SLT ISZERO PUSH2 0x2A96 JUMPI PUSH2 0x2A95 PUSH2 0x220D JUMP JUMPDEST JUMPDEST PUSH1 0x0 DUP9 ADD CALLDATALOAD PUSH8 0xFFFFFFFFFFFFFFFF DUP2 GT ISZERO PUSH2 0x2AB4 JUMPI PUSH2 0x2AB3 PUSH2 0x2212 JUMP JUMPDEST JUMPDEST PUSH2 0x2AC0 DUP11 DUP3 DUP12 ADD PUSH2 0x24FC JUMP JUMPDEST SWAP8 POP POP PUSH1 0x20 DUP9 ADD CALLDATALOAD PUSH8 0xFFFFFFFFFFFFFFFF DUP2 GT ISZERO PUSH2 0x2AE1 JUMPI PUSH2 0x2AE0 PUSH2 0x2212 JUMP JUMPDEST JUMPDEST PUSH2 0x2AED DUP11 DUP3 DUP12 ADD PUSH2 0x24FC JUMP JUMPDEST SWAP7 POP POP PUSH1 0x40 PUSH2 0x2AFE DUP11 DUP3 DUP12 ADD PUSH2 0x2238 JUMP JUMPDEST SWAP6 POP POP PUSH1 0x60 DUP9 ADD CALLDATALOAD PUSH8 0xFFFFFFFFFFFFFFFF DUP2 GT ISZERO PUSH2 0x2B1F JUMPI PUSH2 0x2B1E PUSH2 0x2212 JUMP JUMPDEST JUMPDEST PUSH2 0x2B2B DUP11 DUP3 DUP12 ADD PUSH2 0x24FC JUMP JUMPDEST SWAP5 POP POP PUSH1 0x80 DUP9 ADD CALLDATALOAD PUSH8 0xFFFFFFFFFFFFFFFF DUP2 GT ISZERO PUSH2 0x2B4C JUMPI PUSH2 0x2B4B PUSH2 0x2212 JUMP JUMPDEST JUMPDEST PUSH2 0x2B58 DUP11 DUP3 DUP12 ADD PUSH2 0x24FC JUMP JUMPDEST SWAP4 POP POP PUSH1 0xA0 DUP9 ADD CALLDATALOAD PUSH8 0xFFFFFFFFFFFFFFFF DUP2 GT ISZERO PUSH2 0x2B79 JUMPI PUSH2 0x2B78 PUSH2 0x2212 JUMP JUMPDEST JUMPDEST PUSH2 0x2B85 DUP11 DUP3 DUP12 ADD PUSH2 0x24FC JUMP JUMPDEST SWAP3 POP POP PUSH1 0xC0 DUP9 ADD CALLDATALOAD PUSH8 0xFFFFFFFFFFFFFFFF DUP2 GT ISZERO PUSH2 0x2BA6 JUMPI PUSH2 0x2BA5 PUSH2 0x2212 JUMP JUMPDEST JUMPDEST PUSH2 0x2BB2 DUP11 DUP3 DUP12 ADD PUSH2 0x24FC JUMP JUMPDEST SWAP2 POP POP SWAP3 SWAP6 SWAP9 SWAP2 SWAP5 SWAP8 POP SWAP3 SWAP6 POP JUMP JUMPDEST PUSH1 0x0 PUSH1 0x20 DUP3 ADD SWAP1 POP DUP2 DUP2 SUB PUSH1 0x0 DUP4 ADD MSTORE PUSH2 0x2BDB DUP2 DUP5 PUSH2 0x22D1 JUMP JUMPDEST SWAP1 POP SWAP3 SWAP2 POP POP JUMP JUMPDEST PUSH1 0x0 DUP1 PUSH1 0x0 PUSH1 0x60 DUP5 DUP7 SUB SLT ISZERO PUSH2 0x2BFC JUMPI PUSH2 0x2BFB PUSH2 0x220D JUMP JUMPDEST JUMPDEST PUSH1 0x0 DUP5 ADD CALLDATALOAD PUSH8 0xFFFFFFFFFFFFFFFF DUP2 GT ISZERO PUSH2 0x2C1A JUMPI PUSH2 0x2C19 PUSH2 0x2212 JUMP JUMPDEST JUMPDEST PUSH2 0x2C26 DUP7 DUP3 DUP8 ADD PUSH2 0x24FC JUMP JUMPDEST SWAP4 POP POP PUSH1 0x20 PUSH2 0x2C37 DUP7 DUP3 DUP8 ADD PUSH2 0x28DB JUMP JUMPDEST SWAP3 POP POP PUSH1 0x40 DUP5 ADD CALLDATALOAD PUSH8 0xFFFFFFFFFFFFFFFF DUP2 GT ISZERO PUSH2 0x2C58 JUMPI PUSH2 0x2C57 PUSH2 0x2212 JUMP JUMPDEST JUMPDEST PUSH2 0x2C64 DUP7 DUP3 DUP8 ADD PUSH2 0x24FC JUMP JUMPDEST SWAP2 POP POP SWAP3 POP SWAP3 POP SWAP3 JUMP JUMPDEST PUSH1 0x0 DUP1 PUSH1 0x40 DUP4 DUP6 SUB SLT ISZERO PUSH2 0x2C85 JUMPI PUSH2 0x2C84 PUSH2 0x220D JUMP JUMPDEST JUMPDEST PUSH1 0x0 DUP4 ADD CALLDATALOAD PUSH8 0xFFFFFFFFFFFFFFFF DUP2 GT ISZERO PUSH2 0x2CA3 JUMPI PUSH2 0x2CA2 PUSH2 0x2212 JUMP JUMPDEST JUMPDEST PUSH2 0x2CAF DUP6 DUP3 DUP7 ADD PUSH2 0x24FC JUMP JUMPDEST SWAP3 POP POP PUSH1 0x20 DUP4 ADD CALLDATALOAD PUSH8 0xFFFFFFFFFFFFFFFF DUP2 GT ISZERO PUSH2 0x2CD0 JUMPI PUSH2 0x2CCF PUSH2 0x2212 JUMP JUMPDEST JUMPDEST PUSH2 0x2CDC DUP6 DUP3 DUP7 ADD PUSH2 0x24FC JUMP JUMPDEST SWAP2 POP POP SWAP3 POP SWAP3 SWAP1 POP JUMP JUMPDEST PUSH1 0x0 DUP2 MLOAD SWAP1 POP SWAP2 SWAP1 POP JUMP JUMPDEST PUSH1 0x0 DUP3 DUP3 MSTORE PUSH1 0x20 DUP3 ADD SWAP1 POP SWAP3 SWAP2 POP POP JUMP JUMPDEST PUSH1 0x0 DUP2 SWAP1 POP PUSH1 0x20 DUP3 ADD SWAP1 POP SWAP2 SWAP1 POP JUMP JUMPDEST PUSH1 0x0 PUSH1 0x60 DUP4 ADD PUSH1 0x0 DUP4 ADD MLOAD PUSH2 0x2D2A PUSH1 0x0 DUP7 ADD DUP3 PUSH2 0x26D5 JUMP JUMPDEST POP PUSH1 0x20 DUP4 ADD MLOAD DUP5 DUP3 SUB PUSH1 0x20 DUP7 ADD MSTORE PUSH2 0x2D42 DUP3 DUP3 PUSH2 0x269C JUMP JUMPDEST SWAP2 POP POP PUSH1 0x40 DUP4 ADD MLOAD DUP5 DUP3 SUB PUSH1 0x40 DUP7 ADD MSTORE PUSH2 0x2D5C DUP3 DUP3 PUSH2 0x269C JUMP JUMPDEST SWAP2 POP POP DUP1 SWAP2 POP POP SWAP3 SWAP2 POP POP JUMP JUMPDEST PUSH1 0x0 PUSH2 0x2D75 DUP4 DUP4 PUSH2 0x2D12 JUMP JUMPDEST SWAP1 POP SWAP3 SWAP2 POP POP JUMP JUMPDEST PUSH1 0x0 PUSH1 0x20 DUP3 ADD SWAP1 POP SWAP2 SWAP1 POP JUMP JUMPDEST PUSH1 0x0 PUSH2 0x2D95 DUP3 PUSH2 0x2CE6 JUMP JUMPDEST PUSH2 0x2D9F DUP2 DUP6 PUSH2 0x2CF1 JUMP JUMPDEST SWAP4 POP DUP4 PUSH1 0x20 DUP3 MUL DUP6 ADD PUSH2 0x2DB1 DUP6 PUSH2 0x2D02 JUMP JUMPDEST DUP1 PUSH1 0x0 JUMPDEST DUP6 DUP2 LT ISZERO PUSH2 0x2DED JUMPI DUP5 DUP5 SUB DUP10 MSTORE DUP2 MLOAD PUSH2 0x2DCE DUP6 DUP3 PUSH2 0x2D69 JUMP JUMPDEST SWAP5 POP PUSH2 0x2DD9 DUP4 PUSH2 0x2D7D JUMP JUMPDEST SWAP3 POP PUSH1 0x20 DUP11 ADD SWAP10 POP POP PUSH1 0x1 DUP2 ADD SWAP1 POP PUSH2 0x2DB5 JUMP JUMPDEST POP DUP3 SWAP8 POP DUP8 SWAP6 POP POP POP POP POP POP SWAP3 SWAP2 POP POP JUMP JUMPDEST PUSH1 0x0 PUSH1 0x20 DUP3 ADD SWAP1 POP DUP2 DUP2 SUB PUSH1 0x0 DUP4 ADD MSTORE PUSH2 0x2E19 DUP2 DUP5 PUSH2 0x2D8A JUMP JUMPDEST SWAP1 POP SWAP3 SWAP2 POP POP JUMP JUMPDEST PUSH32 0x4E487B7100000000000000000000000000000000000000000000000000000000 PUSH1 0x0 MSTORE PUSH1 0x22 PUSH1 0x4 MSTORE PUSH1 0x24 PUSH1 0x0 REVERT JUMPDEST PUSH1 0x0 PUSH1 0x2 DUP3 DIV SWAP1 POP PUSH1 0x1 DUP3 AND DUP1 PUSH2 0x2E68 JUMPI PUSH1 0x7F DUP3 AND SWAP2 POP JUMPDEST PUSH1 0x20 DUP3 LT DUP2 SUB PUSH2 0x2E7B JUMPI PUSH2 0x2E7A PUSH2 0x2E21 JUMP JUMPDEST JUMPDEST POP SWAP2 SWAP1 POP JUMP JUMPDEST PUSH1 0x0 DUP2 SWAP1 POP SWAP3 SWAP2 POP POP JUMP JUMPDEST PUSH1 0x0 PUSH2 0x2E97 DUP3 PUSH2 0x227A JUMP JUMPDEST PUSH2 0x2EA1 DUP2 DUP6 PUSH2 0x2E81 JUMP JUMPDEST SWAP4 POP PUSH2 0x2EB1 DUP2 DUP6 PUSH1 0x20 DUP7 ADD PUSH2 0x2296 JUMP JUMPDEST DUP1 DUP5 ADD SWAP2 POP POP SWAP3 SWAP2 POP POP JUMP JUMPDEST PUSH1 0x0 PUSH2 0x2EC9 DUP3 DUP5 PUSH2 0x2E8C JUMP JUMPDEST SWAP2 POP DUP2 SWAP1 POP SWAP3 SWAP2 POP POP JUMP JUMPDEST PUSH1 0x0 DUP2 SWAP1 POP DUP2 PUSH1 0x0 MSTORE PUSH1 0x20 PUSH1 0x0 KECCAK256 SWAP1 POP SWAP2 SWAP1 POP JUMP JUMPDEST PUSH1 0x0 PUSH1 0x20 PUSH1 0x1F DUP4 ADD DIV SWAP1 POP SWAP2 SWAP1 POP JUMP JUMPDEST PUSH1 0x0 DUP3 DUP3 SHL SWAP1 POP SWAP3 SWAP2 POP POP JUMP JUMPDEST PUSH1 0x0 PUSH1 0x8 DUP4 MUL PUSH2 0x2F36 PUSH32 0xFFFFFFFFFFFFFFFFFFFFFFFFFFFFFFFFFFFFFFFFFFFFFFFFFFFFFFFFFFFFFFFF DUP3 PUSH2 0x2EF9 JUMP JUMPDEST PUSH2 0x2F40 DUP7 DUP4 PUSH2 0x2EF9 JUMP JUMPDEST SWAP6 POP DUP1 NOT DUP5 AND SWAP4 POP DUP1 DUP7 AND DUP5 OR SWAP3 POP POP POP SWAP4 SWAP3 POP POP POP JUMP JUMPDEST PUSH1 0x0 DUP2 SWAP1 POP SWAP2 SWAP1 POP JUMP JUMPDEST PUSH1 0x0 PUSH2 0x2F7D PUSH2 0x2F78 PUSH2 0x2F73 DUP5 PUSH2 0x2217 JUMP JUMPDEST PUSH2 0x2F58 JUMP JUMPDEST PUSH2 0x2217 JUMP JUMPDEST SWAP1 POP SWAP2 SWAP1 POP JUMP JUMPDEST PUSH1 0x0 DUP2 SWAP1 POP SWAP2 SWAP1 POP JUMP JUMPDEST PUSH2 0x2F97 DUP4 PUSH2 0x2F62 JUMP JUMPDEST PUSH2 0x2FAB PUSH2 0x2FA3 DUP3 PUSH2 0x2F84 JUMP JUMPDEST DUP5 DUP5 SLOAD PUSH2 0x2F06 JUMP JUMPDEST DUP3 SSTORE POP POP POP POP JUMP JUMPDEST PUSH1 0x0 SWAP1 JUMP JUMPDEST PUSH2 0x2FC0 PUSH2 0x2FB3 JUMP JUMPDEST PUSH2 0x2FCB DUP2 DUP5 DUP5 PUSH2 0x2F8E JUMP JUMPDEST POP POP POP JUMP JUMPDEST JUMPDEST DUP2 DUP2 LT ISZERO PUSH2 0x2FEF JUMPI PUSH2 0x2FE4 PUSH1 0x0 DUP3 PUSH2 0x2FB8 JUMP JUMPDEST PUSH1 0x1 DUP2 ADD SWAP1 POP PUSH2 0x2FD1 JUMP JUMPDEST POP POP JUMP JUMPDEST PUSH1 0x1F DUP3 GT ISZERO PUSH2 0x3034 JUMPI PUSH2 0x3005 DUP2 PUSH2 0x2ED4 JUMP JUMPDEST PUSH2 0x300E DUP5 PUSH2 0x2EE9 JUMP JUMPDEST DUP2 ADD PUSH1 0x20 DUP6 LT ISZERO PUSH2 0x301D JUMPI DUP2 SWAP1 POP JUMPDEST PUSH2 0x3031 PUSH2 0x3029 DUP6 PUSH2 0x2EE9 JUMP JUMPDEST DUP4 ADD DUP3 PUSH2 0x2FD0 JUMP JUMPDEST POP POP JUMPDEST POP POP POP JUMP JUMPDEST PUSH1 0x0 DUP3 DUP3 SHR SWAP1 POP SWAP3 SWAP2 POP POP JUMP JUMPDEST PUSH1 0x0 PUSH2 0x3057 PUSH1 0x0 NOT DUP5 PUSH1 0x8 MUL PUSH2 0x3039 JUMP JUMPDEST NOT DUP1 DUP4 AND SWAP2 POP POP SWAP3 SWAP2 POP POP JUMP JUMPDEST PUSH1 0x0 PUSH2 0x3070 DUP4 DUP4 PUSH2 0x3046 JUMP JUMPDEST SWAP2 POP DUP3 PUSH1 0x2 MUL DUP3 OR SWAP1 POP SWAP3 SWAP2 POP POP JUMP JUMPDEST PUSH2 0x3089 DUP3 PUSH2 0x227A JUMP JUMPDEST PUSH8 0xFFFFFFFFFFFFFFFF DUP2 GT ISZERO PUSH2 0x30A2 JUMPI PUSH2 0x30A1 PUSH2 0x23FF JUMP JUMPDEST JUMPDEST PUSH2 0x30AC DUP3 SLOAD PUSH2 0x2E50 JUMP JUMPDEST PUSH2 0x30B7 DUP3 DUP3 DUP6 PUSH2 0x2FF3 JUMP JUMPDEST PUSH1 0x0 PUSH1 0x20 SWAP1 POP PUSH1 0x1F DUP4 GT PUSH1 0x1 DUP2 EQ PUSH2 0x30EA JUMPI PUSH1 0x0 DUP5 ISZERO PUSH2 0x30D8 JUMPI DUP3 DUP8 ADD MLOAD SWAP1 POP JUMPDEST PUSH2 0x30E2 DUP6 DUP3 PUSH2 0x3064 JUMP JUMPDEST DUP7 SSTORE POP PUSH2 0x314A JUMP JUMPDEST PUSH1 0x1F NOT DUP5 AND PUSH2 0x30F8 DUP7 PUSH2 0x2ED4 JUMP JUMPDEST PUSH1 0x0 JUMPDEST DUP3 DUP2 LT ISZERO PUSH2 0x3120 JUMPI DUP5 DUP10 ADD MLOAD DUP3 SSTORE PUSH1 0x1 DUP3 ADD SWAP2 POP PUSH1 0x20 DUP6 ADD SWAP5 POP PUSH1 0x20 DUP2 ADD SWAP1 POP PUSH2 0x30FB JUMP JUMPDEST DUP7 DUP4 LT ISZERO PUSH2 0x313D JUMPI DUP5 DUP10 ADD MLOAD PUSH2 0x3139 PUSH1 0x1F DUP10 AND DUP3 PUSH2 0x3046 JUMP JUMPDEST DUP4 SSTORE POP JUMPDEST PUSH1 0x1 PUSH1 0x2 DUP9 MUL ADD DUP9 SSTORE POP POP POP JUMPDEST POP POP POP POP POP POP JUMP JUMPDEST PUSH1 0x0 DUP2 SLOAD SWAP1 POP PUSH2 0x3161 DUP2 PUSH2 0x2E50 JUMP JUMPDEST SWAP1 POP SWAP2 SWAP1 POP JUMP JUMPDEST DUP2 DUP2 SUB PUSH2 0x3176 JUMPI POP POP PUSH2 0x324E JUMP JUMPDEST PUSH2 0x317F DUP3 PUSH2 0x3152 JUMP JUMPDEST PUSH8 0xFFFFFFFFFFFFFFFF DUP2 GT ISZERO PUSH2 0x3198 JUMPI PUSH2 0x3197 PUSH2 0x23FF JUMP JUMPDEST JUMPDEST PUSH2 0x31A2 DUP3 SLOAD PUSH2 0x2E50 JUMP JUMPDEST PUSH2 0x31AD DUP3 DUP3 DUP6 PUSH2 0x2FF3 JUMP JUMPDEST PUSH1 0x0 PUSH1 0x1F DUP4 GT PUSH1 0x1 DUP2 EQ PUSH2 0x31DC JUMPI PUSH1 0x0 DUP5 ISZERO PUSH2 0x31CA JUMPI DUP3 DUP8 ADD SLOAD SWAP1 POP JUMPDEST PUSH2 0x31D4 DUP6 DUP3 PUSH2 0x3064 JUMP JUMPDEST DUP7 SSTORE POP PUSH2 0x3247 JUMP JUMPDEST PUSH1 0x1F NOT DUP5 AND PUSH2 0x31EA DUP8 PUSH2 0x2ED4 JUMP JUMPDEST SWAP7 POP PUSH2 0x31F5 DUP7 PUSH2 0x2ED4 JUMP JUMPDEST PUSH1 0x0 JUMPDEST DUP3 DUP2 LT ISZERO PUSH2 0x321D JUMPI DUP5 DUP10 ADD SLOAD DUP3 SSTORE PUSH1 0x1 DUP3 ADD SWAP2 POP PUSH1 0x1 DUP6 ADD SWAP5 POP PUSH1 0x20 DUP2 ADD SWAP1 POP PUSH2 0x31F8 JUMP JUMPDEST DUP7 DUP4 LT ISZERO PUSH2 0x323A JUMPI DUP5 DUP10 ADD SLOAD PUSH2 0x3236 PUSH1 0x1F DUP10 AND DUP3 PUSH2 0x3046 JUMP JUMPDEST DUP4 SSTORE POP JUMPDEST PUSH1 0x1 PUSH1 0x2 DUP9 MUL ADD DUP9 SSTORE POP POP POP JUMPDEST POP POP POP POP POP POP JUMPDEST JUMP JUMPDEST PUSH32 0x4E487B7100000000000000000000000000000000000000000000000000000000 PUSH1 0x0 MSTORE PUSH1 0x11 PUSH1 0x4 MSTORE PUSH1 0x24 PUSH1 0x0 REVERT JUMPDEST PUSH1 0x0 PUSH2 0x328A DUP3 PUSH2 0x2217 JUMP JUMPDEST SWAP2 POP PUSH32 0xFFFFFFFFFFFFFFFFFFFFFFFFFFFFFFFFFFFFFFFFFFFFFFFFFFFFFFFFFFFFFFFF DUP3 SUB PUSH2 0x32BC JUMPI PUSH2 0x32BB PUSH2 0x3250 JUMP JUMPDEST JUMPDEST PUSH1 0x1 DUP3 ADD SWAP1 POP SWAP2 SWAP1 POP JUMP INVALID LOG2 PUSH5 0x6970667358 0x22 SLT KECCAK256 EXTCODECOPY DIV SWAP11 SWAP6 0xBE XOR OR 0xDC SLOAD 0xAF LOG2 0xEB 0xCB 0xF9 LOG0 PUSH26 0xD499E8FF8F3B124A9B41DA1C6B49DD9164736F6C634300081300 CALLER "},"gasEstimates":{"creation":{"codeDepositCost":"2610600","executionCost":"infinite","totalCost":"infinite"},"external":{"approvalMap(string)":"infinite","authCreator()":"2558","authMember()":"2675","createRole(string,string)":"infinite","createTransaction(string,string,uint256,string,string,string,string)":"infinite","createUser(string,address,string)":"infinite","creator()":"2535","listRoles()":"infinite","listTransaction()":"infinite","listUsers()":"infinite","roleList(uint256)":"infinite","roleMap(string)":"infinite","transaction()":"2603","transactionList(uint256)":"infinite","transactionMap(string)":"infinite","updateLocation(string,string,string)":"infinite","userList(uint256)":"4979","userMap(address)":"infinite","verifyItem(string,string,string)":"infinite","writeOff(string,string,string)":"infinite"}},"methodIdentifiers":{"approvalMap(string)":"a848bf8b","authCreator()":"2cddaa86","authMember()":"89d7c784","createRole(string,string)":"d2192dbf","createTransaction(string,string,uint256,string,string,string,string)":"8bfad1fa","createUser(string,address,string)":"b17e8964","creator()":"02d05d3f","listRoles()":"f59badad","listTransaction()":"220fd618","listUsers()":"8ad257b7","roleList(uint256)":"f4558ef9","roleMap(string)":"0f44f0b8","transaction()":"c99de57e","transactionList(uint256)":"04ef5b21","transactionMap(string)":"ccc590f2","updateLocation(string,string,string)":"05d4a7f5","userList(uint256)":"9f4216e8","userMap(address)":"2bcc23f8","verifyItem(string,string,string)":"d0e0a52f","writeOff(string,string,string)":"f5ca6e9c"}}}